:020000040000FA
:10000000021795120076022219223202000AAD0769
:10001000AC06E4FBFAC3EB9DEA9C500E7FE87E033E
:10002000121FAB0BBB00010A80EB22021C6CE4F533
:10003000A7EFFD7C00640170067597027597FFEDD0
:100040004C70067597DE7597AD222202004EC2EB0A
:01005000327D
:1000530002160B438E04438E025389FB438901E44A
:0F006300F58AF58CC2A943B80243F202C28C227F
:1000730002207A9002C9E5A7F0E4F5A75391FB5358
:06008300E67FE0F5A72274
:10008B00021F2BC2EDD2ECD2EF9002547401F0227E
:10009B000221FE900023E075F011A4243BF582E4CD
:1000AB003400F583E0FBFD7C002404FEEC3390026E
:1000BB0070F0A3CEF0EB1313543FFFC3ED9FFEEC98
:1000CB009400A3F0A3CEF0120D8190008DE0FEA35F
:1000DB00E0248EF58274003EF583E4F090026CF020
:1000EB00A3F090008DE0FEA3E0FFC390026DE09FB4
:1000FB0090026CE09E40030203F5900023E075F044
:10010B000CA42459F582E43400F583C083C082E04B
:10011B00F8A3E0F9A3E0FAA3E0FB90026CE0FEA3E6
:10012B00E0248FF58274003EF583E0FFE4FCFDFED6
:10013B00EB2FFFEE3AFEED39FDEC38FCD082D0838D
:10014B001214E990026CE0FEA3E0FF248FF5827499
:10015B00003EF583E0F9FDC3900271E09D900270C3
:10016B00E094005033900070E0702D04F090007319
:10017B00E9F07C007D2312145B900081E02FFF904F
:10018B000080E03E900075F0A3EFF0E4A3F0A3F045
:10019B00A3F0900071F0A3F0900079E01313543F9B
:1001AB00FF900273E02FFF900272E03400FE90028A
:1001BB006CE0FCA3E0FD248FF58274003CF583E03A
:1001CB00C39FE49E4003020365900070E0640160EE
:1001DB0003020365F0900079E0940C7480948040E6
:1001EB0023D3900078E09478900077E0940040144B
:1001FB00900023E075F00CA42457F582E43400F54D
:10020B0083E004F0748F2DF58274003CF583E0904D
:10021B000074F0900023E075F011A4243AF582E409
:10022B003400F583E0F97065900074E0FF7E009078
:10023B000077E0FCA3E0FD900081E02DFD900080B5
:10024B00E03CCD2FFFEE3DFE900023E0FD75F0115D
:10025B00A42438F582E43400F583EEF0A3EFF0ED3F
:10026B0075F011A42438F582E43400F583E0FFA384
:10027B00E090001CCFF0A3EFF0ED75F011A4243A41
:10028B00F582E43400F583E004F00203E19000749E
:10029B00E0FF900073E02FFFE433FE900078E02F37
:1002AB00FF900077E03E90026EF0A3EFF0E9C3946D
:1002BB000A748094804003020365900075E0FEA3EE
:1002CB00E0FF90026EE0FCA3E0FD900079E0FB12F2
:1002DB001C07EFF47003020365900023E0FE75F03A
:1002EB0011A4243AF582E43400F583E0FDEE75F0B9
:1002FB0011A4243CF582E43400F583E5822DF582CC
:10030B00E43583F583EFF0900023E075F011A4241E
:10031B003AF582E43400F583E06401702990026EB3
:10032B00E0FFA3E090001ECFF0A3EFF0900079E088
:10033B00900020F09001D0E02403F582E43402F524
:10034B0083E0900021F0900023E075F011A4243A93
:10035B00F582E43400F583E004F0900070E0640172
:10036B007074900078E02423F0900077E03400F074
:10037B0090026CE0FEA3E0248FF58274003EF583BF
:10038B00E0FF900079E0C39F5002EFF0900270E025
:10039B00FEA3E0FFC39418EE9400503AEF25E0FF64
:1003AB00EE33FE900079E0C39FE49E5029C390008A
:1003BB0078E09430900077E09402501A900071E44A
:1003CB0075F0011214C2FEC3E5F09410EE940040D8
:1003DB0005E4900070F090026DE004F06003020001
:1003EB00ED90026CE004F00200ED900023E075F05C
:1003FB0011A42435F582E43400F5837401F022E472
:10040B00F9900022E0640160030204D6F0FAFB903D
:10041B000023E0FF75F011A4243AF582E43400F5D3
:10042B0083E0FEEBC39E502DEF75F011A4243CF539
:10043B0082E43400F583E5822BF582E43583F58382
:10044B00E0FFF4600D742B2AF582E43400F583EFA2
:10045B00F00A0B80BA900029EAF0900023E075F0C7
:10046B0011A42438F582E43400F583E0FFA3E09077
:10047B000027CFF0A3EFF09001D0E0FF24F0F5823E
:10048B00E43401F583E060030206E4900029E060A8
:10049B00030206E4EF25E02409F582E43402F58338
:1004AB00E0FEA3E02478FFE43EFE900023E075F02D
:1004BB0011A42438F582E43400F583E0FCA3E0C3F7
:1004CB009FEC9E40030206E40206DF900023E075DA
:1004DB00F011A42438F582E43400F583E0FEA3E0A8
:1004EB00FF900027E0FCA3E0FDD3EF9DEE9C900076
:1004FB0023E075F0114015A42438F582E43400F59F
:10050B0083E0FEA3E0C39DFFEE9C8015A42438F589
:10051B0082E43400F583E0FEA3E0FFC3ED9FFFEC24
:10052B009E90026CF0A3EFF090026CE0FEA3E0C390
:10053B009478EE9400502E9001D0E02415F582E4CF
:10054B003402F583E4F0900023E075F011A4243815
:10055B00F582E43400F583E0FFA3E0900027CFF0B1
:10056B00A3EFF080319001D0E0FF2403F582E43457
:10057B0002F583E090002BF0900029E0C3940A74FD
:10058B008094805003E004F074152FF582E434025C
:10059B00F5837401F022E4FBEBC3940A748094801E
:1005AB00502C900023E075F011A4243CF582E43428
:1005BB0000F583E5822BF582E43583F583E0FF7448
:1005CB00792BF582E43402F583EFF00B80CAE4F962
:1005DB00FB900029E0FFEBC39F400302068DE4FA7A
:1005EB00900023E075F011A4243AF582E43400F571
:1005FB0083E0FFEAC39F400302068974792AF582E0
:10060B00E43402F583E0FFF46070742B2BF582E485
:10061B003400F583E0FED39F401074792AF582E411
:10062B003402F583E0FFC3EE8018742B2BF582E4C4
:10063B003400F583E0FF74792AF582E43402F58304
:10064B00E0C39F90026EF090026EE0C3940874803A
:10065B009480502674792AF582E43402F583E0FF06
:10066B00746F29F582E43402F583EFF074792AF57F
:10067B0082E43402F58374FFF0090A0205EB0B02E6
:10068B0005DCE4FBEBC399501B746F2BF582E43450
:10069B0002F583E0FF742B2BF582E43400F583EF36
:1006AB00F00B80E0AF01900029EFF0702C9001D09F
:1006BB00E025E02409F582E43402F583E0FEA3E0B3
:1006CB00242CFFEE3401FE900027E0FCA3E0C39F37
:1006DB00EC9E5005E49001D3F0229001CF7401F011
:1006EB00E4A3F0A3F09001D3F0A3F0A3F09001D01A
:1006FB00E0240FF582E43400F583E4F090001BF066
:10070B00FBFA74152BF58274003AF583E4F00BBBFE
:10071B0000010AEB64064A70E9E4900080F0A3F054
:10072B00A3F0FAFB74832BF58274003AF583E4F0A3
:10073B000BBB00010AEB640A4A70E9E490008DF0F0
:10074B00A3F0FAFB748F2BF58274003AF583E4F077
:10075B000BBB00010ABA01ECBB40E9E490006FF05F
:10076B00A3F0A3F0A3F0A3F0A3F0A3F0A3F0A3F0E6
:10077B00A3F0A3F0900022F0A3F0A3F0A3F0A3F05A
:10078B00A3F0A3F0A3F0A3F0FAFB742B2BF5827468
:10079B00003AF583E4F00BBB00010AEB640A4A70E4
:1007AB00E9E4FAFB90003575F011EB121526EA75AA
:1007BB00F011A42583F583E4F090003675F011EB6E
:1007CB00121526EA75F011A42583F583E4F0A3F046
:1007DB0090003875F011EB121526EA75F011A4256F
:1007EB0083F583E4F0A3F090003A75F011EB12154A
:1007FB0026EA75F011A42583F583E4F090003B7590
:10080B00F011EB121526EA75F011A42583F583E49C
:10081B00F090026CF0A3F090026CE0FEA3E0FFC33B
:10082B00940AEE9400502F90003C75F011EB1215CA
:10083B0026EA75F011A42583F583E5822FF582E571
:10084B00833EF583E4F090026DE004F070069002B5
:10085B006CE004F080C190005775F00CEB1215267C
:10086B00EA75F00CA42583F583E4F090005875F03D
:10087B000CEB121526EA75F00CA42583F583E4F036
:10088B0090005975F00CEB121526EA75F00CA425A7
:10089B0083F5831214F50000000090005D75F00CD9
:1008AB00EB121526EA75F00CA42583F5831214F5CB
:1008BB000000000090006175F00CEB121526EA7534
:1008CB00F00CA42583F583E4F090006275F00CEB3B
:1008DB00121526EA75F00CA42583F583E4F00BBB07
:1008EB0000010AEB64024A60030207AFE4900202C4
:1008FB00F0FAFB74F02BF58274013AF583E4F0EB1C
:10090B0025E0FFEA33FE74F62FF58274013EF58382
:10091B00E4F0A3F074092FF58274023EF58374FFA3
:10092B00F0A3F074152BF58274023AF583E4F0749E
:10093B00032BF58274023AF58374FFF00BBB0001B5
:10094B000AEB64064A70ACE490001CF0A3F0A3F031
:10095B00A3F0A3F0A3F0229001CFE0B40800400372
:10096B00020B72900975F828287302098D0209B0E1
:10097B000209C70209E00209FC020A36020A540204
:10098B000B1A1215329001D1E064016003020B784F
:10099B00F0121CD0E49001D5F09001D37402F090CA
:1009AB0001CF14F0229001D5E0D394007480948091
:1009BB004003020A439001CF7402F0229001D474D9
:1009CB0002F01220FF121B94122017122223900107
:1009DB00CF7403F0229001D4E0D394007480948000
:1009EB0040028054120003120B799001CF7404F073
:1009FB00221220FF121824121A2F12201712222350
:100A0B009001D4740AF09001D6E0FEA3E0FF9000B1
:100A1B0023E075F011A42436F582E43400F583EE5F
:100A2B00F0A3EFF09001CF7405F0229001D4E0D346
:100A3B009400748094804004E014F022120003129E
:100A4B00009E9001CF7406F022120F65900023E0F8
:100A5B00FF75F00CA42462F582E43400F583E064A6
:100A6B00037003020AF2EF75F00CA42457F582E42D
:100A7B003400F583E0C39416748094805069900021
:100A8B0023E075F00CA42458F582E43400F583E0E0
:100A9B00C3940374809480504EEF75F00CA42459CA
:100AAB00F582E43400F583E0FCA3E0FDA3E0FEA3B4
:100ABB00E0FFE47BB47A53F9F8D31214D8402890B2
:100ACB000023E075F00CA4245DF582E43400F5837B
:100ADB00E0FCA3E0FDA3E0FEA3E0FFE47B297A0B9F
:100AEB00F8D31214D8501EE49001D3F01218B19021
:100AFB000023E075F00CA42461F582E43400F58347
:100B0B007401F0800312040A9001CF7407F02212D3
:100B1B0016D59002BAE0640170069001D3E004F0A0
:100B2B009001D3E0D3940074809480402BE014F0B8
:100B3B009001D6E0FEA3E0FF7C007D0612146D74DD
:100B4B007A2DF58274003CF583E09001D5F090008E
:100B5B0023E0045401F0800F1211339001D874017B
:100B6B00F0E49001CFF0229001CF7401F0229000BD
:100B7B008DE0FEA3E02490F974003EFA90027674A7
:100B8B0001F0A3EAF0A3E9F0A37432F07B017A0041
:100B9B00798F121EE890008DA3E02403F9FFE9245E
:100BAB0030FDE433FCEFC39DEC6480F87480985007
:100BBB0054AE07E92430FDE433FCEEC39DEC6480B6
:100BCB00F8748098503C748F2EF582E43400F583D2
:100BDB00E0FD748F2FF582E43400F583E0FCD39DA8
:100BEB00401D90026CECF0748F2FF582E43400F50D
:100BFB0083EDF0748F2EF582E43400F583ECF00E68
:100C0B0080B10F8099E490026DF0A3F0A3F0A3F0F4
:100C1B00A3F0A3F0AF01E92410FDE433FCEFC39D77
:100C2B00EC6480F8748098504E748F2FF582E43406
:100C3B0000F583E0FD90026EE02DF090026DE03444
:100C4B0000F0749F2FF582E43400F583E0FD9002F1
:100C5B0070E02DF090026FE03400F074AF2FF5824E
:100C6B00E43400F583E0FD900272E02DF090027108
:100C7B00E03400F00F809F90026DE0C4F854F0C890
:100C8B0068F0A3E0C4540F48F0A3E0C4F854F0C8D4
:100C9B0068F0A3E0C4540F48F0A3E0C4F854F0C8C4
:100CAB0068FEA3E0C4540F48FF900271EEF0A3EF6F
:100CBB00F090026FE0FCA3E0FDC3EF9DFFEE9CFE06
:100CCB00EF7802CEC313CE13D8F92DFF90006FF03F
:100CDB007E00C3944674809480400574FFF0802599
:100CEB00D3EF9406EE64809480401A90006FE0245A
:100CFB00FA90026CF0E01313543FF0F5F0A4FF9060
:100D0B00006FE02FF090006FE0FF7E00D3948074B3
:100D1B0080948040197480F0900023E075F00CA44F
:100D2B002462F582E43400F5837403F0802DD3EF55
:100D3B00941EEE64809480900023E075F00C400FBD
:100D4B00A42462F582E43400F5837401F0800CA4D2
:100D5B002462F582E43400F583E4F090006FE0FF49
:100D6B00900023E075F011A4243BF582E43400F5E8
:100D7B0083EFF00212C3E4FBFA900274F0A3F0A32A
:100D8B00F0A3F0FFA3F0A3F0D390008EE09B9000B4
:100D9B008DE09A4038748F2BF58274003AF583E01E
:100DAB006024FF900274EAF0FCA3EBF0D39408EC00
:100DBB00940040199001D0E0240FF582E43400F543
:100DCB0083E004F080070BBB00010A80BBE4FAFB55
:100DDB00D3900275E09B900274E09A4013748F2BB2
:100DEB00F58274003AF583EFF00BBB00010A80E04B
:100DFB007A007B0190008EE024FFFF90008DE034A1
:100E0B00FFFEC3EB9FEA9E502C748F2BF582740070
:100E1B003AF583E07018748E2BF58274003AF583E3
:100E2B00E0FF748F2BF58274003AF583EFF00BBB68
:100E3B0000010A80BF7A007B0590008EE024FEFF44
:100E4B0090008DE034FFFEC3EB9FEA9E4003020F40
:100E5B0064748F2BF58274003AF583E0F92420FF3C
:100E6B00E433FE74902BF58274003AF583E0D39F44
:100E7B00EE6480F87480985003020F5CE92430FF15
:100E8B00E433FE74912BF58274003AF583E0D39F23
:100E9B00EE6480F87480985003020F5CEB2401FE23
:100EAB00E43A900274F0A3CEF0EB2408FFE43AFE90
:100EBB00900274E0FCA3E0FDC39FEC9E4003020F85
:100ECB005C748F2BF58274003AF583E02408FFE401
:100EDB0033FE748F2DF58274003CF583E0C39FEED7
:100EEB006480F87480985058900023E075F00CA43F
:100EFB002457F582E43400F583E004F0900276EA9F
:100F0B00F0A3EBF0900274E0FEA3E0FFA3E0FCA3E0
:100F1B00E0FDC39FEC9E5039748E2BF58274003A22
:100F2B00F583E0FF748F2DF58274003CF583EFF0B1
:100F3B00900277E004F07006900276E004F080C433
:100F4B00900275E004F07006900274E004F0020E5B
:100F5B00B40BBB00010A020E44229001D0E0FF2427
:100F6B00F0F582E43401F583E0FED39400748094B1
:100F7B008050030210BD900023E075F011A42438BB
:100F8B00F582E43400F583E0FCA3E0FDD394F4ECAC
:100F9B009401406AED9428EC940A50629001D0E0E1
:100FAB00FD24F0F582E43401F583EEC313F09000D9
:100FBB0023E075F011A42438F582E43400F583E0C6
:100FCB00FAA3E0FBED25E02409F582E43402F58376
:100FDB00EAF0A3EBF0740F2FF582E43400F583E015
:100FEB00D3940074809480500302107B9001D0E066
:100FFB00240FF582E43400F583E014F08072900046
:10100B0023E075F011A42438F582E43400F583E075
:10101B00FEA3E0FFC39428EE940A402FEF9450EE0A
:10102B00944650279001D0E0FF24F0F582E4340180
:10103B00F583E0C313F0EF25E02409F582E43402D5
:10104B00F583740AF0A37428F080259001D0E0FF9B
:10105B00240FF582E43400F583E0C3940874809484
:10106B0080500D740F2FF582E43400F583E004F00B
:10107B009001D0E025E02409F582E43402F583E009
:10108B00FEA3E0FFC39414EE94054003021130EF6E
:10109B0094F4EE940150030211309001D0E025E05E
:1010AB002409F582E43402F583740AF0A37428F062
:1010BB008073900023E075F011A42438F582E4349A
:1010CB0000F583E0FEA3E0FFD39450EE9446500965
:1010DB00C3EF94F4EE940150279001D0E0FF240F5E
:1010EB00F582E43400F583E0C39408748094805057
:1010FB0034740F2FF582E43400F583E004F080257F
:10110B009001D0E0FF240FF582E43400F583E0D3A7
:10111B00940074809480400D740F2FF582E434009A
:10112B00F583E014F0021DCB7EFFE4FD900029E077
:10113B00FCEDC39C502E9001D0E02443F582E434A7
:10114B0002F583E0FC742B2DF582E43400F583E08B
:10115B00D39C400D742B2DF582E43400F58374FF82
:10116B00F00D80C8E4FD900029E0FCEDC39C501607
:10117B00742B2DF582E43400F583E0FCEED39C4018
:10118B0002AE040D80E0EEFB7A00C39419748094D8
:10119B0080502FEB94147480948040051E1E1E808B
:1011AB0021EB64064A601BEB64054A6015EB640295
:1011BB004A600F9001D0E02403F582E43402F583FA
:1011CB00E0FEEED394967480948040299001D0E099
:1011DB00FC25E024F6F582E43401F583E0FAA3E084
:1011EB004A600302127574032CF582E43402F58312
:1011FB0074FFF08075EEFBC3942874809480503F8D
:10120B00C3EB9419748094809001D0E0500E2403AA
:10121B00F582E43402F5837402F0800B2403F5822B
:10122B00E43402F583EEF09001D0E025E024F6F5EE
:10123B0082E43401F5837403F0A37420F0802BEE69
:10124B00C39464748094809001D0E0FC2403F582F5
:10125B00E43402F583EEF0EC25E024F6F582E43479
:10126B0001F5837401F0A374F4F07EFFE4FDEDC38C
:10127B00940674809480501674032DF582E4340226
:10128B00F583E0FCEED39C4002AE040D80E09002AF
:10129B0002E0FDEED39D400EEE9DD3940774809437
:1012AB00804014EEF022900202E0C39ED3940574AA
:1012BB008094804002EEF022E4900273F0A3F09051
:1012CB00008DE0FEA3E0248EF58274003EF583E4EE
:1012DB00F0900273F0A3F090008DE0FEA3E0FFC34B
:1012EB00900274E09F900273E09E400302140B90F7
:1012FB000023E075F00CA4245DF582E43400F58343
:10130B00C083C082E0F8A3E0F9A3E0FAA3E0FB906E
:10131B000273E0FEA3E0248FF58274003EF583E0B8
:10132B00FFE4FCFDFEEB2FFFEE3AFEED39FDEC3852
:10133B00FCD082D0831214E990006FE02404FFE408
:10134B0033FE900273E0FCA3E0248FF58274003C23
:10135B00F583E0FDD39FEE6480F874809840159080
:10136B000070E0705504F0E4900079F0900077F095
:10137B00A3F08046900079E01313543FFFEDC39F19
:10138B005038900070E064017030F0900079E09478
:10139B000C748094804023D3900078E09478900074
:1013AB0077E094004014900023E075F00CA42458CF
:1013BB00F582E43400F583E004F0900070E0640102
:1013CB00702A900078E02423F0900077E03400F04E
:1013DB00900273E0FEA3E0248FF58274003EF58348
:1013EB00E0FF900079E0C39F5002EFF0900274E0B1
:1013FB0004F060030212E2900273E004F00212E2C6
:10140B0022BB010CE58229F582E5833AF583E022C4
:10141B005006E92582F8E622BBFE06E92582F8E2B2
:10142B0022E58229F582E5833AF583E49322F8BB22
:10143B00010DE58229F582E5833AF583E8F0225028
:10144B0006E92582C8F622BBFE05E92582C8F222F1
:10145B00EF8DF0A4A8F0CF8CF0A428CE8DF0A42EA5
:10146B00FE22BC000BBE0029EF8DF084FFADF022F5
:10147B00E4CCF875F008EF2FFFEE33FEEC33FCEE07
:10148B009DEC984005FCEE9DFE0FD5F0E9E4CEFDFA
:10149B0022EDF8F5F0EE8420D21CFEADF075F008CD
:1014AB00EF2FFFED33FD4007985006D5F0F222C326
:1014BB0098FD0FD5F0EA22C5F0F8A3E028F0C5F0AF
:1014CB00F8E582158270021583E038F022EB9FF568
:1014DB00F0EA9E42F0E99D42F0E89C45F022ECF0E8
:1014EB00A3EDF0A3EEF0A3EFF022A8828583F0D05A
:1014FB0083D08212150C12150C12150C12150CE45C
:10150B0073E493A3C583C5F0C583C8C582C8F0A394
:10151B00C583C5F0C583C8C582C822A42582F582C0
:10152B00E5F03583F58322900262E0700302160A20
:10153B009002BAE0640170069001D104F02290028F
:10154B0088E024FD60191460331470030215F9242C
:10155B0003600302160A121F6C1219B10216041251
:10156B002151E49001D8F09001D104F0900284E471
:10157B00F0A37482F09002887404F022D390028559
:10158B00E09400900284E09400401A9001D8E0604F
:10159B0005E4FF121FE3900285E024FFF090028424
:1015AB00E034FFF0229001D0E0248DF582E4340288
:1015BB00F583E004F0C3940A74809480402B90016F
:1015CB00D0E0FF248DF582E43402F583740AF074C5
:1015DB00152FF582E43400F5837401F074032FF5B5
:1015EB0082E43402F58374FFF0E4FF021FE3121D63
:1015FB00801219B17F01121FE39002887403F0224D
:10160B00C0E0C083C082C0D075D000C004C00790BA
:10161B000082E0FFC3940774809480501674832F6C
:10162B00F582E43400F583E5BDF0900082E004F030
:10163B000216C490026AE4F0A374FFF0900082E0FB
:10164B002483F582E43400F583E5BDF0900082E459
:10165B00F0900269F0900269E0FFC39408748094E3
:10166B0080503874832FF582E43400F583E0FF90CB
:10167B00026AE0C39F5002EFF090026BE0D39F40F1
:10168B0012900269E02483F582E43400F583E09044
:10169B00026BF0900269E004F080BA90026BE0FFFD
:1016AB0090026AE0C39FFF90008DE0FCA3E0248FC3
:1016BB00F58274003CF583EFF0C2EDD2ECD007D08D
:1016CB0004D0D0D082D083D0E032900023E075F0EC
:1016DB000CA42461F582E43400F583E0640170030B
:1016EB00021794900027E0FEA3E0FFF47002EEF4E3
:1016FB0070030217949001D0E0FD2415F582E434B9
:10170B0002F583E06003021794ED25E02409F582CE
:10171B00E43402F583E0FCA3E0FDD3EF9DEE9C40A7
:10172B0068900027A3E09DFDEE9CFCD3ED942CEC80
:10173B0094014055D3EF94B8EE940B401490002BCA
:10174B007406F0900029E0940A74809480503A80DB
:10175B0035D3ED9490EC9401401490002B7406F06B
:10176B00900029E0940A74809480501D8018900199
:10177B00D0E02403F582E43402F583E090002BF0F3
:10178B00900029E07003E004F022120009787FE456
:10179B00F6D8FD7581070217DF021931E493A3F820
:1017AB00E493A34003F68001F208DFF48029E4936D
:1017BB00A3F85407240CC8C333C4540F4420C88364
:1017CB004004F456800146F6DFE4800B0102040866
:1017DB0010204080901AA8E47E019360BCA3FF54B4
:1017EB003F30E509541FFEE493A360010ECF54C0B4
:1017FB0025E060A840B8E493A3FAE493A3F8E4933C
:10180B00A3C8C582C8CAC583CAF0A3C8C582C8CA43
:10181B00C583CADFE9DEE780BE900023E0FF75F0E9
:10182B0011A42435F582E43400F583E4F0EF75F070
:10183B0011A42436F582E43400F583E4F0A3F0EF31
:10184B0075F011A42438F582E43400F58374FFF0AD
:10185B00A3F0EF75F011A4243AF582E43400F5837C
:10186B00E4F090002174FFF0E4900020F090001E53
:10187B00F0A3F090001CF0A3F0FFEFC3940A748068
:10188B0094805021900023E075F011A4243CF58244
:10189B00E43400F583E5822FF582E43583F5837418
:1018AB00FFF00F80D522E4900022F09001D0E0FFF2
:1018BB002415F582E43402F583E4F0900023E075FF
:1018CB00F011A4243AF582E43400F5837401F0EFAF
:1018DB0025E024F6F582E43401F5837403F0A37458
:1018EB0020F09001D0E025E02409F582E43402F5E4
:1018FB0083E0FFA3E0900027CFF0A3EFF090001B55
:10190B007401F090002B74FFF07F01EFC3940A7405
:10191B008094805010742B2FF582E43400F583747F
:10192B00FFF00F80E6221221C212219F7F011200CD
:10193B002E1220D41220A9120056121E5F121D2B3C
:10194B001222387FC87E0012000E7F2C7E011200FF
:10195B000E9001CF7401F09002BEE07002A3E06024
:10196B001E9002C0E060F0E4F01209629002BFE04A
:10197B0024FFF09002BEE034FFF07597A580D8E409
:10198B009002BAF0121EA59002887402F09002C069
:10199B00E0600E900262E06008E49002C0F0120971
:1019AB00627597A580E7E4FFFDFC90026D04F09053
:1019BB00026DE0FEC3940674809480502974A42EAB
:1019CB00F582E43402F583E02DFDE43CFCD3ED9489
:1019DB00FFEC9400400874012DFD74FF3CFC900259
:1019EB006DE004F080C9D3ED94FFEC94005005C377
:1019FB0074FF9DFF9002AAEFF0E490026DF090024D
:101A0B006DE0FFC3940874809480501774A42FF575
:101A1B0082E43402F583E0FF12204A90026DE00469
:101A2B00F080DB2212223B90026C7414F090026C5B
:101A3B00E0D39400748094804054C2927F067E0061
:101A4B00121FAB00000000000000000000000000AF
:101A5B00000000000000000000000000000000007B
:101A6B00000000D2927F067E00121FAB0000000028
:101A7B00000000000000000000000000000000005B
:101A8B0000000000000090026CE014F0809FC292F6
:101A9B009000807401F0A37454F00222384102C903
:101AAB000046007A0102040703004602438C8C8C2B
:101ABB008C8C006028021B019001900190015E004C
:101ACB00C800C800B400B400B4009600960096009D
:101ADB00C800C800C800C800C800C800C800C85467
:101AEB0001DC373737372422201C18141313131338
:101AFB002D2D2D2D2D2D4402AE000000004102ACEA
:101B0B00004102AD004102C70048029CF0030409EA
:101B1B002828E0FA00E4FBEBC39403748094805014
:101B2B006774032BF582E43402F583E0FF7E00D368
:101B3B00941E74809480500F74952BF582E43402BC
:101B4B00F5837403F0803ED3EF9496EE648094801B
:101B5B00502674032BF582E43402F583E02405FF51
:101B6B00E433FE7C007D0A12146D74952BF582E430
:101B7B003402F583EFF0800D74952BF582E434027B
:101B8B00F5837419F00B808F22900023E0FF75F022
:101B9B000CA42462F582E43400F583E4F0EF75F0D5
:101BAB000CA42457F582E43400F583E4F0EF75F0D0
:101BBB000CA42458F582E43400F583E4F0EF75F0BF
:101BCB000CA4245DF582E43400F5831214F50000B7
:101BDB000000900023E0FB75F00CA42459F582E47F
:101BEB003400F5831214F500000000EB75F00CA423
:101BFB002461F582E43400F583E4F022900274EE64
:101C0B00F0A3EFF0A9037BFF900274E0C313FF2551
:101C1B00E0241BF582E43402F583E0F8A3E0F582BF
:101C2B008883D39DE5839C503574DC2FF582E43497
:101C3B0001F583E0FFE9C39F4024900274E0FEA30B
:101C4B00E07807CEC313CE13D8F9F0EE900274F000
:101C5B00E0FEA3E0FF7C027D2D12145BEEFBAF03D5
:101C6B0022C0E0C0F0C083C082C0D075D000C000DD
:101C7B00C001C002C003C004C005C006C00790026B
:101C8B00C07401F09002BCE475F0011214C2FEC3E3
:101C9B00E5F09432EE9400400C9002BCE4F0A3F01B
:101CAB009002B904F0121E16C2CFD007D006D00591
:101CBB00D004D003D002D001D000D0D0D082D083BA
:101CCB00D0F0D0E032E4900024F0A3F0A3F074FF46
:101CDB00A3F0A3F0E4A3F090001BF0900023F0908E
:101CEB00002204F0E4FFEFC394027480948050133D
:101CFB00EF75F011A42435F582E43400F583E4F09C
:101D0B000F80E3E4FFEFC3940A7480948050107447
:101D1B002B2FF582E43400F58374FFF00F80E6225D
:101D2B009002C9E5A7F053D4EF53D4DF43E3017519
:101D3B00A720759442759D087596FE75955643C8F8
:101D4B001053D8EE43D80675A71043CE0453F4FBBB
:101D5B0053F6FB75A72075C81075930C539D0F5345
:101D6B00D80F43D880539DF0439D0853D8F043D8E8
:101D7B000EE0F5A722121B20900015E064017008FD
:101D8B009002A57427F08008900295E09002A5F0D0
:101D9B00900016E0640170089002A67427F080088A
:101DAB00900296E09002A6F0900017E06401700795
:101DBB009002A77427F022900297E09002A7F022DE
:101DCB009001D0E0FF240FF582E43400F583E0D3DB
:101DDB00940274809480400F74152FF582E43400C4
:101DEB00F5837401F0800F9001D0E02415F582E4A7
:101DFB003400F583E4F09001D0E0D3940274809426
:101E0B008050077F067E00121FAB229001D7E004A3
:101E1B00F070069001D6E004F0E4FFEFC394037476
:101E2B00809480502EEF25E024F6F582E43401F502
:101E3B0083E0FCA3E0D39400EC94004013EF25E087
:101E4B0024F6F582E43401F58374FFF5F01214C225
:101E5B000F80C8221221291206E5121EA5E490025A
:101E6B00BAF09002BE04F0A374F4F0E49002B9F05F
:101E7B009001D0F09001D27403F0E49001D8F0FF00
:101E8B009001D2E0FEEFC39E500F748D2FF582E4CC
:101E9B003402F583E4F00F80E7229001D37402F053
:101EAB0090002214F0E4FFEFC394067480948050EA
:101EBB001D74032FF582E43402F58374FFF074F084
:101ECB002FF582E43401F583740FF00F80D9900263
:101EDB000274FFF09001CF7401F0020003900273C3
:101EEB00EBF0A3EAF0A3E9F0E4FF900279E0FEEF58
:101EFB00C39E502B900273E0FBA3E0FAA3E0F98F93
:101F0B008275830012140CFE900276E0FBA3E0FABC
:101F1B00A3E0F98F82758300EE1214390F80CB2268
:101F2B00C0E0C083C082C0D075D000C006C007E53A
:101F3B009E54106003539E6FE5C854C0FF6006F4B7
:101F4B0052C812004AEF30E604AE928007AE92AF51
:101F5B0006122232D007D006D0D0D082D083D0E068
:101F6B0032900015E0640170089002A57427F08090
:101F7B0005E49002A5F0900016E064017008900251
:101F8B00A67427F08005E49002A6F0900017E06499
:101F9B000170079002A77427F022E49002A7F022A9
:101FAB009002C9E5A7F075A710EF7802C333CE33C3
:101FBB00CED8F9FFC374FF9FFF74FF9EFEEFF5A40D
:101FCB00EEF5A5D29A209F057597A580F8C29AC207
:101FDB009F9002C9E0F5A722EF64017002800F9079
:101FEB0001D0E0640270079002887405F022900122
:101FFB00D0E004F0E0FF9001D2E0FEEF8EF0849091
:10200B0001D0E5F0F09002887403F022C2EEC2E832
:10201B00C2E975B20175BC1D75B31075DF40E4F5EF
:10202B00B975C4FF75C3FFF5C6F5C575BB0275D190
:10203B000843E60853F3F743F508D2EF02008EAEE0
:10204B00A775A7208F92E49002C8F09002C8E070A9
:10205B0019E5C85402C313D39400748094804005CF
:10206B00C2C97401F07597A580E1AF068FA722C096
:10207B00E0C083C082C0D0C390008EE0943F90003C
:10208B008DE09401500CA3E004F0700690008DE0FD
:10209B0004F053917FD0D0D082D083D0E032900225
:1020AB00C9E5A7F0E4F5A7C2C8C2C9C2CCC2CB75BB
:1020BB00CCFF75CDFF75CA0C75CBF0D2AD53B8DF25
:1020CB0043F220D2CAE0F5A7229002C9E5A7F0752A
:1020DB00A710C298C299C29CC29B75A4FF75A5FF9D
:1020EB00E4F5A2F5A353F4EF53F6EF53CEEFC29AF8
:1020FB00E0F5A722E4FFFE748F2FF58274003EF506
:10210B0083E4F00FBF00010EBE01ECBF40E9E49089
:10211B00008DF0A3F0900080F0A3F002222CE4FFDE
:10212B00EFC3940874809480501B749C2FF582E449
:10213B003402F583E0FE74A42FF582E43402F583B8
:10214B00EEF00F80DB229001D0E014600C14600ED7
:10215B002402700FC287C29022C287D29022D287EC
:10216B00C29022C287D290E49001D0F0229002C993
:10217B00E5A7F0E4F5A7F5917594FF7595FF7592BA
:10218B00717593FF43F38043F58053E67F5391FBC7
:10219B00E0F5A722E4F5A77580ED75A49075F1F035
:1021AB0075D4CF75904075A58775F20F75D57F7572
:1021BB00E3C0F5E1F5E22275A71075C130E4F5A790
:1021CB00F5A9F5A9E5A9548060FA75A90375A903CA
:1021DB00E5A9548060FA229002C9E5A7F0E4F5A7BF
:1021EB0053917F7594FF7595FF43910443E680E00F
:1021FB00F5A722C0E0C083C0829002C9E5A7F075A5
:10220B00A710C29FE0F5A7D082D083D0E032C2ECFA
:10221B00C2EFE4900254F0221221781221E2020064
:10222B008EE4900070F022900283EFF022D2AF2266
:03223B00C2AF220D
:00000001FF
