:020000040000FA
:10000000021657120076021FAF223202000AAD0715
:10001000AC06E4FBFAC3EB9DEA9C500E7FE87E033E
:10002000121D140BBB00010A80EB22021A19121ACE
:100030007D900290E09002A0F0900291E09002A1E9
:10004000F0900292E09002A2F0222202004EC2EB57
:01005000327D
:100053000214E0438E04438E025389FB438901E477
:0F006300F58AF58CC2A943B80243F202C28C227F
:10007300021DB19002C4E5A7F0E4F5A75391FB5329
:06008300E67FE0F5A72274
:10008B00021C9AC2EDD2ECD2EF90024F7401F02217
:10009B00021F7D90001EE075F011A42436F582E45A
:1000AB003400F583E0FBFD7C002404FEEC3390026E
:1000BB006BF0A3CEF0EB1313543FFFC3ED9FFEEC9D
:1000CB009400A3F0A3CEF0120D17900088E0FEA3CE
:1000DB00E02489F58274003EF583E4F0900267F02A
:1000EB00A3F0900088E0FEA3E0FFC3900268E09FBE
:1000FB00900267E09E40030203EC90001EE075F057
:10010B000CA42454F582E43400F583C083C082E050
:10011B00F8A3E0F9A3E0FAA3E0FB900267E0FEA3EB
:10012B00E0248AF58274003EF583E0FFE4FCFDFEDB
:10013B00EB2FFFEE3AFEED39FDEC38FCD082D0838D
:10014B001213CE900267E0FEA3E0FF248AF58274BF
:10015B00003EF583E0F9FDC390026CE09D90026BCD
:10016B00E09400503390006BE0702D04F090006E23
:10017B00E9F07C007D2312134090007CE02FFF9070
:10018B00007BE03E900070F0A3EFF0E4A3F0A3F04F
:10019B00A3F090006CF0A3F0900074E01313543FA5
:1001AB00FF90026EE02FFF90026DE03400FE900294
:1001BB0067E0FCA3E0FD248AF58274003CF583E044
:1001CB00C39FE49E400302035C90006BE0640160FC
:1001DB000302035CF0900074E0940C4023D3900076
:1001EB0073E09478900072E09400401490001EE04D
:1001FB0075F00CA42452F582E43400F583E004F08E
:10020B00748A2DF58274003CF583E090006FF090BA
:10021B00001EE075F011A42435F582E43400F5835B
:10022B00E0F9706590006FE0FF7E00900072E0FCDB
:10023B00A3E0FD90007CE02DFD90007BE03CCD2FFA
:10024B00FFEE3DFE90001EE0FD75F011A42433F58A
:10025B0082E43400F583EEF0A3EFF0ED75F011A41A
:10026B002433F582E43400F583E0FFA3E09000171C
:10027B00CFF0A3EFF0ED75F011A42435F582E43443
:10028B0000F583E004F00203D890006FE0FF9000CC
:10029B006EE02FFFE433FE900073E02FFF900072AF
:1002AB00E03E900269F0A3EFF0E9C3940A40030229
:1002BB00035C900070E0FEA3E0FF900269E0FCA3FA
:1002CB00E0FD900074E0FB1219B4EFF4700302032D
:1002DB005C90001EE0FE75F011A42435F582E43429
:1002EB0000F583E0FDEE75F011A42437F582E434BC
:1002FB0000F583E5822DF582E43583F583EFF090ED
:10030B00001EE075F011A42435F582E43400F5836A
:10031B00E0B40129900269E0FFA3E0900019CFF04F
:10032B00A3EFF0900074E090001BF09001CBE02461
:10033B00FEF582E43401F583E090001CF090001E82
:10034B00E075F011A42435F582E43400F583E00464
:10035B00F090006BE064017074900073E02423F064
:10036B00900072E03400F0900267E0FEA3E0248A74
:10037B00F58274003EF583E0FF900074E0C39F505C
:10038B0002EFF090026BE0FEA3E0FFC39418EE9433
:10039B0000503AEF25E0FFEE33FE900074E0C39F70
:1003AB00E49E5029C3900073E09430900072E09467
:1003BB0002501A90006CE475F0011213A7FEC3E50E
:1003CB00F09410EE94004005E490006BF0900268FE
:1003DB00E004F060030200ED900267E004F002001D
:1003EB00ED90001EE075F011A42430F582E434008A
:1003FB00F5837401F022E4F990001DE064016003C1
:10040B000204CDF0FAFB90001EE0FF75F011A4245E
:10041B0035F582E43400F583E0FEEBC39E502DEFFF
:10042B0075F011A42437F582E43400F583E5822BB3
:10043B00F582E43583F583E0FFF4600D74262AF52D
:10044B0082E43400F583EFF00A0B80BA900024EAC3
:10045B00F090001EE075F011A42433F582E4340013
:10046B00F583E0FFA3E0900022CFF0A3EFF0900123
:10047B00CBE0FF24EBF582E43401F583E06003026B
:10048B0006BB900024E060030206BBEF25E02404CA
:10049B00F582E43402F583E0FEA3E02478FFE43E2A
:1004AB00FE90001EE075F011A42433F582E43400B5
:1004BB00F583E0FCA3E0C39FEC9E40030206BB0266
:1004CB0006B690001EE075F011A42433F582E434D7
:1004DB0000F583E0FEA3E0FF900022E0FCA3E0FD2B
:1004EB00D3EF9DEE9C90001EE075F0114015A424F7
:1004FB0033F582E43400F583E0FEA3E0C39DFFEE09
:10050B009C8015A42433F582E43400F583E0FEA32C
:10051B00E0FFC3ED9FFFEC9E900267F0A3EFF0901E
:10052B000267E0FEA3E0C39478EE9400502E900196
:10053B00CBE02410F582E43402F583E4F090001E46
:10054B00E075F011A42433F582E43400F583E0FF69
:10055B00A3E0900022CFF0A3EFF0802D9001CBE031
:10056B00FF24FEF582E43401F583E0900026F09041
:10057B000024E0C3940A5003E004F074102FF582BA
:10058B00E43402F5837401F022E4FB90001EE07565
:10059B00F011A42437F582E43400F583E5822BF5C2
:1005AB0082E43583F583E0FF74742BF582E4340227
:1005BB00F583EFF00BEBB40AD2E4F9FB900024E0E7
:1005CB00FFEBC39F4003020664E4FA90001EE07544
:1005DB00F011A42435F582E43400F583E0FFEAC37F
:1005EB009F507274742AF582E43402F583E0FFF4B1
:1005FB00605F74262BF582E43400F583E0FED39F15
:10060B004003EE801874262BF582E43400F583E06A
:10061B00FF74742AF582E43402F583E0C39F9002E1
:10062B0069F0900269E0C39408502674742AF5822D
:10063B00E43402F583E0FF746A29F582E43402F5B1
:10064B0083EFF074742AF582E43402F58374FFF0BF
:10065B00090A0205D60B0205C7E4FBEBC399501B35
:10066B00746A2BF582E43402F583E0FF74262BF5D4
:10067B0082E43400F583EFF00B80E0AF01900024AF
:10068B00EFF0702C9001CBE025E02404F582E434EC
:10069B0002F583E0FEA3E0242CFFEE3401FE900074
:1006AB0022E0FCA3E0C39FEC9E5005E49001CEF04A
:1006BB0022E49001CAF0A3F0A3F09001CEF0A3F0D6
:1006CB00A3F090000FF0900016F0FBFA74102BF5CE
:1006DB008274003AF583E4F00BBB00010AEB64066D
:1006EB004A70E9E490007BF0A3F0A3F0FAFB747E70
:1006FB002BF58274003AF583E4F00BBB00010AEB97
:10070B00640A4A70E9E4900088F0A3F0FAFB748A5B
:10071B002BF58274003AF583E4F00BBB00010ABAA7
:10072B0001ECBB40E9E490006AF0A3F0A3F0A3F066
:10073B00A3F0A3F0A3F0A3F0A3F0A3F0A3F0900019
:10074B001DF0A3F0A3F0A3F0A3F0A3F0A3F0A3F08C
:10075B00A3F0FAFB74262BF58274003AF583E4F0D0
:10076B000BBB00010AEB640A4A70E9E4FAFB900048
:10077B003075F011EB12140BEA75F011A42583F50B
:10078B0083E4F090003175F011EB12140BEA75F065
:10079B0011A42583F583E4F0A3F090003375F011D9
:1007AB00EB12140BEA75F011A42583F583E4F0A387
:1007BB00F090003575F011EB12140BEA75F011A4E3
:1007CB002583F583E4F090003675F011EB12140BD2
:1007DB00EA75F011A42583F583E4F0900267F0A38A
:1007EB00F0900267E0FEA3E0FFC3940AEE94005082
:1007FB002F90003775F011EB12140BEA75F011A462
:10080B002583F583E5822FF582E5833EF583E4F0BE
:10081B00900268E004F07006900267E004F080C17B
:10082B0090005275F00CEB12140BEA75F00CA4252A
:10083B0083F583E4F090005375F00CEB12140BEA84
:10084B0075F00CA42583F583E4F090005475F00C3F
:10085B00EB12140BEA75F00CA42583F5831213DA53
:10086B000000000090005875F00CEB12140BEA75A9
:10087B00F00CA42583F5831213DA0000000090001E
:10088B005C75F00CEB12140BEA75F00CA42583F5D8
:10089B0083E4F090005D75F00CEB12140BEA75F02D
:1008AB000CA42583F583E4F00BBB00010AEB640277
:1008BB004A6003020779E49001FDF0FAFB74EB2B1D
:1008CB00F58274013AF583E4F0EB25E0FFEA33FEA1
:1008DB0074F12FF58274013EF583E4F0A3F07404F8
:1008EB002FF58274023EF583E4F0A3F074102BF520
:1008FB008274023AF583E4F074FE2BF58274013AAC
:10090B00F58374FFF00BBB00010AEB64064A70AD74
:10091B00E4900017F0A3F0A3F0A3F0A3F0A3F02250
:10092B009001CAE0B408004003020B1E90093EF888
:10093B0028287302095602097902098B0209A402BD
:10094B0009BC0209F6020A10020ACB121417900115
:10095B00CCE064016003020B24F0121B85E49001D0
:10096B00D0F09001CE7402F09001CA14F0229001E5
:10097B00D0E0D394004002807B9001CA7402F02235
:10098B009001CF7402F0121E621218D1121D4C127C
:10099B001FB99001CA7403F0229001CFE0D39400E9
:1009AB0040028050120003120B259001CA7404F010
:1009BB0022121E621216E6121944121D4C121FB996
:1009CB009001CF740AF09001D1E0FEA3E0FF9000FC
:1009DB001EE075F011A42431F582E43400F583EEAA
:1009EB00F0A3EFF09001CA7405F0229001CFE0D391
:1009FB0094004004E014F02212000312009E9001B8
:100A0B00CA7406F02212104F90001EE0FF75F00C16
:100A1B00A4245DF582E43400F583E064036079EF90
:100A2B0075F00CA42452F582E43400F583E0C394F2
:100A3B0016506590001EE075F00CA42453F582E46B
:100A4B003400F583E0C39403504EEF75F00CA424EF
:100A5B0054F582E43400F583E0FCA3E0FDA3E0FE53
:100A6B00A3E0FFE47BB47A53F9F8D31213BD40280B
:100A7B0090001EE075F00CA42458F582E43400F5C8
:100A8B0083E0FCA3E0FDA3E0FEA3E0FFE47B297A77
:100A9B000BF8D31213BD501EE49001CEF01217E3E6
:100AAB0090001EE075F00CA4245CF582E43400F594
:100ABB00837401F080031204019001CA7407F022C1
:100ACB0012159F9002B5E0B401069001CEE004F040
:100ADB009001CEE0D39400402BE014F09001D1E0D4
:100AEB00FEA3E0FF7C007D0612135274752DF58278
:100AFB0074003CF583E09001D0F090001EE00454AC
:100B0B0001F0800F120EF19001D37401F0E490010B
:100B1B00CAF0229001CA7401F022900088E0FEA373
:100B2B00E0248BF974003EFA9002717401F0A3EA91
:100B3B00F0A3E9F0A37432F07B017A00798A121CDE
:100B4B0016900088A3E02403F9FFE92430FDE43379
:100B5B00FCEFC39DEC6480F87480985054AE07E9A9
:100B6B002430FDE433FCEEC39DEC6480F874809874
:100B7B00503C748A2EF582E43400F583E0FD748AD0
:100B8B002FF582E43400F583E0FCD39D401D9002E9
:100B9B0067ECF0748A2FF582E43400F583EDF07482
:100BAB008A2EF582E43400F583ECF00E80B10F80D1
:100BBB0099E4900268F0A3F0A3F0A3F0A3F0A3F0E4
:100BCB00AF01E92410FDE433FCEFC39DEC6480F826
:100BDB00748098504E748A2FF582E43400F583E0CC
:100BEB00FD900269E02DF0900268E03400F0749AF9
:100BFB002FF582E43400F583E0FD90026BE02DF0DD
:100C0B0090026AE03400F074AA2FF582E43400F508
:100C1B0083E0FD90026DE02DF090026CE03400F06B
:100C2B000F809F900268E0C4F854F0C868F0A3E00E
:100C3B00C4540F48F0A3E0C4F854F0C868F0A3E024
:100C4B00C4540F48F0A3E0C4F854F0C868FEA3E006
:100C5B00C4540F48FF90026CEEF0A3EFF090026AC1
:100C6B00E0FCA3E0FDC3EF9DFFEE9CFEEF7802CE10
:100C7B00C313CE13D8F92D90006AF0C394464005E8
:100C8B0074FFF0802190006AE0FFD394064017EFC9
:100C9B0024FA900267F0E01313543FF0F5F0A4FF31
:100CAB0090006AE02FF090006AE0FFD39480401927
:100CBB007480F090001EE075F00CA4245DF582E4C6
:100CCB003400F5837403F08028EFD3941E90001E3C
:100CDB00E075F00C400FA4245DF582E43400F5833D
:100CEB007401F0800CA4245DF582E43400F583E4F8
:100CFB00F090006AE0FF90001EE075F011A424361E
:100D0B00F582E43400F583EFF00211ACE4FBFA90CA
:100D1B00026FF0A3F0A3F0A3F0FFA3F0A3F0D39026
:100D2B000089E09B900088E09A402E748A2BF58214
:100D3B0074003AF583E0601AFF90026FEAF0FCA3AF
:100D4B00EBF0D39408EC9400400F90000FE004F00C
:100D5B0080070BBB00010A80C5E4FAFBD39002703D
:100D6B00E09B90026FE09A4013748A2BF58274001B
:100D7B003AF583EFF00BBB00010A80E07A007B01B0
:100D8B00900089E024FFFF900088E034FFFEC3EB66
:100D9B009FEA9E502C748A2BF58274003AF583E0FF
:100DAB00701874892BF58274003AF583E0FF748A0E
:100DBB002BF58274003AF583EFF00BBB00010A8030
:100DCB00BF7A007B05900089E024FEFF900088E04D
:100DDB0034FFFEC3EB9FEA9E4003020EF0748A2B96
:100DEB00F58274003AF583E0F92420FFE433FE74B6
:100DFB008B2BF58274003AF583E0D39FEE6480F879
:100E0B007480985003020EE8E92430FFE433FE743B
:100E1B008C2BF58274003AF583E0D39FEE6480F857
:100E2B007480985003020EE8EB2401FEE43A900222
:100E3B006FF0A3CEF0EB2408FFE43AFE90026FE0D4
:100E4B00FCA3E0FDC39FEC9E4003020EE8748A2BCB
:100E5B00F58274003AF583E02408FFE433FE748ACC
:100E6B002DF58274003CF583E0C39FEE6480F8742B
:100E7B008098505890001EE075F00CA42452F58217
:100E8B00E43400F583E004F0900271EAF0A3EBF098
:100E9B0090026FE0FEA3E0FFA3E0FCA3E0FDC39F85
:100EAB00EC9E503974892BF58274003AF583E0FF80
:100EBB00748A2DF58274003CF583EFF0900272E09A
:100ECB0004F07006900271E004F080C4900270E0B0
:100EDB0004F0700690026FE004F0020E400BBB00B2
:100EEB00010A020DD0227EFFE4FD900024E0FCED10
:100EFB00C39C502E9001CBE0243EF582E43402F5E6
:100F0B0083E0FC74262DF582E43400F583E0D39C5A
:100F1B00400D74262DF582E43400F58374FFF00D3B
:100F2B0080C8E4FD900024E0FCEDC39C50167426B1
:100F3B002DF582E43400F583E0FCEED39C4002AE49
:100F4B00040D80E0EEC394195028EE941440051E56
:100F5B001E1E801EEE64066019EE64056014EE64BE
:100F6B0002600F9001CBE024FEF582E43401F5839F
:100F7B00E0FEEED3949640269001CBE0FC25E024D6
:100F8B00F1F582E43401F583E0FAA3E04A7077745B
:100F9B00FE2CF582E43401F58374FFF08068EEC318
:100FAB009428503BEEC394199001CBE0500E24FED5
:100FBB00F582E43401F5837402F0800B24FEF58294
:100FCB00E43401F583EEF09001CBE025E024F1F55C
:100FDB0082E43401F5837403F0A37420F08027EED0
:100FEB00C394649001CBE0FC24FEF582E43401F55C
:100FFB0083EEF0EC25E024F1F582E43401F5837403
:10100B0001F0A374F4F07EFFE4FD74FE2DF582E491
:10101B003401F583E0FCEED39C4002AE040DEDB43D
:10102B0006E89001FDE0FDEED39D400AEE9DD394C2
:10103B00074010EEF0229001FDE0C39ED3940540D3
:10104B0002EEF0229001CBE024EBF582E43401F5C3
:10105B0083E0FFD39400500302116890001EE075EB
:10106B00F011A42433F582E43400F583E0FCA3E013
:10107B00FDD394F4EC9401404FED9428EC940A507A
:10108B00479001CBE0FE24EBF582E43401F583EFCE
:10109B00C313F090001EE075F011A42433F582E425
:1010AB003400F583E0FCA3E0FDEE25E02404F5829B
:1010BB00E43402F583ECF0A3EDF090000FE0D39451
:1010CB0000405EE014F0805990001EE075F011A412
:1010DB002433F582E43400F583E0FEA3E0FFC394F0
:1010EB0028EE940A402FEF9450EE9446502790012F
:1010FB00CBE0FF24EBF582E43401F583E0C313F07E
:10110B00EF25E02404F582E43402F583740AF0A39E
:10111B007428F0800C90000FE0C394085003E00497
:10112B00F09001CBE025E02404F582E43402F58352
:10113B00E0FEA3E0FFC39414EE94055061EF94F42A
:10114B00EE940140599001CBE025E02404F582E4B4
:10115B003402F583740AF0A37428F0804190001ECA
:10116B00E075F011A42433F582E43400F583E0FE3E
:10117B00A3E0FFD39450EE94465009C3EF94F4EEE2
:10118B009401500E90000FE0C394085011E004F04E
:10119B00800C90000FE0D394004003E014F0021E8B
:1011AB00DAE490026EF0A3F0900088E0FEA3E02456
:1011BB0089F58274003EF583E4F090026EF0A3F0A3
:1011CB00900088E0FEA3E0FFC390026FE09F9002C7
:1011DB006EE09E40030212F090001EE075F00CA42E
:1011EB002458F582E43400F583C083C082E0F8A371
:1011FB00E0F9A3E0FAA3E0FB90026EE0FEA3E0248B
:10120B008AF58274003EF583E0FFE4FCFDFEEB2FD4
:10121B00FFEE3AFEED39FDEC38FCD082D083121391
:10122B00CE90006AE02404FFE433FE90026EE0FCF3
:10123B00A3E0248AF58274003CF583E0FDD39FEE96
:10124B006480F8748098401590006BE0705204F045
:10125B00E4900074F0900072F0A3F080439000745F
:10126B00E01313543FFFEDC39F503590006BE0B478
:10127B00012EE4F0900074E0D3940C4023D3900043
:10128B0073E09478900072E09400401490001EE09C
:10129B0075F00CA42453F582E43400F583E004F0DC
:1012AB0090006BE0B4012A900073E02423F09000CF
:1012BB0072E03400F090026EE0FEA3E0248AF58227
:1012CB0074003EF583E0FF900074E0C39F5002EF83
:1012DB00F090026FE004F060030211CB90026EE01D
:1012EB0004F00211CB22BB010CE58229F582E583C8
:1012FB003AF583E0225006E92582F8E622BBFE068A
:10130B00E92582F8E222E58229F582E5833AF58325
:10131B00E49322F8BB010DE58229F582E5833AF5CA
:10132B0083E8F0225006E92582C8F622BBFE05E9C8
:10133B002582C8F222EF8DF0A4A8F0CF8CF0A42860
:10134B00CE8DF0A42EFE22BC000BBE0029EF8DF03B
:10135B0084FFADF022E4CCF875F008EF2FFFEE33ED
:10136B00FEEC33FCEE9DEC984005FCEE9DFE0FD59C
:10137B00F0E9E4CEFD22EDF8F5F0EE8420D21CFE70
:10138B00ADF075F008EF2FFFED33FD4007985006D9
:10139B00D5F0F222C398FD0FD5F0EA22C5F0F8A3E1
:1013AB00E028F0C5F0F8E582158270021583E0386D
:1013BB00F022EB9FF5F0EA9E42F0E99D42F0E89CAB
:1013CB0045F022ECF0A3EDF0A3EEF0A3EFF022A892
:1013DB00828583F0D083D0821213F11213F1121392
:1013EB00F11213F1E473E493A3C583C5F0C583C86D
:1013FB00C582C8F0A3C583C5F0C583C8C582C82202
:10140B00A42582F582E5F03583F5832290025DE019
:10141B0070030214DF9002B5E0B401079001CC74A5
:10142B0001F022900283E024FC602A147003021462
:10143B00CE240260030214DF121E8CE49001D3F061
:10144B009001CC04F090027FE4F0A37482F0900240
:10145B00837404F022D3900280E0940090027FE02A
:10146B009400401A9001D3E06005E4FF121D7F90B9
:10147B000280E024FFF090027FE034FFF022900125
:10148B00CBE02488F582E43402F583E004F0C394C6
:10149B000A402B9001CBE0FF2488F582E43402F55F
:1014AB0083740AF074102FF582E43400F583740111
:1014BB00F074FE2FF582E43401F58374FFF0E4FF42
:1014CB00021D7F12002E12185B7F01121D7F9002EE
:1014DB00837403F022C0E0C083C082C0D075D000FB
:1014EB00C004C00790007DE0FFC394075016747EC4
:1014FB002FF582E43400F583E5BDF090007DE00428
:10150B00F002158E900265E4F0A374FFF0747E2F49
:10151B00F582E43400F583E5BDF090007DE4F090B6
:10152B000264F0900264E0FFC394085038747E2F7D
:10153B00F582E43400F583E0FF900265E0C39F5031
:10154B0002EFF0900266E0D39F4012900264E02419
:10155B007EF582E43400F583E0900266F09002643D
:10156B00E004F080BE900266E0FF900265E0C39F4E
:10157B00FF900088E0FCA3E0248AF58274003CF520
:10158B0083EFF0C2EDD2ECD007D004D0D0D082D014
:10159B0083D0E03290001EE075F00CA4245CF58241
:1015AB00E43400F583E064017003021656900022C8
:1015BB00E0FEA3E0FFF47002EEF470030216569007
:1015CB0001CBE0FD2410F582E43402F583E0707B5F
:1015DB00ED25E02404F582E43402F583E0FCA3E07E
:1015EB00FDD3EF9DEE9C4063900022E0FEA3E0FF55
:1015FB009DFDEE9CFCD3ED942CEC9401404DD3EF70
:10160B0094B8EE940B40109000267406F0900024D2
:10161B00E0940A50368031D3ED9490EC9401401055
:10162B009000267406F0900024E0940A501D801858
:10163B009001CBE024FEF582E43401F583E09000C9
:10164B0026F0900024E07003E004F02212000978E9
:10165B007FE4F6D8FD7581070216A1021B33E493D4
:10166B00A3F8E493A34003F68001F208DFF480298A
:10167B00E493A3F85407240CC8C333C4540F442079
:10168B00C8834004F456800146F6DFE4800B010268
:10169B0004081020408090176BE47E019360BCA37C
:1016AB00FF543F30E509541FFEE493A360010ECFB6
:1016BB0054C025E060A840B8E493A3FAE493A3F8E0
:1016CB00E493A3C8C582C8CAC583CAF0A3C8C582A0
:1016DB00C8CAC583CADFE9DEE780BE90001EE0FF03
:1016EB0075F011A42430F582E43400F583E4F0EFB7
:1016FB0075F011A42431F582E43400F583E4F0A3F2
:10170B00F0EF75F011A42433F582E43400F5837403
:10171B00FFF0A3F0EF75F011A42435F582E434004B
:10172B00F583E4F090001C74FFF0E490001BF09044
:10173B000019F0A3F0900017F0A3F0FF90001EE04B
:10174B0075F011A42437F582E43400F583E5822F7C
:10175B00F582E43583F58374FFF00FEFB40ADD22D5
:10176B004102C40046007501020407030046023E15
:10177B008C8C8C8C8C00602802160190019001904F
:10178B00015E00C800C800B400B400B40096009617
:10179B00009600C800C800C800C800C800C800C830
:1017AB0000C85401D7373737372422201C1814139D
:1017BB001313132D2D2D2D2D2D4402A900000000E8
:1017CB004102A7004102A8004102C200480297F063
:1017DB000304092828E0FA00E490001DF09001CBE7
:1017EB00E0FF2410F582E43402F583E4F090001E50
:1017FB00E075F011A42435F582E43400F58374010F
:10180B00F0EF25E024F1F582E43401F5837403F065
:10181B00A37420F09001CBE025E02404F582E4349E
:10182B0002F583E0FFA3E0900022CFF0A3EFF0904E
:10183B0000167401F090002674FFF07F0174262FC0
:10184B00F582E43400F58374FFF00FEFB40AEE2257
:10185B00E4FFFDFC90026804F0900268E0FEC39484
:10186B00065029749F2EF582E43402F583E02DFD9A
:10187B00E43CFCD3ED94FFEC9400400874012DFD87
:10188B0074FF3CFC900268E004F080CDD3ED94FF34
:10189B00EC94005005C374FF9DFF9002A5EFF0E49C
:1018AB00900268F0900268E0FFC394085017749F91
:1018BB002FF582E43402F583E0FF121DE0900268FD
:1018CB00E004F080DF2290001EE0FF75F00CA424F2
:1018DB005DF582E43400F583E4F0EF75F00CA4249D
:1018EB0052F582E43400F583E4F0EF75F00CA42498
:1018FB0053F582E43400F583E4F0EF75F00CA42487
:10190B0058F582E43400F5831213DA0000000090DE
:10191B00001EE0FB75F00CA42454F582E43400F5B2
:10192B00831213DA00000000EB75F00CA4245CF5B5
:10193B0082E43400F583E4F022121FD19002677425
:10194B0014F0C2927F067E00121D140000000000EE
:10195B00000000000000000000000000000000007C
:10196B000000000000000000000000D2927F067E05
:10197B0000121D1400000000000000000000000019
:10198B0000000000000000000000000000009002BA
:10199B0067E014F0E0D3940050A8C29290007B74DF
:1019AB0001F0A37454F0021FCE90026FEEF0A3EF80
:1019BB00F0A9037BFF90026FE0C313FF25E0241611
:1019CB00F582E43402F583E0F8A3E0F5828883D353
:1019DB009DE5839C503574D72FF582E43401F58354
:1019EB00E0FFE9C39F402490026FE0FEA3E078077D
:1019FB00CEC313CE13D8F9F0EE90026FF0E0FEA336
:101A0B00E0FF7C027D2D121340EEFBAF0322C0E002
:101A1B00C0F0C083C082C0D075D000C000C001C070
:101A2B0002C003C004C005C006C0079002BB74010E
:101A3B00F09002B7E475F0011213A7FEC3E5F09422
:101A4B0032EE9400400C9002B7E4F0A3F09002B495
:101A5B0004F0121C59C2CFD007D006D005D004D049
:101A6B0003D002D001D000D0D0D082D083D0F0D020
:101A7B00E032E4FB74FE2BF582E43401F583E0FFE6
:101A8B00D3941E500F74902BF582E43402F58374BB
:101A9B0003F08039EFD39496502674FE2BF582E435
:101AAB003401F583E02405FFE433FE7C007D0A124C
:101ABB00135274902BF582E43402F583EFF0800D12
:101ACB0074902BF582E43402F5837419F00BEBB4AC
:101ADB0003A2229002C4E5A7F053D4EF53D4DF4303
:101AEB00E30175A720759442759D087596FE759553
:101AFB005643C81053D8EE43D80675A71043CE04EF
:101B0B0053F4FB53F6FB75A72075C81075930C5354
:101B1B009D0F53D80F43D880539DF0439D0853D846
:101B2B00F043D80EE0F5A722121F43121F007F01CE
:101B3B00121F98121E37121E0C120056121BD012B7
:101B4B001ADE121FCE7FC87E0012000E7F2C7E0184
:101B5B0012000EE49002B5F0121CDA9002837403AB
:101B6B00F09002BBE0600E90025DE06008E4900232
:101B7B00BBF012092B7597A580E7E490001FF0A32B
:101B8B00F0A3F074FFA3F0A3F0E4A3F0900016F021
:101B9B0090001EF090001D04F0E4FFEF75F011A40F
:101BAB002430F582E43400F583E4F00FEFB402EB5C
:101BBB00E4FF74262FF582E43400F58374FFF00FF5
:101BCB00EFB40AEE22121F231206BC121CDAE490A9
:101BDB0002B5F09002B904F0A3742CF0E49002B4B7
:101BEB00F09001CBF09001CD7403F0E49001D3F0B1
:101BFB00FF9001CDE0FEEFC39E500F74882FF5824E
:101C0B00E43402F583E4F00F80E72290026EEBF0F0
:101C1B00A3EAF0A3E9F0E4FF900274E0FEEFC39EA9
:101C2B00502B90026EE0FBA3E0FAA3E0F98F8275D4
:101C3B0083001212F1FE900271E0FBA3E0FAA3E025
:101C4B00F98F82758300EE12131E0F80CB22900149
:101C5B00D2E004F070069001D1E004F0E4FFEF2530
:101C6B00E024F1F582E43401F583E0FCA3E0D394A6
:101C7B0000EC94004013EF25E024F1F582E43401ED
:101C8B00F58374FFF5F01213A70FEFB403D022C046
:101C9B00E0C083C082C0D075D000C006C007E59EEF
:101CAB0030E403539E6FE5C854C0FF6006F452C87E
:101CBB0012004AEF30E604AE928007AE92AF0612E6
:101CCB001FC8D007D006D0D0D082D083D0E03290BE
:101CDB0001CE7402F090001D14F0E4FF74FE2FF59A
:101CEB0082E43401F58374FFF074EB2FF582E43456
:101CFB0001F583740FF00FEFB406E19001FD74FF53
:101D0B00F0E49001CAF00200039002C4E5A7F0755D
:101D1B00A710EF7802C333CE33CED8F9FFC374FFCD
:101D2B009FFF74FF9EFEEFF5A4EEF5A5D29A209FC0
:101D3B00057597A580F8C29AC29F9002C4E0F5A7DB
:101D4B0022C2EEC2E8C2E975B20175BC1D75B310B3
:101D5B0075DF40E4F5B975C4FF75C3FFF5C6F5C56E
:101D6B0075BB0275D10843E60853F3F743F508D268
:101D7B00EF02008EEFB40102800E9001CBE0B402B3
:101D8B00079002837405F0229001CBE004F0E0FF92
:101D9B009001CDE0FEEF8EF0849001CBE5F0F0905A
:101DAB0002837403F022C0E0C083C082C0D0C39012
:101DBB000089E0943F900088E09401500CA3E0046C
:101DCB00F07006900088E004F053917FD0D0D08261
:101DDB00D083D0E032AEA775A7208F92E49002C3D8
:101DEB00F09002C3E07015E5C85402C313D39400FE
:101DFB004005C2C97401F07597A580E5AF068FA7A2
:101E0B00229002C4E5A7F0E4F5A7C2C8C2C9C2CCB0
:101E1B00C2CB75CCFF75CDFF75CA0C75CBF0D2ADAF
:101E2B0053B8DF43F220D2CAE0F5A7229002C4E5F3
:101E3B00A7F075A710C298C299C29CC29B75A4FF4C
:101E4B0075A5FFE4F5A2F5A353F4EF53F6EF53CECC
:101E5B00EFC29AE0F5A722E4FFFE748A2FF5827495
:101E6B00003EF583E4F00FBF00010EBE01ECBF4056
:101E7B00E9E4900088F0A3F090007BF0A3F0021F40
:101E8B00C29001CBE014600C14600E2402700FC2E0
:101E9B0087C29022C287D29022D287C29022C28759
:101EAB00D290E49001CBF0229002C4E5A7F0E4F5C8
:101EBB00A7F5917594FF7595FF7592717593FF4317
:101ECB00F38043F58053E67F5391FBE0F5A7229017
:101EDB00000FE0D394029001CBE0400D2410F5826B
:101EEB00E43400F5837401F0222410F582E434000D
:101EFB00F583E4F022E4F5A77580ED75A49075F1F8
:101F0B00F075D4CF75904075A58775F20F75D57F99
:101F1B0075E3C0F5E1F5E222E4FF74972FF582E457
:101F2B003402F583E0FE749F2FF582E43402F583CF
:101F3B00EEF00FEFB408E32275A71075C130E4F58E
:101F4B00A7F5A9F5A9E5A930E7FB75A90375A903C1
:101F5B00E5A930E7FB229002C4E5A7F0E4F5A7530F
:101F6B00917F7594FF7595FF43910443E680E0F5EF
:101F7B00A722C0E0C083C0829002C4E5A7F075A77A
:101F8B0010C29FE0F5A7D082D083D0E032E4F5A752
:101F9B00EFB401067597027597FFEF70067597DE24
:101FAB007597AD22C2ECC2EFE490024FF022121EE5
:101FBB00B3121F6102008EE490006BF02290027E40
:091FCB00EFF022D2AF22C2AF22D6
:00000001FF
