:020000040000FA
:1000000002171312007602211D223202000AAD07E8
:10001000AC06E4FBFAC3EB9DEA9C500E7FE87E033E
:10002000121E610BBB00010A80EB22021B6EE490E2
:100030000258F0900262F0A3F0900245F0A3F09015
:10004000024404F0E490024FF0222202004EC2EB80
:01005000327D
:100053000214C5121A22900290E09002A0F09002BE
:0F00630091E09002A1F0900292E09002A2F022B0
:10007300021EFC9002C4E5A7F0E4F5A75391FB53DD
:06008300E67FE0F5A72274
:10008B00021DE1C2EDD2ECD2EF90024F7401F022CF
:10009B0002210290001EE075F011A42436F582E4D3
:1000AB003400F583E0FBFD7C002404FEEC3390026E
:1000BB006BF0A3CEF0EB1313543FFFC3ED9FFEEC9D
:1000CB009400A3F0A3CEF0120D7B900088E0FEA36A
:1000DB00E02489F58274003EF583E4F0900267F02A
:1000EB00A3F0900088E0FEA3E0FFC3900268E09FBE
:1000FB00900267E09E40030203F590001EE075F04E
:10010B000CA42454F582E43400F583C083C082E050
:10011B00F8A3E0F9A3E0FAA3E0FB900267E0FEA3EB
:10012B00E0248AF58274003EF583E0FFE4FCFDFEDB
:10013B00EB2FFFEE3AFEED39FDEC38FCD082D0838D
:10014B0012147C900267E0FEA3E0FF248AF5827410
:10015B00003EF583E0F9FDC390026CE09D90026BCD
:10016B00E09400503390006BE0702D04F090006E23
:10017B00E9F07C007D231213EE90007CE02FFF90C2
:10018B00007BE03E900070F0A3EFF0E4A3F0A3F04F
:10019B00A3F090006CF0A3F0900074E01313543FA5
:1001AB00FF90026EE02FFF90026DE03400FE900294
:1001BB0067E0FCA3E0FD248AF58274003CF583E044
:1001CB00C39FE49E400302036590006BE0640160F3
:1001DB0003020365F0900074E0940C7480948040EB
:1001EB0023D3900073E09478900072E09400401455
:1001FB0090001EE075F00CA42452F582E43400F557
:10020B0083E004F0748A2DF58274003CF583E09052
:10021B00006FF090001EE075F011A42435F582E418
:10022B003400F583E0F9706590006FE0FF7E00907D
:10023B000072E0FCA3E0FD90007CE02DFD90007BC4
:10024B00E03CCD2FFFEE3DFE90001EE0FD75F01162
:10025B00A42433F582E43400F583EEF0A3EFF0ED44
:10026B0075F011A42433F582E43400F583E0FFA389
:10027B00E0900017CFF0A3EFF0ED75F011A424354B
:10028B00F582E43400F583E004F00203E190006FA3
:10029B00E0FF90006EE02FFFE433FE900073E02F41
:1002AB00FF900072E03E900269F0A3EFF0E9C39477
:1002BB000A748094804003020365900070E0FEA3F3
:1002CB00E0FF900269E0FCA3E0FD900074E0FB12FC
:1002DB001B09EFF4700302036590001EE0FE75F03E
:1002EB0011A42435F582E43400F583E0FDEE75F0BE
:1002FB0011A42437F582E43400F583E5822DF582D1
:10030B00E43583F583EFF090001EE075F011A42423
:10031B0035F582E43400F583E064017029900269BD
:10032B00E0FFA3E0900019CFF0A3EFF0900074E092
:10033B0090001BF09001CBE024FEF582E43401F534
:10034B0083E090001CF090001EE075F011A42435A2
:10035B00F582E43400F583E004F090006BE0640177
:10036B007074900073E02423F0900072E03400F07E
:10037B00900267E0FEA3E0248AF58274003EF583C9
:10038B00E0FF900074E0C39F5002EFF090026BE02F
:10039B00FEA3E0FFC39418EE9400503AEF25E0FF64
:1003AB00EE33FE900074E0C39FE49E5029C390008F
:1003BB0073E09430900072E09402501A90006CE459
:1003CB0075F001121455FEC3E5F09410EE94004045
:1003DB0005E490006BF0900268E004F0600302000B
:1003EB00ED900267E004F00200ED90001EE075F066
:1003FB0011A42430F582E43400F5837401F022E477
:10040B00F990001DE0640160030204D6F0FAFB9042
:10041B00001EE0FF75F011A42435F582E43400F5DD
:10042B0083E0FEEBC39E502DEF75F011A42437F53E
:10043B0082E43400F583E5822BF582E43583F58382
:10044B00E0FFF4600D74262AF582E43400F583EFA7
:10045B00F00A0B80BA900024EAF090001EE075F0D1
:10046B0011A42433F582E43400F583E0FFA3E0907C
:10047B000022CFF0A3EFF09001CBE0FF24EBF5824D
:10048B00E43401F583E060030206E4900024E060AD
:10049B00030206E4EF25E02404F582E43402F5833D
:1004AB00E0FEA3E02478FFE43EFE90001EE075F032
:1004BB0011A42433F582E43400F583E0FCA3E0C3FC
:1004CB009FEC9E40030206E40206DF90001EE075DF
:1004DB00F011A42433F582E43400F583E0FEA3E0AD
:1004EB00FF900022E0FCA3E0FDD3EF9DEE9C90007B
:1004FB001EE075F0114015A42433F582E43400F5A9
:10050B0083E0FEA3E0C39DFFEE9C8015A42433F58E
:10051B0082E43400F583E0FEA3E0FFC3ED9FFFEC24
:10052B009E900267F0A3EFF0900267E0FEA3E0C39A
:10053B009478EE9400502E9001CBE02410F582E4D9
:10054B003402F583E4F090001EE075F011A424331F
:10055B00F582E43400F583E0FFA3E0900022CFF0B6
:10056B00A3EFF080319001CBE0FF24FEF582E43461
:10057B0001F583E0900026F0900024E0C3940A7408
:10058B008094805003E004F074102FF582E4340261
:10059B00F5837401F022E4FBEBC3940A748094801E
:1005AB00502C90001EE075F011A42437F582E43432
:1005BB0000F583E5822BF582E43583F583E0FF7448
:1005CB00742BF582E43402F583EFF00B80CAE4F967
:1005DB00FB900024E0FFEBC39F400302068DE4FA7F
:1005EB0090001EE075F011A42435F582E43400F57B
:1005FB0083E0FFEAC39F400302068974742AF582E5
:10060B00E43402F583E0FFF4607074262BF582E48A
:10061B003400F583E0FED39F401074742AF582E416
:10062B003402F583E0FFC3EE801874262BF582E4C9
:10063B003400F583E0FF74742AF582E43402F58309
:10064B00E0C39F900269F0900269E0C39408748044
:10065B009480502674742AF582E43402F583E0FF0B
:10066B00746A29F582E43402F583EFF074742AF589
:10067B0082E43402F58374FFF0090A0205EB0B02E6
:10068B0005DCE4FBEBC399501B746A2BF582E43455
:10069B0002F583E0FF74262BF582E43400F583EF3B
:1006AB00F00B80E0AF01900024EFF0702C9001CBA9
:1006BB00E025E02404F582E43402F583E0FEA3E0B8
:1006CB00242CFFEE3401FE900022E0FCA3E0C39F3C
:1006DB00EC9E5005E49001CEF022E49001CAF0A309
:1006EB00F0A3F0A37403F0E4A3F0A3F0A3F0900144
:1006FB00D3F090000FF0900016F0FBFA74102BF56E
:10070B008274003AF583E4F00BBB00010AEB64063C
:10071B004A70E9E490007BF0A3F0A3F0FAFB747E3F
:10072B002BF58274003AF583E4F00BBB00010AEB66
:10073B00640A4A70E9E4900088F0A3F0FAFB748A2B
:10074B002BF58274003AF583E4F00BBB00010ABA77
:10075B0001ECBB40E9E490006AF0A3F0A3F0A3F036
:10076B00A3F0A3F0A3F0A3F0A3F0A3F0A3F09000E9
:10077B001DF0A3F0A3F0A3F0A3F0A3F0A3F0A3F05C
:10078B00A3F0FAFB74262BF58274003AF583E4F0A0
:10079B000BBB00010AEB640A4A70E9E4FAFB900018
:1007AB003075F011EB1214B9EA75F011A42583F52D
:1007BB0083E4F090003175F011EB1214B9EA75F087
:1007CB0011A42583F583E4F0A3F090003375F011A9
:1007DB00EB1214B9EA75F011A42583F583E4F0A3A9
:1007EB00F090003575F011EB1214B9EA75F011A405
:1007FB002583F583E4F090003675F011EB1214B9F4
:10080B00EA75F011A42583F583E4F0900267F0A359
:10081B00F0900267E0FEA3E0FFC3940AEE94005051
:10082B002F90003775F011EB1214B9EA75F011A483
:10083B002583F583E5822FF582E5833EF583E4F08E
:10084B00900268E004F07006900267E004F080C14B
:10085B0090005275F00CEB1214B9EA75F00CA4254C
:10086B0083F583E4F090005375F00CEB1214B9EAA6
:10087B0075F00CA42583F583E4F090005475F00C0F
:10088B00EB1214B9EA75F00CA42583F583121488C6
:10089B000000000090005875F00CEB1214B9EA75CB
:1008AB00F00CA42583F5831214880000000090003F
:1008BB005C75F00CEB1214B9EA75F00CA42583F5FA
:1008CB0083E4F090005D75F00CEB1214B9EA75F04F
:1008DB000CA42583F583E4F00BBB00010AEB640247
:1008EB004A60030207A9E49001FDF0FAFB74EB2BBD
:1008FB00F58274013AF583E4F0EB25E0FFEA33FE71
:10090B0074F12FF58274013EF583E4F0A3F07404C7
:10091B002FF58274023EF58374FFF0A3F074102B55
:10092B00F58274023AF583E4F074FE2BF5827401C0
:10093B003AF58374FFF00BBB00010AEB64064A70B7
:10094B00ACE4900017F0A3F0A3F0A3F0A3F0A3F096
:10095B00229001CAE0B408004003020B6C90096FAF
:10096B00F82828730209870209AA0209C10209DAC9
:10097B000209F6020A30020A4E020B1412158F906E
:10098B0001CCE064016003020B72F0121BD2E49005
:10099B0001D0F09001CE7402F09001CA14F02290B5
:1009AB0001D0E0D39400748094804003020A3D9000
:1009BB0001CA7402F0229001CF7402F0121FAB1225
:1009CB001A96121E991221279001CA7403F02290D5
:1009DB0001CFE0D3940074809480400280541200C5
:1009EB0003120B739001CA7404F022121FAB12177F
:1009FB00A21219A9121E991221279001CF740AF085
:100A0B009001D1E0FEA3E0FF90001EE075F011A471
:100A1B002431F582E43400F583EEF0A3EFF090017E
:100A2B00CA7405F0229001CFE0D3940074809480B7
:100A3B004004E014F02212000312009E9001CA74CD
:100A4B0006F0221210E590001EE0FF75F00CA424B6
:100A5B005DF582E43400F583E064037003020AEC75
:100A6B00EF75F00CA42452F582E43400F583E0C357
:100A7B00941674809480506990001EE075F00CA45D
:100A8B002453F582E43400F583E0C394037480941B
:100A9B0080504EEF75F00CA42454F582E43400F52D
:100AAB0083E0FCA3E0FDA3E0FEA3E0FFE47BB47ACC
:100ABB0053F9F8D312146B402890001EE075F00C1C
:100ACB00A42458F582E43400F583E0FCA3E0FDA3F5
:100ADB00E0FEA3E0FFE47B297A0BF8D312146B50F2
:100AEB001EE49001CEF012182F90001EE075F00C52
:100AFB00A4245CF582E43400F5837401F0800312C6
:100B0B00040A9001CA7407F0221216539002B5E042
:100B1B00640170069001CEE004F09001CEE0D39416
:100B2B000074809480402BE014F09001D1E0FEA380
:100B3B00E0FF7C007D0612140074752DF5827400A5
:100B4B003CF583E09001D0F090001EE0045401F0DE
:100B5B00800F120F559001D37401F0E49001CAF08D
:100B6B00229001CA7401F022900088E0FEA3E024D9
:100B7B008BF974003EFA9002717401F0A3EAF0A3B2
:100B8B00E9F0A37432F07B017A00798A121D5C9034
:100B9B000088A3E02403F9FFE92430FDE433FCEFE4
:100BAB00C39DEC6480F87480985054AE07E92430F0
:100BBB00FDE433FCEEC39DEC6480F8748098503CEC
:100BCB00748A2EF582E43400F583E0FD748A2FF5E8
:100BDB0082E43400F583E0FCD39D401D900267EC6A
:100BEB00F0748A2FF582E43400F583EDF0748A2ECD
:100BFB00F582E43400F583ECF00E80B10F8099E4BC
:100C0B00900268F0A3F0A3F0A3F0A3F0A3F0AF0160
:100C1B00E92410FDE433FCEFC39DEC6480F8748091
:100C2B0098504E748A2FF582E43400F583E0FD90E2
:100C3B000269E02DF0900268E03400F0749A2FF511
:100C4B0082E43400F583E0FD90026BE02DF090021E
:100C5B006AE03400F074AA2FF582E43400F583E0E7
:100C6B00FD90026DE02DF090026CE03400F00F80EF
:100C7B009F900268E0C4F854F0C868F0A3E0C45435
:100C8B000F48F0A3E0C4F854F0C868F0A3E0C454D4
:100C9B000F48F0A3E0C4F854F0C868FEA3E0C454B6
:100CAB000F48FF90026CEEF0A3EFF090026AE0FCAD
:100CBB00A3E0FDC3EF9DFFEE9CFEEF7802CEC313C6
:100CCB00CE13D8F92DFF90006AF07E00C3944674C2
:100CDB00809480400574FFF08025D3EF9406EE647A
:100CEB00809480401A90006AE024FA900267F0E04A
:100CFB001313543FF0F5F0A4FF90006AE02FF0902F
:100D0B00006AE0FF7E00D394807480948040197455
:100D1B0080F090001EE075F00CA4245DF582E434A5
:100D2B0000F5837403F0802DD3EF941EEE64809452
:100D3B008090001EE075F00C400FA4245DF582E45A
:100D4B003400F5837401F0800CA4245DF582E43447
:100D5B0000F583E4F090006AE0FF90001EE075F070
:100D6B0011A42436F582E43400F583EFF002125619
:100D7B00E4FBFA90026FF0A3F0A3F0A3F0FFA3F053
:100D8B00A3F0D3900089E09B900088E09A402E74EA
:100D9B008A2BF58274003AF583E0601AFF90026F9C
:100DAB00EAF0FCA3EBF0D39408EC9400400F900016
:100DBB000FE004F080070BBB00010A80C5E4FAFBCF
:100DCB00D3900270E09B90026FE09A4013748A2BD1
:100DDB00F58274003AF583EFF00BBB00010A80E05B
:100DEB007A007B01900089E024FFFF900088E034BB
:100DFB00FFFEC3EB9FEA9E502C748A2BF582740086
:100E0B003AF583E0701874892BF58274003AF583F8
:100E1B00E0FF748A2BF58274003AF583EFF00BBB7D
:100E2B0000010A80BF7A007B05900089E024FEFF59
:100E3B00900088E034FFFEC3EB9FEA9E4003020F55
:100E4B0054748A2BF58274003AF583E0F92420FF61
:100E5B00E433FE748B2BF58274003AF583E0D39F59
:100E6B00EE6480F87480985003020F4CE92430FF35
:100E7B00E433FE748C2BF58274003AF583E0D39F38
:100E8B00EE6480F87480985003020F4CEB2401FE43
:100E9B00E43A90026FF0A3CEF0EB2408FFE43AFEA5
:100EAB0090026FE0FCA3E0FDC39FEC9E4003020F9A
:100EBB004C748A2BF58274003AF583E02408FFE426
:100ECB0033FE748A2DF58274003CF583E0C39FEEEC
:100EDB006480F8748098505890001EE075F00CA454
:100EEB002452F582E43400F583E004F0900271EAB9
:100EFB00F0A3EBF090026FE0FEA3E0FFA3E0FCA3F6
:100F0B00E0FDC39FEC9E503974892BF58274003A37
:100F1B00F583E0FF748A2DF58274003CF583EFF0C6
:100F2B00900272E004F07006900271E004F080C44D
:100F3B00900270E004F0700690026FE004F0020E75
:100F4B00A40BBB00010A020E34227EFFE4FD9000CD
:100F5B0024E0FCEDC39C502E9001CBE0243EF582A7
:100F6B00E43402F583E0FC74262DF582E43400F5BD
:100F7B0083E0D39C400D74262DF582E43400F58379
:100F8B0074FFF00D80C8E4FD900024E0FCEDC39CE1
:100F9B00501674262DF582E43400F583E0FCEED375
:100FAB009C4002AE040D80E0EEFB7A00C3941974F2
:100FBB00809480502FEB94147480948040051E1EF7
:100FCB001E8021EB64064A601BEB64054A6015EB3F
:100FDB0064024A600F9001CBE024FEF582E43401F9
:100FEB00F583E0FEEED394967480948040299001B3
:100FFB00CBE0FC25E024F1F582E43401F583E0FA43
:10100B00A3E04A600302109774FE2CF582E43401CE
:10101B00F58374FFF08075EEFBC394287480948085
:10102B00503FC3EB9419748094809001CBE0500E29
:10103B0024FEF582E43401F5837402F0800B24FE68
:10104B00F582E43401F583EEF09001CBE025E0244A
:10105B00F1F582E43401F5837403F0A37420F0807E
:10106B002BEEC39464748094809001CBE0FC24FE3F
:10107B00F582E43401F583EEF0EC25E024F1F58202
:10108B00E43401F5837401F0A374F4F07EFFE4FD06
:10109B00EDC3940674809480501674FE2DF582E493
:1010AB003401F583E0FCEED39C4002AE040D80E0EE
:1010BB009001FDE0FDEED39D400EEE9DD3940774A1
:1010CB008094804014EEF0229001FDE0C39ED394F7
:1010DB0005748094804002EEF0229001CBE024EB6B
:1010EB00F582E43401F583E0FFD39400748094809F
:1010FB00500302120A90001EE075F011A42433F580
:10110B0082E43400F583E0FCA3E0FDD394F4EC948B
:10111B00014053ED9428EC940A504B9001CBE0FE28
:10112B0024EBF582E43401F583EFC313F090001E3A
:10113B00E075F011A42433F582E43400F583E0FC70
:10114B00A3E0FDEE25E02404F582E43402F583EC04
:10115B00F0A3EDF090000FE0D394007480948040E6
:10116B0062E014F0805D90001EE075F011A4243352
:10117B00F582E43400F583E0FEA3E0FFC39428EE90
:10118B00940A402FEF9450EE944650279001CBE0F9
:10119B00FF24EBF582E43401F583E0C313F0EF2574
:1011AB00E02404F582E43402F583740AF0A3742876
:1011BB00F0801090000FE0C394087480948050036B
:1011CB00E004F09001CBE025E02404F582E4340246
:1011DB00F583E0FEA3E0FFC39414EE94055069EF92
:1011EB0094F4EE940140619001CBE025E02404F5EA
:1011FB0082E43402F583740AF0A37428F0804990DA
:10120B00001EE075F011A42433F582E43400F5835D
:10121B00E0FEA3E0FFD39450EE94465009C3EF9445
:10122B00F4EE9401501290000FE0C3940874809474
:10123B00805015E004F0801090000FE0D394007400
:10124B008094804003E014F0021F81E490026EF062
:10125B00A3F0900088E0FEA3E02489F58274003EA1
:10126B00F583E4F090026EF0A3F0900088E0FEA30B
:10127B00E0FFC390026FE09F90026EE09E4003027E
:10128B00139E90001EE075F00CA42458F582E434F4
:10129B0000F583C083C082E0F8A3E0F9A3E0FAA3D2
:1012AB00E0FB90026EE0FEA3E0248AF58274003E20
:1012BB00F583E0FFE4FCFDFEEB2FFFEE3AFEED398C
:1012CB00FDEC38FCD082D08312147C90006AE024B1
:1012DB0004FFE433FE90026EE0FCA3E0248AF58267
:1012EB0074003CF583E0FDD39FEE6480F874809826
:1012FB00401590006BE0705504F0E4900074F09092
:10130B000072F0A3F08046900074E01313543FFF7B
:10131B00EDC39F503890006BE064017030F090008B
:10132B0074E0940C748094804023D3900073E09409
:10133B0078900072E09400401490001EE075F00C61
:10134B00A42453F582E43400F583E004F090006BA1
:10135B00E06401702A900073E02423F0900072E0A7
:10136B003400F090026EE0FEA3E0248AF582740054
:10137B003EF583E0FF900074E0C39F5002EFF090C6
:10138B00026FE004F0600302127590026EE004F04D
:10139B0002127522BB010CE58229F582E5833AF531
:1013AB0083E0225006E92582F8E622BBFE06E925FA
:1013BB0082F8E222E58229F582E5833AF583E4930C
:1013CB0022F8BB010DE58229F582E5833AF583E826
:1013DB00F0225006E92582C8F622BBFE05E92582DC
:1013EB00C8F222EF8DF0A4A8F0CF8CF0A428CE8DFC
:1013FB00F0A42EFE22BC000BBE0029EF8DF084FF63
:10140B00ADF022E4CCF875F008EF2FFFEE33FEECD5
:10141B0033FCEE9DEC984005FCEE9DFE0FD5F0E9FC
:10142B00E4CEFD22EDF8F5F0EE8420D21CFEADF0FB
:10143B0075F008EF2FFFED33FD4007985006D5F000
:10144B00F222C398FD0FD5F0EA22C5F0F8A3E028ED
:10145B00F0C5F0F8E582158270021583E038F022B2
:10146B00EB9FF5F0EA9E42F0E99D42F0E89C45F0D7
:10147B0022ECF0A3EDF0A3EEF0A3EFF022A882850F
:10148B0083F0D083D08212149F12149F12149F12D8
:10149B00149FE473E493A3C583C5F0C583C8C582C9
:1014AB00C8F0A3C583C5F0C583C8C582C822A425CF
:1014BB0082F582E5F03583F58322C0E0C083C082DC
:1014CB00C0D075D000C004C00790007DE0FFC3946E
:1014DB0007748094805016747E2FF582E43400F5E7
:1014EB0083E5BDF090007DE004F002157E9002656F
:1014FB00E4F0A374FFF090007DE0247EF582E434E9
:10150B0000F583E5BDF090007DE4F0900264F0906F
:10151B000264E0FFC39408748094805038747E2F6B
:10152B00F582E43400F583E0FF900265E0C39F5041
:10153B0002EFF0900266E0D39F4012900264E02429
:10154B007EF582E43400F583E0900266F09002644D
:10155B00E004F080BA900266E0FF900265E0C39F62
:10156B00FF900088E0FCA3E0248AF58274003CF530
:10157B0083EFF0C2EDD2ECD007D004D0D0D082D024
:10158B0083D0E0329002B5E0640170069001CC0488
:10159B00F022900283E024FC602A147003021641AF
:1015AB002402600302165212206EE49001D3F090D5
:1015BB0001CC04F090027FE4F0A37482F0900283DC
:1015CB007404F022D3900280E0940090027FE094A8
:1015DB0000401A9001D3E06005E4FF121C829002D8
:1015EB0080E024FFF090027FE034FFF0229001CBEB
:1015FB00E02488F582E43402F583E004F0C3940A16
:10160B0074809480402B9001CBE0FF2488F582E41A
:10161B003402F583740AF074102FF582E43400F56C
:10162B00837401F074FE2FF582E43401F58374FFAB
:10163B00F0E4FF021C821200561218AF7F01121C3D
:10164B00829002837403F02290001EE075F00CA4CC
:10165B00245CF582E43400F583E064017003021727
:10166B0012900022E0FEA3E0FFF47002EEF4700390
:10167B000217129001CBE0FD2410F582E43402F541
:10168B0083E06003021712ED25E02404F582E434B5
:10169B0002F583E0FCA3E0FDD3EF9DEE9C40689048
:1016AB000022A3E09DFDEE9CFCD3ED942CEC940169
:1016BB004055D3EF94B8EE940B401490002674066B
:1016CB00F0900024E0940A74809480503A8035D3D3
:1016DB00ED9490EC940140149000267406F0900069
:1016EB0024E0940A74809480501D80189001CBE004
:1016FB0024FEF582E43401F583E0900026F090009F
:10170B0024E07003E004F022120009787FE4F6D89D
:10171B00FD75810702175D021D18E493A3F8E4938E
:10172B00A34003F68001F208DFF48029E493A3F8C9
:10173B005407240CC8C333C4540F4420C88340043B
:10174B00F456800146F6DFE4800B010204081020FA
:10175B00408090192DE47E019360BCA3FF543F3071
:10176B00E509541FFEE493A360010ECF54C025E09E
:10177B0060A840B8E493A3FAE493A3F8E493A3C856
:10178B00C582C8CAC583CAF0A3C8C582C8CAC583E7
:10179B00CADFE9DEE780BE90001EE0FF75F011A402
:1017AB002430F582E43400F583E4F0EF75F011A4F6
:1017BB002431F582E43400F583E4F0A3F0EF75F007
:1017CB0011A42433F582E43400F58374FFF0A3F005
:1017DB00EF75F011A42435F582E43400F583E4F0C1
:1017EB0090001C74FFF0E490001BF0900019F0A324
:1017FB00F0900017F0A3F0FFEFC3940A748094806D
:10180B00502190001EE075F011A42437F582E434CA
:10181B0000F583E5822FF582E43583F58374FFF0C1
:10182B000F80D522E490001DF09001CBE0FF241037
:10183B00F582E43402F583E4F090001EE075F011BC
:10184B00A42435F582E43400F5837401F0EF25E030
:10185B0024F1F582E43401F5837403F0A37420F0D2
:10186B009001CBE025E02404F582E43402F583E01B
:10187B00FFA3E0900022CFF0A3EFF09000167401CD
:10188B00F090002674FFF07F01EFC3940A748094EC
:10189B0080501074262FF582E43400F58374FFF02A
:1018AB000F80E622E4FFFDFC90026804F0900268D2
:1018BB00E0FEC39406748094805029749F2EF582A9
:1018CB00E43402F583E02DFDE43CFCD3ED94FFEC16
:1018DB009400400874012DFD74FF3CFC900268E0FD
:1018EB0004F080C9D3ED94FFEC94005005C374FF52
:1018FB009DFF9002A5EFF0E4900268F0900268E083
:10190B00FFC39408748094805017749F2FF582E462
:10191B003402F583E0FF121ECC900268E004F080E5
:10192B00DB224102C4004600750102040703004696
:10193B00023E8C8C8C8C8C006028021601900190DE
:10194B000190015E00C800C800B400B400B400965A
:10195B000096009600C800C800C800C800C800C8A0
:10196B0000C800C85401D7373737372422201C183A
:10197B0014131313132D2D2D2D2D2D4402A90000FF
:10198B0000004102A7004102A8004102C20041022F
:10199B00C300480297F00304092828E0FA0012213B
:1019AB003F9002677414F0900267E0D39400748048
:1019BB0094804054C2927F067E00121E610000008C
:1019CB00000000000000000000000000000000000C
:1019DB0000000000000000000000000000D2927F19
:1019EB00067E00121E6100000000000000000000D7
:1019FB0000000000000000000000000000000000DC
:101A0B00900267E014F0809FC29290007B7401F00B
:101A1B00A37454F002213CE4FBEBC3940374809455
:101A2B0080506774FE2BF582E43401F583E0FF7E72
:101A3B0000D3941E74809480500F74902BF582E425
:101A4B003402F5837403F0803ED3EF9496EE6480FA
:101A5B009480502674FE2BF582E43401F583E02448
:101A6B0005FFE433FE7C007D0A12140074902BF505
:101A7B0082E43402F583EFF0800D74902BF582E451
:101A8B003402F5837419F00B808F2290001EE0FF57
:101A9B0075F00CA4245DF582E43400F583E4F0EFDB
:101AAB0075F00CA42452F582E43400F583E4F0EFD6
:101ABB0075F00CA42453F582E43400F583E4F0EFC5
:101ACB0075F00CA42458F582E43400F583121488C5
:101ADB000000000090001EE0FB75F00CA42454F5F0
:101AEB0082E43400F58312148800000000EB75F0DB
:101AFB000CA4245CF582E43400F583E4F02290021C
:101B0B006FEEF0A3EFF0A9037BFF90026FE0C3131E
:101B1B00FF25E02416F582E43402F583E0F8A3E018
:101B2B00F5828883D39DE5839C503574D72FF5823E
:101B3B00E43401F583E0FFE9C39F402490026FE09A
:101B4B00FEA3E07807CEC313CE13D8F9F0EE9002C4
:101B5B006FF0E0FEA3E0FF7C027D2D1213EEEEFB97
:101B6B00AF0322C0E0C0F0C083C082C0D075D000EC
:101B7B00C000C001C002C003C004C005C006C0073E
:101B8B009002BB7401F09002B7E475F0011214558A
:101B9B00FEC3E5F09432EE9400400C9002B7E4F0F3
:101BAB00A3F09002B404F0121CCFC2CFD007D00622
:101BBB00D005D004D003D002D001D000D0D0D08239
:101BCB00D083D0F0D0E032E490001FF0A3F0A3F06C
:101BDB0074FFA3F0A3F0E4A3F0900016F090001EA6
:101BEB00F090001D04F0E4FFEFC394027480948026
:101BFB005013EF75F011A42430F582E43400F58313
:101C0B00E4F00F80E3E4FFEFC3940A7480948050F8
:101C1B001074262FF582E43400F58374FFF00F80E7
:101C2B00E6229002C4E5A7F053D4EF53D4DF43E38D
:101C3B000175A720759442759D087596FE7595568E
:101C4B0043C81053D8EE43D80675A71043CE0453A0
:101C5B00F4FB53F6FB75A72075C81075930C539DB9
:101C6B000F53D80F43D880539DF0439D0853D8F0A2
:101C7B0043D80EE0F5A722EF640170109001CBE082
:101C8B0004F0E0640170227402F0801D9001CBE03F
:101C9B00640270079002837405F0229001CBE0047C
:101CAB00F0E0640170037402F09001CBE0FF90014F
:101CBB00CDE0FEEF8EF0849001CBE5F0F090028347
:101CCB007403F0229001D2E004F070069001D1E091
:101CDB0004F0E4FFEFC3940374809480502EEF253F
:101CEB00E024F1F582E43401F583E0FCA3E0D39426
:101CFB0000EC94004013EF25E024F1F582E434016D
:101D0B00F58374FFF5F01214550F80C82212208E44
:101D1B0012204B7F011220AE121F56121F2B1220C6
:101D2B00CA121E2212002E121FFD121C2D12213C54
:101D3B007FC87E0012000E7F2C7E0112000E121D3A
:101D4B009F9002BBE06005E4F012095C7597A580DB
:101D5B00F090026EEBF0A3EAF0A3E9F0E4FF90023F
:101D6B0074E0FEEFC39E502B90026EE0FBA3E0FAF3
:101D7B00A3E0F98F8275830012139FFE900271E02E
:101D8B00FBA3E0FAA3E0F98F82758300EE1213CC6C
:101D9B000F80CB229001CE7402F090001D14F0E462
:101DAB00FFEFC3940674809480501D74FE2FF58250
:101DBB00E43401F58374FFF074EB2FF582E4340106
:101DCB00F583740FF00F80D99001FD74FFF0E49050
:101DDB0001CAF0020003C0E0C083C082C0D075D03E
:101DEB0000C006C007E59E54106003539E6FE5C804
:101DFB0054C0FF6006F452C812004AEF30E604AE3E
:101E0B00928007AE92AF06122136D007D006D0D003
:101E1B00D082D083D0E032121FD51206E5121D9F5F
:101E2B00E4FF9001CDE0FEEFC39E501C74882FF5AC
:101E3B0082E43402F583E4F074902FF582E43402EB
:101E4B00F58374FFF00F80DA9002837403F0E49053
:101E5B00027FF0A3F0229002C4E5A7F075A710EF64
:101E6B007802C333CE33CED8F9FFC374FF9FFF7410
:101E7B00FF9EFEEFF5A4EEF5A5D29A209F05759770
:101E8B00A580F8C29AC29F9002C4E0F5A722C2EEC9
:101E9B00C2E8C2E975B20175BC1D75B31075DF40A0
:101EAB00E4F5B975C4FF75C3FFF5C6F5C575BB027F
:101EBB0075D10843E60853F3F743F508D2EF020058
:101ECB008EAEA775A7208F92E49002C3F09002C349
:101EDB00E07019E5C85402C313D394007480948046
:101EEB004005C2C97401F07597A580E1AF068FA7B5
:101EFB0022C0E0C083C082C0D0C3900089E0943F71
:101F0B00900088E09401500CA3E004F07006900060
:101F1B0088E004F053917FD0D0D082D083D0E032D0
:101F2B009002C4E5A7F0E4F5A7C2C8C2C9C2CCC2EF
:101F3B00CB75CCFF75CDFF75CA0C75CBF0D2AD53FD
:101F4B00B8DF43F220D2CAE0F5A7229002C4E5A77E
:101F5B00F075A710C298C299C29CC29B75A4FF755D
:101F6B00A5FFE4F5A2F5A353F4EF53F6EF53CEEF31
:101F7B00C29AE0F5A72290000FE0D39402748094EC
:101F8B00809001CBE0400D2410F582E43400F58302
:101F9B007401F0222410F582E43400F583E4F0227E
:101FAB00E4FFFE748A2FF58274003EF583E4F00F94
:101FBB00BF00010EBE01ECBF40E9E4900088F0A326
:101FCB00F090007BF0A3F0022130E4FFEFC3940804
:101FDB0074809480501B74972FF582E43402F58340
:101FEB00E0FE749F2FF582E43402F583EEF00F8050
:101FFB00DB22E49002BBF09002B4F09002B7F0A3A6
:10200B00F09002B6F09002B2F0A3F09002B5F0900F
:10201B0002B904F0A3742CF0229002C4E5A7F0E4FB
:10202B00F5A7F5917594FF7595FF7592717593FFF3
:10203B0043F38043F58053E67F5391FBE0F5A722F2
:10204B00E4F5A77580ED75A49075F1F075D4CF7597
:10205B00904075A58775F20F75D57F75E3C0F5E1D7
:10206B00F5E2229001CBE024FE60092402700AC243
:10207B0087C29022D287C29022C287C290E490017D
:10208B00CBF02275A71075C130E4F5A7F5A9F5A91A
:10209B00E5A9548060FA75A90375A903E5A95480D5
:1020AB0060FA22E4F5A7EFFD7C00640170067597DA
:1020BB00027597FFED4C70067597DE7597AD224351
:1020CB008E04438E025389FB438901E4F58AF58C18
:1020DB00C2A943B80243F202C28C229002C4E5A704
:1020EB00F0E4F5A753917F7594FF7595FF43910429
:1020FB0043E680E0F5A722C0E0C083C0829002C413
:10210B00E5A7F075A710C29FE0F5A7D082D083D0CA
:10211B00E032C2ECC2EFE490024FF0221220241204
:10212B0020E602008EE490006BF02290027EEFF02E
:07213B0022D2AF22C2AF2245
:00000001FF
