:020000040000FA
:10000000021480121DC0021DCD223202000AAD076B
:10001000AC06E4FBFAC3EB9DEA9C500E7FE87E033E
:10002000121B5E0BBB00010A80EB22021664121742
:100030002490022CE090023CF090022DE090023DD2
:10004000F090022EE090023EF0222202004EC2EB1F
:01005000327D
:10005300021360E4F5A7EFFD7C0064017006759759
:0F006300027597FFED4C70067597DE7597AD220D
:10007300021B8D85A773E4F5A72285A77375A710C7
:0700830022E4900070F0225E
:10008B00021A4BC2EDD2ECD2EF9002467401F02271
:10009B00021DE0E4F0A3F0A3F0A3F0A3F0A3F0A300
:1000AB00F0A3F0A3F022F0900023E075F011A4244C
:1000BB0038F582E43400F58322F0900023E075F0EC
:1000CB0011A4243AF582E43400F5832275F011EB88
:1000DB001210DF75F011EAA42583F583229001CA73
:1000EB00E025E024EFF582E43401F583229001CA88
:1000FB00E0FF240FF582E43400F583E022F583E082
:10010B00FF74892DF58274003CF583229001CAE0BF
:10011B0024E9F582E43401F5832275F00CEB12101F
:10012B00DFEA75F00CA42583F58322900201FFE42E
:10013B0033FEC3E0FD9FEE6480F87480982290023A
:10014B0001E0FEA3E02489F58274003EF583E022F2
:10015B00900023E075F00CA422900219E0242BF5FB
:10016B0082E43400F58322EF25E024DCF582E434CD
:10017B0001F58322FF900087E034FFFE90020AE036
:10018B00FCA3E0FDC39FEC9E22900023E075F011D1
:10019B00A4243CF582E43400F583E582229001CA65
:1001AB00E0FF24D6F582E43401F583229001CEE002
:1001BB00D394007480948022900023E0FF75F00CA0
:1001CB00A42462F582E43400F5832290002B74069C
:1001DB00F0900029E0940A748094802290021AE037
:1001EB00240EF582E43402F58322EF75F00CA4247F
:1001FB0057F582E43400F5832275F011A42435F50C
:10020B0082E43400F58322900087E0FEA3E02274A1
:10021B00892DF582E43400F58322E0FFA3E0900002
:10022B0027CFF0A3EFF022F0A3E0C4540F48F0A3C4
:10023B00E0C4F854F0C8682275F00CA42459F58278
:10024B00E43400F5832224FBF582E43401F58322A8
:10025B009001E874FFF09001C97401F02290002323
:10026B00E075F011A4243BF582E43400F58322FF02
:10027B00E4FCFDFEEB2FFFEE3AFEED39FDEC38FC16
:10028B00222FF582E43583F583222458F582E4345A
:10029B0000F58322245DF582E43400F5832224618A
:1002AB00F582E43400F58322E0F8A3E0F9A3E0FA49
:1002BB00A3E0FB22900078E02423F0900077E03459
:1002CB0000F02275F011A42436F582E43400F58396
:1002DB0022D3900078E09478900077E0940022C3CA
:1002EB0094197480948022F0900219E004F0223A61
:1002FB00F583E4F00B22E0FEA3E0FFC32290020B98
:10030B00E004F02290020AE004F022900070E06416
:10031B000122E0FCA3E0FDA3E0FEA3E0FFE42290BA
:10032B000029E0FF900201E0FEC39F22C3940674F4
:10033B0080948022C3940874809480222488F58250
:10034B0074003E22F0900079E0940C74809480222B
:10035B0090020274FFF0E4900201F022D394027435
:10036B0080948022FF900079E0C39F22E0FCA3E001
:10037B00FDD3EF9DEE9C22C29290007A7401F0A304
:10038B00227E007480948022900079E01313543FF6
:10039B00FF22F09001D0E0FEA3E0FF22900201E0EB
:1003AB0004F022E0FF900202E022E090002BF0909C
:1003BB000029E022120268E0FBFD7C002404FEEC25
:1003CB0033900206F0A3CEF0EB1313543FFFC3EDB3
:1003DB009FFEEC9400A3F0A3CEF0120B421202127C
:1003EB00120347F583E4F0900201F0A3F01202121E
:1003FB00FFC3900202E09F900201E09E40030205C2
:10040B00FB12015B120247C083C0821202B31201BE
:10041B004912027AD082D0831210A2900201E0FE20
:10042B00A3E0FF120150F9FDC3900207E09D90027B
:10043B0006E094005030900070E0702A04F09000B9
:10044B0073E9F07C007D2312101490007BE02FFFEA
:10045B0090007AE03E900075F0A3EFF0E41200AA52
:10046B00900071F0A3F0120393900209E02FFF901C
:10047B000208E03400FE900201E0FCA3E0FD2489B9
:10048B0012010FE0C39FE49E400302059112031675
:10049B00600302059112034F400E1202DC40091259
:1004AB00015B1201FAE004F012010CE090007412EF
:1004BB0000C4E0F97047900074E0FF7E0090007775
:1004CB00E0FCA3E0FD90007BE02DFD90007AE03C8A
:1004DB00CD2FFFEE3DFE900023E0FD1200B6EEF0B7
:1004EB00A3EFF0ED1200B6E0FFA3E090001CCFF0FD
:1004FB00A3EFF0ED1200C9E004F00205E7900074E1
:10050B00E0FF900073E02FFFE433FE900078E02FC4
:10051B00FF900077E03E900204F0A3EFF0E9C312E6
:10052B0001E05062900075E0FEA3E0FF900204E052
:10053B00FCA3E0FD900079E0FB12186D900203EF35
:10054B00F0F46042E0FF900023E0FE1200C9E0FDF2
:10055B00EE1201982D12028DEF1200C4E0640170AF
:10056B001F900204E0FFA3E090001ECFF0A3EFF07A
:10057B00900079E0900020F0120117E0900021F03C
:10058B001200C5E004F012031670511202BF1201E3
:10059B004912036F5002EFF09002061203019418F8
:1005AB00EE94005037EF25E0FFEE33FE120370E4BC
:1005BB009E5029C3900078E09430900077E094022D
:1005CB00501A900071E475F00112107BFEC3E5F038
:1005DB009410EE94004005E4900070F0900202E05D
:1005EB0004F060030203F8900201E004F00203F848
:1005FB00900023E01202047401F022E4900218F040
:10060B00900022E06401707CF090021AF0900219C5
:10061B00F0900023E0FF1200C9E0FE900219E0FD0C
:10062B00C39E5020EF1201982D12028DE0FFF46053
:10063B000E90021A120167EFF090021AE004F0120A
:10064B0002F380CD90021AE09000291200B1120241
:10065B00251201A8E060030207FA900029E060036D
:10066B000207FAEF1200ECE0FEA3E02478FFE43E71
:10067B00FE1200B2E0FCA3E0C39FEC9E4003020716
:10068B00FA0207F51200B2E0FEA3E0FF900027127A
:10069B0003774007EF9DFFEE9C800B1200B2120315
:1006AB0001ED9FFFEC9E900201F0A3EFF0C39002CF
:1006BB0002E09478900201E0940050109001CAE09F
:1006CB00120251E41200B1120225801E9001CAE001
:1006DB00FF12011B1203B5C31201E05003E004F03B
:1006EB0074FB2F1202537401F022E4900219F09064
:1006FB000219E0C31201E05016E0FF12019412023E
:10070B008CE0FE740E2F1201EDEE1202F280E0E48B
:10071B00900218F0A3F0900029E0FF900219E0C3BB
:10072B009F507CE4A3F01200C5E0FF90021AE0FE9C
:10073B00C39F5065740E2E1201EDE0FFF460521250
:10074B000164E0FED39F40091201E7E0FFC3EE8096
:10075B000A120164E0FF1201E7E0C39F900203F06D
:10076B00900203E012033F502890021AE0FF12019F
:10077B00EBE0FE900218E02404F582E43402F583EA
:10078B00EEF0740E2F1201ED74FFF0900218E004DE
:10079B00F090021AE004F0808D1202F3020721E4BC
:1007AB00900219F0900218E0FFA3E0FEC39F5018CF
:1007BB0074042EF582E43402F583E0FD742B2E12C3
:1007CB00016AED1202F280DC900029EFF07020122A
:1007DB0000E8E0FEA3E0242CFFEE3401FEC3900002
:1007EB0028E09F900027E09E5005E49001CDF02279
:1007FB00120261E4A3F0A3F09001CDF0A3F0A3F0FB
:10080B009001CAE0240FF582E43400F583E4F09004
:10081B00001BF0FBFA74152BF58274001202FABB65
:10082B0000010AEB64064A70ECE490007AF0A3F046
:10083B00A3F0FAFB747D2BF58274001202FABB0055
:10084B00010AEB640A4A70ECE4900087F0A3F0FA1B
:10085B00FB74892BF58274001202FABB00010ABAF1
:10086B0001EFBB40EC90006F12009EA3F0A3F09041
:10087B00002212009FFAFB742B2BF58274001202DC
:10088B00FABB00010AEB640A4A70ECE4FAFB900035
:10089B00351200D7E4F09000361200D7E4F0A3F045
:1008AB009000381200D7E4F0A3F090003A1200D772
:1008BB00E4F090003B1200D7E4F0F567F568900088
:1008CB003C1200D7E5822568F582E5833567F58311
:1008DB00E4F00568E56870020567640A456770DE39
:1008EB0090005775F00CEB1210DF75F00C1200E155
:1008FB00E4F0900058120125E4F090005912012504
:10090B001210AE0000000090005D1201251210AE17
:10091B0000000000900061120125E4F090006212CB
:10092B000125E4F00BBB00010AEB64024A600302F1
:10093B000899E49001E8F0FAFB74D62BF582740168
:10094B003AF583E4F0EB25E0FFEA33FE74DC2FF598
:10095B008274013EF583E4F0A3F074EF2FF58274FB
:10096B00013EF583E4F0A3F074FB2BF58274013A9E
:10097B00F583E4F074E92BF58274013AF58374FF87
:10098B00F00BBB00010AEB64064A70ADE490001C4F
:10099B001200A522120212248AF974003E756A0114
:1009AB00F56B896C756D327B017A007989121BBCF2
:1009BB00900087A3E02403900204F0900201F090D2
:1009CB000204E0F924301201365051A3EDF09002ED
:1009DB0004E02430900202120139503812021AE05E
:1009EB00FF900201E0248912021DE0FED39F401C00
:1009FB00900201E0FD900203EEF0900202E0FC1287
:100A0B00021AEFF074892C12021DEEF0900202E034
:100A1B0004F080BA900201E004F080A3E490020598
:100A2B001200A5900201E9F0900204E024101201DB
:100A3B00365050E0FF248912021DE0FB900206E0C5
:100A4B002BF0900205E03400F074992FF582E4341A
:100A5B0000F583E0FF900208E02FF0900207E034EE
:100A6B0000F074A92DF582E43400F583E0FF9002C9
:100A7B000AE02FF0900209E03400F0900201E0044C
:100A8B00F080A590020512023B120232120232FED6
:100A9B00A3E0C4540F48FF900209EEF0A3EFF090CF
:100AAB000207E0FCA3E0FDC3EF9DFFEE9CFEEF7899
:100ABB0002CEC313CE13D8F92DFF90006FF0C39461
:100ACB004612038C400574FFF08025D3EF9406EE9D
:100ADB0064809480401A90006FE024FA900203F037
:100AEB00E01313543FF0F5F0A4FF90006FE02FF0EC
:100AFB0090006FE0FFD3948012038C400E7480F053
:100B0B0012015B1201CC7403F0801FD3EF941EEE25
:100B1B0064809480900023E075F00C40081201CBA8
:100B2B007401F080051201CBE4F090006FE0FF122E
:100B3B000268EFF002129D90020A12009E90020AC8
:100B4B00F0A3F0120212FF120187502F12010CE0DA
:100B5B00601F900210F090020CECF0A3EDF0D39418
:100B6B0008EC940040159001CAE01200FD04F080DF
:100B7B000A12030870CD12030F80C8E490020AF02A
:100B8B00A3F090020CE0FEA3E0FF1201875012903D
:100B9B00021012010AEFF012030870E612030F8025
:100BAB00E190020AE4F0A304F0900088E024FF1225
:100BBB00017F501D12010CE0700D74882DF58274AD
:100BCB00003C120108EFF012030870DD12030F80D6
:100BDB00D890020AE4F0A37405F0900088E024FE9C
:100BEB0012017F4003020CDA12010CE0FF7E00249D
:100BFB0020FBEE33FA748A2DF58274003CF583E00A
:100C0B00D39BEA1201425003020CCFEF2430FFEECC
:100C1B0033FE748B2DF58274003CF583E0D3120107
:100C2B00405003020CCF90020BE02401FE90020A0D
:100C3B00E0340090020CF0A3CEF090020AE0FEA389
:100C4B00E0FF2408FDE43EFC1202B8C39DEA9C5071
:100C5B007374892F1201522408FFE433FE74892B1D
:100C6B00F58274003AF583E0C3120140504512013E
:100C7B005B1201FAE004F090020AE0FFA3E090029D
:100C8B000ECFF0A3EFF090020CE0FEA3E0FFA31257
:100C9B00018A503090020AE0FEA3E01203471201D2
:100CAB0008EFF090020FE004F070DB90020EE0040E
:100CBB00F080D390020DE004F0700690020CE0047B
:100CCB00F0020C45120308700312030F020BE5220E
:100CDB009001C9E0B408004003020E5A900CEEF8E4
:100CEB00282873020D06020D29020D3A020D53023C
:100CFB000D67020D91020DA7020E131211DA90016E
:100D0B00CBE064016003020E5DF0121904E4900164
:100D1B00CFF09001CD7402F09001C914F022900134
:100D2B00CF1201BA400280639001C97402F0229085
:100D3B0001CE7402F0121C171219D3121CBA121D19
:100D4B00D79001C97403F0221201B74002803C1204
:100D5B00000312099F9001C97404F022121C171290
:100D6B0018201215FC121CBA121DD79001CE740A52
:100D7B0012039D900023E01202CEEEF0A3EFF09051
:100D8B0001C97405F0221201B74004E014F02212DD
:100D9B0000031203BF9001C97406F0221210EB126C
:100DAB0001C3E0640360441201F5E0C39416748040
:100DBB009480503712015B120295E0C39403748048
:100DCB0094805027EF12024312031D7BB47A53F920
:100DDB00F8D3121091401412015B12029F12031DE3
:100DEB007B297A0BF8D31210915013E49001CDF0BC
:100DFB0012177B12015B1202A97401F08003120619
:100E0B00069001C97407F0221213F0900252E064AD
:100E1B000170069001CDE004F09001CD1201BA40B3
:100E2B001FE01412039D7C007D0612102674082D02
:100E3B00F8E69001CFF0900023E0045401F0800F0E
:100E4B00120E5E9001D27401F0E49001C9F02212EF
:100E5B0002612212035B12032A50229001CAE02482
:100E6B004AF8E6FF742B2E12016AE0D39F400990DB
:100E7B00020112016774FFF01203A780D9E49002FC
:100E8B0001F012032A5014742B2E12016A1203AEB6
:100E9B00D39F4002EFF01203A780E7900202E0FF1E
:100EAB007E001202EA5029EF94147480948040065D
:100EBB00E024FDF0801AEF64064E6014EF64054EDB
:100ECB00600EEF64024E6008120117E0900202F010
:100EDB00900202E0FF7E00D3949674809480401AB7
:100EEB009001CAE0FD120173E0FAA3E04A706B7443
:100EFB00E92D12011D74FFF08060C3EF9428EE649E
:100F0B00809480502B900202E0FF1202EA9001CAFB
:100F1B00E0500812011B7402F0800512011BEFF068
:100F2B009001CAE01201737403F0A37420F0802ABD
:100F3B00900202E0FFC39464748094805002800599
:100F4B00900202E0FF9001CAE0FE12011BEFF0EEEF
:100F5B001201737401F0A374F4F012035B9002019D
:100F6B00E0FF120337501474E92F12011D1203AE68
:100F7B00D39F4002EFF01203A780E29001E8120327
:100F8B00AEFED39F4016EE9FA3F0D39407748094CC
:100F9B00804026900202E09001E8F022900202E0ED
:100FAB00FF9001E8E0C39F900203F0D39405748097
:100FBB00948040059001E8EFF022BB010CE58229FB
:100FCB00F582E5833AF583E0225006E92582F8E6BF
:100FDB0022BBFE06E92582F8E222E58229F582E5AD
:100FEB00833AF583E49322F8BB010DE58229F58260
:100FFB00E5833AF583E8F0225006E92582C8F6220C
:10100B00BBFE05E92582C8F222EF8DF0A4A8F0CF34
:10101B008CF0A428CE8DF0A42EFE22BC000BBE00BB
:10102B0029EF8DF084FFADF022E4CCF875F008EFDA
:10103B002FFFEE33FEEC33FCEE9DEC984005FCEEFF
:10104B009DFE0FD5F0E9E4CEFD22EDF8F5F0EE8430
:10105B0020D21CFEADF075F008EF2FFFED33FD40F5
:10106B0007985006D5F0F222C398FD0FD5F0EA226F
:10107B00C5F0F8A3E028F0C5F0F8E5821582700200
:10108B001583E038F022EB9FF5F0EA9E42F0E99DE4
:10109B0042F0E89C45F022ECF0A3EDF0A3EEF0A3B8
:1010AB00EFF022A8828583F0D083D0821210C51274
:1010BB0010C51210C51210C5E473E493A3C583C504
:1010CB00F0C583C8C582C8F0A3C583C5F0C583C866
:1010DB00C582C822A42582F582E5F03583F58322EB
:1010EB001201A8E0FE1201BB500302119C1200B2C8
:1010FB00E0FCA3E0FDD394F4EC9401403AED94288A
:10110B00EC940A50329001CAE0FD1201ADEEC3130C
:10111B001200B1E0FAA3E0FBED1200ECEAF0A3EB56
:10112B00F0740F2F1200FF1201BB40449001CAE074
:10113B001200FD14F080391200B21203019428EE54
:10114B00940A401CEF9450EE944650141201A8E000
:10115B00C313F0EF1200EC740AF0A37428F08010A4
:10116B001200F812033F5008740F2F1200FF04F007
:10117B001200E81203019414EE9405504FEF94F40F
:10118B00EE940140471200E8740AF0A37428F08033
:10119B003B1200B2E0FEA3E0FFD39450EE94465016
:1011AB0009C3EF94F4EE940150121200F812033FAE
:1011BB00501A740F2F1200FF04F080101200F81257
:1011CB0001BB4008740F2F1200FF14F0021AF390AA
:1011DB00024CE0700302129C900252E06401700614
:1011EB009001CB04F02290021FE024FD60161460E6
:1011FB003014700302128B2403600302129C121929
:10120B00910216C8121C93E49001D2F09001CB040A
:10121B00F090021BE4F0A37482F090021F7404F0B0
:10122B0022D390021CE0940090021BE09400401A21
:10123B009001D2E06005E4FF121B2A90021CE0240F
:10124B00FFF090021BE034FFF0229001CAE0121C69
:10125B000DE004F0C3940A74809480401E9001CA80
:10126B00E0FF121C0D740AF074152FF582E43400A4
:10127B00F5837401F0121BEA74FFF0E4FF021B2AE2
:10128B0012002E1216C87F01121B2A90021F740324
:10129B00F022E490020BF0A3F0120212120347F5B6
:1012AB0083E4F090020BF0A3F0120212FFC3900242
:1012BB000CE09F90020BE09E400302135F12015B58
:1012CB0012029FC083C0821202B390020B12014C18
:1012DB0012027AD082D0831210A290006FE0240405
:1012EB00FFE433FE90020BE0FCA3E0248912010F14
:1012FB00D312013E4015900070E0702F04F0E49083
:10130B000079F0900077F0A3F08020120393EDC3E7
:10131B009F5018120316701312034F400E1202DC6B
:10132B00400912015B120295E004F01203167010D3
:10133B001202BF90020B12014C12036F5002EFF01E
:10134B0090020CE004F060030212B490020BE00474
:10135B00F00212B422C0E0C083C082C0D075D000AE
:10136B00C004C00790007CE0FFC394077480948096
:10137B00500B747D2F121A30E004F0805775650006
:10138B007566FF90007CE0247D121A30E4F0F56462
:10139B00C3E5649408748094805021747D2564F5B2
:1013AB0082E43400F583E0FFE565C39F50028F654F
:1013BB00E566D39F40028F66056480D4C3E56595CF
:1013CB0066FF900087E0FCA3E02489F58274003C63
:1013DB00F583EFF0C2EDD2ECD007D004D0D0D082A1
:1013EB00D083D0E03212015B1202A9E064017003DA
:1013FB0002147F900027E0FEA3E0FFF47002EEF4EE
:10140B0060729001CAE0FD120251E07067ED1200AC
:10141B00EC120377405E9001CAE0FF1200ECE0FC97
:10142B00A3E0FD900027E0FAA3E0FBC39DFDEA9C3F
:10143B00FC900201F0A3EDF0D3942CEC940140341A
:10144B00D3EB94B8EA940B40071201D650268021B7
:10145B00D3900202E09490900201E09401400712B5
:10146B0001D65010800B74E92F12011D1203B570B9
:10147B0003E004F022120009787FE4F6D8FD7581B1
:10148B00730214CA02150FE493A3F8E493A3400369
:10149B00F68001F208DFF48029E493A3F8540724C3
:1014AB000CC8C333C4540F4420C8834004F4568083
:1014BB000146F6DFE4800B01020408102040809007
:1014CB00158CE47E019360BCA3FF543F30E50954B7
:1014DB001FFEE493A360010ECF54C025E060A8402B
:1014EB00B8E493A3FAE493A3F8E493A3C8C582C822
:1014FB00CAC583CAF0A3C8C582C8CAC583CADFE9F7
:10150B00DEE780BE121D6E121D2A7F0112005612DD
:10151B001D05121CE0121D8E12194B1217CE121D37
:10152B00E97FC87E0012000E7F2C7E0112000E1286
:10153B0018BA900256E07002A3E0601E900258E0C9
:10154B0060F0E4F0120CDB900257E024FFF0900205
:10155B0056E034FFF07597A580D8E4900252F01254
:10156B001A8490021F7403F0900258E0600E9002F0
:10157B004CE06008E4900258F0120CDB7597A580E4
:10158B00E70173000608010204070300064A8C8C6E
:10159B008C8C8C00202822019001900190015E0020
:1015AB00C800C800B400B400B400960096009600C2
:1015BB00C800C800C800C800C800C800C800C814CC
:1015CB000E373737372422201C1814131313132DFF
:1015DB002D2D2D2D2D44025900000000016F00010F
:1015EB007000017100480233F00304092828E0FA67
:1015FB0000121DEC756714AF67D3EF1201BC40509E
:10160B00C2927F067E00121B5E00000000000000ED
:10161B0000000000000000000000000000000000BF
:10162B00000000000000000000D2927F067E001236
:10163B001B5E000000000000000000000000000026
:10164B00000000000000000000000000156780A7EC
:10165B001203827454F0021DE9C0E0C0F0C083C0D5
:10166B0082C0D075D000C000C001C002C003C0044E
:10167B00C005C006C0079002587401F0900254E4F4
:10168B0075F00112107BFEC3E5F09432EE9400402E
:10169B000C900254E4F0A3F090025104F0121ABC27
:1016AB00C2CFD007D006D005D004D003D002D001D2
:1016BB00D000D0D0D082D083D0F0D0E032E4FFFD88
:1016CB00FC756801E568C3940674809480501D1204
:1016DB001C002DFDE43CFCD3ED94FFEC9400400882
:1016EB0074012DFD74FF3CFC056880D8D3ED94FF8D
:1016FB00EC94005005C374FF9DFF900241EFF0E4A2
:10170B00F568C3E568940874809480500B121C0034
:10171B00FF121C41056880EA22E4FBEBC3940374BF
:10172B00809480504A74E92B121BEDE0FF7E00D3AE
:10173B00941E748094805008121BF57403F0802C57
:10174B00D3EF9496EE64809480501B74E92B121B9C
:10175B00EDE02405FFE433FE7C007D0A1210261217
:10176B001BF5EFF08006121BF57419F00B80AC2201
:10177B00E4900022F09001CAE0FF120251E4120043
:10178B00C47401F01201727403F0A37420F0120000
:10179B00E812022590001B7401F090002B74FFF0EF
:1017AB009002017401F0900201E0FFC31201E050BE
:1017BB0011742B2F12016A74FFF0900201E004F0F8
:1017CB0080E42285A77353D4EF53D4DF43E3017531
:1017DB00A720759442759D087596FE75955643C85E
:1017EB001053D8EE43D80675A71043CE0453F4FB21
:1017FB0053F6FB75A72075C81075930C539D0F53AB
:10180B00D80F43D880539DF0439D0853D8F043D84D
:10181B000E8573A722900023E0FF120204E4F0EF81
:10182B001202CEE4F0A3F0EF1200B674FFF0A3F0B7
:10183B00EF1200C9E4F090002174FFF0E490002057
:10184B00F090001EF0A3F090001CF0A3F0FFEFC38C
:10185B001201E0500C12019412028C74FFF00F80F5
:10186B00ED228E678F688C698D6A7DFFE567C313E8
:10187B00FF25E02422F8E6F58308E6F582C3E56A46
:10188B009582E56995834024740E2FF8E6FFEBC330
:10189B009F4019E5687807CEC313CE13D8F9F568C6
:1018AB008E67FF7C027D2D121014EEFDAF0522908A
:1018BB0002527401F09001CD04F090025614F0A383
:1018CB00742CF09000227401F0E4FFEF12033750F8
:1018DB002274272FF582E43402F5837401F074E946
:1018EB002F12011D74FFF074D62F1201AF740FF07D
:1018FB000F80D812025B020003E4900024F0A3F0E7
:10190B00A3F074FFA3F0A3F0E4A3F090001BF090FE
:10191B000023F090002204F0E4FFEFC312036850A1
:10192B0009EF120204E4F00F80F0E4FFEFC31201A1
:10193B00E0500C742B2F12016A74FFF00F80ED2214
:10194B00121C6B1207FB121A84E4900252F09002E5
:10195B005604F0A374F4F0E4900251F09001CAF035
:10196B009001CC7403F0E49001D2F0FF9001CCE035
:10197B00FEEFC39E500F74242FF582E43402F583DF
:10198B00E4F00F80E722121724900015E064017039
:10199B000890023C7427F08005E490023CF0900024
:1019AB0016E06401700890023D7427F08005E49006
:1019BB00023DF0900017E06401700790023E74271F
:1019CB00F022E490023EF0221201C3E4F01201F582
:1019DB00E4F0EF75F00CA4120295E4F0EF75F00C47
:1019EB00A412029F1210AE00000000900023E0FB37
:1019FB001202431210AE00000000EB75F00CA412A3
:101A0B0002A9E4F022C2EEC2E8C2E975B20175BCCC
:101A1B001975B34275DF40E4F5B975C4FF75C3FFA3
:101A2B00F5C6F5C522F582E43400F583E5BDF090EB
:101A3B00007C2275D108F5BEF5BDD2EF53E6F72237
:101A4B00C0E0C0D075D000C006C007E59E54106042
:101A5B0003539E6FE5C854C0FF6006F452C81200D2
:101A6B004AEF30E604AE928007AE92AF06121DEF3E
:101A7B00D007D006D0D0D0E0329001CD7402F090D8
:101A8B00002214F0E4900201F0900201E0120337FF
:101A9B005019E0FF12011B74FFF074D62F1201AF27
:101AAB00740FF0900201E004F080DE12025B020082
:101ABB00039001D1E004F070069001D0E004F0E453
:101ACB00FFEFC3940374809480501C120172E0FCEE
:101ADB00A3E0D39400EC9400400A12017274FFF55A
:101AEB00F012107B0F80DA221200F8120367400FFE
:101AFB0074152FF582E43400F5837401F0800F9098
:101B0B0001CAE02415F582E43400F583E4F090017A
:101B1B00CAE012036750077F067E00121B5E22EF9E
:101B2B0064017002800F9001CAE06402700790029A
:101B3B001F7405F0229001CAE004F0E0FF9001CC85
:101B4B00E0FEEF8EF0849001CAE5F0F090021F7476
:101B5B0003F02212007DEF7802C333CE33CED8F9D7
:101B6B00FFC374FF9FFF74FF9EFEEFF5A4EEF5A578
:101B7B00D29A209F057597A580F8C29AC29F85734C
:101B8B00A722C0E0C083C082C0D0C3900088E0947D
:101B9B003F900087E09401500CA3E004F070069096
:101BAB000087E004F053917FD0D0D082D083D0E077
:101BBB00328B678A688969E4FFEFC3956D501FAB61
:101BCB0067AA68A9698F82758300120FC5AB6AAAD1
:101BDB006BA96C8F82758300120FF20F80DB22745E
:101BEB00E92FF582E43401F58322742C2BF582E482
:101BFB003402F58322743B2568F582E43402F583C5
:101C0B00E0222424F582E43402F58322E4FFFE74FF
:101C1B00892FF58274003EF583E4F00FBF00010EAF
:101C2B00BE01ECBF40E9E4900087F0A3F090007A8E
:101C3B00F0A3F0020084AEA775A7208F92E4F57293
:101C4B00E5727019E5C85402C313D39400748094E1
:101C5B00804005C2C97572017597A580E38EA722D6
:101C6B00E4FFEFC3940874809480501B74332FF5FA
:101C7B0082E43402F583E0FE743B2FF582E43402F8
:101C8B00F583EEF00F80DB229001CAE014600C1498
:101C9B00600E2402700FC287C29022C287D290229C
:101CAB00D287C29022C287D290E49001CAF022C29E
:101CBB00EEC2E8C2E975B20175BC1D75B310121AFC
:101CCB001F75BB0275D10843E60853F3F743F508BC
:101CDB00D2EF02008E120076C2C8C2C9C2CCC2CBF0
:101CEB0075CCFF75CDFF75CA0C75CBF0D2AD53B863
:101CFB00DF43F220D2CA8573A72212007DC298C29D
:101D0B0099C29CC29B75A4FF75A5FFE4F5A2F5A330
:101D1B0053F4EF53F6EF53CEEFC29A8573A722E439
:101D2B00F5A77580ED75A49075F1F075D4CF75900E
:101D3B004075A58775F20F75D57F75E3C0F5E1F595
:101D4B00E222120076F5917594FF7595FF759271ED
:101D5B007593FF43F38043F58053E67F5391FB85E7
:101D6B0073A72275A71075C130E4F5A7F5A9F5A9DE
:101D7B00E5A9548060FA75A90375A903E5A95480F8
:101D8B0060FA22438E04438E025389FB438901E49C
:101D9B00F58AF58CC2A943B80243F202C28C221217
:101DAB00007653917F7594FF7595FF43910443E63D
:101DBB00808573A7221200765391FB53E67F8573C0
:101DCB00A722C2ECC2EFE4900246F022121D4D1284
:101DDB001DAA02008E12007DC29F8573A732D2AF5F
:071DEB0022C2AF228F6E221D
:00000001FF
