:020000040000FA
:100000000231EDC284E49002EFF02202002290035C
:10001000C1E5A7F0E4F5A75391FB53E67FE0F5A710
:1000200022223202337CC28FD28E22023656AD0794
:10003000AC06E4FBFAC3EB9DEA9C500E7FE87E031E
:10004000123A1C0BBB00010A80EB2202004EC2EBED
:01005000327D
:06005300022DC9D2AF220C
:10005B00022247A2AF9200C2AF8F828E83E493FF3E
:10006B00A20092AF22C2AF22023B7A9003C1E5A756
:10007B00F075A72043D41043D42053E1FE7598901C
:10008B0075A71053A8EF53B8EF53F2EFE0F5A72283
:10009B00023E599003B4E0640170069001CD04F068
:1000AB002290028EE0B40D0040030206E09000BFE8
:1000BB00F82828730200E602010D0201970202DF05
:1000CB0002030D02041102048E0204DB0204DE02A1
:1000DB0005770205C70205FB020695900289E0FD34
:1000EB00E490038EF0A3F0A3F07B037FD67E1F1268
:1000FB0020C190028AE4F0A3741EF090028E74016A
:10010B00F022D390028BE0940090028AE09400409E
:10011B003A9002EEE0640260030206BA9002EDE050
:10012B00640160030206BAF0900289E0FF2496F5A1
:10013B0082E43402F583E4F09002EBE05407B50758
:10014B0007E41235261238C50206BAE490028EF087
:10015B00900289E02496F582E43402F583E004F002
:10016B00C394037480948050030206E0900289E0EC
:10017B00FF2496F582E43402F583E4F074102FF536
:10018B0082E43400F5837401F00238C5E4FF900378
:10019B0088F0900388E0FEFD7C00C3940674809485
:1001AB0080506E9002E1E0FBA806088002C313D8D2
:1001BB00FC30E055C3ED9404EC64809480502690A1
:1001CB000388E0FE2410F582E43400F583E064013B
:1001DB007037C374039EFEF87401088002C333D8D2
:1001EB00FC4FFF8024900388E0FE2410F582E4345A
:1001FB0000F583E064017011C374099EFEF874016D
:10020B00088002C333D8FC4FFF900388E004F080D2
:10021B008190022AE4F0A3EFF09003897405F0902B
:10022B0002E1E0540164017008900010E064016089
:10023B00649002E1E0C31354016401700890001153
:10024B00E0640160509002E1E0131354016401700B
:10025B0008900012E06401603C9002E1E01313137C
:10026B00540164017008900013E064016027900250
:10027B00E1E0C4540164017008900014E064016073
:10028B00149002E1E0C41354016401700E90001548
:10029B00E0640170069003897419F07F02123BA988
:1002AB00E4900388F0900389E0FF900388E0C39FFC
:1002BB005012122F487F0A7E0012002E900388E006
:1002CB0004F080E190028E7403F0E4900289F07FD9
:1002DB0001023BA97F057E0012002E900289E0FDF2
:1002EB00E490038EF0A3F0A3F07B037FB67E0C1299
:1002FB0020C190028AE4F0A3748CF090028E7404F7
:10030B00F022D390028BE0940090028AE09400409C
:10031B00719002EEE0640270669002EDE064017091
:10032B005EF09002EBE05407FF900289E0FDB50709
:10033B004E74962DF582E43402F583E4F0123526E3
:10034B00900289E0FB25E025E024C9F582E4340224
:10035B00F583E0FCA3E0FDA3E0FEA3E02401FFE4B2
:10036B003EFEE43DFDE43CFCEB25E025E024C9F535
:10037B0082E43402F58312096E90028E7407F00248
:10038B0006BA900289E0FB25E025E024B1F582E472
:10039B003402F583E0FCA3E0FDA3E0FEA3E024011F
:1003AB00FFE43EFEE43DFDE43CFCEB25E025E024D0
:1003BB00B1F582E43402F58312096E900289E024D0
:1003CB0096F582E43402F583E004F0C3940574805F
:1003DB009480402B900289E0FF2496F582E434024E
:1003EB00F5837405F074102FF582E43400F58374F3
:1003FB0001F074EF2FF582E43401F58374FFF09074
:10040B00028E7407F022D390028BE0946490028AE0
:10041B00E094004018121B6F7F02123BA912382682
:10042B00122CFE90028AE4F0A3745CF022D39002AB
:10043B008BE0940090028AE09400401A122628EF79
:10044B006401700F90028E7407F090028AE4F0A39F
:10045B00746EF00206BA9002A3E004F0D394057414
:10046B00809480400E741EF01237CD121B6FE490F7
:10047B000289F090028E7405F090028AE4F0A37466
:10048B006EF022D390028BE0940090028AE09400ED
:10049B004014122628EF6401700912382690028E40
:1004AB007407F00206BA1238269002A3E004F0D3C8
:1004BB00941E7480948050030206E0741EF0123771
:1004CB00CD121B6FE4900289F090028E7405F0221E
:1004DB000234539002EEE0640170319002EDE0645F
:1004EB00017029F09002EBE05407FF9001CCE0B5CE
:1004FB00071AE490028AF0A37450F09001CD7401B6
:10050B00F0E4FF123BA990028E7409F09002EEE02A
:10051B00640370149002EDE06401700CF07F011223
:10052B003BA990028E740AF09002EEE06404600323
:10053B000206E09002EDE0640160030206E0F09039
:10054B0002EBE05407FF9001CCE06F7001E4600315
:10055B000206E090028AF0A37450F0E49001CDF013
:10056B007F01123BA990028E7409F0229001CCE01E
:10057B00FD2410F582E43400F583E0FE9001EEE0FB
:10058B00FBEEFA900017E025E04AFFEB90028CCFD0
:10059B00F0A3EFF090028CE0FFA3E090038ECFF07E
:1005AB00A3EFF0A3740AF07B037FE67E0F1220C14A
:1005BB007F01123BA990028E7408F0229002EEE0AC
:1005CB00640360030206E09002EDE0640160030245
:1005DB0006E0F09002EAA3E0540F90028FF0900136
:1005EB00CD7401F0E4FF123B4B90028E740BF022A2
:1005FB0090028FE014601914602B14603514603D69
:10060B0014603A24F86040240D704B90001D802537
:10061B00900018E0FEA3E0FF7C007D0A12077590A6
:10062B00028CEE802B90001AE0FFA3E090028CCF9F
:10063B00801E90001CE0FF90028CE4801390028CD3
:10064B00E4F0A304F080169001CCE0FF90028CE460
:10065B00F0A3EFF08007E490028CF0A3F090028FF0
:10066B00E0FD90028CE0FFA3E090038ECFF0A3EFB0
:10067B00F0A37408F07B047FDE7E171220C1E4FF29
:10068B00123B1C90028E740AF022D390028BE094E2
:10069B000090028AE094004025122628EF64017036
:1006AB000E90028E740CF090028AE4F0A304F0908A
:1006BB00028BE024FFF090028AE034FFF022123725
:1006CB00CD121B6F7F02123BA9122CFE90028AE403
:1006DB00F0A37464F022BB010CE58229F582E5835B
:1006EB003AF583E0225006E92582F8E622BBFE06A6
:1006FB00E92582F8E222E58229F582E5833AF58342
:10070B00E49322BB010FF8E58229F582E5833AF5E4
:10071B0083E028F0225009C58229F8E58226F622CB
:10072B00BBFE09C58229F8E22582F222F8EA25836D
:10073B00F583E9932822F8BB010DE58229F582E5C3
:10074B00833AF583E8F0225006E92582C8F622BBEE
:10075B00FE05E92582C8F222EF8DF0A4A8F0CF8C1C
:10076B00F0A428CE8DF0A42EFE22BC000BBE0029D7
:10077B00EF8DF084FFADF022E4CCF875F008EF2F8D
:10078B00FFEE33FEEC33FCEE9DEC984005FCEE9D4A
:10079B00FE0FD5F0E9E4CEFD22EDF8F5F0EE842066
:1007AB00D21CFEADF075F008EF2FFFED33FD4007C7
:1007BB00985006D5F0F222C398FD0FD5F0EA22C56A
:1007CB00F0F8A3E028F0C5F0F8E582158270021569
:1007DB0083E038F022BB010A89828A83E0F5F0A31B
:1007EB00E022500687F009E71922BBFE07E3F5F07C
:1007FB0009E3192289828A83E493F5F07401932229
:10080B00BB0110E58229F582E5833AF583E0F5F02B
:10081B00A3E0225009E92582F886F008E622BBFE08
:10082B000AE92582F8E2F5F008E222E5832AF5834E
:10083B00E993F5F0A3E99322BB010A89828A83F03D
:10084B00E5F0A3F0225006F709A7F01922BBFE062C
:10085B00F3E5F009F31922F8BB0111E58229F582C2
:10086B00E5833AF583E8F0E5F0A3F0225009E9259A
:10087B0082C8F608A6F022BBFE09E92582C8F2E57C
:10088B00F008F22275F008758200EF2FFFEE33FEB1
:10089B00CD33CDCC33CCC58233C5829BED9AEC994D
:1008AB00E58298400CF582EE9BFEED9AFDEC99FCEF
:1008BB000FD5F0D6E4CEFBE4CDFAE4CCF9A8822236
:1008CB00B800C1B90059BA002DEC8BF084CFCECD56
:1008DB00FCE5F0CBF97818EF2FFFEE33FEED33FD8F
:1008EB00EC33FCEB33FB10D703994004EB99FB0F74
:1008FB00D8E5E4F9FA227818EF2FFFEE33FEED334B
:10090B00FDEC33FCC933C910D7059BE99A4007ECC2
:10091B009BFCE99AF90FD8E0E4C9FAE4CCFB227509
:10092B00F010EF2FFFEE33FEED33FDCC33CCC8339D
:10093B00C810D7079BEC9AE899400AED9BFDEC9AFF
:10094B00FCE899F80FD5F0DAE4CDFBE4CCFAE4C877
:10095B00F922EB9FF5F0EA9E42F0E99D42F0E89C0C
:10096B0045F022ECF0A3EDF0A3EEF0A3EFF022A8FC
:10097B00828583F0D083D0821209911209911209DA
:10098B0091120991E473E493A3C583C5F0C583C8A1
:10099B00C582C8F0A3C583C5F0C583C8C582C8226C
:1009AB00A42582F582E5F03583F58322BB010DE5A5
:1009BB008229F582E5833AF583020A855007E925FA
:1009CB0082F8020A73BBFE07E92582F8020A97E553
:1009DB008229F582E5833AF583020AA9BB0120E55A
:1009EB008229F582E5833AF583D0F0D0E0F8D0E0A8
:1009FB00F9D0E0FAD0E0FBE8C0E0C0F0020A8E507C
:100A0B0018E92582F8D083D082D0E0F9D0E0FAD073
:100A1B00E0FBC082C083020A7CBBFE18E92582F88A
:100A2B00D083D082D0E0F9D0E0FAD0E0FBC082C016
:100A3B0083020AA0228A838982E473EC8EF0A4CC11
:100A4B00C5F0CCCDF8EFA4CEC5F02DFDE43CFCE811
:100A5B00A42EC8C5F03DFDE43CFCEFA4FFE5F02857
:100A6B00FEE43DFDE43CFC22E6FB08E6FA08E6F971
:100A7B0022EBF608EAF608E9F622E0FBA3E0FAA37C
:100A8B00E0F922EBF0A3EAF0A3E9F022E2FB08E2A3
:100A9B00FA08E2F922EBF208EAF208E9F222E4930F
:100AAB00FB740193FA740293F92290001FE075F026
:100ABB0011A42437F582E43400F583E0FBFD7C00C0
:100ACB002403FEEC3390038CF0A3CEF0EB13135402
:100ADB003FFFC3ED9FFEEC9400A3F0A3CEF0121DDD
:100AEB0055900089E0FEA3E0248AF58274003EF560
:100AFB0083E4F0900388F0A3F0900089E0FEA3E07C
:100B0B00FFC3900389E09F900388E09E4003020D92
:100B1B00ED90001FE075F00CA42455F582E4340031
:100B2B00F583C083C082E0F8A3E0F9A3E0FAA3E069
:100B3B00FB900388E0FEA3E0248BF58274003EF566
:100B4B0083E0FFE4FCFDFEEB2FFFEE3AFEED39FDFB
:100B5B00EC38FCD082D08312096E900388E0FEA3A0
:100B6B00E0FF248BF58274003EF583E0F9FDC39022
:100B7B00038DE09D90038CE09400503390006CE06B
:100B8B00702D04F090006FE9F07C007D2312076359
:100B9B0090007DE02FFF90007CE03E900071F0A371
:100BAB00EFF0E4A3F0A3F0A3F090006DF0A3F090AE
:100BBB000075E01313543FFF90038FE02FFF90035A
:100BCB008EE03400FE900388E0FCA3E0FD248BF55F
:100BDB008274003CF583E0C39FE49E4003020D67E3
:100BEB0090006CE064016003020D67F0900075E00B
:100BFB00940C748094804023D3900074E09478908C
:100C0B000073E09400401490001FE075F00CA424D6
:100C1B0053F582E43400F583E004F0748B2DF582F8
:100C2B0074003CF583E0900070F090001FE075F0CD
:100C3B0011A42436F582E43400F583E0F970659055
:100C4B000070E0FF7E00900073E0FCA3E0FD9000DD
:100C5B007DE02DFD90007CE03CCD2FFFEE3DFE9026
:100C6B00001FE0FD75F011A42434F582E43400F587
:100C7B0083EEF0A3EFF0ED75F011A42434F582E4CC
:100C8B003400F583E0FFA3E0900018CFF0A3EFF062
:100C9B00ED75F011A42436F582E43400F583E004FD
:100CAB00F0020DD9900070E0FF90006FE02FFFE491
:100CBB0033FE900074E02FFF900073E03E90038AA8
:100CCB00F0A3EFF0E9C3940A748094804003020D03
:100CDB0067900071E0FEA3E0FF90038AE0FCA3E0C5
:100CEB00FD900075E0FB1235F1EFF4606F90001F83
:100CFB00E0FE75F011A42436F582E43400F583E0B0
:100D0B00FDEE75F011A42438F582E43400F583E58B
:100D1B00822DF582E43583F583EFF090001FE075AB
:100D2B00F011A42436F582E43400F583E0640170FD
:100D3B001790038AE0FFA3E090001ACFF0A3EFF027
:100D4B00900075E090001CF090001FE075F011A46E
:100D5B002436F582E43400F583E004F090006CE077
:100D6B006401706A900074E02423F0900073E03407
:100D7B0000F0900388E0FEA3E0248BF58274003E24
:100D8B00F583E0FF900075E0C39F5002EFF09003F6
:100D9B008DE025E0FF90038CE033FE900075E0C3FF
:100DAB009FE49E5029C3900074E09418900073E068
:100DBB009401501A90006DE475F0011207CAFEC33E
:100DCB00E5F09404EE94004005E490006CF0900381
:100DDB0089E004F06003020B04900388E004F00246
:100DEB000B0490001FE075F011A42431F582E4345C
:100DFB0000F5837401F022E4F990001EE0640160B9
:100E0B0003020EBAF0FAFB90001FE0FF75F011A47D
:100E1B002436F582E43400F583E0FEEBC39E502DBF
:100E2B00EF75F011A42438F582E43400F583E582E4
:100E3B002BF582E43583F583E0FFF4600D74272AEC
:100E4B00F582E43400F583EFF00A0B80BA900025AD
:100E5B00EAF090001FE075F011A42434F582E4341D
:100E6B0000F583E0FFA3E0900023CFF0A3EFF09019
:100E7B0001EBE060030210A9900025E06003021073
:100E8B00A99001F6E0FEA3E02478FFE43EFE90007B
:100E9B001FE075F011A42434F582E43400F583E0EF
:100EAB00FCA3E0C39FEC9E40030210A90210A49088
:100EBB00001FE075F011A42434F582E43400F583AF
:100ECB00E0FEA3E0FF900023E0FCA3E0FDD3EF9D49
:100EDB00EE9C90001FE075F0114015A42434F582B0
:100EEB00E43400F583E0FEA3E0C39DFFEE9C801588
:100EFB00A42434F582E43400F583E0FEA3E0FFC3C1
:100F0B00ED9FFFEC9E900388F0A3EFF0900388E039
:100F1B00FEA3E0C39478EE94005024E49001F8F023
:100F2B0090001FE075F011A42434F582E43400F531
:100F3B0083E0FFA3E0900023CFF0A3EFF080299094
:100F4B0001CCE024EFF582E43401F583E090002737
:100F5B00F0900025E0C3940A748094805003E00461
:100F6B00F09001F87401F022E4FBEBC3940A748057
:100F7B009480502C90001FE075F011A42438F5825A
:100F8B00E43400F583E5822BF582E43583F583E0C9
:100F9B00FF74952BF582E43403F583EFF00B80CAD5
:100FAB00E4F9FB900025E0FFEBC39F400302105FC9
:100FBB00E4FA90001FE075F011A42436F582E434B6
:100FCB0000F583E0FFEAC39F400302105B74952A90
:100FDB00F582E43403F583E0FFF4607074272BF59E
:100FEB0082E43400F583E0FED39F401074952AF51C
:100FFB0082E43403F583E0FFC3EE801874272BF5EE
:10100B0082E43400F583E0FF74952AF582E434031F
:10101B00F583E0C39F90038AF090038AE0C39408A2
:10102B0074809480502674952AF582E43403F583FA
:10103B00E0FF748B29F582E43403F583EFF07495AC
:10104B002AF582E43403F58374FFF0090A020FBD1D
:10105B000B020FAEE4FBEBC399501B748B2BF58289
:10106B00E43403F583E0FF74272BF582E43400F5B9
:10107B0083EFF00B80E0AF01900025EFF0701F9035
:10108B0001F6E0FEA3E024C8FFE43EFE900023E05F
:10109B00FCA3E0C39FEC9E5005E49001CFF022909F
:1010AB0003A4EEF0A3EFF07B017A03796B64AA4EF5
:1010BB00600302118C1207E0FF900270E0FE9002B9
:1010CB0070EEF0A3EFF01207E0E5F05401FE900292
:1010DB0070E054FEFCA3E0FDEC4EFFED900270CFF0
:1010EB00F0A3EFF090000212080BFF900272E0FEEB
:1010FB00900272EEF0A3EFF090000212080BE5F0F5
:10110B005401FE900272E054FEFCA3E0FDEC4EFF96
:10111B00ED900272CFF0A3EFF090000412080BFFDA
:10112B00900274E0FE900274EEF0A3EFF0900004D6
:10113B0012080BE5F05401FE900274E054FEFCA380
:10114B00E0FDEC4EFFED900274CFF0A3EFF09000BA
:10115B000612080BFF900276E0FE900276EEF0A3EB
:10116B00EFF090000612080BE5F05401FE900276AA
:10117B00E054FEFCA3E0FDEC4EFFED900276021373
:10118B000B9003A4E07004A3E064CC600302131182
:10119B001207E0FF900278E0FE900278EEF0A3EFEA
:1011AB00F01207E0E5F05401FE900278E054FEFCEB
:1011BB00A3E0FDEC4EFFED900278CFF0A3EFF090A3
:1011CB00000212080B5401FF90027AE0FCA3E054DA
:1011DB00FEFDECFEED4FFF90027AEEF0A3EFF090E8
:1011EB00000212080BFFE5F0C313EF13540125E0C7
:1011FB00FFE433FE90027AE0FCA3E054FDFDEC4EDD
:10120B00FEED4FFF90027AEEF0A3EFF0900002128A
:10121B00080BAEF07802CEC313CE13D8F97E005470
:10122B00017802C333CE33CED8F9FF90027AE0FCBB
:10123B00A3E054FBFDEC4EFEED4FFF90027AEEF077
:10124B00A3EFF090000212080BAEF07803CEC3139D
:10125B00CE13D8F97E0054017803C333CE33CED8E6
:10126B00F9FF90027AE0FCA3E054F7FDEC4EFEEDA3
:10127B004FFF90027AEEF0A3EFF090000212080BF2
:10128B00E5F05401FE90027AE054FEFCA3E0FDEC85
:10129B004EFFED90027ACFF0A3EFF090000412080E
:1012AB000BFF90027CE0FE90027CEEF0A3EFF0903F
:1012BB00000412080BE5F05401FE90027CE054FE92
:1012CB00FCA3E0FDEC4EFFED90027CCFF0A3EFF022
:1012DB0090000612080BFF90027EE0FE90027EEE5D
:1012EB00F0A3EFF090000612080BE5F05401FE900E
:1012FB00027EE054FEFCA3E0FDEC4EFFED90027E7F
:10130B00CFF0A3EFF022123826229003A17401F044
:10131B00A37403F0A3746BF0EF64AA4E6006EF6442
:10132B00CC4E704C9003A1E0FBA3E0FAA3E0F9C014
:10133B0003C002C0019003A1A3A3E0900010120907
:10134B00E79003A1E0FBA3E0FAA3E0F9900015E41A
:10135B00F5F0120862900013740312074190001409
:10136B00E41207419000101209B7EE8FF0120843F8
:10137B009003A1E0FBA3E0FAA3E0F91207E0FDACB8
:10138B00F064AA4C6009ED64CC4C6003021522900A
:10139B0003A1E0FBA3E0FAA3E0F99003A1A3A390C0
:1013AB0000141206E175F002A4F58285F083EE8F2E
:1013BB00F01208629003A1E0FBA3E0FAA3E0F9901E
:1013CB000014740112070E9000131206E1FF900037
:1013DB00141206E16F60030215059003A1E0FBA355
:1013EB00E0FAA3E0F9C003C002C0019003A1A3A3DC
:1013FB00E09000101209E79003A1E0FBA3E0FAA331
:10140B00E0F990000412080BFFAEF01207E0440F56
:10141B006F7003E5F06E70789003A0F09003A1E07D
:10142B00FBA3E0FAA3E0F99000131206E1FF90038F
:10143B00A0E0FEC39F506C75F002EEA4F58285F020
:10144B008312080BFF123957EFFD9003A1E0FBA3AA
:10145B00E0FAA3E0F99003A0E075F002A4F5828511
:10146B00F08312080BE5F05401B5050A90001774D0
:10147B000112074180129003A1E0FBA3E0FAA3E065
:10148B00F9900017740280189003A0E004F0808C90
:10149B009003A1E0FBA3E0FAA3E0F990001774041A
:1014AB001207419003A1E0FBA3E0FAA3E0F990003F
:1014BB00171206E16401703A9000170412074112EB
:1014CB0007E0FFAEF01210AA9003A1E0FBA3E0FA35
:1014DB00A3E0F91207E0FFAEF064AA4E700690038A
:1014EB00847402F0EF64CC4E700D9003847403F09F
:1014FB008008E4900384F01238269003A1E0FBA34C
:10150B00E0FAA3E0F99000171206E1D3940174807E
:10151B00948040031238269003A1E0FBA3E0FAA3CA
:10152B00E0F99000141206E1D39403748094805078
:10153B000F9000131206E1D3940374809480400340
:10154B00123826229001CBE0B40800400302177634
:10155B00901562F828287302157A02159D0215B4AE
:10156B000215CD0215E902162302164102170512C8
:10157B00009E9001CDE06401600302177CF01237EE
:10158B0017E49001D1F09001CF7402F09001CB14CD
:10159B00F0229001D1E0D394007480948040030238
:1015AB0016309001CB7402F0229001D07402F0122D
:1015BB003C81123309123A8B123EE89001CB740333
:1015CB00F0229001D0E0D39400748094804002808C
:1015DB0054123EF812197D9001CB7404F022123C88
:1015EB008112327C12358C123A8B123EE89001D06C
:1015FB00740AF09001D2E0FEA3E0FF90001FE075AB
:10160B00F011A42432F582E43400F583EEF0A3EF5D
:10161B00F09001CB7405F0229001D0E0D3940074CC
:10162B008094804004E014F022123EF8120AB59028
:10163B0001CB7406F02212275590001FE0FF75F0C6
:10164B000CA4245EF582E43400F583E0640370039C
:10165B000216DFEF75F00CA42453F582E43400F589
:10166B0083E0C3941674809480506990001FE075DA
:10167B00F00CA42454F582E43400F583E0C3940306
:10168B0074809480504EEF75F00CA42455F582E4D1
:10169B003400F583E0FCA3E0FDA3E0FEA3E0FFE450
:1016AB007BB47A53F9F8D312095D402890001FE000
:1016BB0075F00CA42459F582E43400F583E0FCA307
:1016CB00E0FDA3E0FEA3E0FFE47BB27A06F8D312C1
:1016DB00095D501EE49001CFF01233E890001FE03B
:1016EB0075F00CA4245DF582E43400F5837401F0ED
:1016FB008003120E029001CB805A122FFC9003B480
:10170B00E0640170069001CFE004F09001CFE0D3CC
:10171B00940074809480402BE014F09001D2E0FE92
:10172B00A3E0FF7C007D0612077574762DF582749D
:10173B00003CF583E09001D1F090001FE0045401D0
:10174B00F08028121F2BE49001CBF0A3E064017012
:10175B000790028E7407F02290028EE0640B7004E7
:10176B00740BF02290028E7409F0229001CB74015D
:10177B00F0221234BD900350E0FEA3E0FF24CEFD17
:10178B00EE34FFFC90034EE0FAA3E0FBC39DEA9C12
:10179B00401090035D7401F090033AEAF0A3EBF074
:1017AB00800DE490035DF090033AEEF0A3EFF0E4CC
:1017BB00900349F0A3F0A3F0A37464F090033AE014
:1017CB00FEA3E0FF7C007D4B120A46E47B64FAF932
:1017DB00F81208CB90033CEEF0A3EFF090033AE045
:1017EB00FEA3E0FF7C007D75120A46E47B64FAF9E8
:1017FB00F81208CB90033EEEF0A3EFF090035BE4FE
:10180B00F0A37464F090033AE0FEA3E0FF7C007D4C
:10181B004B120A46E47B64FAF9F81208CB90035E8C
:10182B00EEF0A3EFF0E4900340F0A3F0A3F0A37469
:10183B0064F0900345E4F0A37464F090033AE0FE87
:10184B00A3E0FF7C007D53120A46E47B64FAF9F8AF
:10185B001208CB900347EEF0A3EFF090035DE0701E
:10186B000302192B900349E0FEA3E0FF900350E025
:10187B00FCA3E0FDC39FEC9E401390034BE0FEA343
:10188B00E0FFED9FEC9E5005E49001CCF090033C03
:10189B00E0FEA3E0FFD3ED9FEC9E4059A3E0FEA337
:1018AB00E0FF900351E09F900350E09E50477F0A6A
:1018BB007E0012002ED2847F0A7E0012002E12347C
:1018CB00BDC28490033CE0FEA3E0FF900350E0FC1C
:1018DB00A3E0FDD39FEC9E401690033EE0FEA3E0F9
:1018EB00FFED9FEC9E50089001CC7401F0800690A8
:1018FB0001CC7402F090035BE0FEA3E0FF90035079
:10190B00E0FCA3E0FDD39FEC9E406690035EE0FEFF
:10191B00A3E0FFED9FEC9E50589001CC7403F02296
:10192B00900340E0FEA3E0FF90034EE0FCA3E0FD3C
:10193B00C39FEC9E4014900342E0FEA3E0FFED9F9B
:10194B00EC9E50069001CC7404F0900345E0FEA38E
:10195B00E0FFD3ED9FEC9E4018A3E0FEA3E0FF90C9
:10196B00034FE09F90034EE09E50069001CC740510
:10197B00F022900089E0FEA3E0248CF974003EFA7B
:10198B009003927401F0A3EAF0A3E9F0A37432F090
:10199B007B017A00798B12399F900089A3E0240395
:1019AB00F9FFE92430FDE433FCEFC39DEC6480F8D0
:1019BB007480985054AE07E92430FDE433FCEEC339
:1019CB009DEC6480F8748098503C748B2EF582E407
:1019DB003400F583E0FD748B2FF582E43400F5833E
:1019EB00E0FCD39D401D900388ECF0748B2FF582A7
:1019FB00E43400F583EDF0748B2EF582E43400F5BE
:101A0B0083ECF00E80B10F8099E4900389F0A3F082
:101A1B00A3F0A3F0A3F0A3F0AF01E92410FDE4338E
:101A2B00FCEFC39DEC6480F8748098504E748B2F40
:101A3B00F582E43400F583E0FD90038AE02DF0900D
:101A4B000389E03400F0749B2FF582E43400F583B6
:101A5B00E0FD90038CE02DF090038BE03400F074EC
:101A6B00AB2FF582E43400F583E0FD90038EE02D7F
:101A7B00F090038DE03400F00F809F900389E0C459
:101A8B00F854F0C868F0A3E0C4540F48F0A3E0C4C6
:101A9B00F854F0C868F0A3E0C4540F48F0A3E0C4B6
:101AAB00F854F0C868FEA3E0C4540F48FF90038DB0
:101ABB00EEF0A3EFF090038BE0FCA3E0FDC3EF9DF2
:101ACB00FFEE9CFEEF7802CEC313CE13D8F92D9008
:101ADB00006BF0D39406748094804017E024FA9046
:101AEB000388F0E01313543FF0F5F0A4FF90006B64
:101AFB00E02FF090006BE0FF7E00D3945074809445
:101B0B008040197450F090001FE075F00CA4245E17
:101B1B00F582E43400F5837403F0802DD3EF941E2B
:101B2B00EE6480948090001FE075F00C400FA424AD
:101B3B005EF582E43400F5837401F0800CA4245E1E
:101B4B00F582E43400F583E4F090006BE0FF900045
:101B5B001FE075F011A42437F582E43400F583EF10
:101B6B00F00223A11224EA9002A4E0540FC4F8540B
:101B7B000FC868FFE4C454F048FE90024CE0FCA38D
:101B8B00E0540FFDEC4EFEED4FFF90024CEEF0A338
:101B9B00EFF09002A5E0540FFF90024CE0FCA3E0A5
:101BAB0054F0FDECFEED4FFF90024CEEF0A3EFF086
:101BBB009002A6E0540FC4F8540FC868FFE4C45455
:101BCB00F048FE90024AE0FCA3E0540FFDEC4EFE01
:101BDB00ED4FFF90024AEEF0A3EFF09002A7E05416
:101BEB000FFF90024AE0FCA3E054F0FDECFEED4F3A
:101BFB00FF90024AEEF0A3EFF09002A8E0540FC45E
:101C0B00F8540FC868FFE4C454F048FE90024EE04D
:101C1B00FCA3E0540FFDEC4EFEED4FFF90024EEE99
:101C2B00F0A3EFF09002A9E0540FFF90024EE0FCFE
:101C3B00A3E054F0FDECFEED4FFF90024EEEF0A34F
:101C4B00EFF09002AAE07E0054017803C333CE3349
:101C5B00CED8F9FF900250E0FCA3E054F7FDEC4E18
:101C6B00FEED4FFF900250EEF0A3EFF09002ABE0D1
:101C7B007E0054017802C333CE33CED8F9FF9002E5
:101C8B0050E0FCA3E054FBFDEC4EFEED4FFF900249
:101C9B0050EEF0A3EFF09002ACE0540125E0FFE42E
:101CAB0033FE900250E0FCA3E054FDFDEC4EFEED44
:101CBB004FFF900250EEF0A3EFF09002ADE0540115
:101CCB00FF900250E0FCA3E054FEFDECFEED4FFF55
:101CDB00900250EEF0A3EFF09002AEE07E005401C4
:101CEB007805C333CE33CED8F9FF900250E0FCA376
:101CFB00E054DFFDEC4EFEED4FFF900250EEF0A3F3
:101D0B00EFF09002AFE05401C4F8540FC868FFE441
:101D1B00C454F048FE900250E0FCA3E054EFFDECFD
:101D2B004EFEED4FFF900250EEF0A3EFF0900250FD
:101D3B00E0F0A3E0543FF09002B0E0FF900252E0DD
:101D4B00FE900252EEF0A3EFF022E4FBFA90039028
:101D5B00F0A3F0A3F0A3F0FFD390008AE09B9000D8
:101D6B0089E09A402E748B2BF58274003AF583E050
:101D7B00601AFF900390EAF0FCA3EBF0D39408EC0D
:101D8B009400400F90000FE004F080070BBB0001A4
:101D9B000A80C5E4FAFBD3900391E09B900390E09B
:101DAB009A4013748B2BF58274003AF583EFF00B8A
:101DBB00BB00010A80E07A007B0190008AE024FFDF
:101DCB00FF900089E034FFFEC3EB9FEA9E502C741A
:101DDB008B2BF58274003AF583E07018748A2BF51F
:101DEB008274003AF583E0FF748B2BF58274003A12
:101DFB00F583EFF00BBB00010A80BF7A007B0590E7
:101E0B00008AE024FEFF900089E034FFFEC3EB9FC5
:101E1B00EA9E4003021F2A748B2BF58274003AF55D
:101E2B0083E0F92420FFE433FE748C2BF5827400DD
:101E3B003AF583E0D39FEE6480F8748098500302E8
:101E4B001F22E92430FFE433FE748D2BF5827400DE
:101E5B003AF583E0D39FEE6480F8748098500302C8
:101E6B001F22EB2401FEE43A900390F0A3CEF0EB9B
:101E7B002408FFE43AFE900390E0FCA3E0FDC39F2F
:101E8B00EC9E4003021F22748B2BF58274003AF5F3
:101E9B0083E02408FFE433FE748B2DF58274003C41
:101EAB00F583E0C39FEE6480F874809850589000DF
:101EBB001FE075F00CA42453F582E43400F583E0A5
:101ECB0004F0900392EAF0A3EBF0900390E0FEA3F2
:101EDB00E0FFA3E0FCA3E0FDC39FEC9E5039748AA6
:101EEB002BF58274003AF583E0FF748B2DF5827429
:101EFB00003CF583EFF0900393E004F07006900341
:101F0B0092E004F080C4900391E004F0700690031B
:101F1B0090E004F0021E7A0BBB00010A021E0A229B
:101F2B007EFFE4FD900025E0FCEDC39C501674276A
:101F3B002DF582E43400F583E0FCEED39C4002AE39
:101F4B00040D80E090001DEEF07EFFE4FD90002577
:101F5B00E0FCEDC39C502E9001CCE02421F582E4F3
:101F6B003402F583E0FC74272DF582E43400F5830D
:101F7B00E0D39C400D74272DF582E43400F5837477
:101F8B00FFF00D80C8E4FD900025E0FCEDC39C50F4
:101F9B001674272DF582E43400F583E0FCEED39C18
:101FAB004002AE040D80E0EEFB7A00C394197480FE
:101FBB009480502FEB94147480948040051E1E1E49
:101FCB008021EB64064A601BEB64054A6015EB64E9
:101FDB00024A600F9001CCE024EFF582E43401F566
:101FEB0083E0FEEED3949674809480401C9001ECB9
:101FFB00E07002A3E070719001CCE024EFF582E475
:10200B003401F58374FFF0805FEEFBC3942874807A
:10201B0094805033C3EB9419748094809001CCE07E
:10202B00500E24EFF582E43401F5837402F0800B3B
:10203B0024EFF582E43401F583EEF09001EC7403A8
:10204B00F0A374E8F08021EEC394647480948090C4
:10205B0001CCE024EFF582E43401F583EEF090013E
:10206B00EC7401F0A374F4F07EFFE4FDEDC3940770
:10207B0074809480501674EF2DF582E43401F5834F
:10208B00E0FCEED39C4002AE040D80E09001EEE04C
:10209B00FDEED39D400EEE9DD3940774809480404B
:1020AB0014EEF0229001EEE0C39ED394057480945D
:1020BB00804002EEF02290038AEEF0A3EFF0E4F9F9
:1020CB0090038EE0FEA3E0A803088005C333CE3354
:1020DB00CED8F9FFEF4DFF900391EEF0A3EFF09008
:1020EB00038AE0FEA3E0FFBE0C0BBFB6089002F024
:1020FB007401F08005E49002F0F0C3740C9F900221
:10210B00F4F0E49E9002F3F0E4FD900390E0FFEB1B
:10211B002FFFE433FEEDC39FEE6480F8748098507C
:10212B00787E007401A805088005C333CE33CED862
:10213B00F9FF900391E05EFEA3E05F4E602DED256D
:10214B00E025E024F5F582E43402F58374F6F0A380
:10215B00746CF0ED25E025E024F7F582E43402F50C
:10216B008374F9F0A374B6F009802AED25E025E01D
:10217B0024F5F582E43402F58374F9F0A3749CF032
:10218B00ED25E025E024F7F582E43402F58374F6BF
:10219B00F0A37486F00D022115E95401F990039018
:1021AB00602EE02BFF25E025E024F5F582E43402D8
:1021BB00F58374F6F0A3746CF0EF25E025E024F7BB
:1021CB00F582E43402F58374F9F0A374B6F0802C35
:1021DB00E02BFF25E025E024F5F582E43402F583BE
:1021EB0074F9F0A3749CF0EF25E025E024F7F58259
:1021FB00E43402F58374F6F0A37486F0900390E058
:10220B002BFF25E025E024F9F582E43402F58374F5
:10221B00F9F0A3749CF0EF25E025E024FBF582E4B4
:10222B003402F58374F9F0A374B6F0E49002F2F083
:10223B00EF25E024069002F1F0023EAFC0E0C0F0C3
:10224B00C083C082C0D075D000C000C001C002C026
:10225B0003C004C005C006C00730D873A285E433A1
:10226B009003B5F09002E7E0FFA3E09002E5CFF01A
:10227B00A3EFF0A3E5FCF0A3E5FBF09002E5E0FE95
:10228B00A3E0FFA3E0FCA3E0FDD39FEC9E4007ED92
:10229B009FFFEC9E80149002E5E0FEA3E0FFC37469
:1022AB00FF9FCF74FF9ECF2DCF3C9003B1F0A3EFD8
:1022BB00F09003B5E0FF9003B1E0FCA3E0FD9002CA
:1022CB00E2A3E0FAA3E0F5828A83120A44C2D83073
:1022DB00D96B9002E7E0FFA3E09002E5CFF0A3EF0C
:1022EB00F0A3E5EAF0A3E5E9F09002E5E0FEA3E058
:1022FB00FFA3E0FCA3E0FDD39FEC9E4007ED9FFF07
:10230B00EC9E80149002E5E0FEA3E0FFC374FF9FF8
:10231B00CF74FF9ECF2DCF3C9003B1F0A3EFF09085
:10232B0003B5E0FF9003B1E0FCA3E0FD9002E2A354
:10233B00E0FAA3E0F5828A83120A44C2D930DA02AA
:10234B00C2DA30DF369002EFE06401702CB2849079
:10235B0002F2E025E024F3F582E43402F583E0FE9B
:10236B00A3E08EFAF5F99002F2E004F09002F1E0AE
:10237B00FFA3E0B50703120003C2DFD007D006D0DE
:10238B0005D004D003D002D001D000D0D0D082D061
:10239B0083D0F0D0E032E490038FF0A3F09000896B
:1023AB00E0FEA3E0248AF58274003EF583E4F0900E
:1023BB00038FF0A3F0900089E0FEA3E0FFC390032E
:1023CB0090E09F90038FE09E40030224E990001F52
:1023DB00E075F00CA42459F582E43400F583C08336
:1023EB00C082E0F8A3E0F9A3E0FAA3E0FB90038F2F
:1023FB00E0FEA3E0248BF58274003EF583E0FFE45E
:10240B00FCFDFEEB2FFFEE3AFEED39FDEC38FCD078
:10241B0082D08312096E90006BE02403FFE433FE3D
:10242B0090038FE0FCA3E0248BF58274003CF583D2
:10243B00E0FDD39FEE6480F8748098401590006C9B
:10244B00E0705504F0E4900075F0900073F0A3F089
:10245B008046900075E01313543FFFEDC39F503837
:10246B0090006CE064017030F0900075E0940C7497
:10247B008094804023D3900074E09478900073E0B4
:10248B009400401490001FE075F00CA42454F582C6
:10249B00E43400F583E004F090006CE06401702AF2
:1024AB00900074E02423F0900073E03400F090036C
:1024BB008FE0FEA3E0248BF58274003EF583E0FFF2
:1024CB00900075E0C39F5002EFF0900390E004F092
:1024DB0060030223C090038FE004F00223C0227B31
:1024EB00FFE4FAEAC394067480948040030225E269
:1024FB0074212AF582E43402F583E0FF74EF2AF5A8
:10250B0082E43401F583E0D39F400D74EF2AF5820A
:10251B00E43401F58374FFF074EF2AF582E434019F
:10252B00F583E0FFEBD39F4002AB07C3EF941E7420
:10253B008094805018EF940074809480400F74A4A2
:10254B002AF582E43402F5837401F0805E74EF2A7D
:10255B00F582E43401F583E0FF7E00C3949674802A
:10256B009480501DEF24ECFFEE34FFFE7C007D0ABF
:10257B0012077574A42AF582E43402F583EFF08018
:10258B002A74EF2AF582E43401F583E06496700F28
:10259B0074A42AF582E43402F583740CF0800C7475
:1025AB00A42AF582E43402F583E4F074A42AF582BC
:1025BB00E43402F583E0700E74AA2AF582E4340247
:1025CB00F583E4F0800D74AA2AF582E43402F583D6
:1025DB007401F00A0224EEEBFF7E00D39496748014
:1025EB0094804006E49002B0F022C3EF9464EE6452
:1025FB0080948040079002B07402F022C3EF9428BD
:10260B00EE6480948040079002B07404F022C3EE15
:10261B006480948040069002B07407F0229003848B
:10262B00E0640360030227529002A3F0900384F04E
:10263B0090027BE030E1679002E1E05401640170AD
:10264B000590029C04F09002E1E0C3135401640175
:10265B00700590029D04F09002E1E01313540164A5
:10266B0001700590029E04F09002E1E013131354E5
:10267B00016401700590029F04F09002E1E0C454E4
:10268B0001640170059002A004F09002E1E0C41314
:10269B005401640170059002A104F07F01229002A5
:1026AB007BE030E20302273390027BE030E379E0FA
:1026BB0020E0759002A2E0FF64056005EF640670F0
:1026CB00679002E1E054016401700590029C04F0F4
:1026DB009002E1E0C31354016401700590029D0464
:1026EB00F09002E1E0131354016401700590029E17
:1026FB0004F09002E1E01313135401640170059090
:10270B00029F04F09002E1E0C45401640170059053
:10271B0002A004F09002E1E0C413540164017005BF
:10272B009002A104F07F0122E490029CF0A3F0A39D
:10273B00F0A3F0A3F0A3F09001EF74FFF0A3F0A3CC
:10274B00F0A3F0A3F0A3F07F00229001EBE0FFD306
:10275B00940074809480500302282490001FE0752D
:10276B00F011A42434F582E43400F583E0FCA3E0FB
:10277B00FDD394F4EC9401403EED942EEC9409506F
:10278B0036EFC3139001EBF090001FE075F011A42E
:10279B002434F582E43400F583E0FFA3E09001F6E6
:1027AB00CFF0A3EFF090000FE0D3940074809480EF
:1027BB00404FE014F0804A90001FE075F011A42404
:1027CB0034F582E43400F583E0FEA3E0FFC3942EDE
:1027DB00EE9409401CEF9450EE944650149001EB8C
:1027EB00E0FFC313F09001F67409F0A3742EF08090
:1027FB001090000FE0C39408748094805003E004A1
:10280B00F0C39001F7E094B09001F6E094045052BD
:10281B007409F0A3742EF0804990001FE075F0113D
:10282B00A42434F582E43400F583E0FEA3E0FFD367
:10283B009450EE94465009C3EF94F4EE9401501269
:10284B0090000FE0C39408748094805015E004F05E
:10285B00801090000FE0D39400748094804003E0CC
:10286B0014F0023C57E4900388F090028AF0A374B2
:10287B00BEF07F02123BA97F987E08123A1C900291
:10288B008AE07002A3E0700302293E9003BAE07065
:10289B0003022938E4F090028BE024FFF090028AC7
:1028AB00E034FFF0E0FEA3E0FF7C007D3212077501
:1028BB00ED4C700312390E900384E06402706E903D
:1028CB000273E054F0642070089002A27402F0804E
:1028DB0046900273E054F0643070089002A27403C7
:1028EB00F08034900273E054F0644070089002A2C0
:1028FB007404F08022900273E054F06450700890DE
:10290B0002A27405F08010900273E054F0646070C2
:10291B00069002A27406F0900273E0900388F0E038
:10292B00FF123E94E490028AF0A3F080067597A5FF
:10293B0002288990028AE07002A3E07034123EF103
:10294B00900388EFF0E0C4540FFF9002A2F07E00DA
:10295B00C3940274809480400AD3EF9406748094DD
:10296B008040069002A27406F09002A2E0FF12369D
:10297B00BAE4FF023BA9900388EFF0A3ECF0A3EDC0
:10298B00F0D394BCEC9405400BE0945C900389E08D
:10299B00940A400E9002E274FFF0A37430F0A3741B
:1029AB00A5F0900388E07003022A56A3E0FEA3E093
:1029BB00FFD394BCEE94054059EF9403EE9407506B
:1029CB00519002ECE0602F9002E9E0FF7E00740171
:1029DB00A807088005C333CE33CED8F9FF9002EB9E
:1029EB00E02FF09002EAE03EF09002E9E004F0E420
:1029FB009002ECF0801C9002E9E0D3940074809478
:102A0B0080407C123772EF640170259002ED04F068
:102A1B00801E900389E0FEA3E0FFD394C4EE9408DC
:102A2B00405DEF945CEE940A50559002ECE0600F21
:102A3B009002E274FFF0A37430F0A374A5F022901F
:102A4B0002E9E004F0E49002ECF022900389E0FE4E
:102A5B00A3E0FFD394BCEE9405400DEF9403EE94EA
:102A6B00075005E49002ECF0D3EF94C4EE940840C9
:102A7B000EEF945CEE940A50069002EC7401F02277
:102A8B00E4FDFCF9EF14603914605B14607B24FEE9
:102A9B007003022B39046003022B5CE4FEEEC3943B
:102AAB0007748094805017EE25E02448F582E434B7
:102ABB0002F583E0A3E02DFDE43CFC0E80DF022B4E
:102ACB005CE4FEEEC39403748094805017EE25E013
:102ADB002458F582E43402F583E0A3E02DFDE43CB9
:102AEB00FC0E80DF806BE4FEEEC394037480948055
:102AFB00505FEE25E02470F582E43402F583E0A309
:102B0B00E02DFDE43CFC0E80DFE4FEEEC394037489
:102B1B008094805017EE25E02428F582E43402F5EA
:102B2B0083E0A3E02DFDE43CFC0E80DF8023E4FE7C
:102B3B00EEC39403748094805017EE25E02478F54F
:102B4B0082E43402F583E0A3E02DFDE43CFC0E802F
:102B5B00DFA905AF01221239E21237CDE4FBEBC33B
:102B6B00940674809480503474102BF582E43400F6
:102B7B00F583E4F074962BF582E43402F583E4F0EC
:102B8B00749C2BF582E43402F583E4F074212BF56D
:102B9B0082E43402F5837496F00B80C2E49002A3B6
:102BAB00F09001CCF09001CBF09001CDF090001F94
:102BBB00F090000FF090007EF09001ECF0A3F090FD
:102BCB0002E9F0A3F0A3F0A3F0A3F0A3F0A3F0901D
:102BDB0002E274FFF0A37430F0A374A5F09003B479
:102BEB007401F09003B8E4F0A37464F0E4FBEBC35E
:102BFB00940674809480502DEB25E025E024B1F5EC
:102C0B0082E43402F58312097A00000000EB25E020
:102C1B0025E024C9F582E43402F58312097A000019
:102C2B0000000B80C922E4FFEFC3940474809480EE
:102C3B004003022CCCEF25E02460F582E43402F54E
:102C4B0083E0FCA3E0FDEF25E02470F582E4340281
:102C5B00F583ECF0A3EDF0EF25E02468F582E43486
:102C6B0002F583E0FCA3E0FDEF25E02478F582E498
:102C7B003402F583ECF0A3EDF0EF25E02440F58270
:102C8B00E43402F583E0FCA3E0FDEF25E02458F5E6
:102C9B0082E43402F583ECF0A3EDF0EF25E0248021
:102CAB00F582E43402F583E0FCA3E0FDEF25E0249C
:102CBB0028F582E43402F583ECF0A3EDF00F022C3F
:102CCB0033E4FFEFC39408748094805025EF25E024
:102CDB002430F582E43402F583E0FCA3E0FDEF251C
:102CEB00E02448F582E43402F583ECF0A3EDF00F19
:102CFB0080D1227F04122A8B7E00900256EEF0A325
:102D0B00EFF0E490038AF090038AE0C39408748098
:102D1B009480505CE0FF25E02448F582E43402F512
:102D2B0083E0E4F0EF25E02448F582E43402F583F8
:102D3B00E0A3E0FF12395790038BEFF090038AE08A
:102D4B0025E02448F582E43402F583C083C082E099
:102D5B00FCA3E0FD90038BE05401FEEC4EFFEDD0A5
:102D6B0082D083CFF0A3EFF090038AE004F080973A
:102D7B00E490036AF0123E74123EBC7F987E0812F8
:102D8B003A1CE490038AF090038AE0FFC394097421
:102D9B00809480501CEF25E02448F582E43402F542
:102DAB0083E0FEA3E0FF123D7490038AE004F08001
:102DBB00D67F827E00123A1C123EC8023E84C0E0CF
:102DCB00C083C082C0D075D000C004C00790007E05
:102DDB00E0FFC39407748094805016747F2FF582A4
:102DEB00E43400F583E5BDF090007EE004F0022EA4
:102DFB0082900386E4F0A374FFF090007EE0247FC2
:102E0B00F582E43400F583E5BDF090007EE4F090AC
:102E1B000385F0900385E0FFC39408748094805081
:102E2B0038747F2FF582E43400F583E0FF9003863E
:102E3B00E0C39F5002EFF0900387E0D39F401290C6
:102E4B000385E0247FF582E43400F583E09003876B
:102E5B00F0900385E004F080BA900387E0FF9003C5
:102E6B0086E0C39FFF900089E0FCA3E0248BF582F2
:102E7B0074003CF583EFF0C2EDD2ECD007D004D058
:102E8B00D0D082D083D0E032410288004103C10010
:102E9B00460076010204070300602801F9012C01AA
:102EAB002C012C00FA00C800C800C800C800C800DC
:102EBB00C800C800C800B400B400B4009600960067
:102ECB0096007800785401D7464646462422201CAB
:102EDB001A18181818141212121210104403A80002
:102EEB000000004103A6004103A7004302E2FF30AC
:102EFB00A54103830141036A00410384004802603A
:102F0B000000000000000000480268000000040000
:102F1B0000000048024000AA000A00AF006348020C
:102F2B008000BB00FF00BF000050023000CC00FF50
:102F3B0000FF00FF00FF00FF00CF00FF007F031228
:102F4B002A8B7E0090022EEEF0A3EFF0E490038A22
:102F5B00F090038AE0FFC3940474809480504CEF8C
:102F6B0025E02428F582E43402F583E0A3E0FF1288
:102F7B00395790038BEFF090038AE025E02428F576
:102F8B0082E43402F583C083C082E0FCA3E0FD90B1
:102F9B00038BE05401FEEC4EFFEDD082D083CFF0DB
:102FAB00A3EFF090038AE004F080A6123E74123E69
:102FBB00BC7F987E08123A1CE490038AF090038A37
:102FCB00E0FFC3940574809480501CEF25E0242807
:102FDB00F582E43402F583E0FEA3E0FF123D74902A
:102FEB00038AE004F080D67F827E00123A1C023EF8
:102FFB008490001FE075F00CA4245DF582E434008E
:10300B00F583E0640170030230A4900023E0FEA37B
:10301B00E0FFF47002EEF470030230A49001F8E0CC
:10302B0070779001F6E0FCA3E0FDD3EF9DEE9C40A2
:10303B0068900023A3E09DFDEE9CFCD3ED94C8ECBF
:10304B0094004055D3EF948CEE940A4014900027D3
:10305B007406F0900025E0940A74809480503A80B6
:10306B0035D3ED945EEC940140149000277406F078
:10307B00900025E0940A74809480501D8018900174
:10308B00CCE024EFF582E43401F583E0900027F0E7
:10309B00900025E07003E004F022EF700302314B47
:1030AB00E49002E9F0A3F0A3F09002EDF0A3F0D3CB
:1030BB00ED94CBEC940B4019ED94B4EC940D5011B2
:1030CB007401F09002E274FFF0A37429F0A37481F1
:1030DB00F0D3ED94D2EC940E401CED940DEC9411C6
:1030EB0050149002EE7402F09002E274FFF0A3749D
:1030FB0029F0A37481F0D3ED9464EC9416401CED8D
:10310B00946BEC941950149002EE7403F09002E25D
:10311B0074FFF0A37429F0A37481F0D3ED947CECCD
:10312B00941D401CED9444EC942250149002EE74C8
:10313B0004F09002E274FFF0A37429F0A37481F001
:10314B0022123DE5123DC17F01123E05123C0212D7
:10315B003BD7123E21122B61123CFD123A54120046
:10316B00567F647E0012002E12177D9001CCE06416
:10317B000170031228709003B8E07002A3E0601E88
:10318B009003BAE060F0E4F012154F9003B9E0241D
:10319B00FFF09003B8E034FFF07597A580D8E4906A
:1031AB0003B4F09001CCE0640170197F01123BA9CC
:1031BB0090028AE4F0A3748CF0E490028EF09002FB
:1031CB0089F0800B90028E7408F07F01123BA912DC
:1031DB0037CD9003BAE06005E4F012154F7597A553
:1031EB0080F0120021787FE4F6D8FD758120023241
:1031FB003702314CE493A3F8E493A34003F6800128
:10320B00F208DFF48029E493A3F85407240CC8C315
:10321B0033C4540F4420C8834004F456800146F64F
:10322B00DFE4800B0102040810204080902E93E411
:10323B007E019360BCA3FF543F30E509541FFEE4AD
:10324B0093A360010ECF54C025E060A840B8E4936F
:10325B00A3FAE493A3F8E493A3C8C582C8CAC583B1
:10326B00CAF0A3C8C582C8CAC583CADFE9DEE78036
:10327B00BE90001FE0FF75F011A42431F582E434F9
:10328B0000F583E4F0EF75F011A42432F582E434F9
:10329B0000F583E4F0A3F0EF75F011A42434F5826C
:1032AB00E43400F58374FFF0A3F0EF75F011A42460
:1032BB0036F582E43400F583E4F090001D74FFF0E2
:1032CB00E490001CF090001AF0A3F0900018F0A30B
:1032DB00F0FFEFC3940A74809480502190001FE09C
:1032EB0075F011A42438F582E43400F583E5822FC0
:1032FB00F582E43583F58374FFF00F80D5229000BF
:10330B001FE0FF75F00CA4245EF582E43400F58316
:10331B00E4F0EF75F00CA42453F582E43400F5834C
:10332B00E4F0EF75F00CA42454F582E43400F5833B
:10333B00E4F0EF75F00CA42459F582E43400F58326
:10334B0012097A0000000090001FE0FB75F00CA43E
:10335B002455F582E43400F58312097A000000004D
:10336B00EB75F00CA4245DF582E43400F583E4F0F6
:10337B0022C0E0C0F0C083C082C0D075D000C000B6
:10338B00C001C002C003C004C005C006C007900343
:10339B009FE598F0E0FD540164017016C298AC995A
:1033AB00ED540475F040A4FFAEF0AD04EF4DFF12E9
:1033BB00131590039FE0540264027006C2999003A8
:1033CB0083F0D007D006D005D004D003D002D001B3
:1033DB00D000D0D0D082D083D0F0D0E032E49000B7
:1033EB001EF09001F8F090001FE075F011A4243648
:1033FB00F582E43400F5837401F09001EC7403F072
:10340B00A374E8F09001F6E0FFA3E0900023CFF067
:10341B00A3EFF09000177401F09001CCE024EFF5CE
:10342B0082E43401F583E0900027F07F01EFC39431
:10343B000A74809480501074272FF582E43400F5C1
:10344B008374FFF00F80E622900288E07027A3E0E0
:10345B00FF64036005EF6405701B9002887401F034
:10346B0090028AE4F0A3746EF07F02123BA99002E3
:10347B008E7405F022E4900288F0A3E02401FFE4AF
:10348B0033FE7C007D06120775EDF0E0FF249CF502
:10349B0082E43402F583E064017016EF6401700678
:1034AB009001CD04F0227F01123BA990028E740390
:1034BB00F022123ABE123878900360E0FFA3E0903E
:1034CB00034ECFF0A3EFF0123AED12387890036071
:1034DB00E0FFA3E0900350CFF0A3EFF090034EE09A
:1034EB00FEA3E0FFD39451EE94035009C3EF94AEC7
:1034FB00EE94015019900350E0FEA3E0FFD39451DA
:10350B00EE94035010C3EF94AEEE9401400790037A
:10351B005A7401F022E490035AF022900289E0FDE4
:10352B00640160559002EAE0FAA3E0FBEA1313137F
:10353B00541F20E02774102DF582E43400F583E44A
:10354B00F0AE02EB7803CEC313CE13D8F9FF74EFB2
:10355B002DF582E43401F583EFF0801D900289E0B4
:10356B00FF2410F582E43400F583E4F074EF2FF5BB
:10357B0082E43401F58374FFF0E49002EAF0A3F0E7
:10358B00221200709003887414F0900388E0D39497
:10359B000074809480403EC293D2947F067E0012CA
:1035AB003A1C0000000000000000000000000000BA
:1035BB0000000000000000000000000000D293C2D9
:1035CB00947F067E00123A1C0000000000900388D6
:1035DB00E014F080B5C293C29490007C7401F0A308
:1035EB007454F0020056900390EEF0A3EFF0A90391
:1035FB007BFF900390E0C313FF25E024F9F582E4F1
:10360B003401F583E0F8A3E0F5828883D39DE5834D
:10361B009C503574D72FF582E43401F583E0FFE934
:10362B00C39F4024900390E0FEA3E07807CEC31322
:10363B00CE13D8F9F0EE900390F0E0FEA3E0FF7C00
:10364B00027D2D120763EEFBAF0322C0E0C0F0C07A
:10365B0083C082C0D075D000C000C001C002C003BF
:10366B00C004C005C006C0079003BA7401F09003F4
:10367B00B6E475F0011207CAFEC3E5F09432EE947E
:10368B0000400C9003B6E4F0A3F09003B304F012E7
:10369B003C2DC2CFD007D006D005D004D003D0022A
:1036AB00D001D000D0D0D082D083D0F0D0E032EF98
:1036BB0024FD601414601814601C14603224047010
:1036CB004A9002E17406802C9002E1740B800C90FE
:1036DB0002E1740F801E9002E1743BF090022174A2
:1036EB0050F0A37496F0A3F0A37450F0A38019903C
:1036FB0002E1743FF0900221743CF0A37496F0A3A6
:10370B00F0A3743CF0A37450F0A3F022E4900020DB
:10371B00F0A3F0A3F074FFA3F0A3F0E4A3F09000E8
:10372B0017F090001FF090001E04F0E4FFEFC3941D
:10373B0002748094805013EF75F011A42431F5823C
:10374B00E43400F583E4F00F80E3E4FFEFC3940A65
:10375B0074809480501074272FF582E43400F58325
:10376B0074FFF00F80E622E4F9FDFC9002E9E0140F
:10377B00FFECC39F50217E007401A804088005C391
:10378B0033CE33CED8F9FF9002EAE05EFEA3E05FC2
:10379B004E60010D0C80D4ED5401FD9002E9E01454
:1037AB00FFA3E0FEA3E0A807088005CEC313CE134A
:1037BB00D8F9FFED7A00B50706EAB506027901AF35
:1037CB0001229001CF7402F090001E14F09001EBD7
:1037DB00740FF0E4FFEFC394077480948050297446
:1037EB00EF2FF582E43401F58374FFF074A42FF509
:1037FB0082E43402F58374FFF074AA2FF582E4346B
:10380B0002F583E4F00F80CDE49002B0F09001EE6E
:10381B0074FFF0E49001CBF0023EF8E4FFEFC394A9
:10382B0004748094805023EF25E0246BF582E434FC
:10383B0003F583E4F0A3F0EF25E02473F582E43481
:10384B0003F583E4F0A3F00F80D390037B7401F0B6
:10385B00A37403F0A3746BF0E490037FF0A3F0A3C5
:10386B00F090037E7403F0E4900382F022E4F5BE43
:10387B00F5BD90034DF090034DE0C3940874809414
:10388B00805013C2EDD2EC7F057E00123A1C9003E0
:10389B004DE004F080E0900360E5BEF0A3E5BDF0E1
:1038AB00123ED4900360E0FEA3E07803CEC313CEA8
:1038BB0013D8F9F0EE900360F022E490028EF090B2
:1038CB000289E0C39406748094805021E004F0E0F8
:1038DB0064017003E004F0900289E0FF9002E1E0E4
:1038EB00FEA807088002C313D8FC30E0D2900289EF
:1038FB00E0C39406748094804008E4F090028E74C8
:10390B0002F022123E74123EBC7F987E08123A1CC3
:10391B00E4900389F0900389E0FFC39405748094CD
:10392B0080501CEF25E02458F582E43402F583E047
:10393B00FEA3E0FF123D74900389E004F080D67F74
:10394B00827E00123A1C123EC8023E849003A4EF02
:10395B00F0E4F9FDFCECC394087480948050307E45
:10396B00007401A804088005C333CE33CED8F9FF09
:10397B009003A4E0FBE4FEEF5BA804088006CEA254
:10398B00E713CE13D8F864014E7001090C80C6E919
:10399B005401FF2290038FEBF0A3EAF0A3E9F0E4CC
:1039AB00FF900395E0FEEFC39E502B90038FE0FB3F
:1039BB00A3E0FAA3E0F98F827583001206E1FE9073
:1039CB000392E0FBA3E0FAA3E0F98F82758300EE8C
:1039DB001207410F80CB22122C31E4900362F0F9D5
:1039EB00900364C9F0A3F0A3E9F0A3E4F0A3F0A360
:1039FB00F07B017A027960C003C002C001900364BE
:103A0B00E0FBA3E0FAA3E0F99000061209E7023805
:103A1B00269003C1E5A7F075A710EF7802C333CE4C
:103A2B0033CED8F9FFC374FF9FFF74FF9EFEEFF5F3
:103A3B00A4EEF5A5D29A209F057597A580F8C29A9A
:103A4B00C29F9003C1E0F5A7229003C1E5A7F0E464
:103A5B00F5A7C2DFC2D8C2D9C2DA75D901F5F7F51D
:103A6B009CF596F59EF5F9F5FA75DAB075DBB0F5C0
:103A7B00DC75E61043F31043F510D2DEE0F5A72218
:103A8B00C2EEC2E8C2E975B20175BC1D75B3107503
:103A9B00DF40E4F5B975C4FF75C3FFF5C6F5C57511
:103AAB00BB0675D10843E60853F3F743F508D2EF8D
:103ABB00023EA2C2EEC2E8C2E975B20175BC19752D
:103ACB00B34275DF40E4F5B975C4FF75C3FFF5C6A6
:103ADB00F5C575BB0E75D108F5BEF5BDD2EF53E636
:103AEB00F722C2EEC2E8C2E975B20175BC1975B313
:103AFB004275DF40E4F5B975C4FF75C3FFF5C6F534
:103B0B00C575BB0275D108F5BEF5BDD2EF53E6F70F
:103B1B00229003C1E5A7F0E4F5A7C2DEEFFD7C0020
:103B2B00700343DA31ED64014C700343DB31ED6418
:103B3B00024C700343DC31D2DE9003C1E0F5A722C7
:103B4B009003C1E5A7F0E4F5A7C2DEEFFD7C0070A2
:103B5B000353DACEED64014C700353DBCEED6402FC
:103B6B004C700353DCCED2DE9003C1E0F5A722C02C
:103B7B00E0C083C082C0D0C390008AE0943F900025
:103B8B0089E09401500CA3E004F07006900089E0EA
:103B9B0004F053917FD0D0D082D083D0E032900309
:103BAB008AEFF064017006120076023D9B90038A47
:103BBB00E06402700DFF123B4B123D4DE49003830A
:103BCB00F022120076123D9B123EDE229003C1E5DD
:103BDB00A7F0E4F5A7C2C8C2C9C2CCC2CB75CCFF53
:103BEB0075CDFF75CA0C75CBF0D2AD53B8DF43F270
:103BFB0020D2CAE0F5A7229003C1E5A7F075A71064
:103C0B00C298C299C29CC29B75A4FF75A5FFE4F52F
:103C1B00A2F5A353F4EF53F6EF53CEEFC29AE0F5B0
:103C2B00A7229001D3E004F070069001D2E004F0DB
:103C3B00D39001EDE094009001ECE09400400CA3D4
:103C4B00E024FFF09001ECE034FFF02290000FE055
:103C5B00D39402748094809001CCE0400D2410F535
:103C6B0082E43400F5837401F0222410F582E434ED
:103C7B0000F583E4F022E4FFFE748B2FF5827400D1
:103C8B003EF583E4F00FBF00010EBE01ECBF40E92F
:103C9B00E4900089F0A3F090007CF0A3F0023EFECC
:103CAB00A2AF9200C2AF75FF8075EF028F828E8339
:103CBB0075B7A575B7F1438F0175FF8075EF02EDF1
:103CCB00F0538FFEA20092AF22A2AF9200C2AF754B
:103CDB00FF8075EF028F828E8375B7A575B7F143A1
:103CEB008F0375FF8075EF02E4F0538FFCA20092F7
:103CFB00AF229003C1E5A7F0538EF75389BF4389D9
:103D0B00205389EF758B96758D9675A710C2AB43B3
:103D1B00B80843F208E0F5A7C28E229003C1E5A7CD
:103D2B00F0E4F5A7F5917594FF7595FF7592717594
:103D3B0093FF43F38043F58053E67F5391FBE0F50C
:103D4B00A7229003C1E5A7F075A72053D4EF53D456
:103D5B00DF43E10175989075A71043A81053B8EF96
:103D6B0053F2EFE0F5A7020026AB07AA06ADA77545
:103D7B00A720EA24FF929BEBF599900383E0600563
:103D8B007597A580F59003837401F0AF058FA7227B
:103D9B009003C1E5A7F075A72043D41053D4DF439C
:103DAB00E20175A71043A81053B8EF53F2EFE0F5FB
:103DBB00A7E4FF023B1CE4F5A77580ED75A4107515
:103DCB00F1B075D4FF75904075A59875F2BF75D598
:103DDB005F75E3C0F5E175E2022275A71075C1307E
:103DEB00E4F5A7F5A9F5A9E5A9548060FA75A9032F
:103DFB0075A903E5A9548060FA22E4F5A7EFFD7CD1
:103E0B0000640170067597027597FFED4C7006758F
:103E1B0097DE7597AD22438E04438E025389FB4385
:103E2B008901E4F58AF58CC2A943B80243F202C2B8
:103E3B008C229003C1E5A7F0E4F5A753917F75940D
:103E4B00FF7595FF43910443E680E0F5A722C0E0A0
:103E5B00C083C0829003C1E5A7F075A710C29FE095
:103E6B00F5A7D082D083D0E0329003C1E5A7F075DF
:103E7B00A72053D4EFE0F5A7229003C1E5A7F07577
:103E8B00A72043D410E0F5A722AD077F407EFB129D
:103E9B003CD47F7C023CABC2EDD2ECD2EF9003441E
:103EAB007401F02275FAFF75F9F09002EF7401F0CE
:103EBB0022AFA775A720C29CC2988FA722AFA77568
:103ECB00A720D29CC2988FA722C2ECC2EFE490032A
:103EDB0044F022E4FF123B4B7F01023B4B123D2689
:103EEB00123E3D023EA27F7C7EFB02005E12000E64
:093EFB00023ED4E490006CF022B8
:00000001FF
