:020000040000FA
:10000000021438121CE4021CF1223202000AAD076D
:10001000AC06E4FBFAC3EB9DEA9C500E7FE87E033E
:10002000121A210BBB00010A80EB220215A2E490F8
:100030000242F0900248F0A3F090023FF0A3F0904B
:10004000023E04F0E4900241F0222202004EC2EB94
:01005000327D
:10005300021318121662900227E0900237F0900202
:0F00630028E0900238F0900229E0900239F02254
:10007300021A5085A773E4F5A72285A77375A71005
:0700830022E490006BF02263
:10008B0002197DC2EDD2ECD2EF9002417401F02245
:10009B00021D04E4F0A3F0A3F0A3F0A3F0A3F0A3DC
:1000AB00F0A3F0A3F022F090001EE075F011A42451
:1000BB0033F582E43400F58322F090001EE075F0F6
:1000CB0011A42435F582E43400F5832275F011EB8D
:1000DB001210C975F011EAA42583F583229001C58E
:1000EB00E025E024EAF582E43401F58322F583E090
:1000FB00FF74842DF58274003CF583229001C5E0DA
:10010B0024E4F582E43401F5832275F00CEB121034
:10011B00C9EA75F00CA42583F583229001FCFFE45A
:10012B0033FEC3E0FD9FEE6480F87480982290014B
:10013B00FCE0FEA3E02484F58274003EF583E0220C
:10014B0090001EE075F00CA422900214E02426F51A
:10015B0082E43400F58322EF25E024D7F582E434E2
:10016B0001F58322FF900082E034FFFE900205E050
:10017B00FCA3E0FDC39FEC9E2290001EE075F011E6
:10018B00A42437F582E43400F583E5822290000F36
:10019B00E0D39400748094802290001EE0FF75F0F1
:1001AB000CA4245DF582E43400F583229001C5E0B4
:1001BB00FF24D1F582E43401F583229000267406E6
:1001CB00F0900024E0940A7480948022900215E051
:1001DB002409F582E43402F58322EF75F00CA42494
:1001EB0052F582E43400F5832275F011A42430F526
:1001FB0082E43400F58322900082E0FEA3E02274B7
:10020B00842DF582E43400F58322E0FFA3E0900017
:10021B0022CFF0A3EFF022F0A3E0C4540F48F0A3D9
:10022B00E0C4F854F0C8682275F00CA42454F5828D
:10023B00E43400F5832224F6F582E43401F58322BD
:10024B0090001EE075F011A42436F582E43400F51D
:10025B008322FFE4FCFDFEEB2FFFEE3AFEED39FDB2
:10026B00EC38FC2290000FE0C39408748094802239
:10027B002FF582E43583F583222453F582E4340091
:10028B00F583222458F582E43400F58322245CF5AF
:10029B0082E43400F58322E0F8A3E0F9A3E0FAA3AB
:1002AB00E0FB22900073E02423F0900072E0340016
:1002BB00F02275F011A42431F582E43400F5832289
:1002CB00D3900073E09478900072E0940022C39472
:1002DB00197480948022F0900214E004F0223AF515
:1002EB0083E4F00B22E0FEA3E0FFC322900206E0C2
:1002FB0004F022900205E004F02290006BE0640110
:10030B0022E0FCA3E0FDA3E0FEA3E0FFE4229000CB
:10031B0024E0FF9001FCE0FEC39F22C3940674808F
:10032B009480222483F58274003E22F0900074E0C6
:10033B00940C74809480229001FD74FFF0E4900182
:10034B00FCF022FF900074E0C39F22E0FCA3E0FDD1
:10035B00D3EF9DEE9C22E4F0A3F0A3F022C2929087
:10036B0000757401F0A3222410F582E43400F583A8
:10037B00227E007480948022900074E01313543F0B
:10038B00FF22F09001CBE0FEA3E0FF229001FCE006
:10039B0004F022E0FF9001FDE022E0900026F090B7
:1003AB000024E02212024BE0FBFD7C002404FEEC57
:1003BB0033900201F0A3CEF0EB1313543FFFC3EDC8
:1003CB009FFEEC9400A3F0A3CEF0120B26120202B8
:1003DB0012032EF583E4F09001FCF0A3F01202025D
:1003EB00FFC39001FDE09F9001FCE09E40030205DE
:1003FB00EB12014B120237C083C0821202A2120110
:10040B003912025DD082D08312108C9001FCE0FE79
:10041B00A3E0FF120140F9FDC3900202E09D9002A0
:10042B0001E09400503090006BE0702A04F09000D3
:10043B006EE9F07C007D23120FFE900076E02FFF1B
:10044B00900075E03E900070F0A3EFF0E41200AA6C
:10045B0090006CF0A3F0120383900204E02FFF9046
:10046B000203E03400FE9001FCE0FCA3E0FD2484D9
:10047B001200FFE0C39FE49E4003020581120305B7
:10048B006003020581120336400E1202CB400912A3
:10049B00014B1201EAE004F01200FCE090006F1235
:1004AB0000C4E0F9704790006FE0FF7E009000728F
:1004BB00E0FCA3E0FD900076E02DFD900075E03CA4
:1004CB00CD2FFFEE3DFE90001EE0FD1200B6EEF0CC
:1004DB00A3EFF0ED1200B6E0FFA3E0900017CFF012
:1004EB00A3EFF0ED1200C9E004F00205D790006F06
:1004FB00E0FF90006EE02FFFE433FE900073E02FDF
:10050B00FF900072E03E9001FFF0A3EFF0E9C31201
:10051B0001D05062900070E0FEA3E0FF9001FFE07D
:10052B00FCA3E0FD900074E0FB1217AB9001FEEF13
:10053B00F0F46042E0FF90001EE0FE1200C9E0FD07
:10054B00EE1201882D12027CEF1200C4E0640170E0
:10055B001F9001FFE0FFA3E0900019CFF0A3EFF095
:10056B00900074E090001BF0120107E090001CF06B
:10057B001200C5E004F012030570511202AE120115
:10058B003912034E5002EFF09002011202F0941850
:10059B00EE94005037EF25E0FFEE33FE12034FE4ED
:1005AB009E5029C3900073E09430900072E0940247
:1005BB00501A90006CE475F001121065FEC3E5F063
:1005CB009410EE94004005E490006BF09001FDE078
:1005DB0004F060030203E89001FCE004F00203E87E
:1005EB0090001EE01201F47401F022E4900213F06B
:1005FB0090001DE06401707CF0900215F0900214E5
:10060B00F090001EE0FF1200C9E0FE900214E0FD26
:10061B00C39E5020EF1201882D12027CE0FFF46084
:10062B000E900215120157EFF0900215E004F01234
:10063B0002E280CD900215E09000241200B112026C
:10064B00151201B7E060030207E9900024E0600394
:10065B000207E9EF1200ECE0FEA3E02478FFE43E92
:10066B00FE1200B2E0FCA3E0C39FEC9E4003020726
:10067B00E90207E41200B2E0FEA3E0FF90002212B1
:10068B0003564007EF9DFFEE9C800B1200B2120247
:10069B00F0ED9FFFEC9E9001FCF0A3EFF0C39001F7
:1006AB00FDE094789001FCE0940050109001C5E0BF
:1006BB00120241E41200B1120215801E9001C5E036
:1006CB00FF12010B1203A5C31201D05003E004F07B
:1006DB0074F62F1202437401F022E4900214F0908E
:1006EB000214E0C31201D05016E0FF120184120273
:1006FB007BE0FE74092F1201DDEE1202E180E0E4D3
:10070B00900213F0A3F0900024E0FF900214E0C3DA
:10071B009F507BE4A3F01200C5E0FF900215E0FEB2
:10072B00C39F506474092E1201DDE0FFF460511277
:10073B000154E0FED39F40091201D7E0FFC3EE80C6
:10074B000A120154E0FF1201D7E0C39F9001FEF0A3
:10075B009001FE1202725028900215E0FF1201DB8D
:10076B00E0FE900213E024FFF582E43401F583EE02
:10077B00F074092F1201DD74FFF0900213E004F006
:10078B00900215E004F0808E1202E2020711E49051
:10079B000214F0900213E0FFA3E0FEC39F50187405
:1007AB00FF2EF582E43401F583E0FD74262E120151
:1007BB005AED1202E180DC900024EFF07020120061
:1007CB00E8E0FEA3E0242CFFEE3401FEC3900023EF
:1007DB00E09F900022E09E5005E49001C8F02212A9
:1007EB0002022485F974003E756A01F56B896C75FC
:1007FB006D327B017A007984121A7F900082A3E01C
:10080B0024039001FFF09001FCF09001FFE0F9242C
:10081B00301201265051A3EDF09001FFE0243090EF
:10082B0001FD120129503812020AE0FF9001FCE091
:10083B00248412020DE0FED39F401C9001FCE0FDCE
:10084B009001FEEEF09001FDE0FC12020AEFF07455
:10085B00842C12020DEEF09001FDE004F080BA90B2
:10086B0001FCE004F080A3E49002001200A59001CB
:10087B00FCE9F09001FFE024101201265050E0FF3C
:10088B00248412020DE0FB900201E02BF090020099
:10089B00E03400F074942FF582E43400F583E0FF2C
:1008AB00900203E02FF0900202E03400F074A42DCC
:1008BB00F582E43400F583E0FF900205E02FF09021
:1008CB000204E03400F09001FCE004F080A59002FB
:1008DB000012022B120222120222FEA3E0C4540FBA
:1008EB0048FF900204EEF0A3EFF0900202E0FCA3AD
:1008FB00E0FDC3EF9DFFEE9CFEEF7802CEC313CE5F
:10090B0013D8F92DFF90006AF0C3944612037C4074
:10091B000574FFF08025D3EF9406EE64809480403D
:10092B001A90006AE024FA9001FEF0E01313543F92
:10093B00F0F5F0A4FF90006AE02FF090006AE0FF62
:10094B00D3948012037C400E7480F012014B120181
:10095B00AD7403F0801FD3EF941EEE6480948090EF
:10096B00001EE075F00C40081201AC7401F080051C
:10097B001201ACE4F090006AE0FF12024BEFF002C0
:10098B0011A49001C4120361A37403F0E41200AA32
:10099B009001CDF090000FF0900016F0FBFA741060
:1009AB002BF58274001202E9BB00010AEB64064AC4
:1009BB0070EC900075120361FAFB74782BF582745E
:1009CB00001202E9BB00010AEB640A4A70ECE490E6
:1009DB000082F0A3F0FAFB74842BF58274001202F0
:1009EB00E9BB00010ABA01EFBB40EC90006A1200B0
:1009FB009EA3F0A3F090001D12009FFAFB74262B10
:100A0B00F58274001202E9BB00010AEB640A4A701A
:100A1B00ECE4FAFB9000301200D7E4F090003112B6
:100A2B0000D7E4F0A3F09000331200D7E4F0A3F06A
:100A3B009000351200D7E4F09000361200D7E4F0A6
:100A4B00F567F5689000371200D7E5822568F582C7
:100A5B00E5833567F583E4F00568E56870020567A3
:100A6B00640A456770DE90005275F00CEB1210C9EA
:100A7B0075F00C1200E1E4F0900053120115E4F054
:100A8B0090005412011512109800000000900058AD
:100A9B001201151210980000000090005C12011555
:100AAB00E4F090005D120115E4F00BBB00010AEBC2
:100ABB0064024A6003020A1FE49001E3F0FAFB743C
:100ACB00D12BF58274013AF583E4F0EB25E0FFEAD4
:100ADB0033FE74D72FF58274013EF583E4F0A3F057
:100AEB0074EA2FF58274013EF58374FFF0A3F07462
:100AFB00F62BF58274013AF583E4F074E42BF5825E
:100B0B0074013AF58374FFF00BBB00010AEB64062A
:100B1B004A70ACE49000171200A522900205120057
:100B2B009E900205F0A3F0120202FF120177502CE7
:100B3B001200FCE0601C90020BF0900207ECF0A39B
:100B4B00EDF0D39408EC9400401290000FE004F009
:100B5B00800A1202F770D01202FE80CBE4900205DD
:100B6B00F0A3F0900207E0FEA3E0FF120177501212
:100B7B0090020B1200FAEFF01202F770E61202FE6F
:100B8B0080E1900205E4F0A304F0900083E024FFE1
:100B9B0012016F501D1200FCE0700D74832DF58255
:100BAB0074003C1200F8EFF01202F770DD1202FE37
:100BBB0080D8900205E4F0A37405F0900083E02444
:100BCB00FE12016F4003020CBB1200FCE0FF7E0023
:100BDB002420FBEE33FA74852DF58274003CF583EB
:100BEB00E0D39BEA1201325003020CB0EF2430FF2A
:100BFB00EE33FE74862DF58274003CF583E0D31240
:100C0B0001305003020CB0900206E02401FE90026A
:100C1B0005E03400900207F0A3CEF0900205E0FE51
:100C2B00A3E0FF2408FDE43EFC1202A7C39DEA9C4F
:100C3B00507374842F1201422408FFE433FE748432
:100C4B002BF58274003AF583E0C312013050451244
:100C5B00014B1201EAE004F0900205E0FFA3E090E3
:100C6B000209CFF0A3EFF0900207E0FEA3E0FFA391
:100C7B0012017A5030900205E0FEA3E012032E120F
:100C8B0000F8EFF090020AE004F070DB900209E04C
:100C9B0004F080D3900208E004F07006900207E0A5
:100CAB0004F0020C261202F770031202FE020BC6AE
:100CBB00229001C4E0B408004003020E41900CCF17
:100CCB00F8282873020CE7020D0A020D1B020D34E3
:100CDB00020D4B020D75020D8E020DFA121267906A
:100CEB0001C6E064016003020E47F01217F8E490AE
:100CFB0001CAF09001C87402F09001C414F0229064
:100D0B0001CA12019B400280699001C47402F02257
:100D1B009001C97402F0121ADA121905121BA412EF
:100D2B001CFB9001C47403F0229001C912019B407B
:100D3B0002803F1200031207EA9001C47404F022F0
:100D4B00121ADA12175E12153A121BA4121CFB9020
:100D5B0001C9740A12038D90001EE01202BDEEF061
:100D6B00A3EFF09001C47405F0229001C912019B0E
:100D7B004004E014F0221200031203AF9001C4747C
:100D8B0006F0221210D51201A4E064036044120194
:100D9B00E5E0C3941674809480503712014B120215
:100DAB0084E0C39403748094805027EF12023312B3
:100DBB00030C7BB47A53F9F8D312107B4014120155
:100DCB004B12028E12030C7B297A0BF8D312107B79
:100DDB005013E49001C8F01216B912014B1202988D
:100DEB007401F080031205F69001C47407F022120F
:100DFB0013A890024DE0640170069001C8E004F066
:100E0B009001C812019B401FE01412038D7C007DE2
:100E1B000612101074082DF8E69001CAF090001E0F
:100E2B00E0045401F0800F120E489001CD7401F0D4
:100E3B00E49001C4F0229001C47401F02212034229
:100E4B0012031950229001C5E0244AF8E6FF7426DC
:100E5B002E12015AE0D39F40099001FC12015774E6
:100E6B00FFF012039780D9E49001FCF012031950A4
:100E7B001474262E12015A12039ED39F4002EFF0D8
:100E8B0012039780E79001FDE0FF7E001202D9501C
:100E9B0029EF9414748094804006E024FDF0801AAE
:100EAB00EF64064E6014EF64054E600EEF64024E65
:100EBB006008120107E09001FDF09001FDE0FF7E5C
:100ECB0000D3949674809480401A9001C5E0FD1273
:100EDB000163E0FAA3E04A706B74E42D12010D7408
:100EEB00FFF08060C3EF9428EE64809480502B90C9
:100EFB0001FDE0FF1202D99001C5E0500812010B71
:100F0B007402F0800512010BEFF09001C5E01201A5
:100F1B00637403F0A37420F0802A9001FDE0FFC3FB
:100F2B00946474809480500280059001FDE0FF90E2
:100F3B0001C5E0FE12010BEFF0EE1201637401F03C
:100F4B00A374F4F01203429001FCE0FF120326504D
:100F5B001474E42F12010D12039ED39F4002EFF085
:100F6B0012039780E29001E312039EFED39F40167B
:100F7B00EE9FA3F0D394077480948040269001FDDC
:100F8B00E09001E3F0229001FDE0FF9001E3E0C36C
:100F9B009F9001FEF0D394057480948040059001DE
:100FAB00E3EFF022BB010CE58229F582E5833AF5EC
:100FBB0083E0225006E92582F8E622BBFE06E925EE
:100FCB0082F8E222E58229F582E5833AF583E49300
:100FDB0022F8BB010DE58229F582E5833AF583E81A
:100FEB00F0225006E92582C8F622BBFE05E92582D0
:100FFB00C8F222EF8DF0A4A8F0CF8CF0A428CE8DF0
:10100B00F0A42EFE22BC000BBE0029EF8DF084FF56
:10101B00ADF022E4CCF875F008EF2FFFEE33FEECC9
:10102B0033FCEE9DEC984005FCEE9DFE0FD5F0E9F0
:10103B00E4CEFD22EDF8F5F0EE8420D21CFEADF0EF
:10104B0075F008EF2FFFED33FD4007985006D5F0F4
:10105B00F222C398FD0FD5F0EA22C5F0F8A3E028E1
:10106B00F0C5F0F8E582158270021583E038F022A6
:10107B00EB9FF5F0EA9E42F0E99D42F0E89C45F0CB
:10108B0022ECF0A3EDF0A3EEF0A3EFF022A8828503
:10109B0083F0D083D0821210AF1210AF1210AF12A8
:1010AB0010AFE473E493A3C583C5F0C583C8C582B1
:1010BB00C8F0A3C583C5F0C583C8C582C822A425C3
:1010CB0082F582E5F03583F583229001C5E01201AC
:1010DB00BCE0FF12019C50030211761200B2E0FC3F
:1010EB00A3E0FDD394F4EC9401402EED9428EC9402
:1010FB000A50269001C5E0FE1201BCEFC31312008B
:10110B00B1E0FCA3E0FDEE1200ECECF0A3EDF0126D
:10111B0001984036E014F080311200B21202F094C4
:10112B0028EE940A401CEF9450EE94465014120192
:10113B00B7E0C313F0EF1200EC740AF0A37428F0BD
:10114B00800812026F5003E004F01200E81202F064
:10115B009414EE9405503FEF94F4EE940140371243
:10116B0000E8740AF0A37428F0802B1200B2E0FEA2
:10117B00A3E0FFD39450EE94465009C3EF94F4EEE2
:10118B009401500A12026F500DE004F08008120116
:10119B00984003E014F0021C78E4900206F0A3F0F0
:1011AB0012020212032EF583E4F0900206F0A3F074
:1011BB00120202FFC3900207E09F900206E09E40DE
:1011CB000302126612014B12028EC083C0821202FE
:1011DB00A290020612013C12025DD082D083121043
:1011EB008C90006AE02404FFE433FE900206E0FCDE
:1011FB00A3E024841200FFD312012E401590006B44
:10120B00E0702F04F0E4900074F0900072F0A3F003
:10121B008020120383EDC39F501812030570131225
:10122B000336400E1202CB400912014B120284E02E
:10123B0004F012030570101202AE90020612013C6C
:10124B0012034E5002EFF0900207E004F06003022D
:10125B0011BB900206E004F00211BB2290024DE09C
:10126B00640170069001C604F02290021AE024FC7F
:10127B00602A147003021306240260030213171270
:10128B001B56E49001CDF09001C604F0900216E4D9
:10129B00F0A37482F090021A7404F022D390021718
:1012AB00E09400900216E09400401A9001CDE060AB
:1012BB0005E4FF1219ED900217E024FFF0900216DF
:1012CB00E034FFF0229001C5E0121AD0E004F0C325
:1012DB00940A74809480401E9001C5E0FF121AD0CE
:1012EB00740AF074102FF582E43400F5837401F066
:1012FB00121AAD74FFF0E4FF0219ED12005612162C
:10130B00067F011219ED90021A7403F022C0E0C09F
:10131B0083C082C0D075D000C004C007900077E0B6
:10132B00FFC3940774809480500B74782F1219624A
:10133B00E004F080577565007566FF900077E02438
:10134B0078121962E4F0F564C3E564940874809430
:10135B0080502174782564F582E43400F583E0FF36
:10136B00E565C39F50028F65E566D39F40028F668C
:10137B00056480D4C3E5659566FF900082E0FCA30D
:10138B00E02484F58274003CF583EFF0C2EDD2ECDF
:10139B00D007D004D0D0D082D083D0E03212014B12
:1013AB00120298E064017003021437900022E0FEF1
:1013BB00A3E0FFF47002EEF460729001C5E0FD1241
:1013CB000241E07067ED1200EC120356405E900193
:1013DB00C5E0FF1200ECE0FCA3E0FD900022E0FA78
:1013EB00A3E0FBC39DFDEA9CFC9001FCF0A3EDF098
:1013FB00D3942CEC94014034D3EB94B8EA940B4087
:10140B00071201C650268021D39001FDE0949090E5
:10141B0001FCE0940140071201C65010800B74E4EC
:10142B002F12010D1203A57003E004F02212000924
:10143B00787FE4F6D8FD758173021482021842E4BA
:10144B0093A3F8E493A34003F68001F208DFF48042
:10145B0029E493A3F85407240CC8C333C4540F4492
:10146B0020C8834004F456800146F6DFE4800B016C
:10147B00020408102040809014C7E47E019360BCE6
:10148B00A3FF543F30E509541FFEE493A360010E04
:10149B00CF54C025E060A840B8E493A3FAE493A32B
:1014AB00F8E493A3C8C582C8CAC583CAF0A3C8C54C
:1014BB0082C8CAC583CADFE9DEE780BE01730006B6
:1014CB0008010204070300064A8C8C8C8C8C0020CC
:1014DB002822019001900190015E00C800C800B461
:1014EB0000B400B400960096009600C800C800C86F
:1014FB0000C800C800C800C800C8140E37373737FB
:10150B002422201C1814131313132D2D2D2D2D2DC8
:10151B0044025400000000016F00017000017100D3
:10152B0001720048022EF00304092828E0FA001289
:10153B001D10756714AF67D3EF12019D4050C29217
:10154B007F067E00121A2100000000000000000040
:10155B000000000000000000000000000000000080
:10156B0000000000000000D2927F067E00121A21BC
:10157B000000000000000000000000000000000060
:10158B0000000000000000000000156780A7120398
:10159B00687454F0021D0DC0E0C0F0C083C082C05F
:1015AB00D075D000C000C001C002C003C004C0058C
:1015BB00C006C0079002537401F090024FE475F01F
:1015CB0001121065FEC3E5F09432EE9400400C90CE
:1015DB00024FE4F0A3F090024C04F01219B6C2CF04
:1015EB00D007D006D005D004D003D002D001D00054
:1015FB00D0D0D082D083D0F0D0E032E4FFFDFC75A8
:10160B006801E568C3940674809480501D121AC358
:10161B002DFDE43CFCD3ED94FFEC940040087401E9
:10162B002DFD74FF3CFC056880D8D3ED94FFEC9442
:10163B00005005C374FF9DFF90023CEFF0E4F5688A
:10164B00C3E568940874809480500B121AC3FF1280
:10165B001B04056880EA22E4FBEBC39403748094BB
:10166B0080504A74E42B121AB0E0FF7E00D3941E14
:10167B00748094805008121AB87403F0802CD3EF46
:10168B009496EE64809480501B74E42B121AB0E095
:10169B002405FFE433FE7C007D0A121010121AB8E9
:1016AB00EFF08006121AB87419F00B80AC22E4909C
:1016BB00001DF09001C5E0FF120241E41200C4745A
:1016CB0001F01201627403F0A37420F01200E8120F
:1016DB0002159000167401F090002674FFF0900133
:1016EB00FC7401F09001FCE0FFC31201D0501174A7
:1016FB00262F12015A74FFF09001FCE004F080E4F5
:10170B002285A77353D4EF53D4DF43E30175A7208E
:10171B00759442759D087596FE75955643C8105382
:10172B00D8EE43D80675A71043CE0453F4FB53F6FB
:10173B00FB75A72075C81075930C539D0F53D80FCD
:10174B0043D880539DF0439D0853D8F043D80E8562
:10175B0073A72290001EE0FF1201F4E4F0EF1202D7
:10176B00BDE4F0A3F0EF1200B674FFF0A3F0EF129C
:10177B0000C9E4F090001C74FFF0E490001BF090A3
:10178B000019F0A3F0900017F0A3F0FFEFC31201C4
:10179B00D0500C12018412027B74FFF00F80ED22EB
:1017AB008E678F688C698D6A7DFFE567C313FF2594
:1017BB00E02422F8E6F58308E6F582C3E56A958214
:1017CB00E56995834024740E2FF8E6FFEBC39F4029
:1017DB0019E5687807CEC313CE13D8F9F5688E6771
:1017EB00FF7C027D2D120FFEEEFDAF0522E4900073
:1017FB001FF0A3F0A3F074FFA3F0A3F0E4A3F09009
:10180B000016F090001EF090001D04F0E4FFEFC3F3
:10181B009402748094805009EF1201F4E4F00F806D
:10182B00EDE4FFEFC31201D0500C74262F12015AB6
:10183B0074FFF00F80ED22121C58121C147F011242
:10184B001C96121BEF121BCA121CB21218C61200E6
:10185B002E121B7D12170C121D0D7FC87E0012005D
:10186B000E7F2C7E0112000E121886900253E06040
:10187B0005E4F0120CBC7597A580F09001C87402BA
:10188B00F090001D14F0E49001FCF09001FCE012CC
:10189B0003265019E0FF12010B74FFF074D12F12C5
:1018AB0001BE740FF09001FCE004F080DE9001E3C8
:1018BB0074FFF0E49001C4F0020003121B2E120916
:1018CB008D121886E4FF9001C7E0FEEFC39E501CFB
:1018DB00741F2FF582E43402F583E4F074272FF59F
:1018EB0082E43402F58374FFF00F80DA90021A74ED
:1018FB0003F0E4900216F0A3F0221201A4E4F0121C
:10190B0001E5E4F0EF75F00CA4120284E4F0EF753E
:10191B00F00CA412028E1210980000000090001E12
:10192B00E0FB12023312109800000000EB75F00C74
:10193B00A4120298E4F022C2EEC2E8C2E975B20129
:10194B0075BC1975B34275DF40E4F5B975C4FF7505
:10195B00C3FFF5C6F5C522F582E43400F583E5BD7A
:10196B00F09000772275D108F5BEF5BDD2EF53E6A6
:10197B00F722C0E0C0D075D000C006C007E59E546A
:10198B00106003539E6FE5C854C0FF6006F452C845
:10199B0012004AEF30E604AE928007AE92AF061209
:1019AB001D13D007D006D0D0D0E0329001CCE0048C
:1019BB00F070069001CBE004F0E4FFEFC3940374E6
:1019CB00809480501C120162E0FCA3E0D39400ECE5
:1019DB009400400A12016274FFF5F01210650F803B
:1019EB00DA22EF64017002800F9001C5E06402708F
:1019FB000790021A7405F0229001C5E004F0E0FF95
:101A0B009001C7E0FEEF8EF0849001C5E5F0F090F9
:101A1B00021A7403F02212007DEF7802C333CE3327
:101A2B00CED8F9FFC374FF9FFF74FF9EFEEFF5A4A2
:101A3B00EEF5A5D29A209F057597A580F8C29AC29C
:101A4B009F8573A722C0E0C083C082C0D0C3900023
:101A5B0083E0943F900082E09401500CA3E004F0EB
:101A6B007006900082E004F053917FD0D0D082D0EA
:101A7B0083D0E0328B678A688969E4FFEFC3956D89
:101A8B00501FAB67AA68A9698F82758300120FAFCD
:101A9B00AB6AAA6BA96C8F82758300120FDC0F8067
:101AAB00DB2274E42FF582E43401F5832274272BB7
:101ABB00F582E43402F5832274362568F582E4342A
:101ACB0002F583E022241FF582E43402F58322E43D
:101ADB00FFFE74842FF58274003EF583E4F00FBF94
:101AEB0000010EBE01ECBF40E9E4900082F0A3F0D0
:101AFB00900075F0A3F0020084AEA775A7208F921B
:101B0B00E4F572E5727019E5C85402C313D394005F
:101B1B00748094804005C2C97572017597A580E3E6
:101B2B008EA722E4FFEFC3940874809480501B743B
:101B3B002E2FF582E43402F583E0FE74362FF58206
:101B4B00E43402F583EEF00F80DB229001C5E01444
:101B5B00600C14600E2402700FC287C29022C287E1
:101B6B00D29022D287C29022C287D290E49001C534
:101B7B00F022E4900253F090024CF090024FF0A34D
:101B8B00F090024EF090024AF0A3F090024DF090CC
:101B9B00025104F0A3742CF022C2EEC2E8C2E97524
:101BAB00B20175BC1D75B31012195175BB0275D1FD
:101BBB000843E60853F3F743F508D2EF02008E1201
:101BCB000076C2C8C2C9C2CCC2CB75CCFF75CDFFE3
:101BDB0075CA0C75CBF0D2AD53B8DF43F220D2CA25
:101BEB008573A72212007DC298C299C29CC29B75B5
:101BFB00A4FF75A5FFE4F5A2F5A353F4EF53F6EF9D
:101C0B0053CEEFC29A8573A722E4F5A77580ED75C5
:101C1B00A49075F1F075D4CF75904075A58775F2CA
:101C2B000F75D57F75E3C0F5E1F5E222120076F56D
:101C3B00917594FF7595FF7592717593FF43F380C2
:101C4B0043F58053E67F5391FB8573A72275A7104D
:101C5B0075C130E4F5A7F5A9F5A9E5A9548060FA9B
:101C6B0075A90375A903E5A9548060FA2290000FAA
:101C7B00E0D39402748094809001C5E04007120376
:101C8B00727401F022120372E4F022E4F5A7EFFD67
:101C9B007C00640170067597027597FFED4C70061A
:101CAB007597DE7597AD22438E04438E025389FBE5
:101CBB00438901E4F58AF58CC2A943B80243F202C9
:101CCB00C28C2212007653917F7594FF7595FF435A
:101CDB00910443E6808573A7221200765391FB5340
:101CEB00E67F8573A722C2ECC2EFE4900241F0229B
:101CFB00121C37121CCE02008E12007DC29F857300
:0B1D0B00A732D2AF22C2AF228F6E229F
:00000001FF
