:020000040000FA
:100000000230297F7C7EFB12005E220200229003D8
:10001000C1E5A7F0E4F5A75391FB53E67FE0F5A710
:1000200022223202334CC28FD28E220233B1AD076C
:10003000AC06E4FBFAC3EB9DEA9C500E7FE87E031E
:100040001237FE0BBB00010A80EB2202004EC2EB0E
:01005000327D
:06005300022AB9D2AF221F
:10005B00022174A2AF9200C2AF8F828E83E493FF12
:10006B00A20092AF22C2AF220238FE9003C1E5A7D5
:10007B00F075A72043D41043D42053E1FE7598901C
:10008B0075A71053A8EF53B8EF53F2EFE0F5A72283
:10009B00023C0A9003B4E0B401059001CD805D9061
:1000AB00028EE0B40D00400302069F9000BDF828BD
:1000BB0028730200E402010B02018E0202B102025C
:1000CB00DF0203DF02045602049D0204A00205387E
:1000DB000205880205BC020656900289E0FDE490F9
:1000EB00038EF0A3F0A3F07B037FD67E1F121E8737
:1000FB0090028AE4F0A3741EF090028E7401F02239
:10010B00D390028BE0940090028AE09400403790E9
:10011B0002EEE0640260030206799002EDE0B401A6
:10012B0022E4F0900289E0FF2496F582E43402F594
:10013B0083E4F09002EBE05407B50707E412328139
:10014B00123785020679E490028EF0900289E02442
:10015B0096F582E43402F583E004F0C39403500374
:10016B0002069F900289E0FF2496F582E43402F5A3
:10017B0083E4F074102FF582E43400F5837401F0FE
:10018B00023785E4FF900388F0900388E0FEC39468
:10019B0006506D9002E1E0FDA806088002C313D85B
:1001AB00FC30E054900388E0FEC394045026741096
:1001BB002EF582E43400F583E06401703B900388F4
:1001CB00C374039EFE7401A806088002C333D8FCD7
:1001DB004FFF8024900388E0FE2410F582E4340066
:1001EB00F583E0B40112C374099EFE7401A80608DE
:1001FB008002C333D8FC4FFF900388E004F0808962
:10020B0090022AE4F0A3EFF09003897405F09002BA
:10021B00E1E030E008900010E06401604A9002E1F8
:10022B00E030E108900011E06401603B9002E1E0F6
:10023B0030E208900012E06401602C9002E1E030A3
:10024B00E308900013E06401601D9002E1E030E4EC
:10025B0008900014E06401600E9002E1E030E50DBF
:10026B00900015E0B401069003897419F07F021217
:10027B00392DE4900388F0900389E0FF900388E028
:10028B00C39F5012122CEA7F0A7E0012002E90039D
:10029B0088E004F080E190028E7403F0E490028910
:1002AB00F07F0102392D7F057E0012002E9002890E
:1002BB00E0FDE490038EF0A3F0A3F07B037FB67E0A
:1002CB000C121E8790028AE4F0A3748CF090028EBD
:1002DB007404F022D390028BE0940090028AE09495
:1002EB000040719002EEE0640270669002EDE064F3
:1002FB0001705EF09002EBE05407FF900289E0FD85
:10030B00B5074E74962DF582E43402F583E4F012B2
:10031B003281900289E0FB25E025E024C9F582E4D7
:10032B003402F583E0FCA3E0FDA3E0FEA3E024018F
:10033B00FFE43EFEE43DFDE43CFCEB25E025E02440
:10034B00C9F582E43402F58312092D90028E7407ED
:10035B00F0020679900289E0FB25E025E024B1F557
:10036B0082E43402F583E0FCA3E0FDA3E0FEA3E00E
:10037B002401FFE43EFEE43DFDE43CFCEB25E025DF
:10038B00E024B1F582E43402F58312092D90028941
:10039B00E02496F582E43402F583E004F0C394057F
:1003AB00402B900289E0FF2496F582E43402F5831A
:1003BB007405F074102FF582E43400F5837401F0AA
:1003CB0074EF2FF582E43401F58374FFF090028E05
:1003DB007407F022D390028BE0946490028AE0942D
:1003EB000040181218E87F0212392D12362F1229ED
:1003FB003890028AE4F0A3745CF022D390028BE075
:10040B00940090028AE094004018122838BF010F24
:10041B0090028E7407F090028AE4F0A3746EF002DF
:10042B0006799002A3E004F0D39405400E741EF0FD
:10043B001235931218E8E4900289F090028E74053D
:10044B00F090028AE4F0A3746EF022D390028BE05A
:10045B00940090028AE094004012122838BF0109E0
:10046B0012362F90028E7407F002067912362F90F7
:10047B0002A3E004F0D3941E500302069F741EF0F7
:10048B001235931218E8E4900289F090028E7405ED
:10049B00F0220232199002EEE0640170319002ED0D
:1004AB00E0B4012AE4F09002EBE05407FF9001CC9A
:1004BB00E0B5071AE490028AF0A37450F09001CDD6
:1004CB007401F0E4FF12392D90028E7409F0900242
:1004DB00EEE0B403149002EDE0B4010DE4F07F0103
:1004EB0012392D90028E740AF09002EEE0640460D3
:1004FB000302069F9002EDE06401600302069FF089
:10050B009002EBE05407FF9001CCE06F7001E460C8
:10051B000302069F90028AF0A37450F0E49001CD81
:10052B00F07F0112392D90028E7409F0229001CCCC
:10053B00E0FD2410F582E43400F583E0FE9001EE3B
:10054B00E0FBEEFA900017E025E04AFFEB90028CFF
:10055B00CFF0A3EFF090028CE0FFA3E090038ECFDF
:10056B00F0A3EFF0A3740AF07B037FE67E0F121E5D
:10057B00877F0112392D90028E7408F0229002EEC3
:10058B00E06403600302069F9002EDE064016003E8
:10059B0002069FF09002EAA3E0540F90028FF090B6
:1005AB0001CD7401F0E4FF123AA790028E740BF0A8
:1005BB002290028FE014601914602B1460351460C4
:1005CB003D14603A24F86040240D704B90001D8060
:1005DB0025900018E0FEA3E0FF7C007D0A12073493
:1005EB0090028CEE802B90001AE0FFA3E090028C1F
:1005FB00CF801E90001CE0FF90028CE480139002D1
:10060B008CE4F0A304F080169001CCE0FF90028CF8
:10061B00E4F0A3EFF08007E490028CF0A3F09002DB
:10062B008FE0FD90028CE0FFA3E090038ECFF0A350
:10063B00EFF0A37408F07B047FDE7E17121E87E4B5
:10064B00FF123A7F90028E740AF022D390028BE055
:10065B00940090028AE094004023122838BF010EC8
:10066B0090028E740CF090028AE4F0A304F09002D6
:10067B008BE024FFF090028AE034FFF022123593D6
:10068B001218E87F0212392D12293890028AE4F0F1
:10069B00A37464F022BB010CE58229F582E5833A51
:1006AB00F583E0225006E92582F8E622BBFE06E937
:1006BB002582F8E222E58229F582E5833AF583E487
:1006CB009322BB010FF8E58229F582E5833AF58386
:1006DB00E028F0225009C58229F8E58226F622BBD4
:1006EB00FE09C58229F8E22582F222F8EA2583F574
:1006FB0083E9932822F8BB010DE58229F582E58376
:10070B003AF583E8F0225006E92582C8F622BBFEB3
:10071B0005E92582C8F222EF8DF0A4A8F0CF8CF06A
:10072B00A428CE8DF0A42EFE22BC000BBE0029EF18
:10073B008DF084FFADF022E4CCF875F008EF2FFFBD
:10074B00EE33FEEC33FCEE9DEC984005FCEE9DFE8B
:10075B000FD5F0E9E4CEFD22EDF8F5F0EE8420D2D2
:10076B001CFEADF075F008EF2FFFED33FD40079841
:10077B005006D5F0F222C398FD0FD5F0EA22C5F052
:10078B00F8A3E028F0C5F0F8E58215827002158316
:10079B00E038F022BB010A89828A83E0F5F0A3E0FE
:1007AB0022500687F009E71922BBFE07E3F5F00993
:1007BB00E3192289828A83E493F5F074019322BBB7
:1007CB000110E58229F582E5833AF583E0F5F0A384
:1007DB00E0225009E92582F886F008E622BBFE0AE2
:1007EB00E92582F8E2F5F008E222E5832AF583E9B0
:1007FB0093F5F0A3E99322BB010A89828A83F0E582
:10080B00F0A3F0225006F709A7F01922BBFE06F35E
:10081B00E5F009F31922F8BB0111E58229F582E510
:10082B00833AF583E8F0E5F0A3F0225009E925823D
:10083B00C8F608A6F022BBFE09E92582C8F2E5F04E
:10084B0008F22275F008758200EF2FFFEE33FECD14
:10085B0033CDCC33CCC58233C5829BED9AEC99E575
:10086B008298400CF582EE9BFEED9AFDEC99FC0F05
:10087B00D5F0D6E4CEFBE4CDFAE4CCF9A88222B8CD
:10088B0000C1B90059BA002DEC8BF084CFCECDFC52
:10089B00E5F0CBF97818EF2FFFEE33FEED33FDECDF
:1008AB0033FCEB33FB10D703994004EB99FB0FD8C8
:1008BB00E5E4F9FA227818EF2FFFEE33FEED33FD66
:1008CB00EC33FCC933C910D7059BE99A4007EC9B65
:1008DB00FCE99AF90FD8E0E4C9FAE4CCFB2275F0F5
:1008EB0010EF2FFFEE33FEED33FDCC33CCC833C806
:1008FB0010D7079BEC9AE899400AED9BFDEC9AFC0C
:10090B00E899F80FD5F0DAE4CDFBE4CCFAE4C8F9BA
:10091B0022EB9FF5F0EA9E42F0E99D42F0E89C4500
:10092B00F022ECF0A3EDF0A3EEF0A3EFF022A882FF
:10093B008583F0D083D082120950120950120950CE
:10094B00120950E473E493A3C583C5F0C583C8C5EE
:10095B0082C8F0A3C583C5F0C583C8C582C822A4CD
:10096B002582F582E5F03583F58322BB010DE58207
:10097B0029F582E5833AF583020A445007E925827B
:10098B00F8020A32BBFE07E92582F8020A56E58215
:10099B0029F582E5833AF583020A68BB0120E582DB
:1009AB0029F582E5833AF583D0F0D0E0F8D0E0F971
:1009BB00D0E0FAD0E0FBE8C0E0C0F0020A4D5018DE
:1009CB00E92582F8D083D082D0E0F9D0E0FAD0E0EC
:1009DB00FBC082C083020A3BBBFE18E92582F8D01C
:1009EB0083D082D0E0F9D0E0FAD0E0FBC082C083A4
:1009FB00020A5F228A838982E473EC8EF0A4CCC551
:100A0B00F0CCCDF8EFA4CEC5F02DFDE43CFCE8A472
:100A1B002EC8C5F03DFDE43CFCEFA4FFE5F028FE3D
:100A2B00E43DFDE43CFC22E6FB08E6FA08E6F9228D
:100A3B00EBF608EAF608E9F622E0FBA3E0FAA3E0FE
:100A4B00F922EBF0A3EAF0A3E9F022E2FB08E2FAC9
:100A5B0008E2F922EBF208EAF208E9F222E493FB4E
:100A6B00740193FA740293F92290001FE075F01150
:100A7B00A42437F582E43400F583E0FBFD7C0024ED
:100A8B0003FEEC3390038CF0A3CEF0EB1313543F27
:100A9B00FFC3ED9FFEEC9400A3F0A3CEF0121CB1AC
:100AAB00900089E0FEA3E0248AF58274003EF58372
:100ABB00E4F0900388F0A3F0900089E0FEA3E0FF40
:100ACB00C3900389E09F900388E09E4003020DA32F
:100ADB0090001FE075F00CA42455F582E43400F56A
:100AEB0083C083C082E0F8A3E0F9A3E0FAA3E0FBA4
:100AFB00900388E0FEA3E0248BF58274003EF5831F
:100B0B00E0FFE4FCFDFEEB2FFFEE3AFEED39FDECD2
:100B1B0038FCD082D08312092D900388E0FEA3E02D
:100B2B00FF248BF58274003EF583E0F9FDC390033F
:100B3B008DE09D90038CE09400503390006CE0703E
:100B4B002D04F090006FE9F07C007D2312072290BA
:100B5B00007DE02FFF90007CE03E900071F0A3EF52
:100B6B00F0E4A3F0A3F0A3F090006DF0A3F09000DD
:100B7B0075E01313543FFF90038FE02FFF90038E0C
:100B8B00E03400FE900388E0FCA3E0FD248BF582AB
:100B9B0074003CF583E0C39FE49E4003020D1D905F
:100BAB00006CE064016003020D1DF0900075E09491
:100BBB000C4023D3900074E09478900073E0940081
:100BCB00401490001FE075F00CA42453F582E4341C
:100BDB0000F583E004F0748B2DF58274003CF583F3
:100BEB00E0900070F090001FE075F011A42436F532
:100BFB0082E43400F583E0F97065900070E0FF7ECD
:100C0B0000900073E0FCA3E0FD90007DE02DFD90D3
:100C1B00007CE03CCD2FFFEE3DFE90001FE0FD750C
:100C2B00F011A42434F582E43400F583EEF0A3EF45
:100C3B00F0ED75F011A42434F582E43400F583E073
:100C4B00FFA3E0900018CFF0A3EFF0ED75F011A427
:100C5B002436F582E43400F583E004F0020D8F9026
:100C6B000070E0FF90006FE02FFFE433FE90007404
:100C7B00E02FFF900073E03E90038AF0A3EFF0E9C2
:100C8B00C3940A4003020D1D900071E0FEA3E0FF28
:100C9B0090038AE0FCA3E0FD900075E0FB1232E7C5
:100CAB00EFF4606E90001FE0FE75F011A42436F592
:100CBB0082E43400F583E0FDEE75F011A42438F5E1
:100CCB0082E43400F583E5822DF582E43583F583E8
:100CDB00EFF090001FE075F011A42436F582E43498
:100CEB0000F583E0B4011790038AE0FFA3E09000C6
:100CFB001ACFF0A3EFF0900075E090001CF090007D
:100D0B001FE075F011A42436F582E43400F583E07E
:100D1B0004F090006CE06401706A900074E024238E
:100D2B00F0900073E03400F0900388E0FEA3E02421
:100D3B008BF58274003EF583E0FF900075E0C39F56
:100D4B005002EFF090038DE025E0FF90038CE03331
:100D5B00FE900075E0C39FE49E5029C3900074E0A1
:100D6B009418900073E09401501A90006DE475F0A4
:100D7B0001120789FEC3E5F09404EE94004005E4EC
:100D8B0090006CF0900389E004F06003020AC390BA
:100D9B000388E004F0020AC390001FE075F011A471
:100DAB002431F582E43400F5837401F022E4F990E8
:100DBB00001EE064016003020E70F0FAFB90001F4E
:100DCB00E0FF75F011A42436F582E43400F583E0DE
:100DDB00FEEBC39E502DEF75F011A42438F582E481
:100DEB003400F583E5822BF582E43583F583E0FF50
:100DFB00F4600D74272AF582E43400F583EFF00AD2
:100E0B000B80BA900025EAF090001FE075F011A45A
:100E1B002434F582E43400F583E0FFA3E090002353
:100E2B00CFF0A3EFF09001EBE0600302103F9000D6
:100E3B0025E0600302103F9001F6E0FEA3E024786A
:100E4B00FFE43EFE90001FE075F011A42434F58200
:100E5B00E43400F583E0FCA3E0C39FEC9E40030267
:100E6B00103F02103A90001FE075F011A42434F5E6
:100E7B0082E43400F583E0FEA3E0FF900023E0FC66
:100E8B00A3E0FDD3EF9DEE9C90001FE075F01140A9
:100E9B0015A42434F582E43400F583E0FEA3E0C30B
:100EAB009DFFEE9C8015A42434F582E43400F58379
:100EBB00E0FEA3E0FFC3ED9FFFEC9E900388F0A341
:100ECB00EFF0900388E0FEA3E0C39478EE9400501B
:100EDB0024E49001F8F090001FE075F011A4243485
:100EEB00F582E43400F583E0FFA3E0900023CFF01C
:100EFB00A3EFF080259001CCE024EFF582E43401E0
:100F0B00F583E0900027F0900025E0C3940A50038E
:100F1B00E004F09001F87401F022E4FB90001FE074
:100F2B0075F011A42438F582E43400F583E5822BA7
:100F3B00F582E43583F583E0FF74952BF582E43479
:100F4B0003F583EFF00BEBB40AD2E4F9FB90002529
:100F5B00E0FFEBC39F4003020FF5E4FA90001FE0A4
:100F6B0075F011A42436F582E43400F583E0FFEA32
:100F7B00C39F507274952AF582E43403F583E0FF26
:100F8B00F4605F74272BF582E43400F583E0FED325
:100F9B009F4003EE801874272BF582E43400F58311
:100FAB00E0FF74952AF582E43403F583E0C39F9048
:100FBB00038AF090038AE0C39408502674952AF5AF
:100FCB0082E43403F583E0FF748B29F582E4340368
:100FDB00F583EFF074952AF582E43403F58374FFFF
:100FEB00F0090A020F670B020F58E4FBEBC3995091
:100FFB001B748B2BF582E43403F583E0FF74272BF2
:10100B00F582E43400F583EFF00B80E0AF01900044
:10101B0025EFF0701F9001F6E0FEA3E024C8FFE47B
:10102B003EFE900023E0FCA3E0C39FEC9E5005E442
:10103B009001CFF0229003A4EEF0A3EFF07B017AA6
:10104B0003796B64AA4E600302112212079FFF9073
:10105B000270E0FE900270EEF0A3EFF012079FE536
:10106B00F05401FE900270E054FEFCA3E0FDEC4E48
:10107B00FFED900270CFF0A3EFF09000021207CAC1
:10108B00FF900272E0FE900272EEF0A3EFF0900080
:10109B00021207CAE5F05401FE900272E054FEFC06
:1010AB00A3E0FDEC4EFFED900272CFF0A3EFF090BA
:1010BB0000041207CAFF900274E0FE900274EEF077
:1010CB00A3EFF09000041207CAE5F05401FE900262
:1010DB0074E054FEFCA3E0FDEC4EFFED900274CFE8
:1010EB00F0A3EFF09000061207CAFF900276E0FE25
:1010FB00900276EEF0A3EFF09000061207CAE5F02F
:10110B005401FE900276E054FEFCA3E0FDEC4EFF92
:10111B00ED9002760212A19003A4E07004A3E064A8
:10112B00CC60030212A712079FFF900278E0FE909B
:10113B000278EEF0A3EFF012079FE5F05401FE905A
:10114B000278E054FEFCA3E0FDEC4EFFED9002783C
:10115B00CFF0A3EFF09000021207CA5401FF9002E8
:10116B007AE0FCA3E054FEFDECFEED4FFF90027A1B
:10117B00EEF0A3EFF09000021207CAFFE5F0C313E5
:10118B00EF13540125E0FFE433FE90027AE0FCA359
:10119B00E054FDFDEC4EFEED4FFF90027AEEF0A316
:1011AB00EFF09000021207CAAEF07802CEC313CE56
:1011BB0013D8F97E0054017802C333CE33CED8F95D
:1011CB00FF90027AE0FCA3E054FBFDEC4EFEED4FEA
:1011DB00FF90027AEEF0A3EFF09000021207CAAE76
:1011EB00F07803CEC313CE13D8F97E0054017803E5
:1011FB00C333CE33CED8F9FF90027AE0FCA3E05490
:10120B00F7FDEC4EFEED4FFF90027AEEF0A3EFF000
:10121B009000021207CAE5F05401FE90027AE054E6
:10122B00FEFCA3E0FDEC4EFFED90027ACFF0A3EFB6
:10123B00F09000041207CAFF90027CE0FE90027C43
:10124B00EEF0A3EFF09000041207CAE5F05401FE94
:10125B0090027CE054FEFCA3E0FDEC4EFFED90020F
:10126B007CCFF0A3EFF09000061207CAFF90027E2E
:10127B00E0FE90027EEEF0A3EFF09000061207CA9C
:10128B00E5F05401FE90027EE054FEFCA3E0FDEC81
:10129B004EFFED90027ECFF0A3EFF02212362F22FD
:1012AB009003A17401F0A37403F0A3746BF0EF64CB
:1012BB00AA4E6006EF64CC4E704C9003A1E0FBA3EA
:1012CB00E0FAA3E0F9C003C002C0019003A1A3A3FD
:1012DB00E09000101209A69003A1E0FBA3E0FAA393
:1012EB00E0F9900015E4F5F0120821900013740357
:1012FB00120700900014E4120700900010120976F8
:10130B00EE8FF01208029003A1E0FBA3E0FAA3E03A
:10131B00F912079FFDACF064AA4C6009ED64CC4C4C
:10132B0060030214B49003A1E0FBA3E0FAA3E0F97D
:10133B009003A1A3A39000141206A075F002A4F5CC
:10134B008285F083EE8FF01208219003A1E0FBA3BE
:10135B00E0FAA3E0F990001474011206CD9000138B
:10136B001206A0FF9000141206A06F600302149BDC
:10137B009003A1E0FBA3E0FAA3E0F9C003C002C015
:10138B00019003A1A3A3E09000101209A69003A162
:10139B00E0FBA3E0FAA3E0F99000041207CAFFAE4A
:1013AB00F012079F440F6F7003E5F06E7078900397
:1013BB00A0F09003A1E0FBA3E0FAA3E0F9900013E7
:1013CB001206A0FF9003A0E0FEC39F506C75F002C5
:1013DB00EEA4F58285F0831207CAFF123745EFFDA5
:1013EB009003A1E0FBA3E0FAA3E0F99003A0E07562
:1013FB00F002A4F58285F0831207CAE5F05401B51B
:10140B00050A900017740112070080129003A1E0E7
:10141B00FBA3E0FAA3E0F990001774028018900385
:10142B00A0E004F0808C9003A1E0FBA3E0FAA3E022
:10143B00F990001774041207009003A1E0FBA3E0DE
:10144B00FAA3E0F99000171206A06401703A90001D
:10145B00170412070012079FFFAEF0121040900303
:10146B00A1E0FBA3E0FAA3E0F912079FFFAEF06443
:10147B00AA4E70069003847402F0EF64CC4E700D8C
:10148B009003847403F08008E4900384F012362FE9
:10149B009003A1E0FBA3E0FAA3E0F990001712067A
:1014AB00A0D39401400312362F9003A1E0FBA3E0DD
:1014BB00FAA3E0F99000141206A0D39403500B90FA
:1014CB0000131206A0D39403400312362F2290016F
:1014DB00CBE0B4080040030216E19014ECF8282886
:1014EB007302150402152702153902155202156AEB
:1014FB000215A40215BE02167712009E9001CDE0D4
:10150B00640160030216E7F01235E4E49001D1F0B8
:10151B009001CF7402F09001CB14F0229001D1E036
:10152B00D394004002807B9001CB7402F022900197
:10153B00D07402F01239DA12313D12386D123CB010
:10154B009001CB7403F0229001D0E0D394004002C1
:10155B008050123CC1121ACE9001CB7404F02212AF
:10156B0039DA1230B812341512386D123CB09001C2
:10157B00D0740AF09001D2E0FEA3E0FF90001FE0D0
:10158B0075F011A42432F582E43400F583EEF0A358
:10159B00EFF09001CB7405F0229001D0E0D39400D2
:1015AB004004E014F022123CC1120A749001CB7477
:1015BB0006F02212252690001FE0FF75F00CA424E4
:1015CB005EF582E43400F583E064036079EF75F037
:1015DB000CA42453F582E43400F583E0C394165035
:1015EB006590001FE075F00CA42454F582E43400E0
:1015FB00F583E0C39403504EEF75F00CA42455F51E
:10160B0082E43400F583E0FCA3E0FDA3E0FEA3E05D
:10161B00FFE47BB47A53F9F8D312091C40289000ED
:10162B001FE075F00CA42459F582E43400F583E037
:10163B00FCA3E0FDA3E0FEA3E0FFE47BB27A06F897
:10164B00D312091C501EE49001CFF0123478900095
:10165B001FE075F00CA4245DF582E43400F583746F
:10166B0001F08003120DB89001CB8054122EE9903B
:10167B0003B4E0B401069001CFE004F09001CFE099
:10168B00D39400402BE014F09001D2E0FEA3E0FFD6
:10169B007C007D0612073474762DF58274003CF5C0
:1016AB0083E09001D1F090001FE0045401F08026FC
:1016BB0012200DE49001CBF0A3E0B4010790028E51
:1016CB007407F02290028EE0B40B04740BF022909E
:1016DB00028E7409F0229001CB7401F0221231B00A
:1016EB00900350E0FEA3E0FF24CEFDEE34FFFC9010
:1016FB00034EE0FAA3E0FBC39DEA9C401090035D10
:10170B007401F090033AEAF0A3EBF0800DE4900340
:10171B005DF090033AEEF0A3EFF0E4900349F0A3F1
:10172B00F0A3F0A37464F090033AE0FEA3E0FF7C17
:10173B00007D4B120A05E47B64FAF9F812088A90D3
:10174B00033CEEF0A3EFF090033AE0FEA3E0FF7C46
:10175B00007D75120A05E47B64FAF9F812088A9089
:10176B00033EEEF0A3EFF090035BE4F0A37464F0A0
:10177B0090033AE0FEA3E0FF7C007D4B120A05E4E8
:10178B007B64FAF9F812088A90035EEEF0A3EFF08F
:10179B00E4900340F0A3F0A3F0A37464F09003452E
:1017AB00E4F0A37464F090033AE0FEA3E0FF7C0046
:1017BB007D53120A05E47B64FAF9F812088A900348
:1017CB0047EEF0A3EFF090035DE0700302189690E4
:1017DB000349E0FEA3E0FF900350E0FCA3E0FDC350
:1017EB009FEC9E401390034BE0FEA3E0FFED9FECBC
:1017FB009E5005E49001CCF090033CE0FEA3E0FF8B
:10180B00D3ED9FEC9E4059A3E0FEA3E0FF90035164
:10181B00E09F900350E09E50477F0A7E0012002EFF
:10182B00D2847F0A7E0012002E1231B0C284900344
:10183B003CE0FEA3E0FF900350E0FCA3E0FDD39F50
:10184B00EC9E401690033EE0FEA3E0FFED9FEC9E66
:10185B0050089001CC7401F080069001CC7402F01A
:10186B0090035BE0FEA3E0FF900350E0FCA3E0FDE0
:10187B00D39FEC9E406690035EE0FEA3E0FFED9FDE
:10188B00EC9E50589001CC7403F022900340E0FE84
:10189B00A3E0FF90034EE0FCA3E0FDC39FEC9E4052
:1018AB0014900342E0FEA3E0FFED9FEC9E500690E8
:1018BB0001CC7404F0900345E0FEA3E0FFD3ED9F51
:1018CB00EC9E4018A3E0FEA3E0FF90034FE09F9037
:1018DB00034EE09E50069001CC7405F022122412A8
:1018EB009002A4E0540FC4F8540FC868FFE4C4542A
:1018FB00F048FE90024CE0FCA3E0540FFDEC4EFED2
:10190B00ED4FFF90024CEEF0A3EFF09002A5E054E8
:10191B000FFF90024CE0FCA3E054F0FDECFEED4F0A
:10192B00FF90024CEEF0A3EFF09002A6E0540FC430
:10193B00F8540FC868FFE4C454F048FE90024AE024
:10194B00FCA3E0540FFDEC4EFEED4FFF90024AEE70
:10195B00F0A3EFF09002A7E0540FFF90024AE0FCD7
:10196B00A3E054F0FDECFEED4FFF90024AEEF0A326
:10197B00EFF09002A8E0540FC4F8540FC868FFE4CE
:10198B00C454F048FE90024EE0FCA3E0540FFDEC73
:10199B004EFEED4FFF90024EEEF0A3EFF09002A93A
:1019AB00E0540FFF90024EE0FCA3E054F0FDECFE80
:1019BB00ED4FFF90024EEEF0A3EFF09002AAE07E07
:1019CB000054017803C333CE33CED8F9FF900250C5
:1019DB00E0FCA3E054F7FDEC4EFEED4FFF90025000
:1019EB00EEF0A3EFF09002ABE07E0054017802C35F
:1019FB0033CE33CED8F9FF900250E0FCA3E054FB7A
:101A0B00FDEC4EFEED4FFF900250EEF0A3EFF09089
:101A1B0002ACE0540125E0FFE433FE900250E0FC01
:101A2B00A3E054FDFDEC4EFEED4FFF900250EEF0A7
:101A3B00A3EFF09002ADE05401FF900250E0FCA345
:101A4B00E054FEFDECFEED4FFF900250EEF0A3EFE5
:101A5B00F09002AEE07E0054017805C333CE33CE56
:101A6B00D8F9FF900250E0FCA3E054DFFDEC4EFEF2
:101A7B00ED4FFF900250EEF0A3EFF09002AFE05469
:101A8B0001C4F8540FC868FFE4C454F048FE900238
:101A9B0050E0FCA3E054EFFDEC4EFEED4FFF900247
:101AAB0050EEF0A3EFF0900250E0F0A3E0543FF0C3
:101ABB009002B0E0FF900252E0FE900252EEF0A3D3
:101ACB00EFF022900089E0FEA3E0248CF974003E35
:101ADB00FA9003927401F0A3EAF0A3E9F0A3743235
:101AEB00F07B017A00798B123702900089A3E024F6
:101AFB0003F9FFE92430FDE433FCEFC39DEC648074
:101B0B00F87480985054AE07E92430FDE433FCEEB2
:101B1B00C39DEC6480F8748098503C748B2EF582D6
:101B2B00E43400F583E0FD748B2FF582E43400F58B
:101B3B0083E0FCD39D401D900388ECF0748B2FF554
:101B4B0082E43400F583EDF0748B2EF582E43400DF
:101B5B00F583ECF00E80B10F8099E4900389F0A32C
:101B6B00F0A3F0A3F0A3F0A3F0AF01E92410FDE480
:101B7B0033FCEFC39DEC6480F8748098504E748BEB
:101B8B002FF582E43400F583E0FD90038AE02DF01D
:101B9B00900389E03400F0749B2FF582E43400F558
:101BAB0083E0FD90038CE02DF090038BE03400F08C
:101BBB0074AB2FF582E43400F583E0FD90038EE0E7
:101BCB002DF090038DE03400F00F809F900389E09F
:101BDB00C4F854F0C868F0A3E0C4540F48F0A3E075
:101BEB00C4F854F0C868F0A3E0C4540F48F0A3E065
:101BFB00C4F854F0C868FEA3E0C4540F48FF900328
:101C0B008DEEF0A3EFF090038BE0FCA3E0FDC3EFB0
:101C1B009DFFEE9CFEEF7802CEC313CE13D8F92DA9
:101C2B0090006BF0D394064017E024FA900388F0F1
:101C3B00E01313543FF0F5F0A4FF90006BE02FF08E
:101C4B0090006BE0FFD3945040197450F090001F3C
:101C5B00E075F00CA4245EF582E43400F583740384
:101C6B00F08028EFD3941E90001FE075F00C400F0E
:101C7B00A4245EF582E43400F5837401F0800CA497
:101C8B00245EF582E43400F583E4F090006BE0FF12
:101C9B0090001FE075F011A42437F582E43400F5B1
:101CAB0083EFF00222CDE4FBFA900390F0A3F0A3B4
:101CBB00F0A3F0FFD390008AE09B900089E09A405C
:101CCB002E748B2BF58274003AF583E0601AFF902B
:101CDB000390EAF0FCA3EBF0D39408EC9400400FD4
:101CEB0090000FE004F080070BBB00010A80C5E4F5
:101CFB00FAFBD3900391E09B900390E09A4013740E
:101D0B008B2BF58274003AF583EFF00BBB00010AC5
:101D1B0080E07A007B0190008AE024FFFF9000892D
:101D2B00E034FFFEC3EB9FEA9E502C748B2BF582A5
:101D3B0074003AF583E07018748A2BF58274003ABC
:101D4B00F583E0FF748B2BF58274003AF583EFF08B
:101D5B000BBB00010A80BF7A007B0590008AE02450
:101D6B00FEFF900089E034FFFEC3EB9FEA9E400329
:101D7B00021E86748B2BF58274003AF583E0F924EE
:101D8B0020FFE433FE748C2BF58274003AF583E06C
:101D9B00D39FEE6480F87480985003021E7EE92472
:101DAB0030FFE433FE748D2BF58274003AF583E03B
:101DBB00D39FEE6480F87480985003021E7EEB2450
:101DCB0001FEE43A900390F0A3CEF0EB2408FFE47D
:101DDB003AFE900390E0FCA3E0FDC39FEC9E400312
:101DEB00021E7E748B2BF58274003AF583E0240877
:101DFB00FFE433FE748B2DF58274003CF583E0C356
:101E0B009FEE6480F8748098505890001FE075F036
:101E1B000CA42453F582E43400F583E004F0900322
:101E2B0092EAF0A3EBF0900390E0FEA3E0FFA3E0B7
:101E3B00FCA3E0FDC39FEC9E5039748A2BF5827492
:101E4B00003AF583E0FF748B2DF58274003CF5832B
:101E5B00EFF0900393E004F07006900392E004F02F
:101E6B0080C4900391E004F07006900390E004F0BE
:101E7B00021DD60BBB00010A021D662290038AEEDF
:101E8B00F0A3EFF0E4F990038EE0FEA3E0A80308C3
:101E9B008005C333CE33CED8F9FFEF4DFF900391BE
:101EAB00EEF0A3EFF090038AE0FEA3E0FFBE0C0B75
:101EBB00BFB6089002F07401F08005E49002F0F0D8
:101ECB00C3740C9F9002F4F0E49E9002F3F0E4FDD7
:101EDB00900390E0FFEB2FFFE433FEEDC39FEE6426
:101EEB0080F8748098507874017E00A805088005EE
:101EFB00C333CE33CED8F9FF900391E05EFEA3E05F
:101F0B005F4E602DED25E025E024F5F582E43402EB
:101F1B00F58374F6F0A3746CF0ED25E025E024F75F
:101F2B00F582E43402F58374F9F0A374B6F00980FA
:101F3B002AED25E025E024F5F582E43402F58374DF
:101F4B00F9F0A3749CF0ED25E025E024F7F582E48D
:101F5B003402F58374F6F0A37486F00D021EDBE9F0
:101F6B005401F9900390602EE02BFF25E025E0242F
:101F7B00F5F582E43402F58374F6F0A3746CF0EF9C
:101F8B0025E025E024F7F582E43402F58374F9F0BB
:101F9B00A374B6F0802CE02BFF25E025E024F5F5AB
:101FAB0082E43402F58374F9F0A3749CF0EF25E01E
:101FBB0025E024F7F582E43402F58374F6F0A3747C
:101FCB0086F0900390E02BFF25E025E024F9F582C5
:101FDB00E43402F58374F9F0A3749CF0EF25E0254B
:101FEB00E024FBF582E43402F58374F9F0A374B6B4
:101FFB00F0E49002F2F0EF25E024069002F1F002FB
:10200B003C777EFFE4FD900025E0FCEDC39C501671
:10201B0074272DF582E43400F583E0FCEED39C406D
:10202B0002AE040D80E090001DEEF07EFFE4FD900B
:10203B000025E0FCEDC39C502E9001CCE02421F553
:10204B0082E43402F583E0FC74272DF582E434003E
:10205B00F583E0D39C400D74272DF582E43400F515
:10206B008374FFF00D80C8E4FD900025E0FCEDC308
:10207B009C501674272DF582E43400F583E0FCEEBA
:10208B00D39C4002AE040D80E0EEC394195028EEB1
:10209B00941440051E1E1E801EEE64066019EE642D
:1020AB00056014EE6402600F9001CCE024EFF58222
:1020BB00E43401F583E0FEEED39496401C9001ECE2
:1020CB00E07002A3E070649001CCE024EFF582E4B1
:1020DB003401F58374FFF08052EEC39428502FEE39
:1020EB00C394199001CCE0500E24EFF582E4340137
:1020FB00F5837402F0800B24EFF582E43401F58351
:10210B00EEF09001EC7403F0A374E8F0801DEEC3C5
:10211B0094649001CCE024EFF582E43401F583EE76
:10212B00F09001EC7401F0A374F4F07EFFE4FD7405
:10213B00EF2DF582E43401F583E0FCEED39C4002F5
:10214B00AE040DEDB407E89001EEE0FDEED39D403B
:10215B000AEE9DD394074010EEF0229001EEE0C3FF
:10216B009ED394054002EEF022C0E0C0F0C083C0C5
:10217B0082C0D075D000C000C001C002C003C00433
:10218B00C005C006C00730D873A285E4339003B5F1
:10219B00F09002E7E0FFA3E09002E5CFF0A3EFF0B1
:1021AB00A3E5FCF0A3E5FBF09002E5E0FEA3E0FF66
:1021BB00A3E0FCA3E0FDD39FEC9E4007ED9FFFEC5B
:1021CB009E80149002E5E0FEA3E0FFC374FF9FCF57
:1021DB0074FF9ECF2DCF3C9003B1F0A3EFF0900393
:1021EB00B5E0FF9003B1E0FCA3E0FD9002E2A3E0B9
:1021FB00FAA3E0F5828A83120A03C2D830D96B9016
:10220B0002E7E0FFA3E09002E5CFF0A3EFF0A3E538
:10221B00EAF0A3E5E9F09002E5E0FEA3E0FFA3E01E
:10222B00FCA3E0FDD39FEC9E4007ED9FFFEC9E804F
:10223B00149002E5E0FEA3E0FFC374FF9FCF74FF91
:10224B009ECF2DCF3C9003B1F0A3EFF09003B5E000
:10225B00FF9003B1E0FCA3E0FD9002E2A3E0FAA340
:10226B00E0F5828A83120A03C2D930DA02C2DA306D
:10227B00DF359002EFE0B4012CB2849002F2E0253E
:10228B00E024F3F582E43402F583E0FEA3E08EFA5A
:10229B00F5F99002F2E004F09002F1E0FFA3E0B553
:1022AB000703123CB9C2DFD007D006D005D004D04B
:1022BB0003D002D001D000D0D0D082D083D0F0D0C8
:1022CB00E032E490038FF0A3F0900089E0FEA3E0EE
:1022DB00248AF58274003EF583E4F090038FF0A31B
:1022EB00F0900089E0FEA3E0FFC3900390E09F9085
:1022FB00038FE09E400302241190001FE075F00C49
:10230B00A42459F582E43400F583C083C082E0F83D
:10231B00A3E0F9A3E0FAA3E0FB90038FE0FEA3E0B8
:10232B00248BF58274003EF583E0FFE4FCFDFEEBAD
:10233B002FFFEE3AFEED39FDEC38FCD082D0831244
:10234B00092D90006BE02403FFE433FE90038FE034
:10235B00FCA3E0248BF58274003CF583E0FDD39F56
:10236B00EE6480F8748098401590006CE070520415
:10237B00F0E4900075F0900073F0A3F080439000B0
:10238B0075E01313543FFFEDC39F503590006CE085
:10239B00B4012EE4F0900075E0D3940C4023D3905D
:1023AB000074E09478900073E09400401490001F48
:1023BB00E075F00CA42454F582E43400F583E004BA
:1023CB00F090006CE0B4012A900074E02423F090AC
:1023DB000073E03400F090038FE0FEA3E0248BF554
:1023EB008274003EF583E0FF900075E0C39F5002BE
:1023FB00EFF0900390E004F060030222EC90038F67
:10240B00E004F00222EC227BFFE4FA74212AF5822D
:10241B00E43402F583E0FF74EF2AF582E43401F52E
:10242B0083E0D39F400D74EF2AF582E43401F583EA
:10243B0074FFF074EF2AF582E43401F583E0FFEBCF
:10244B00D39F4002AB07EFC3941E5014EF94004090
:10245B000F74A42AF582E43402F5837401F08057DB
:10246B0074EF2AF582E43401F583E0FFC3949650B0
:10247B001DEF24ECFFE434FFFE7C007D0A120734D1
:10248B0074A42AF582E43402F583EFF0802974EF0B
:10249B002AF582E43401F583E0B4960F74A42AF58F
:1024AB0082E43402F583740CF0800C74A42AF58258
:1024BB00E43402F583E4F074A42AF582E43402F5E3
:1024CB0083E0700E74AA2AF582E43402F583E4F0FB
:1024DB00800D74AA2AF582E43402F5837401F00AA4
:1024EB00EA64066003022416EBD394964006E4904C
:1024FB0002B0F022EBC3946440079002B07402F078
:10250B0022EBC3942840079002B07404F022EBC373
:10251B00940040069002B07407F0229001EBE0FFAC
:10252B00D3940050030225E990001FE075F011A42D
:10253B002434F582E43400F583E0FCA3E0FDD3946E
:10254B00F4EC9401403AED942EEC94095032EFC325
:10255B00139001EBF090001FE075F011A42434F5FB
:10256B0082E43400F583E0FFA3E09001F6CFF0A303
:10257B00EFF090000FE0D39400404BE014F0804656
:10258B0090001FE075F011A42434F582E43400F5BB
:10259B0083E0FEA3E0FFC3942EEE9409401CEF945E
:1025AB0050EE944650149001EBE0FFC313F09001F2
:1025BB00F67409F0A3742EF0800C90000FE0C39416
:1025CB00085003E004F0C39001F7E094B09001F6DB
:1025DB00E09404504A7409F0A3742EF080419000EB
:1025EB001FE075F011A42434F582E43400F583E088
:1025FB00FEA3E0FFD39450EE94465009C3EF94F43E
:10260B00EE9401500E90000FE0C394085011E004BB
:10261B00F0800C90000FE0D394004003E014F00224
:10262B003B44E4900388F090028AF0A374BEF07FE1
:10263B000212392D7F987E081237FE90028AE070C5
:10264B0002A3E070030226FB9003BAE0700302269C
:10265B00F5E4F090028BE024FFF090028AE034FF67
:10266B00F0E0FEA3E0FF7C007D32120734ED4C70EE
:10267B0003123679900384E06402706E900273E06B
:10268B0054F0642070089002A27402F0804690020D
:10269B0073E054F0643070089002A27403F080343D
:1026AB00900273E054F0644070089002A27404F03E
:1026BB008022900273E054F0645070089002A27470
:1026CB0005F08010900273E054F064607006900285
:1026DB00A27406F0900273E0900388F0E0FF123CC6
:1026EB005CE490028AF0A3F080067597A50226465B
:1026FB0090028AE07002A3E0702912000390038815
:10270B00EFF0E0C4540F9002A2F0C394024006E035
:10271B00D3940640069002A27406F09002A2E0FF4A
:10272B001234DBE4FF02392D900388EFF0A3ECF0B9
:10273B00A3EDF0D394BCEC9405400BE0945C9003B8
:10274B0089E0940A400E9002E274FFF0A3742EF01D
:10275B00A37442F0900388E07003022803A3E0FE09
:10276B00A3E0FFD394BCEE94054054EF9403EE9496
:10277B0007504C9002ECE0602F9002E9E0FF7401EF
:10278B007E00A807088005C333CE33CED8F9FF905F
:10279B0002EBE02FF09002EAE03EF09002E9E00459
:1027AB00F0E49002ECF080179002E9E0D394004043
:1027BB007B123538BF01069002ED7401F0801E903C
:1027CB000389E0FEA3E0FFD394C4EE9408405DEFD1
:1027DB00945CEE940A50559002ECE0600F9002E28C
:1027EB0074FFF0A3742EF0A37442F0229002E9E080
:1027FB0004F0E49002ECF022900389E0FEA3E0FFEA
:10280B00D394BCEE9405400DEF9403EE9407500562
:10281B00E49002ECF0D3EF94C4EE9408400EEF94E6
:10282B005CEE940A50069002EC7401F02290038443
:10283B00E0640360030229359002A3F0900384F057
:10284B0090027BE030E1519002E1E030E006900233
:10285B009C7401F09002E1E030E10690029D74015E
:10286B00F09002E1E030E20690029E7401F09002DB
:10287B00E1E030E30690029F7401F09002E1E0305A
:10288B00E4069002A07401F09002E1E030E50690BE
:10289B0002A17401F07F012290027BE030E2028002
:1028AB006A90027BE030E363E020E05F9002A2E0FD
:1028BB00FF64056005EF640670519002E1E030E0C3
:1028CB000690029C7401F09002E1E030E106900268
:1028DB009D7401F09002E1E030E20690029E7401DB
:1028EB00F09002E1E030E30690029F7401F0900259
:1028FB00E1E030E4069002A07401F09002E1E030D8
:10290B00E5069002A17401F07F0122E490029CF095
:10291B00A3F0A3F0A3F0A3F0A3F09001EF74FFF0EA
:10292B00A3F0A3F0A3F0A3F0A3F07F00227F041287
:10293B002D967E00900256EEF0A3EFF0E490038A02
:10294B00F090038AE0FF25E02448F582E43402F599
:10295B0083E0E4F0EF25E02448F582E43402F583CC
:10296B00E0A3E0FF12374590038BEFF090038AE072
:10297B0025E02448F582E43402F583C083C082E06D
:10298B00FCA3E0FD90038BE05401FEEC4EFFEDD079
:10299B0082D083CFF0A3EFF090038AE004F0E0C382
:1029AB009408409DE490036AF0123C3C123C847FF7
:1029BB00987E081237FEE490038AF090038AE0FFBA
:1029CB00C39409501CEF25E02448F582E43402F54A
:1029DB0083E0FEA3E0FF123B1D90038AE004F0802E
:1029EB00DA7F827E001237FE123C90023C4C12378B
:1029FB00C4123593E4FB74102BF582E43400F58399
:102A0B00E4F074962BF582E43402F583E4F0749CC5
:102A1B002BF582E43402F583E4F074212BF582E488
:102A2B003402F5837496F00BEBB406CAE49002A360
:102A3B00F09001CCF09001CBF09001CDF090001F05
:102A4B00F090000FF090007EF09001ECF0A3F0906E
:102A5B0002E9F0A3F0A3F0A3F0A3F0A3F0A3F0908E
:102A6B0002E274FFF0A3742EF0A37442F09003B44F
:102A7B007401F09003B8E4F0A37464F0E4FBEB256D
:102A8B00E025E024B1F582E43402F5831209390024
:102A9B00000000EB25E025E024C9F582E43402F5C3
:102AAB0083120939000000000BEBB406D122C0E001
:102ABB00C083C082C0D075D000C004C00790007E18
:102ACB00E0FFC394075016747F2FF582E43400F5B2
:102ADB0083E5BDF090007EE004F0022B6790038647
:102AEB00E4F0A374FFF0747F2FF582E43400F583D8
:102AFB00E5BDF090007EE4F0900385F0900385E057
:102B0B00FFC394085038747F2FF582E43400F583AB
:102B1B00E0FF900386E0C39F5002EFF0900387E045
:102B2B00D39F4012900385E0247FF582E43400F5B7
:102B3B0083E0900387F0900385E004F080BE900360
:102B4B0087E0FF900386E0C39FFF900089E0FCA322
:102B5B00E0248BF58274003CF583EFF0C2EDD2ECF0
:102B6B00D007D004D0D0D082D083D0E032E4FFEFB6
:102B7B0025E02460F582E43402F583E0FCA3E0FD5C
:102B8B00EF25E02470F582E43402F583ECF0A3ED3D
:102B9B00F0EF25E02468F582E43402F583E0FCA332
:102BAB00E0FDEF25E02478F582E43402F583ECF0C8
:102BBB00A3EDF0EF25E02440F582E43402F583E049
:102BCB00FCA3E0FDEF25E02458F582E43402F58305
:102BDB00ECF0A3EDF0EF25E02480F582E43402F570
:102BEB0083E0FCA3E0FDEF25E02428F582E434022A
:102BFB00F583ECF0A3EDF00FEF64046003022B7A86
:102C0B00E4FFEF25E02430F582E43402F583E0FCA9
:102C1B00A3E0FDEF25E02448F582E43402F583ECD4
:102C2B00F0A3EDF00FEFB408D92241028800410365
:102C3B00C100460076010204070300602801F90178
:102C4B002C012C012C00FA00C800C800C800C800D9
:102C5B00C800C800C800C800B400B400B400960097
:102C6B00960096007800785401D7464646462422B3
:102C7B00201C1814141410100E0E0E0E0E0E4403FE
:102C8B00A8000000004103A6004103A7004302E295
:102C9B00FF2E424103830141036A00410384004834
:102CAB000260000000000000000048026800000005
:102CBB00040000000048024000AA000A00AF0063B5
:102CCB0048028000BB00FF00BF000050023000CC68
:102CDB0000FF00FF00FF00FF00FF00CF00FF007FA1
:102CEB0003122D967E0090022EEEF0A3EFF0E490EF
:102CFB00038AF090038AE0FFC39404504CEF25E065
:102D0B002428F582E43402F583E0A3E0FF12374573
:102D1B0090038BEFF090038AE025E02428F582E402
:102D2B003402F583C083C082E0FCA3E0FD90038BEB
:102D3B00E05401FEEC4EFFEDD082D083CFF0A3EF39
:102D4B00F090038AE004F080AA123C3C123C847F92
:102D5B00987E081237FEE490038AF090038AE0FF16
:102D6B00C39405501CEF25E02428F582E43402F5CA
:102D7B0083E0FEA3E0FF123B1D90038AE004F0808A
:102D8B00DA7F827E001237FE023C4CE4FDFCF9EF49
:102D9B0014602D14604714606124FE607A04600394
:102DAB00022E3DE4FEEE25E02448F582E43402F5E4
:102DBB0083E0A3E02DFDE43CFC0EEEB407E780724C
:102DCB00E4FEEE25E02458F582E43402F583E0A31B
:102DDB00E02DFDE43CFC0EEEB403E78055E4FEEE83
:102DEB0025E02470F582E43402F583E0A3E02DFDA9
:102DFB00E43CFC0EEEB403E78038E4FEEE25E02461
:102E0B0028F582E43402F583E0A3E02DFDE43CFCDD
:102E1B000EEEB403E7801BE4FEEE25E02478F5828A
:102E2B00E43402F583E0A3E02DFDE43CFC0EEEB4AC
:102E3B0003E7A905AF0122EF7003022EE8E490022D
:102E4B00E9F0A3F0A3F09002EDF0A3F0D3ED94CB57
:102E5B00EC940B4019ED94B4EC940D50117401F0FB
:102E6B009002E274FFF0A37427F0A37433F0D3ED58
:102E7B0094D2EC940E401CED940DEC9411501490E4
:102E8B0002EE7402F09002E274FFF0A37427F0A339
:102E9B007433F0D3ED9464EC9416401CED946BEC0E
:102EAB00941950149002EE7403F09002E274FFF048
:102EBB00A37427F0A37433F0D3ED947CEC941D40F2
:102ECB001CED9444EC942250149002EE7404F09098
:102EDB0002E274FFF0A37427F0A37433F022900086
:102EEB001FE075F00CA4245DF582E43400F583E05B
:102EFB0064017003022F89900023E0FEA3E0FFF42E
:102F0B007002EEF460789001F8E070729001F6E0D8
:102F1B00FCA3E0FDD3EF9DEE9C4063900023E0FE0D
:102F2B00A3E0FF9DFDEE9CFCD3ED94C8EC94004018
:102F3B004DD3EF948CEE940A40109000277406F05A
:102F4B00900025E0940A50368031D3ED945EEC94DA
:102F5B000140109000277406F0900025E0940A5071
:102F6B001D80189001CCE024EFF582E43401F58349
:102F7B00E0900027F0900025E07003E004F02212AF
:102F8B003BB4123B907F01123C2512398512395A02
:102F9B00123BD21229F9123A561238361200567FCA
:102FAB00647E0012002E1216E89001CCE0B40103EF
:102FBB0012262D9003B8E07002A3E0601E9003BAB6
:102FCB00E060F0E4F01214D99003B9E024FFF09024
:102FDB0003B8E034FFF07597A580D8E49003B4F004
:102FEB009001CCE0B401197F0112392D90028AE4D3
:102FFB00F0A3748CF0E490028EF0900289F0800BB9
:10300B0090028E7408F07F0112392D1235939003C4
:10301B00BAE06005E4F01214D97597A580F01200A0
:10302B0021787FE4F6D8FD758120023073022F8A58
:10303B00E493A3F8E493A34003F68001F208DFF4D2
:10304B008029E493A3F85407240CC8C333C4540F4A
:10305B004420C8834004F456800146F6DFE4800B1D
:10306B000102040810204080902C35E47E0193600F
:10307B00BCA3FF543F30E509541FFEE493A360014A
:10308B000ECF54C025E060A840B8E493A3FAE493B4
:10309B00A3F8E493A3C8C582C8CAC583CAF0A3C862
:1030AB00C582C8CAC583CADFE9DEE780BE90001FB0
:1030BB00E0FF75F011A42431F582E43400F583E4CC
:1030CB00F0EF75F011A42432F582E43400F583E4BB
:1030DB00F0A3F0EF75F011A42434F582E43400F57D
:1030EB008374FFF0A3F0EF75F011A42436F582E49E
:1030FB003400F583E4F090001D74FFF0E490001CA5
:10310B00F090001AF0A3F0900018F0A3F0FF9000DD
:10311B001FE075F011A42438F582E43400F583E543
:10312B00822FF582E43583F58374FFF00FEFB40A39
:10313B00DD2290001FE0FF75F00CA4245EF582E405
:10314B003400F583E4F0EF75F00CA42453F582E41E
:10315B003400F583E4F0EF75F00CA42454F582E40D
:10316B003400F583E4F0EF75F00CA42459F582E4F8
:10317B003400F5831209390000000090001FE0FBBA
:10318B0075F00CA42455F582E43400F5831209394B
:10319B0000000000EB75F00CA4245DF582E4340014
:1031AB00F583E4F0221238A01236BE900360E0FFE4
:1031BB00A3E090034ECFF0A3EFF01238CF1236BE40
:1031CB00900360E0FFA3E0900350CFF0A3EFF090EB
:1031DB00034EE0FEA3E0FFD39451EE94035009C3DA
:1031EB00EF94AEEE94015019900350E0FEA3E0FF74
:1031FB00D39451EE94035010C3EF94AEEE94014070
:10320B000790035A7401F022E490035AF0229002C3
:10321B0088E07026A3E0FF64036004EFB4051B9005
:10322B0002887401F090028AE4F0A3746EF07F02BE
:10323B0012392D90028E7405F022E4900288F0A3CF
:10324B00E02401FFE433FE7C007D06120734EDF031
:10325B00E0FF249CF582E43402F583E0B40116EF21
:10326B00B401079001CD7401F0227F0112392D902A
:10327B00028E7403F022900289E0FD640160559088
:10328B0002EAE0FAA3E0FBEA131313541F20E02732
:10329B0074102DF582E43400F583E4F0EBAE027884
:1032AB0003CEC313CE13D8F9FF74EF2DF582E4349C
:1032BB0001F583EFF0801D900289E0FF2410F58269
:1032CB00E43400F583E4F074EF2FF582E43401F578
:1032DB008374FFF0E49002EAF0A3F022900390EEE7
:1032EB00F0A3EFF0A9037BFF900390E0C313FF253E
:1032FB00E024F9F582E43401F583E0F8A3E0F582EC
:10330B008883D39DE5839C503574D72FF582E434A5
:10331B0001F583E0FFE9C39F4024900390E0FEA3F7
:10332B00E07807CEC313CE13D8F9F0EE900390F0EC
:10333B00E0FEA3E0FF7C027D2D120722EEFBAF0324
:10334B0022C0E0C0F0C083C082C0D075D000C000E6
:10335B00C001C002C003C004C005C006C007900373
:10336B009FE598F0E030E015C298AC99540475F0E5
:10337B0040A4FFAEF0AD04EF4DFF1212AB90039FD4
:10338B00E030E107C299900383E4F0D007D006D078
:10339B0005D004D003D002D001D000D0D0D082D041
:1033AB0083D0F0D0E032C0E0C0F0C083C082C0D088
:1033BB0075D000C000C001C002C003C004C005C06E
:1033CB0006C0079003BA7401F09003B6E475F001E0
:1033DB00120789FEC3E5F09432EE9400400C900383
:1033EB00B6E4F0A3F09003B304F01239B0C2CFD01F
:1033FB0007D006D005D004D003D002D001D000D026
:10340B00D0D082D083D0F0D0E032120070900388FD
:10341B007414F0C293D2947F067E001237FE000024
:10342B000000000000000000000000000000000091
:10343B00000000000000000000D293C2947F067EC3
:10344B00001237FE0000000000000000000000002A
:10345B00900388E014F0E0D3940050B7C293C29469
:10346B0090007C7401F0A37454F0020056E49000B9
:10347B001EF09001F8F090001FE075F011A42436B7
:10348B00F582E43400F5837401F09001EC7403F0E1
:10349B00A374E8F09001F6E0FFA3E0900023CFF0D7
:1034AB00A3EFF09000177401F09001CCE024EFF53E
:1034BB0082E43401F583E0900027F07F0174272F1D
:1034CB00F582E43400F58374FFF00FEFB40AEE22BB
:1034DB00EF24FD601414601814601C146032240473
:1034EB00704A9002E17406802C9002E1740B800C00
:1034FB009002E1740F801E9002E1743BF090022168
:10350B007450F0A37496F0A3F0A37450F0A3801939
:10351B009002E1743FF0900221743CF0A37496F09A
:10352B00A3F0A3743CF0A37450F0A3F022E4F9FDD4
:10353B00FC9002E9E014FFECC39F502174017E0064
:10354B00A804088005C333CE33CED8F9FF9002EA26
:10355B00E05EFEA3E05F4E60010D0C80D4ED5401E4
:10356B00FD9002E9E014FFA3E0FEA3E0A8070880AA
:10357B0005CEC313CE13D8F9FFED7A00B50706EAD3
:10358B00B506027901AF01229001CF7402F09000D1
:10359B001E14F09001EB740FF0E4FF74EF2FF58223
:1035AB00E43401F58374FFF074A42FF582E4340244
:1035BB00F58374FFF074AA2FF582E43402F583E4EB
:1035CB00F00FEFB407D5E49002B0F09001EE74FF6A
:1035DB00F0E49001CBF0023CC1E4900020F0A3F0AA
:1035EB00A3F074FFA3F0A3F0E4A3F0900017F09006
:1035FB00001FF090001E04F0E4FFEF75F011A424FF
:10360B0031F582E43400F583E4F00FEFB402EBE420
:10361B00FF74272FF582E43400F58374FFF00FEF6E
:10362B00B40AEE22E4FFEF25E0246BF582E43403C9
:10363B00F583E4F0A3F0EF25E02473F582E4340383
:10364B00F583E4F0A3F00FEFB404DB90037B74017C
:10365B00F0A37403F0A3746BF0E490037FF0A3F07A
:10366B00A3F090037E7403F0E4900382F022123CEB
:10367B003C123C847F987E081237FEE4900389F05D
:10368B00900389E0FFC39405501CEF25E02458F507
:10369B0082E43402F583E0FEA3E0FF123B1D9003AE
:1036AB0089E004F080DA7F827E001237FE123C90B4
:1036BB00023C4CE4F5BEF5BD90034DF0C2EDD2ECEF
:1036CB007F057E001237FE90034DE004F0E0C394BB
:1036DB000840E9900360E5BEF0A3E5BDF0123C9C09
:1036EB00900360E0FEA3E07803CEC313CE13D8F9AA
:1036FB00F0EE900360F02290038FEBF0A3EAF0A3BF
:10370B00E9F0E4FF900395E0FEEFC39E502B90038E
:10371B008FE0FBA3E0FAA3E0F98F8275830012061A
:10372B00A0FE900392E0FBA3E0FAA3E0F98F827571
:10373B008300EE1207000F80CB229003A4EFF0E47E
:10374B00F9FDFC74017E00A804088005C333CE3359
:10375B00CED8F9FF9003A4E0FBE4FEEF5BA80408CE
:10376B008006CEA2E713CE13D8F864014E70010980
:10377B000CECB408CEE95401FF22E490028EF090D9
:10378B000289E0C39406501FE004F0E0B401020488
:10379B00F0900289E0FF9002E1E0FEA807088002AA
:1037AB00C313D8FC30E0D8900289E0C394064008DC
:1037BB00E4F090028E7402F022122B78E4900362F4
:1037CB00F0F9900364C9F0A3F0A3E9F0A3E4F0A32C
:1037DB00F0A3F07B017A027960C003C002C00190B4
:1037EB000364E0FBA3E0FAA3E0F99000061209A63C
:1037FB0002362F9003C1E5A7F075A710EF7802C32F
:10380B0033CE33CED8F9FFC374FF9FFF74FF9EFEF8
:10381B00EFF5A4EEF5A5D29A209F057597A580F834
:10382B00C29AC29F9003C1E0F5A7229003C1E5A7FE
:10383B00F0E4F5A7C2DFC2D8C2D9C2DA75D901F557
:10384B00F7F59CF596F59EF5F9F5FA75DAB075DB9B
:10385B00B0F5DC75E61043F31043F510D2DEE0F55E
:10386B00A722C2EEC2E8C2E975B20175BC1D75B3E1
:10387B001075DF40E4F5B975C4FF75C3FFF5C6F5E8
:10388B00C575BB0675D10843E60853F3F743F50836
:10389B00D2EF023C6AC2EEC2E8C2E975B20175BC56
:1038AB001975B34275DF40E4F5B975C4FF75C3FFF5
:1038BB00F5C6F5C575BB0E75D108F5BEF5BDD2EFD6
:1038CB0053E6F722C2EEC2E8C2E975B20175BC1924
:1038DB0075B34275DF40E4F5B975C4FF75C3FFF5E9
:1038EB00C6F5C575BB0275D108F5BEF5BDD2EF5354
:1038FB00E6F722C0E0C083C082C0D0C390008AE04C
:10390B00943F900089E09401500CA3E004F0700602
:10391B00900089E004F053917FD0D0D082D083D037
:10392B00E03290038AEFF0BF0106120076023B6A89
:10393B0090038AE0B4020EE4FF123AA7123AF6E4BF
:10394B00900383F022120076123B6A123CA622905F
:10395B0003C1E5A7F0E4F5A7C2C8C2C9C2CCC2CB6C
:10396B0075CCFF75CDFF75CA0C75CBF0D2AD53B8C6
:10397B00DF43F220D2CAE0F5A7229003C1E5A7F0FE
:10398B0075A710C298C299C29CC29B75A4FF75A55E
:10399B00FFE4F5A2F5A353F4EF53F6EF53CEEFC2CA
:1039AB009AE0F5A7229001D3E004F070069001D2C3
:1039BB00E004F0D39001EDE094009001ECE0940072
:1039CB00400CA3E024FFF09001ECE034FFF022E484
:1039DB00FFFE748B2FF58274003EF583E4F00FBF6E
:1039EB0000010EBE01ECBF40E9E4900089F0A3F0AA
:1039FB0090007CF0A3F0023CC7A2AF9200C2AF755F
:103A0B00FF8075EF028F828E8375B7A575B7F14373
:103A1B008F0175FF8075EF02EDF0538FFEA20092C0
:103A2B00AF22A2AF9200C2AF75FF8075EF028F82FB
:103A3B008E8375B7A575B7F1438F0375FF8075EF4F
:103A4B0002E4F0538FFCA20092AF229003C1E5A7D2
:103A5B00F0538EF75389BF4389205389EF758B96AB
:103A6B00758D9675A710C2AB43B80843F208E0F505
:103A7B00A7C28E229003C1E5A7F0E4F5A7C2DEEF43
:103A8B00700343DA31EFB4010343DB31EFB40203CC
:103A9B0043DC31D2DE9003C1E0F5A7229003C1E5F0
:103AAB00A7F0E4F5A7C2DEEF700353DACEEFB40153
:103ABB000353DBCEEFB4020353DCCED2DE9003C153
:103ACB00E0F5A7229003C1E5A7F0E4F5A7F5917502
:103ADB0094FF7595FF7592717593FF43F38043F5D2
:103AEB008053E67F5391FBE0F5A7229003C1E5A736
:103AFB00F075A72053D4EF53D4DF43E101759890B1
:103B0B0075A71043A81053B8EF53F2EFE0F5A702D7
:103B1B000026AB07AA06ADA775A720EA24FF929B48
:103B2B00EBF599900383E060057597A580F59003FD
:103B3B00837401F0AF058FA72290000FE0D394029E
:103B4B009001CCE0400D2410F582E43400F5837431
:103B5B0001F0222410F582E43400F583E4F0229086
:103B6B0003C1E5A7F075A72043D41053D4DF43E27C
:103B7B000175A71043A81053B8EF53F2EFE0F5A768
:103B8B00E4FF023A7FE4F5A77580ED75A41075F19B
:103B9B00B075D4FF75904075A59875F2BF75D55F5C
:103BAB0075E3C0F5E175E2022275A71075C130E42B
:103BBB00F5A7F5A9F5A9E5A930E7FB75A90375A943
:103BCB0003E5A930E7FB22438E04438E025389FBA6
:103BDB00438901E4F58AF58CC2A943B80243F2028A
:103BEB00C28C229003C1E5A7F0E4F5A753917F7532
:103BFB0094FF7595FF43910443E680E0F5A722C03F
:103C0B00E0C083C0829003C1E5A7F075A710C29FE7
:103C1B00E0F5A7D082D083D0E032E4F5A7EFB40172
:103C2B00067597027597FFEF70067597DE7597AD62
:103C3B00229003C1E5A7F075A72053D4EFE0F5A7B9
:103C4B00229003C1E5A7F075A72043D410E0F5A798
:103C5B0022AD077F407EFB123A2D7F7C023A04C2D5
:103C6B00EDD2ECD2EF9003447401F02275FAFF759C
:103C7B00F9F09002EF7401F022AFA775A720C29C58
:103C8B00C2988FA722AFA775A720D29CC2988FA7E7
:103C9B0022C2ECC2EFE4900344F022E4FF123AA7F5
:103CAB007F01023AA7123ACF123BEE023C6AC28462
:103CBB00E49002EFF02212000E023C9CE490006CA8
:023CCB00F022E5
:00000001FF
