:020000040000FA
:10000000022C68D287E4900244F02202002290037E
:10001000F4E5A7F0E4F5A75391FB53E67FE0F5A7DD
:100020002222320230C4C28FD28E22022E94AD0719
:10003000AC06E4FBFAC3EB9DEA9C500E7FE87E031E
:100040001233E00BBB00010A80EB2202004EC2EB30
:01005000327D
:060053000229C4D2AF2215
:10005B00021D929003D7E0B4010812231AE4900317
:06006B00D7F022C2AF2213
:100073000234E09003F4E5A7F075A72043D480434E
:10008300D50153E1FE75989075A71053A8EF53B8A7
:10009300EF53F2EFE0F5A7220237D09003D8E0B494
:1000A30001059001CC805D90033EE0B40D00400358
:1000B3000205C79000BDF82828730200E402010B73
:1000C30002019902022602025402034F02038F0225
:1000D30003C80203DE0204760204C60204FA020520
:1000E30094900339E0FDE49003BCF0A3F0A3F07B0C
:1000F300037FCE7E27121C0C90033AE4F0A3741EF8
:10010300F090033E7401F022D390033BE0940090FF
:10011300033AE094004042900243E0640260030229
:1001230002CE900242E0B4012DE4F0900339E0FFE7
:100133002442F582E43403F583E4F0900240E05472
:1001430007B5070AE4122FF912371C0202CE9003F7
:100153003AE4F0A304F00202CEE490033EF09003ED
:1001630039E02442F582E43403F583E004F0C394D8
:100173000350030205C7900339E0FF2442F582E4EC
:100183003403F583E4F074102FF582E43400F5832F
:100193007401F002371CE4FF9003B7F09003B60438
:1001A300F0900346E02401FDE433FC9003B6E0FE47
:1001B300C39DEC6480F8748098502EEE25E0242DC6
:1001C300F582E43403F583A3E0FD74102EF582E495
:1001D3003400F583E0FEA805088002C333D8FC4F42
:1001E300FF9003B6E004F080B89002CFE4F0A3EFF1
:1001F300F07F0112350FE49003B6F0122F8C7F14B9
:100203007E0012002E9003B6E004F0E0C394054094
:10021300EA900366E004F090033E7403F0E4900375
:1002230039F0227F057E0012002E900339E0FDE4B1
:100233009003BCF0A3F0A3F07B037FB67E0C121CEB
:100243000C90033AE4F0A3748CF090033E7404F032
:1002530022D390033BE0940090033AE09400407172
:10026300900243E064027063900242E06401705BB9
:10027300F0900240E05407FF900339E0FDB5074BCF
:1002830074422DF582E43403F583E4F0122FF990E0
:100293000339E0FB25E025E02455F582E43403F53A
:1002A30083E0FCA3E0FDA3E0FEA3E02401FFE43E22
:1002B300FEE43DFDE43CFCEB25E025E02455F5821E
:1002C300E43403F5831208B712373D90033B02056C
:1002D300A4900339E0FB25E025E0244DF582E434C6
:1002E30003F583E0FCA3E0FDA3E0FEA3E02401FF0C
:1002F300E43EFEE43DFDE43CFCEB25E025E0244D3B
:10030300F582E43403F5831208B7900339E02442FD
:10031300F582E43403F583E004F0C39405406A9066
:100323000339E0FF2442F582E43403F5837405F0D6
:1003330074102FF582E43400F5837401F074002FF8
:10034300F582E43402F58374FFF0803D90033AE0D4
:100353007004A3E064647017122D857F0112350FBA
:100363001232DA12005E90033AE4F0A3740FF090B5
:10037300033AE0FEA3E0FFD39400EE9400400302AF
:1003830005A4EF4E60030205C702373DD390033B3C
:10039300E0940090033AE094004004A30205A41201
:1003A30032DA900347E004F0D3941E50030205C7EA
:1003B300741EF012323D122D85E4900339F0900340
:1003C3003E7405F022D390033BE0940090033AE09F
:1003D300940050030205B0A30205A4900243E06415
:1003E300017031900242E0B4012AE4F0900240E04F
:1003F3005407FF9001CBE0B5071AE490033AF0A34A
:100403007450F09001CC7401F0E4FF12350F9003A7
:100413003E7409F0900243E0B40614900242E0B443
:10042300010DE4F07F0112350F90033E740AF09042
:100433000243E0640560030205C7900242E06401E1
:1004430060030205C7F0900240E05407FF9001CB20
:10045300E06F7001E460030205C790033AF0A374F0
:1004630050F0E49001CCF07F0112350F90033E74FD
:1004730009F0229001CBE0FD2410F582E43400F56D
:1004830083E0FE9001FFE0FBEEFA900016E025E02A
:100493004AFFEB90033CCFF0A3EFF090033CE0FF67
:1004A300A3E09003BCCFF0A3EFF0A3740AF07B03A7
:1004B3007FE67E0F121C0C7F0112350F90033E74F2
:1004C30008F022900243E0640660030205C790022D
:1004D30042E0640160030205C7F090023FA3E054C9
:1004E3000F90033FF09001CC7401F0E4FF12363714
:1004F30090033E740BF02290033FE01460191460E4
:100503002B14603514603D14603A24F86040240DC8
:10051300704B90001C8025900017E0FEA3E0FF7C49
:10052300007D0A12065C90033CEE802B900019E0DC
:10053300FFA3E090033CCF801E90001BE0FF9003DD
:100543003CE4801390033CE4F0A304F08016900194
:10055300CBE0FF90033CE4F0A3EFF08007E49003CB
:100563003CF0A3F090033FE0FD90033CE0FFA3E0E9
:100573009003BCCFF0A3EFF0A37408F07B047FC615
:100583007E2F121C0CE4FF12360F90033E740AF008
:1005930022D390033BE0940090033AE09400400D93
:1005A300A3E024FFF090033AE034FFF02212323D3F
:1005B300122D857F0112350F12005E90033AE4F08D
:1005C300A37464F022BB010CE58229F582E5833A2A
:1005D300F583E0225006E92582F8E622BBFE06E910
:1005E3002582F8E222E58229F582E5833AF583E460
:1005F3009322BB010FF8E58229F582E5833AF5835F
:10060300E028F0225009C58229F8E58226F622BBAC
:10061300FE09C58229F8E22582F222F8EA2583F54C
:1006230083E9932822F8BB010DE58229F582E5834E
:100633003AF583E8F0225006E92582C8F622BBFE8C
:1006430005E92582C8F222EF8DF0A4A8F0CF8CF043
:10065300A428CE8DF0A42EFE22BC000BBE0029EFF1
:100663008DF084FFADF022E4CCF875F008EF2FFF96
:10067300EE33FEEC33FCEE9DEC984005FCEE9DFE64
:100683000FD5F0E9E4CEFD22EDF8F5F0EE8420D2AB
:100693001CFEADF075F008EF2FFFED33FD4007981A
:1006A3005006D5F0F222C398FD0FD5F0EA22C5F02B
:1006B300F8A3E028F0C5F0F8E582158270021583EF
:1006C300E038F022BB010A89828A83E0F5F0A3E0D7
:1006D30022500687F009E71922BBFE07E3F5F0096C
:1006E300E3192289828A83E493F5F074019322BB90
:1006F3000110E58229F582E5833AF583E0F5F0A35D
:10070300E0225009E92582F886F008E622BBFE0ABA
:10071300E92582F8E2F5F008E222E5832AF583E988
:1007230093F5F0A3E99322BB010A89828A83F0E55A
:10073300F0A3F0225006F709A7F01922BBFE06F337
:10074300E5F009F31922F8BB0111E58229F582E5E9
:10075300833AF583E8F0E5F0A3F0225009E9258216
:10076300C8F608A6F022BBFE09E92582C8F2E5F027
:1007730008F222E88FF0A4CC8BF0A42CFCE98EF0D5
:10078300A42CFC8AF0EDA42CFCEA8EF0A4CDA8F0F6
:100793008BF0A42DCC3825F0FDE98FF0A42CCD35BA
:1007A300F0FCEB8EF0A4FEA9F0EB8FF0A4CFC5F024
:1007B3002ECD39FEE43CFCEAA42DCE35F0FDE43C1D
:1007C300FC2275F008758200EF2FFFEE33FECD3368
:1007D300CDCC33CCC58233C5829BED9AEC99E582AF
:1007E30098400CF582EE9BFEED9AFDEC99FC0FD53B
:1007F300F0D6E4CEFBE4CDFAE4CCF9A88222B8002B
:10080300C1B90059BA002DEC8BF084CFCECDFCE5F5
:10081300F0CBF97818EF2FFFEE33FEED33FDEC3319
:10082300FCEB33FB10D703994004EB99FB0FD8E59E
:10083300E4F9FA227818EF2FFFEE33FEED33FDECE7
:1008430033FCC933C910D7059BE99A4007EC9BFCDD
:10085300E99AF90FD8E0E4C9FAE4CCFB2275F01069
:10086300EF2FFFEE33FEED33FDCC33CCC833C8108E
:10087300D7079BEC9AE899400AED9BFDEC9AFCE8BC
:1008830099F80FD5F0DAE4CDFBE4CCFAE4C8F92209
:10089300EB9FF5F0EA9E42F0E99D42F0E89C45F0BB
:1008A30022E8600FEFC333FFEE33FEED33FDEC338D
:1008B300FCD8F122ECF0A3EDF0A3EEF0A3EFF022CD
:1008C300A8828583F0D083D0821208DA1208DA1264
:1008D30008DA1208DAE473E493A3C583C5F0C58389
:1008E300C8C582C8F0A3C583C5F0C583C8C582C87F
:1008F30022A42582F582E5F03583F58322BB010D21
:10090300E58229F582E5833AF5830209CE5007E9AA
:100913002582F80209BCBBFE07E92582F80209E03B
:10092300E58229F582E5833AF5830209F2BB0120CA
:10093300E58229F582E5833AF583D0F0D0E0F8D05B
:10094300E0F9D0E0FAD0E0FBE8C0E0C0F00209D75C
:100953005018E92582F8D083D082D0E0F9D0E0FAAC
:10096300D0E0FBC082C0830209C5BBFE18E9258223
:10097300F8D083D082D0E0F9D0E0FAD0E0FBC08297
:10098300C0830209E9228A838982E473EC8EF0A48E
:10099300CCC5F0CCCDF8EFA4CEC5F02DFDE43CFCE6
:1009A300E8A42EC8C5F03DFDE43CFCEFA4FFE5F050
:1009B30028FEE43DFDE43CFC22E6FB08E6FA08E6FB
:1009C300F922EBF608EAF608E9F622E0FBA3E0FADF
:1009D300A3E0F922EBF0A3EAF0A3E9F022E2FB089B
:1009E300E2FA08E2F922EBF208EAF208E9F222E479
:1009F30093FB740193FA740293F92290001EE0753D
:100A0300F011A42436F582E43400F583E0FBFD7C89
:100A1300002403FEEC339003BAF0A3CEF0EB1313E0
:100A2300543FFFC3ED9FFEEC9400A3F0A3CEF0125E
:100A33001A36900088E0FEA3E02489F58274003E14
:100A4300F583E4F09003B6F0A3F0900088E0FEA3F2
:100A5300E0FFC39003B7E09F9003B6E09E4003021C
:100A63000D2D90001EE075F00CA42454F582E4349F
:100A730000F583C083C082E0F8A3E0F9A3E0FAA302
:100A8300E0FB9003B6E0FEA3E0248AF58274003E07
:100A9300F583E0FFE4FCFDFEEB2FFFEE3AFEED39BC
:100AA300FDEC38FCD082D0831208B79003B6E0FE89
:100AB300A3E0FF248AF58274003EF583E0F9FDC3C9
:100AC3009003BBE09D9003BAE09400503390006B19
:100AD300E0702D04F090006EE9F07C007D23120697
:100AE3004A90007CE02FFF90007BE03E900070F086
:100AF300A3EFF0E4A3F0A3F0A3F090006CF0A3F055
:100B0300900074E01313543FFF9003BDE02FFF9058
:100B130003BCE03400FE9003B6E0FCA3E0FD248AAE
:100B2300F58274003CF583E0C39FE49E4003020C0E
:100B3300A790006BE064016003020CA7F0900074BF
:100B4300E0940C4023D3900073E09478900072E01B
:100B53009400401490001EE075F00CA42452F5821A
:100B6300E43400F583E004F0748A2DF58274003CCC
:100B7300F583E090006FF090001EE075F011A4245F
:100B830035F582E43400F583E0F9706590006FE099
:100B9300FF7E00900072E0FCA3E0FD90007CE02D5E
:100BA300FD90007BE03CCD2FFFEE3DFE90001EE06C
:100BB300FD75F011A42433F582E43400F583EEF0DF
:100BC300A3EFF0ED75F011A42433F582E43400F5BE
:100BD30083E0FFA3E0900017CFF0A3EFF0ED75F0F3
:100BE30011A42435F582E43400F583E004F0020D0A
:100BF3001990006FE0FF90006EE02FFFE433FE904A
:100C03000073E02FFF900072E03E9003B8F0A3EF73
:100C1300F0E9C3940A4003020CA7900070E0FEA31E
:100C2300E0FF9003B8E0FCA3E0FD900074E0FB124A
:100C3300305FEFF4606E90001EE0FE75F011A424A7
:100C430035F582E43400F583E0FDEE75F011A4245C
:100C530037F582E43400F583E5822DF582E43583AC
:100C6300F583EFF090001EE075F011A42435F582B2
:100C7300E43400F583E0B401179003B8E0FFA3E088
:100C8300900019CFF0A3EFF0900074E090001BF0F8
:100C930090001EE075F011A42435F582E43400F5CC
:100CA30083E004F090006BE06401706A900073E0ED
:100CB3002423F0900072E03400F09003B6E0FEA32A
:100CC300E0248AF58274003EF583E0FF900074E02F
:100CD300C39F5002EFF09003BBE025E0FF9003BAFF
:100CE300E033FE900074E0C39FE49E5029C390005C
:100CF30073E09418900072E09401501A90006CE431
:100D030075F0011206B1FEC3E5F09404EE940040C1
:100D130005E490006BF09003B7E004F06003020A6F
:100D23004D9003B6E004F0020A4D90001EE075F00A
:100D330011A42430F582E43400F5837401F022E435
:100D4300F990001DE064016003020DFAF0FAFB90D4
:100D5300001EE0FF75F011A42435F582E43400F59C
:100D630083E0FEEBC39E502DEF75F011A42437F5FD
:100D730082E43400F583E5822BF582E43583F58341
:100D8300E0FFF4600D74262AF582E43400F583EF66
:100D9300F00A0B80BA900024EAF090001EE075F090
:100DA30011A42433F582E43400F583E0FFA3E0903B
:100DB3000022CFF0A3EFF09001FCE06003020FC923
:100DC300900024E06003020FC9900206E0FEA3E056
:100DD3002478FFE43EFE90001EE075F011A4243356
:100DE300F582E43400F583E0FCA3E0C39FEC9E406E
:100DF30003020FC9020FC490001EE075F011A42472
:100E030033F582E43400F583E0FEA3E0FF90002293
:100E1300E0FCA3E0FDD3EF9DEE9C90001EE075F097
:100E2300114015A42433F582E43400F583E0FEA3D6
:100E3300E0C39DFFEE9C8015A42433F582E43400C7
:100E4300F583E0FEA3E0FFC3ED9FFFEC9E9003B6A6
:100E5300F0A3EFF09003B6E0FEA3E0C39478EE9422
:100E6300005024E4900208F090001EE075F011A4F5
:100E73002433F582E43400F583E0FFA3E0900022FD
:100E8300CFF0A3EFF080259001CBE02400F582E4BE
:100E93003402F583E0900026F0900024E0C3940A26
:100EA3005003E004F09002087401F022E4FB900088
:100EB3001EE075F011A42437F582E43400F583E5D0
:100EC300822BF582E43583F583E0FF74C32BF5822F
:100ED300E43403F583EFF00BEBB40AD2E4F9FB90AF
:100EE3000024E0FFEBC39F4003020F7FE4FA90006E
:100EF3001EE075F011A42435F582E43400F583E097
:100F0300FFEAC39F507274C32AF582E43403F58366
:100F1300E0FFF4605F74262BF582E43400F583E090
:100F2300FED39F4003EE801874262BF582E4340031
:100F3300F583E0FF74C32AF582E43403F583E0C349
:100F43009F9003B8F09003B8E0C39408502674C38D
:100F53002AF582E43403F583E0FF74B929F582E4CA
:100F63003403F583EFF074C32AF582E43403F58385
:100F730074FFF0090A020EF10B020EE2E4FBEBC36D
:100F830099501B74B92BF582E43403F583E0FF74A5
:100F9300262BF582E43400F583EFF00B80E0AF01FC
:100FA300900024EFF0701F900206E0FEA3E024C837
:100FB300FFE43EFE900022E0FCA3E0C39FEC9E50C2
:100FC30005E49001CEF0229003D2EEF0A3EFF07B84
:100FD300017A03799964AA4E60030210AC1206C722
:100FE300FF900315E0FE900315EEF0A3EFF0120659
:100FF300C7E5F05401FE900315E054FEFCA3E0FDA9
:10100300EC4EFFED900315CFF0A3EFF0900002122A
:1010130006F2FF900317E0FE900317EEF0A3EFF044
:101023009000021206F2E5F05401FE900317E0541B
:10103300FEFCA3E0FDEC4EFFED900317CFF0A3EF12
:10104300F09000041206F2FF900319E0FE900319DA
:10105300EEF0A3EFF09000041206F2E5F05401FE67
:10106300900319E054FEFCA3E0FDEC4EFFED90036A
:1010730019CFF0A3EFF09000061206F2FF90031BC6
:10108300E0FE90031BEEF0A3EFF09000061206F2D1
:10109300E5F05401FE90031BE054FEFCA3E0FDECDD
:1010A3004EFFED90031B02122B9003D2E07004A3BA
:1010B300E064CC60030212311206C7FF90031DE007
:1010C300FE90031DEEF0A3EFF01206C7E5F0540106
:1010D300FE90031DE054FEFCA3E0FDEC4EFFED90FB
:1010E300031DCFF0A3EFF09000021206F25401FFAC
:1010F30090031FE0FCA3E054FEFDECFEED4FFF90D8
:10110300031FEEF0A3EFF09000021206F2FFE5F0EA
:10111300C313EF13540125E0FFE433FE90031FE0F4
:10112300FCA3E054FDFDEC4EFEED4FFF90031FEEDC
:10113300F0A3EFF09000021206F2AEF07802CEC3F5
:1011430013CE13D8F97E0054017802C333CE33CEC5
:10115300D8F9FF90031FE0FCA3E054FBFDEC4EFE27
:10116300ED4FFF90031FEEF0A3EFF0900002120685
:10117300F2AEF07803CEC313CE13D8F97E00540138
:101183007803C333CE33CED8F9FF90031FE0FCA31B
:10119300E054F7FDEC4EFEED4FFF90031FEEF0A37E
:1011A300EFF09000021206F2E5F05401FE90031FE7
:1011B300E054FEFCA3E0FDEC4EFFED90031FCFF0E7
:1011C300A3EFF09000041206F2FF900321E0FE90DB
:1011D3000321EEF0A3EFF09000041206F2E5F054C1
:1011E30001FE900321E054FEFCA3E0FDEC4EFFED75
:1011F300900321CFF0A3EFF09000061206F2FF90C8
:101203000323E0FE900323EEF0A3EFF09000061219
:1012130006F2E5F05401FE900323E054FEFCA3E044
:10122300FDEC4EFFED900323CFF0A3EFF02212323B
:10123300DA229003CF7401F0A37403F0A37499F03E
:10124300EF64AA4E6006EF64CC4E704C9003CFE07F
:10125300FBA3E0FAA3E0F9C003C002C0019003CFEF
:10126300A3A3E09000101209309003CFE0FBA3E0AA
:10127300FAA3E0F9900015E4F5F012074990001382
:101283007403120628900014E4120628900010122A
:101293000900EE8FF012072A9003CFE0FBA3E0FAD8
:1012A300A3E0F91206C7FDACF064AA4C6009ED6433
:1012B300CC4C600302143E9003CFE0FBA3E0FAA3FF
:1012C300E0F99003CFA3A39000141205C875F002B0
:1012D300A4F58285F083EE8FF01207499003CFE0E7
:1012E300FBA3E0FAA3E0F990001474011205F59052
:1012F30000131205C8FF9000141205C86F600302A3
:1013030014259003CFE0FBA3E0FAA3E0F9C003C0E8
:1013130002C0019003CFA3A3E09000101209309004
:1013230003CFE0FBA3E0FAA3E0F99000041206F276
:10133300FFAEF01206C7440F6F7003E5F06E7078CE
:101343009003CEF09003CFE0FBA3E0FAA3E0F99083
:1013530000131205C8FF9003CEE0FEC39F506C75C7
:10136300F002EEA4F58285F0831206F2FF123367D2
:10137300EFFD9003CFE0FBA3E0FAA3E0F99003CEE7
:10138300E075F002A4F58285F0831206F2E5F054CD
:1013930001B5050A90001774011206288012900304
:1013A300CFE0FBA3E0FAA3E0F990001774028018E2
:1013B3009003CEE004F0808C9003CFE0FBA3E0FA2F
:1013C300A3E0F990001774041206289003CFE0FB02
:1013D300A3E0FAA3E0F99000171205C86401703A7C
:1013E300900017041206281206C7FFAEF0120FCAA8
:1013F3009003CFE0FBA3E0FAA3E0F91206C7FFAE28
:10140300F064AA4E70069003B27402F0EF64CC4EFF
:10141300700D9003B27403F08008E49003B2F012ED
:1014230032DA9003CFE0FBA3E0FAA3E0F9900017D0
:101433001205C8D3940140031232DA9003CFE0FBC4
:10144300A3E0FAA3E0F99000141205C8D394035063
:101453000B9000131205C8D3940340031232DA220F
:101463009001CAE0B408004003021675901476F8A0
:1014730028287302148E0214B10214C30214DC026E
:1014830014F402152D02154702160212009E900154
:10149300CCE06401600302167BF012328FE490010A
:1014A300D0F09001CE7402F09001CA14F0229001A2
:1014B300D0E0D394004002807A9001CA7402F022F3
:1014C3009001CF7402F01235BC122F1912344F124F
:1014D30038309001CA7403F0229001CFE0D3940016
:1014E3004002804F12383912167C9001CA7404F0FE
:1014F300221235BC122E0F122CF712344F12383031
:101503009001CF740AF09001D1E0FEA3E0FF9000B8
:101513001EE075F011A42431F582E43400F583EE66
:10152300F0A3EFF09001CA02165F9001CFE0D394CD
:10153300004004E014F0221238391209FE9001CA67
:101543007406F02212244990001EE0FF75F00CA4EB
:10155300245DF582E43400F583E064036079EF757C
:10156300F00CA42452F582E43400F583E0C394160E
:10157300506590001EE075F00CA42453F582E4340A
:1015830000F583E0C39403504EEF75F00CA424548C
:10159300F582E43400F583E0FCA3E0FDA3E0FEA3C1
:1015A300E0FFE47BB47A53F9F8D312089340289010
:1015B300001EE075F00CA42458F582E43400F58392
:1015C300E0FCA3E0FDA3E0FEA3E0FFE47BB27A0628
:1015D300F8D3120893501EE49001CEF012312990F3
:1015E300001EE075F00CA4245CF582E43400F5835E
:1015F3007401F08003120D429001CA7407F02212A5
:101603002B2F9003D8E0B401069001CEE004F090B4
:1016130001CEE0D39400402BE014F09001D1E0FE22
:10162300A3E0FF7C007D0612065C74752DF58274C1
:10163300003CF583E09001D0F090001EE0045401DB
:10164300F0802F122078E49001CAF0A3E0B40110D7
:1016530090033AE4F0A37464F090033E7405F0221F
:1016630090033EE0B40B04740BF02290033E740924
:10167300F0229001CA7401F022900088E0FEA3E0FA
:10168300248BF974003EFA9003C07401F0A3EAF0CE
:10169300A3E9F0A37432F07B017A00798A12332430
:1016A300900088A3E02403F9FFE92430FDE433FC30
:1016B300EFC39DEC6480F87480985054AE07E9241E
:1016C30030FDE433FCEEC39DEC6480F874809850E5
:1016D3003C748A2EF582E43400F583E0FD748A2F8E
:1016E300F582E43400F583E0FCD39D401D9003B6FE
:1016F300ECF0748A2FF582E43400F583EDF0748AFC
:101703002EF582E43400F583ECF00E80B10F80995E
:10171300E49003B7F0A3F0A3F0A3F0A3F0A3F0AF1A
:1017230001E92410FDE433FCEFC39DEC6480F874FD
:101733008098504E748A2FF582E43400F583E0FDDF
:101743009003B8E02DF09003B7E03400F0749A2FC3
:10175300F582E43400F583E0FD9003BAE02DF090C8
:1017630003B9E03400F074AA2FF582E43400F58362
:10177300E0FD9003BCE02DF09003BBE03400F00FDC
:10178300809F9003B7E0C4F854F0C868F0A3E0C4A6
:10179300540F48F0A3E0C4F854F0C868F0A3E0C4C1
:1017A300540F48F0A3E0C4F854F0C868FEA3E0C4A3
:1017B300540F48FF9003BBEEF0A3EFF09003B9E0A2
:1017C300FCA3E0FDC3EF9DFFEE9CFEEF7802CEC3CA
:1017D30013CE13D8F92D90006AF0D394064017E086
:1017E30024FA9003B6F0E01313543FF0F5F0A4FF8E
:1017F30090006AE02FF090006AE0FFD39450401904
:101803007450F090001EE075F00CA4245DF582E4A2
:101813003400F5837403F08028EFD3941E90001EE8
:10182300E075F00C400FA4245DF582E43400F583E9
:101833007401F0800CA4245DF582E43400F583E4A4
:10184300F090006AE0FF90001EE075F011A42436CA
:10185300F582E43400F583EFF00221D57BFFE4FA4F
:1018630074002AF582E43402F583E0FFC3941E502A
:1018730014EF9400400F74482AF582E43403F5838F
:101883007401F0805774002AF582E43402F583E092
:10189300FFC39496501DEF24ECFFE434FFFE7C005D
:1018A3007D0A12065C74482AF582E43403F583EF5B
:1018B300F0802974002AF582E43402F583E0B496BB
:1018C3000F74482AF582E43403F583740CF0800C1A
:1018D30074482AF582E43403F583E4F074482AF566
:1018E30082E43403F583E0700E744A2AF582E4340B
:1018F30003F583E4F0800D744A2AF582E43403F59A
:10190300837401F00AEA64026003021863900346D9
:10191300E0FF640560030219A3900348E0D3940534
:101923004002E4F0900349E0D394094002E4F0E478
:10193300FA74E22AF582E43401F583E0FE74002AA6
:10194300F582E43402F583E0D39E400D74002AF55A
:1019530082E43402F58374FFF074002AF582E434E0
:1019630002F583E0FEEBD39E4002AB060AEAB40223
:10197300C0EBD394964003021A30EBC39464400344
:10198300021A16EBC39428400790034C7404F02208
:10199300EBC394005003021A3590034C7407F022F2
:1019A300EF64026003021A35900348E0D3940C40BD
:1019B30002E4F0900349E0D3940C4002E4F0E4FA2B
:1019C30074D62AF582E43401F583E0FF74002AF526
:1019D30082E43402F583E0D39F400D74002AF5823C
:1019E300E43402F58374FFF074002AF582E43402D0
:1019F300F583E0FFEBD39F4002AB070AEAB402C0D2
:101A0300EBD39496400790034C7403F022EBC394FA
:101A130064400790034C7402F022EBC39428400700
:101A230090034C7401F022EBC394004005E490034F
:101A33004CF022E4FBFA9003BEF0A3F0A3F0A3F072
:101A4300FFD3900089E09B900088E09A402E748A2F
:101A53002BF58274003AF583E0601AFF9003BEEA27
:101A6300F0FCA3EBF0D39408EC9400400F90000F2C
:101A7300E004F080070BBB00010A80C5E4FAFBD346
:101A83009003BFE09B9003BEE09A4013748A2BF54A
:101A93008274003AF583EFF00BBB00010A80E07A11
:101AA300007B01900089E024FFFF900088E034FF71
:101AB300FEC3EB9FEA9E502C748A2BF58274003A86
:101AC300F583E0701874892BF58274003AF583E08E
:101AD300FF748A2BF58274003AF583EFF00BBB0099
:101AE300010A80BF7A007B05900089E024FEFF9005
:101AF3000088E034FFFEC3EB9FEA9E4003021C0B09
:101B0300748A2BF58274003AF583E0F92420FFE40C
:101B130033FE748B2BF58274003AF583E0D39FEE8A
:101B23006480F87480985003021C03E92430FFE4B6
:101B330033FE748C2BF58274003AF583E0D39FEE69
:101B43006480F87480985003021C03EB2401FEE4C4
:101B53003A9003BEF0A3CEF0EB2408FFE43AFE90E4
:101B630003BEE0FCA3E0FDC39FEC9E4003021C0305
:101B7300748A2BF58274003AF583E02408FFE4337A
:101B8300FE748A2DF58274003CF583E0C39FEE64F6
:101B930080F8748098505890001EE075F00CA424CF
:101BA30052F582E43400F583E004F09003C0EAF0D8
:101BB300A3EBF09003BEE0FEA3E0FFA3E0FCA3E0F1
:101BC300FDC39FEC9E503974892BF58274003AF55E
:101BD30083E0FF748A2DF58274003CF583EFF09067
:101BE30003C1E004F070069003C0E004F080C490E9
:101BF30003BFE004F070069003BEE004F0021B5B39
:101C03000BBB00010A021AEB229003B8EEF0A3EF1C
:101C1300F0E4F99003BCE0FEA3E0A803088005C349
:101C230033CE33CED8F9FFEF4DFF9003BFEEF0A3D1
:101C3300EFF09003B8E0FEA3E0FFBE0C0BBFB608C5
:101C43009002457401F08005E4900245F0C3740CE2
:101C53009F900249F0E49E900248F0E4FD9003BE99
:101C6300E0FFEB2FFFE433FEEDC39FEE6480F874D7
:101C73008098507874017E00A805088005C333CE90
:101C830033CED8F9FF9003BFE05EFEA3E05F4E6062
:101C93002DED25E025E0244AF582E43402F5837432
:101CA300FBF0A37434F0ED25E025E0244CF582E449
:101CB3003402F58374FEF0A3742DF009802AED2518
:101CC300E025E0244AF582E43402F58374FEF0A3B0
:101CD3007413F0ED25E025E0244CF582E43402F59D
:101CE3008374FBF0A3744EF00D021C60E95401F9F8
:101CF3009003BE602EE02BFF25E025E0244AF58209
:101D0300E43402F58374FBF0A37434F0EF25E0258B
:101D1300E0244CF582E43402F58374FEF0A3742DC1
:101D2300F0802CE02BFF25E025E0244AF582E43403
:101D330002F58374FEF0A37413F0EF25E025E0248D
:101D43004CF582E43402F58374FBF0A3744EF090F7
:101D530003BEE02BFF25E025E0244EF582E43402A8
:101D6300F58374FEF0A37413F0EF25E025E024500F
:101D7300F582E43402F58374FEF0A3742DF0E4904D
:101D83000247F0EF25E02406900246F002380FC028
:101D9300E0C0F0C083C082C0D075D000C000C001D5
:101DA300C002C003C004C005C006C00720D8030298
:101DB3001E49A290E4339003DBF090023CE0FFA3C2
:101DC300E090023ACFF0A3EFF0A3E5FCF0A3E5FB2C
:101DD300F090023AE0FEA3E0FFA3E0FCA3E0FDD312
:101DE3009FEC9E4007ED9FFFEC9E801490023AE02B
:101DF300FEA3E0FFC374FF9FCF74FF9ECF2DCF3CA4
:101E03009003D4F0A3EFF09003D4E0FCA3E0FD90A3
:101E130002CCE0FF04F0EF25E024ACF582E43402C9
:101E2300F583ECF0A3EDF09002CCE0B41002E4F003
:101E33009003DBE0FF900237A3E0FAA3E0F5828A88
:101E43008312098DC2D830D96B90023CE0FFA3E026
:101E530090023ACFF0A3EFF0A3E5EAF0A3E5E9F0AF
:101E630090023AE0FEA3E0FFA3E0FCA3E0FDD39FD2
:101E7300EC9E4007ED9FFFEC9E801490023AE0FE3B
:101E8300A3E0FFC374FF9FCF74FF9ECF2DCF3C9081
:101E930003D4F0A3EFF09003DBE0FF9003D4E0FC66
:101EA300A3E0FD900237A3E0FAA3E0F5828A831250
:101EB300098DC2D930DA02C2DA30DF35900244E04C
:101EC300B4012CB287900247E025E02448F582E470
:101ED3003402F583E0FEA3E08EFAF5F9900247E0C1
:101EE30004F0900246E0FFA3E0B50703120003C22B
:101EF300DFD007D006D005D004D003D002D001D064
:101F030000D0D0D082D083D0F0D0E032123482120D
:101F130031F91231E790038EE0FFA3E090037ECF07
:101F2300F0A3EFF0E4900377F0A3F0A3F0A374C859
:101F3300F090037CE0FEA3E0FF7C027D5812098F42
:101F4300E47B64FAF9F8120801E47B2FFAF9F8123A
:101F53000776E47BF8FAF9F8120801E47B75FAF9DD
:101F6300F8120776E47B64FAF9F8120801D3EF94C8
:101F7300E8EE940340047E037FE890036AEEF0A347
:101F8300EFF0A37404F0A3E4F0900379E0FFA3E07F
:101F9300900389CFF0A3EFF090037CE0FEA3E0FF72
:101FA3007C027D5812098FE47B64FAF9F812080168
:101FB300E47B2FFAF9F8120776E47BF8FAF9F812C2
:101FC3000801E47B53FAF9F8120776E47B64FAF923
:101FD300F812080190038CEEF0A3EFF0900377E082
:101FE300FEA3E0FF90037EE0FCA3E0FDC39FEC9E15
:101FF3004013900379E0FEA3E0FFED9FEC9E5005B4
:10200300E49001CBF090036AE0FEA3E0FFD3ED9FE1
:10201300EC9E405EA3E0FEA3E0FF90037FE09F9071
:10202300037EE09E504C9003D9E4F0A3740AF07F42
:10203300017E0012002EC2879003D9E4F0A3740A34
:10204300F07F017E0012002E90036AE0FEA3E0FF02
:1020530090037EE0FCA3E0FDD39FEC9E401490032D
:102063006CE0FEA3E0FFED9FEC9E50069001CB7465
:1020730001F0D287227EFFE4FD900024E0FCEDC353
:102083009C501674262DF582E43400F583E0FCEEB3
:10209300D39C4002AE040D80E090001CEEF07EFF66
:1020A300E4FD900024E0FCEDC39C502E9001CBE0B6
:1020B3002431F582E43402F583E0FC74262DF582A5
:1020C300E43400F583E0D39C400D74262DF582E4BF
:1020D3003400F58374FFF00D80C8E4FD900024E024
:1020E300FCEDC39C501674262DF582E43400F58371
:1020F300E0FCEED39C4002AE040D80E0EEC39419E5
:102103005028EE941440051E1E1E801EEE640660C9
:1021130019EE64056014EE6402600F9001CBE024B5
:1021230000F582E43402F583E0FEEED39496401C7E
:102133009001FDE07002A3E0705A9001CBE024000F
:10214300F582E43402F58374FFF08048EEC39428EB
:102153005025EEC394199001CBE0500E2400F58274
:10216300E43402F5837402F080202400F582E43421
:1021730002F583EEF08013EEC394649001CBE02468
:1021830000F582E43402F583EEF09001FD7403F070
:10219300A374E8F07EFFE4FD74002DF582E43402BD
:1021A300F583E0FCEED39C4002AE040DEDB406E8EB
:1021B3009001FFE0FDEED39D400AEE9DD3940740CE
:1021C30010EEF0229001FFE0C39ED394054002EE8F
:1021D300F022E49003BDF0A3F0900088E0FEA3E0BA
:1021E3002489F58274003EF583E4F09003BDF0A3E7
:1021F300F0900088E0FEA3E0FFC39003BEE09F9051
:1022030003BDE09E400302231990001EE075F00C0D
:10221300A42458F582E43400F583C083C082E0F837
:10222300A3E0F9A3E0FAA3E0FB9003BDE0FEA3E083
:10223300248AF58274003EF583E0FFE4FCFDFEEBA7
:102243002FFFEE3AFEED39FDEC38FCD082D083123D
:1022530008B790006AE02403FFE433FE9003BDE077
:10226300FCA3E0248AF58274003CF583E0FDD39F50
:10227300EE6480F8748098401590006BE07052040F
:10228300F0E4900074F0900072F0A3F080439000AB
:1022930074E01313543FFFEDC39F503590006BE080
:1022A300B4012EE4F0900074E0D3940C4023D39057
:1022B3000073E09478900072E09400401490001E44
:1022C300E075F00CA42453F582E43400F583E004B4
:1022D300F090006BE0B4012A900073E02423F090A7
:1022E3000072E03400F09003BDE0FEA3E0248AF521
:1022F3008274003EF583E0FF900074E0C39F5002B8
:10230300EFF09003BEE004F060030221F49003BDFC
:10231300E004F00221F422E49003B9F0A31208C30D
:10232300000000009002F8E0FF700C9003BA12085E
:10233300C30000FFFF8027EFB4010C9003BA12081B
:10234300C30001FFFF8017EF9003BAB4020912081C
:10235300C30002FFFF80071208C30003FFFF9002C0
:102363004874E8F0A3742EF0E49003B8F09003B837
:10237300E0F9C39412400302240FE47F01FEFDFC45
:10238300A8011208A49003BAE0F8A3E0F9A3E0FAC5
:10239300A3E05FFFEA5EFEE95DFDE85CFC4D4E4FA6
:1023A3009003B86033E0FF25E025E0244AF582E49A
:1023B3003402F58374FBF0A37434F0EF25E025E0D9
:1023C300244CF582E43402F58374FEF0A3742DF0FB
:1023D3009003B9E004F0802BE0FF25E025E0244AD8
:1023E300F582E43402F58374FEF0A37413F0EF2551
:1023F300E025E0244CF582E43402F58374FBF0A37A
:10240300744EF09003B8E004F00223709003B9E037
:102413005401F0900292601174FBF0A37434F0A3A2
:1024230074FEF0A3742DF0800F74FEF0A37413F008
:10243300A374FBF0A3744EF0E4900247F0900246BD
:102443007428F002380F9001FCE0FFD3940050038E
:1024530002250C90001EE075F011A42433F582E4EC
:102463003400F583E0FCA3E0FDD394F4EC94014045
:102473003AED942EEC94095032EFC3139001FCF023
:1024830090001EE075F011A42433F582E43400F5C6
:1024930083E0FFA3E0900206CFF0A3EFF090000FDC
:1024A300E0D39400404BE014F0804690001EE075AA
:1024B300F011A42433F582E43400F583E0FEA3E0B5
:1024C300FFC3942EEE9409401CEF9450EE944650B3
:1024D300149001FCE0FFC313F09002067409F0A30B
:1024E300742EF0800C90000FE0C394085003E004B6
:1024F300F0C3900207E09414900206E09405504A5A
:102503007409F0A3742EF0804190001EE075F01161
:10251300A42433F582E43400F583E0FEA3E0FFD383
:102523009450EE94465009C3EF94F4EE9401500E88
:1025330090000FE0C394085011E004F0800C900069
:102543000FE0D394004003E014F00236AD9003B6DD
:10255300EFF0A3ECF0A3EDF0D3941DEC9401400B4A
:10256300E094949003B7E09405400E90023774FF13
:10257300F0A37426F0A37455F09003B6E070030241
:102583002620A3E0FEA3E0FFD3941DEE9401405464
:10259300EF94B5EE9402504C900241E0602F90020C
:1025A3003EE0FF74017E00A807088005C333CE33E5
:1025B300CED8F9FF900240E02FF090023FE03EF0CA
:1025C30090023EE004F0E4900241F0801790023E56
:1025D300E0D39400407B12318CBF01069002427419
:1025E30001F0801E9003B7E0FEA3E0FFD394FCEE5E
:1025F3009403405DEF9494EE94055055900241E0AE
:10260300600F90023774FFF0A37426F0A37455F0A3
:102613002290023EE004F0E4900241F0229003B7DE
:10262300E0FEA3E0FFD3941DEE9401400DEF94B5BB
:10263300EE94025005E4900241F0D3EF94FCEE9443
:1026430003400EEF9494EE940550069002417401FA
:10265300F022EF7003022745E490023EF0A3F0A3BB
:10266300F0900242F0A3F0D3ED94CBEC940B40191D
:10267300ED94B4EC940D50117401F090023774FF93
:10268300F0A37425F0A37450F0D3ED94D2EC940E20
:10269300401CED940DEC941150149002437402F01D
:1026A30090023774FFF0A37425F0A37450F0D3EDB8
:1026B300941CEC9417401CED94B4EC9418501490B3
:1026C30002437403F090023774FFF0A37425F0A360
:1026D3007450F0D3ED9414EC941F401CED94ACECC7
:1026E300942050149002437404F090023774FFF066
:1026F300A37425F0A37450F0D3ED9488EC94254093
:102703001CED9427EC942A50149002437405F09026
:10271300023774FFF0A37425F0A37450F0D3ED9443
:102723001AEC942D401CED9485EC943250149002D5
:10273300437406F090023774FFF0A37425F0A3747A
:1027430050F0224C032D000000030002000000059E
:102753000004410366004103F400460075010204CE
:102763000703004602315050965050504601E25044
:1027730050965050504601DC5050965050504601F0
:10278300D696969650505060280209012C012C01D0
:102793002C00FA00C800C800C800C800C800C80060
:1027A300C800C800B400B400B400960096009600B8
:1027B3007800785401E8464646462422201C181423
:1027C300141410100E0E0E0E0A0A4403E500000046
:1027D300004103E3004103E400430237FF26554170
:1027E30003B101410398004103B20048030500000F
:1027F30000000000000048030D000000040000007A
:10280300004802E500AA000A00AF00634803250060
:10281300BB00FF00BF00005002D500CC00FF00FF4B
:1028230000FF00FF00FF00CF00FF00E4FDFF90006A
:1028330011E07007900010E070010FEF790F600254
:10284300791F90024874E0F0A37436F0E4FC74013D
:102853007E00A804088005C333CE33CED8F9FFE940
:10286300FBEF5B602DEC25E025E0244AF582E434A0
:1028730002F58374FBF0A37434F0EC25E025E02427
:102883004CF582E43402F58374FEF0A3742DF00D4D
:10289300802AEC25E025E0244AF582E43402F5831E
:1028A30074FEF0A37413F0EC25E025E0244CF582CC
:1028B300E43402F58374FBF0A3744EF00CEC64056E
:1028C300708CED5401FD90025E601174FBF0A374F3
:1028D30034F0A374FEF0A3742DF0800F74FEF0A304
:1028E3007413F0A374FBF0A3744EF0E4900247F06A
:1028F300900246740EF002380F1233A712323DE4F1
:10290300FB74102BF582E43400F5837401F07442F8
:102913002BF582E43403F583E4F074442BF582E46D
:102923003403F583E4F00BEBB402D6E4900347F0F1
:102933009001CBF09001CAF09001CCF090001EF012
:1029430090000FF090007DF09001FDF0A3F0900255
:102953003EF0A3F0A3F0A3F0A3F0A3F0A3F0900242
:102963003774FFF0A37426F0A37455F09003D87462
:1029730001F09003E0E4F0A37464F0E4FBEB25E0E2
:1029830025E0244DF582E43403F5831208C30000E7
:102993000000EB25E025E02455F582E43403F583BC
:1029A3001208C3000000000BEBB402D190035D12C8
:1029B30008C3000000009003611208C30000000078
:1029C30022C0E0C083C082C0D075D000C004C0075D
:1029D30090007DE0FFC394075016747E2FF582E4C8
:1029E3003400F583E5BDF090007DE004F0022A7227
:1029F3009003B4E4F0A374FFF0747E2FF582E43403
:102A030000F583E5BDF090007DE4F09003B3F09012
:102A130003B3E0FFC394085038747E2FF582E43487
:102A230000F583E0FF9003B4E0C39F5002EFF09002
:102A330003B5E0D39F40129003B3E0247EF582E414
:102A43003400F583E09003B5F09003B3E004F08025
:102A5300BE9003B5E0FF9003B4E0C39FFF900088EE
:102A6300E0FCA3E0248AF58274003CF583EFF0C216
:102A7300EDD2ECD007D004D0D0D082D083D0E032D6
:102A8300E4FDFCF9EF14602D14604714606124FE2B
:102A9300607A046003022B2AE4FEEE25E024EDF5C0
:102AA30082E43402F583E0A3E02DFDE43CFC0EEE6A
:102AB300B407E78072E4FEEE25E024FDF582E434FA
:102AC30002F583E0A3E02DFDE43CFC0EEEB403E746
:102AD3008055E4FEEE25E02415F582E43403F58306
:102AE300E0A3E02DFDE43CFC0EEEB403E78038E404
:102AF300FEEE25E024CDF582E43402F583E0A3E085
:102B03002DFDE43CFC0EEEB403E7801BE4FEEE2552
:102B1300E0241DF582E43403F583E0A3E02DFDE416
:102B23003CFC0EEEB403E7A905AF012290001EE0C2
:102B330075F00CA4245CF582E43400F583E06401B1
:102B43007003022BCF900022E0FEA3E0FFF470029B
:102B5300EEF46078900208E07072900206E0FCA345
:102B6300E0FDD3EF9DEE9C4063900022E0FEA3E0E6
:102B7300FF9DFDEE9CFCD3ED94C8EC9400404DD337
:102B8300EF948CEE940A40109000267406F09000A7
:102B930024E0940A50368031D3ED945EEC940140E6
:102BA300109000267406F0900024E0940A501D80D3
:102BB300189001CBE02400F582E43402F583E09021
:102BC3000026F0900024E07003E004F02212377A2C
:102BD3001236F97F011237EB12356712353C123783
:102BE300981228FC12375C1235E61234181200567C
:102BF3007F647E0012002E121F0F9003E0E070022C
:102C0300A3E0601E9003E2E060F0E4F0121463902E
:102C130003E1E024FFF09003E0E034FFF07597A5B3
:102C230080D8E49003D8F09001CBE0B401197F0180
:102C330012350F90033AE4F0A3748CF0E490033E52
:102C4300F0900339F0800B90033E7408F07F01127B
:102C5300350F12323D9003E2E06005E4F012146395
:102C63007597A580F0120021787FE4F6D8FD758171
:102C730007022CB2022BD0E493A3F8E493A34003FE
:102C8300F68001F208DFF48029E493A3F8540724C3
:102C93000CC8C333C4540F4420C8834004F4568083
:102CA3000146F6DFE4800B01020408102040809007
:102CB3002746E47E019360BCA3FF543F30E50954EB
:102CC3001FFEE493A360010ECF54C025E060A8402B
:102CD300B8E493A3FAE493A3F8E493A3C8C582C822
:102CE300CAC583CAF0A3C8C582C8CAC583CADFE9F7
:102CF300DEE780BE12006E9003B67414F0C295D264
:102D0300967F067E001233E0000000000000000002
:102D130000000000000000000000000000000000B0
:102D230000000000000000000000000000000000A0
:102D330000000000D295C2967F067E001233E000A9
:102D43000000000000000000000000000000000080
:102D53000000000000000000000000000000000070
:102D630000000000009003B6E014F0E0D39400509C
:102D73008CC295C29690007B7401F0A37454F00248
:102D8300005612185F9002F1E0F0A3E044F0F090D7
:102D930002F1E0F0A3E0440FF09002EFE0F0A3E0D3
:102DA30044F0F09002EFE0F0A3E0440FF09002F360
:102DB300E0F0A3E0540FF09002F3E0F0A3E054F04E
:102DC300F0A3E0F0A3E04408F09002F5E0F0A3E004
:102DD3004404F09002F5E0F0A3E04402F09002F521
:102DE300E0F0A3E04401F0E054DFF0E054EFF090B2
:102DF30002F5E0F0A3E0543FF090034CE0FF9002B3
:102E0300F7E0FE9002F7EEF0A3EFF02290001EE051
:102E1300FF75F011A42430F582E43400F583E4F067
:102E2300EF75F011A42431F582E43400F583E4F066
:102E3300A3F0EF75F011A42433F582E43400F58395
:102E430074FFF0A3F0EF75F011A42435F582E43498
:102E530000F583E4F090001C74FFF0E490001BF095
:102E6300900019F0A3F0900017F0A3F0FF90001E5C
:102E7300E075F011A42437F582E43400F583E5828C
:102E83002FF582E43583F58374FFF00FEFB40ADD89
:102E930022C0E0C0F0C083C082C0D075D000C000A3
:102EA300C001C002C003C004C005C006C007900330
:102EB300E27401F09003DEE475F0011206B1FEC383
:102EC300E5F09432EE9400400C9003DEE4F0A3F0BE
:102ED3009003D704F09003DCE475F0011206B1FE11
:102EE300C3E5F09414EE9400400C9003DCE4F0A3EB
:102EF300F09003D604F0123592C2CFD007D006D09B
:102F030005D004D003D002D001D000D0D0D082D0DD
:102F130083D0F0D0E03290001EE0FF75F00CA424C3
:102F23005DF582E43400F583E4F0EF75F00CA4243E
:102F330052F582E43400F583E4F0EF75F00CA42439
:102F430053F582E43400F583E4F0EF75F00CA42428
:102F530058F582E43400F5831208C30000000090A2
:102F6300001EE0FB75F00CA42454F582E43400F554
:102F7300831208C300000000EB75F00CA4245CF579
:102F830082E43400F583E4F0227F03122A837E0077
:102F93009002D3EEF0A3EFF0E49003B8F09003B8FF
:102FA300E0FFC39404504CEF25E024CDF582E434D4
:102FB30002F583E0A3E0FF1233679003B9EFF090CB
:102FC30003B8E025E024CDF582E43402F583C08321
:102FD300C082E0FCA3E0FD9003B9E05401FEEC4E97
:102FE300FFEDD082D083CFF0A3EFF09003B8E004DD
:102FF300F080AA02282E900339E0FD640160559009
:10300300023FE0FAA3E0FBEA131313541F20E02767
:1030130074102DF582E43400F583E4F0EBAE02780E
:1030230003CEC313CE13D8F9FF74002DF582E43415
:1030330002F583EFF0801D900339E0FF2410F58241
:10304300E43400F583E4F074002FF582E43402F5F0
:103053008374FFF0E490023FF0A3F0229003BEEEEE
:10306300F0A3EFF0A9037BFF9003BEE0C313FF259A
:10307300E02409F582E43402F583E0F8A3E0F58265
:103083008883D39DE5839C503574E82FF582E4341F
:1030930001F583E0FFE9C39F40249003BEE0FEA354
:1030A300E07807CEC313CE13D8F9F0EE9003BEF049
:1030B300E0FEA3E0FF7C027D2D12064AEEFBAF0388
:1030C30022C0E0C0F0C083C082C0D075D000C00071
:1030D300C001C002C003C004C005C006C0079003FE
:1030E300CDE598F0E030E015C298AC99540475F042
:1030F30040A4FFAEF0AD04EF4DFF1212359003CDA7
:10310300E030E107C2999003B1E4F0D007D006D0D4
:1031130005D004D003D002D001D000D0D0D082D0CB
:1031230083D0F0D0E032E490001DF0900208F090DC
:10313300001EE075F011A42435F582E43400F58314
:103143007401F09001FD7403F0A374E8F09002069B
:10315300E0FFA3E0900022CFF0A3EFF090001674FD
:1031630001F09001CBE02400F582E43402F583E022
:10317300900026F07F0174262FF582E43400F58356
:1031830074FFF00FEFB40AEE22E4F9FDFC90023E67
:10319300E014FFECC39F502174017E00A804088053
:1031A30005C333CE33CED8F9FF90023FE05EFEA3D2
:1031B300E05F4E60010D0C80D4ED5401FD90023EA2
:1031C300E014FFA3E0FEA3E0A807088005CEC31325
:1031D300CE13D8F9FFED7A00B50706EAB5060279F2
:1031E30001AF012290038EE0FFA3E090037CCFF0B8
:1031F300A3EFF01234B1E4F5BEF5BD90037BF0C24A
:10320300EDD2EC7F057E001233E090037BE004F007
:10321300E0C3940840E990038EE5BEF0A3E5BDF05A
:1032230012381C90038EE0FEA3E07803CEC313CEC6
:1032330013D8F9F0EE90038EF0229001CE7402F0D1
:1032430090001D14F09001FC740FF0E4FF74002F44
:10325300F582E43402F58374FFF074482FF582E4B9
:103263003403F58374FFF0744A2FF582E43403F5D5
:1032730083E4F090034C7403F00FEFB406CF900196
:10328300FF74FFF0E49001CAF0023839E490001FA4
:10329300F0A3F0A3F074FFA3F0A3F0E4A3F0900075
:1032A30016F090001EF090001D04F0E4FFEF75F09F
:1032B30011A42430F582E43400F583E4F00FEFB475
:1032C30002EBE4FF74262FF582E43400F58374FFE8
:1032D300F00FEFB40AEE22E4FFEF25E02499F58224
:1032E300E43403F583E4F0A3F0EF25E024A1F582B1
:1032F300E43403F583E4F0A3F00FEFB404DB9003AD
:10330300A97401F0A37403F0A37499F0E49003ADDE
:10331300F0A3F0A3F09003AC7403F0E49003B0F0D7
:10332300229003BDEBF0A3EAF0A3E9F0E4FF9003DE
:10333300C3E0FEEFC39E502B9003BDE0FBA3E0FA76
:10334300A3E0F98F827583001205C8FE9003C0E0E5
:10335300FBA3E0FAA3E0F98F82758300EE1206283F
:103363000F80CB229003D2EFF0E4F9FDFC74017ED1
:1033730000A804088005C333CE33CED8F9FF9003E9
:10338300D2E0FBE4FEEF5BA804088006CEA2E713BD
:10339300CE13D8F864014E7001090CECB408CEE9E1
:1033A3005401FF22E490023EF0A3F0A3F0A3F0A3A4
:1033B300F0A3F0FFEF25E024ACF582E43402F583BB
:1033C300E4F0A3F00FEFB410EBE49002CCF0900222
:1033D3003774FFF0A37426F0A37455F0229003F41E
:1033E300E5A7F075A710EF7802C333CE33CED8F933
:1033F300FFC374FF9FFF74FF9EFEEFF5A4EEF5A5D8
:10340300D29A209F057597A580F8C29AC29F900310
:10341300F4E0F5A7229003F4E5A7F0E4F5A7C2DFF3
:10342300C2D8C2D9C2DA75D901F5F7F59CF596F57C
:103433009EF5F9F5FA75DAB075DBB0F5DC75E610D3
:1034430043F31043F510D2DEE0F5A722C2EEC2E843
:10345300C2E975B20175BC1D75B31075DF40E4F5A3
:10346300B975C4FF75C3FFF5C6F5C575BB0675D140
:103473000843E60853F3F743F508D2EF023802C2D4
:10348300EEC2E8C2E975B20175BC1975B34275DFC6
:1034930040E4F5B975C4FF75C3FFF5C6F5C575BB43
:1034A3000375D108F5BEF5BDD2EF53E6F722C2EEA0
:1034B300C2E8C2E975B20175BC1975B34275DF4044
:1034C300E4F5B975C4FF75C3FFF5C6F5C575BB054E
:1034D30075D108F5BEF5BDD2EF53E6F722C0E0C0C3
:1034E30083C082C0D0C3900089E0943F900088E0FD
:1034F3009401500CA3E004F07006900088E004F0FF
:1035030053917FD0D0D082D083D0E0329003B8EFF4
:10351300F0BF01061200760236D39003B8E0B4027E
:103523000EE4FF123637123686E49003B1F022120E
:1035330000761236D3123826229003F4E5A7F0E47E
:10354300F5A7C2C8C2C9C2CCC2CB75CCFF75CDFF2B
:1035530075CA0C75CBF0D2AD53B8DF43F220D2CA93
:10356300E0F5A7229003F4E5A7F075A710C298C26F
:1035730099C29CC29B75A4FF75A5FFE4F5A2F5A3B0
:1035830053F4EF53F6EF53CEEFC29AE0F5A7229030
:1035930001D2E004F070069001D1E004F0D3900171
:1035A300FEE094009001FDE09400400CA3E024FFB2
:1035B300F09001FDE034FFF022E4FFFE748A2FF562
:1035C3008274003EF583E4F00FBF00010EBE01ECF0
:1035D300BF40E9E4900088F0A3F090007BF0A3F0F3
:1035E30002383F9003F4E5A7F0538EF75389BF43A6
:1035F30089205389EF758B96758D9675A710C2AB8D
:1036030043B80843F208E0F5A7C28E229003F4E51D
:10361300A7F0E4F5A7C2DEEF700343DA31EFB4019C
:103623000343DB31EFB4020343DC31D2DE9003F416
:10363300E0F5A7229003F4E5A7F0E4F5A7C2DEEFD7
:10364300700353DACEEFB4010353DBCEEFB40203BE
:1036530053DCCED2DE9003F4E0F5A7229003F4E529
:10366300A7F0E4F5A7F5917594FF7595FF75927131
:103673007593FF43F38043F58053E67F5391FBE05B
:10368300F5A7229003F4E5A7F075A72053D47F5341
:10369300D5FE43E10175989075A71043A81053B860
:1036A300EF53F2EFE0F5A702002690000FE0D3946A
:1036B300029001CBE0400D2410F582E43400F58341
:1036C3007401F0222410F582E43400F583E4F0223F
:1036D3009003F4E5A7F075A72043D48053D5FE43A8
:1036E300E20175A71043A81053B8EF53F2EFE0F5CA
:1036F300A7E4FF02360FE4F5A775806D75A4807506
:10370300F19075D4FF75904175A5E875F2FF75D5F5
:103713007FF5E1F5E275E3C022E490033EF0900308
:1037230039E004F0E0B4010204F0900339E0B4029C
:1037330008E4F090033E7402F022900339E004544D
:1037430001FFF0BF01079001CC7401F0227F011249
:10375300350F90033E7403F022E4900339F0A3F095
:10376300A3748CF0E4A3F0A3F0A3F09003467402D7
:10377300F090034C04F02275A71075C130E4F5A74F
:10378300F5A9F5A9E5A930E7FB75A90375A903E533
:10379300A930E7FB22438E04438E025389FB4389FE
:1037A30001E4F58AF58CC2A943B80243F202C28C44
:1037B300229003F4E5A7F0E4F5A753917F7594FFF6
:1037C3007595FF43910443E680E0F5A722C0E0C06E
:1037D30083C0829003F4E5A7F075A710C29FE0F5BC
:1037E300A7D082D083D0E032E4F5A7EFB401067509
:1037F30097027597FFEF70067597DE7597AD22C236
:10380300EDD2ECD2EF9003727401F02275FAFF75DA
:10381300F9F09002447401F022C2ECC2EFE4900389
:1038230072F022E4FF1236377F0102363712365F19
:103833001237B402380212000E02381CE490006BF7
:02384300F02271
:00000001FF
