:020000040000FA
:10000000022A94D287E4900244F022020022900354
:10001000F5E5A7F0E4F5A75391FB53E67FE0F5A7DC
:10002000222232022F46C28FD28E22022C32AD07FC
:10003000AC06E4FBFAC3EB9DEA9C500E7FE87E031E
:100040001232620BBB00010A80EB2202004EC2EBAF
:01005000327D
:060053000227F0D2AF22EB
:10005B00021BBB9003D8E0B40108122143E49003C8
:06006B00D8F022C2AF2212
:100073000233629003F5E5A7F075A72043D48043CC
:10008300D50153E1FE75989075A71053A8EF53B8A7
:10009300EF53F2EFE0F5A7220236529003D9E0B412
:1000A30001059001CC805D90033FE0B40D00400357
:1000B3000205C79000BDF82828730200E402010B73
:1000C30002019902022602025402034F02038F0225
:1000D30003C80203DE0204760204C60204FA020520
:1000E3009490033AE0FDE49003BCF0A3F0A3F07B0B
:1000F300037FCE7E27121A3590033BE4F0A3741ED0
:10010300F090033F7401F022D390033CE0940090FD
:10011300033BE094004042900243E0640260030228
:1001230002CE900242E0B4012DE4F090033AE0FFE6
:100133002443F582E43403F583E4F0900240E05471
:1001430007B5070AE4122E1512359E0202CE90035C
:100153003BE4F0A304F00202CEE490033FF09003EB
:100163003AE02443F582E43403F583E004F0C394D6
:100173000350030205C790033AE0FF2443F582E4EA
:100183003403F583E4F074102FF582E43400F5832F
:100193007401F002359EE4FF9003B7F090032D0441
:1001A300F0900347E02401FDE433FC90032DE0FECF
:1001B300C39DEC6480F8748098502EEE25E0242EC5
:1001C300F582E43403F583A3E0FD74102EF582E495
:1001D3003400F583E0FEA805088002C333D8FC4F42
:1001E300FF90032DE004F080B89002CFE4F0A3EF7A
:1001F300F07F01123391E490032DF0122DA87F14A8
:100203007E0012002E90032DE004F0E0C39405401D
:10021300EA900367E004F090033F7403F0E4900373
:100223003AF0227F057E0012002E90033AE0FDE4AF
:100233009003BCF0A3F0A3F07B037FB67E0C121AED
:100243003590033BE4F0A3748CF090033F7404F007
:1002530022D390033CE0940090033BE09400407170
:10026300900243E064027063900242E06401705BB9
:10027300F0900240E05407FF90033AE0FDB5074BCE
:1002830074432DF582E43403F583E4F0122E1590C4
:10029300033AE0FB25E025E02456F582E43403F538
:1002A30083E0FCA3E0FDA3E0FEA3E02401FFE43E22
:1002B300FEE43DFDE43CFCEB25E025E02456F5821D
:1002C300E43403F5831208B71235BF90033C0205EB
:1002D300A490033AE0FB25E025E0244EF582E434C4
:1002E30003F583E0FCA3E0FDA3E0FEA3E02401FF0C
:1002F300E43EFEE43DFDE43CFCEB25E025E0244E3A
:10030300F582E43403F5831208B790033AE02443FB
:10031300F582E43403F583E004F0C39405406A9066
:10032300033AE0FF2443F582E43403F5837405F0D4
:1003330074102FF582E43400F5837401F074002FF8
:10034300F582E43402F58374FFF0803D90033BE0D3
:100353007004A3E064647017122B237F011233919E
:1003630012315C12005E90033BE4F0A3740FF09033
:10037300033BE0FEA3E0FFD39400EE9400400302AE
:1003830005A4EF4E60030205C70235BFD390033CBB
:10039300E0940090033BE094004004A30205A41200
:1003A300315C900348E004F0D3941E50030205C768
:1003B300741EF01230BF122B23E490033AF0900323
:1003C3003F7405F022D390033CE0940090033BE09C
:1003D300940050030205B0A30205A4900243E06415
:1003E300017031900242E0B4012AE4F0900240E04F
:1003F3005407FF9001CBE0B5071AE490033BF0A349
:100403007450F09001CC7401F0E4FF123391900327
:100413003F7409F0900243E0B40614900242E0B442
:10042300010DE4F07F0112339190033F740AF090C1
:100433000243E0640560030205C7900242E06401E1
:1004430060030205C7F0900240E05407FF9001CB20
:10045300E06F7001E460030205C790033BF0A374EF
:1004630050F0E49001CCF07F0112339190033F747C
:1004730009F0229001CBE0FD2410F582E43400F56D
:1004830083E0FE9001FFE0FBEEFA900016E025E02A
:100493004AFFEB90033DCFF0A3EFF090033DE0FF65
:1004A300A3E09003BCCFF0A3EFF0A3740AF07B03A7
:1004B3007FE67E0F121A357F0112339190033F744A
:1004C30008F022900243E0640660030205C790022D
:1004D30042E0640160030205C7F090023FA3E054C9
:1004E3000F900340F09001CC7401F0E4FF1234B993
:1004F30090033F740BF022900340E01460191460E2
:100503002B14603514603D14603A24F86040240DC8
:10051300704B90001C8025900017E0FEA3E0FF7C49
:10052300007D0A12065C90033DEE802B900019E0DB
:10053300FFA3E090033DCF801E90001BE0FF9003DC
:100543003DE4801390033DE4F0A304F08016900192
:10055300CBE0FF90033DE4F0A3EFF08007E49003CA
:100563003DF0A3F0900340E0FD90033DE0FFA3E0E6
:100573009003BCCFF0A3EFF0A37408F07B047FC615
:100583007E2F121A35E4FF12349190033F740AF060
:1005930022D390033CE0940090033BE09400400D91
:1005A300A3E024FFF090033BE034FFF0221230BFBE
:1005B300122B237F0112339112005E90033BE4F070
:1005C300A37464F022BB010CE58229F582E5833A2A
:1005D300F583E0225006E92582F8E622BBFE06E910
:1005E3002582F8E222E58229F582E5833AF583E460
:1005F3009322BB010FF8E58229F582E5833AF5835F
:10060300E028F0225009C58229F8E58226F622BBAC
:10061300FE09C58229F8E22582F222F8EA2583F54C
:1006230083E9932822F8BB010DE58229F582E5834E
:100633003AF583E8F0225006E92582C8F622BBFE8C
:1006430005E92582C8F222EF8DF0A4A8F0CF8CF043
:10065300A428CE8DF0A42EFE22BC000BBE0029EFF1
:100663008DF084FFADF022E4CCF875F008EF2FFF96
:10067300EE33FEEC33FCEE9DEC984005FCEE9DFE64
:100683000FD5F0E9E4CEFD22EDF8F5F0EE8420D2AB
:100693001CFEADF075F008EF2FFFED33FD4007981A
:1006A3005006D5F0F222C398FD0FD5F0EA22C5F02B
:1006B300F8A3E028F0C5F0F8E582158270021583EF
:1006C300E038F022BB010A89828A83E0F5F0A3E0D7
:1006D30022500687F009E71922BBFE07E3F5F0096C
:1006E300E3192289828A83E493F5F074019322BB90
:1006F3000110E58229F582E5833AF583E0F5F0A35D
:10070300E0225009E92582F886F008E622BBFE0ABA
:10071300E92582F8E2F5F008E222E5832AF583E988
:1007230093F5F0A3E99322BB010A89828A83F0E55A
:10073300F0A3F0225006F709A7F01922BBFE06F337
:10074300E5F009F31922F8BB0111E58229F582E5E9
:10075300833AF583E8F0E5F0A3F0225009E9258216
:10076300C8F608A6F022BBFE09E92582C8F2E5F027
:1007730008F222E88FF0A4CC8BF0A42CFCE98EF0D5
:10078300A42CFC8AF0EDA42CFCEA8EF0A4CDA8F0F6
:100793008BF0A42DCC3825F0FDE98FF0A42CCD35BA
:1007A300F0FCEB8EF0A4FEA9F0EB8FF0A4CFC5F024
:1007B3002ECD39FEE43CFCEAA42DCE35F0FDE43C1D
:1007C300FC2275F008758200EF2FFFEE33FECD3368
:1007D300CDCC33CCC58233C5829BED9AEC99E582AF
:1007E30098400CF582EE9BFEED9AFDEC99FC0FD53B
:1007F300F0D6E4CEFBE4CDFAE4CCF9A88222B8002B
:10080300C1B90059BA002DEC8BF084CFCECDFCE5F5
:10081300F0CBF97818EF2FFFEE33FEED33FDEC3319
:10082300FCEB33FB10D703994004EB99FB0FD8E59E
:10083300E4F9FA227818EF2FFFEE33FEED33FDECE7
:1008430033FCC933C910D7059BE99A4007EC9BFCDD
:10085300E99AF90FD8E0E4C9FAE4CCFB2275F01069
:10086300EF2FFFEE33FEED33FDCC33CCC833C8108E
:10087300D7079BEC9AE899400AED9BFDEC9AFCE8BC
:1008830099F80FD5F0DAE4CDFBE4CCFAE4C8F92209
:10089300EB9FF5F0EA9E42F0E99D42F0E89C45F0BB
:1008A30022E8600FEFC333FFEE33FEED33FDEC338D
:1008B300FCD8F122ECF0A3EDF0A3EEF0A3EFF022CD
:1008C300A8828583F0D083D0821208DA1208DA1264
:1008D30008DA1208DAE473E493A3C583C5F0C58389
:1008E300C8C582C8F0A3C583C5F0C583C8C582C87F
:1008F30022A42582F582E5F03583F58322BB010D21
:10090300E58229F582E5833AF5830209CE5007E9AA
:100913002582F80209BCBBFE07E92582F80209E03B
:10092300E58229F582E5833AF5830209F2BB0120CA
:10093300E58229F582E5833AF583D0F0D0E0F8D05B
:10094300E0F9D0E0FAD0E0FBE8C0E0C0F00209D75C
:100953005018E92582F8D083D082D0E0F9D0E0FAAC
:10096300D0E0FBC082C0830209C5BBFE18E9258223
:10097300F8D083D082D0E0F9D0E0FAD0E0FBC08297
:10098300C0830209E9228A838982E473EC8EF0A48E
:10099300CCC5F0CCCDF8EFA4CEC5F02DFDE43CFCE6
:1009A300E8A42EC8C5F03DFDE43CFCEFA4FFE5F050
:1009B30028FEE43DFDE43CFC22E6FB08E6FA08E6FB
:1009C300F922EBF608EAF608E9F622E0FBA3E0FADF
:1009D300A3E0F922EBF0A3EAF0A3E9F022E2FB089B
:1009E300E2FA08E2F922EBF208EAF208E9F222E479
:1009F30093FB740193FA740293F92290001EE0753D
:100A0300F011A42436F582E43400F583E0FBFD7C89
:100A1300002403FEEC339003BBF0A3CEF0EB1313DF
:100A2300543FFFC3ED9FFEEC9400A3F0A3CEF0125E
:100A3300185F900088E0FEA3E02489F58274003EED
:100A4300F583E4F09003B7F0A3F0900088E0FEA3F1
:100A5300E0FFC39003B8E09F9003B7E09E4003021A
:100A63000D2D90001EE075F00CA42454F582E4349F
:100A730000F583C083C082E0F8A3E0F9A3E0FAA302
:100A8300E0FB9003B7E0FEA3E0248AF58274003E06
:100A9300F583E0FFE4FCFDFEEB2FFFEE3AFEED39BC
:100AA300FDEC38FCD082D0831208B79003B7E0FE88
:100AB300A3E0FF248AF58274003EF583E0F9FDC3C9
:100AC3009003BCE09D9003BBE09400503390006B17
:100AD300E0702D04F090006EE9F07C007D23120697
:100AE3004A90007CE02FFF90007BE03E900070F086
:100AF300A3EFF0E4A3F0A3F0A3F090006CF0A3F055
:100B0300900074E01313543FFF9003BEE02FFF9057
:100B130003BDE03400FE9003B7E0FCA3E0FD248AAC
:100B2300F58274003CF583E0C39FE49E4003020C0E
:100B3300A790006BE064016003020CA7F0900074BF
:100B4300E0940C4023D3900073E09478900072E01B
:100B53009400401490001EE075F00CA42452F5821A
:100B6300E43400F583E004F0748A2DF58274003CCC
:100B7300F583E090006FF090001EE075F011A4245F
:100B830035F582E43400F583E0F9706590006FE099
:100B9300FF7E00900072E0FCA3E0FD90007CE02D5E
:100BA300FD90007BE03CCD2FFFEE3DFE90001EE06C
:100BB300FD75F011A42433F582E43400F583EEF0DF
:100BC300A3EFF0ED75F011A42433F582E43400F5BE
:100BD30083E0FFA3E0900017CFF0A3EFF0ED75F0F3
:100BE30011A42435F582E43400F583E004F0020D0A
:100BF3001990006FE0FF90006EE02FFFE433FE904A
:100C03000073E02FFF900072E03E9003B9F0A3EF72
:100C1300F0E9C3940A4003020CA7900070E0FEA31E
:100C2300E0FF9003B9E0FCA3E0FD900074E0FB1249
:100C33002EE1EFF4606E90001EE0FE75F011A42427
:100C430035F582E43400F583E0FDEE75F011A4245C
:100C530037F582E43400F583E5822DF582E43583AC
:100C6300F583EFF090001EE075F011A42435F582B2
:100C7300E43400F583E0B401179003B9E0FFA3E087
:100C8300900019CFF0A3EFF0900074E090001BF0F8
:100C930090001EE075F011A42435F582E43400F5CC
:100CA30083E004F090006BE06401706A900073E0ED
:100CB3002423F0900072E03400F09003B7E0FEA329
:100CC300E0248AF58274003EF583E0FF900074E02F
:100CD300C39F5002EFF09003BCE025E0FF9003BBFD
:100CE300E033FE900074E0C39FE49E5029C390005C
:100CF30073E09418900072E09401501A90006CE431
:100D030075F0011206B1FEC3E5F09404EE940040C1
:100D130005E490006BF09003B8E004F06003020A6E
:100D23004D9003B7E004F0020A4D90001EE075F009
:100D330011A42430F582E43400F5837401F022E435
:100D4300F990001DE064016003020DFAF0FAFB90D4
:100D5300001EE0FF75F011A42435F582E43400F59C
:100D630083E0FEEBC39E502DEF75F011A42437F5FD
:100D730082E43400F583E5822BF582E43583F58341
:100D8300E0FFF4600D74262AF582E43400F583EF66
:100D9300F00A0B80BA900024EAF090001EE075F090
:100DA30011A42433F582E43400F583E0FFA3E0903B
:100DB3000022CFF0A3EFF09001FCE06003020FC923
:100DC300900024E06003020FC9900206E0FEA3E056
:100DD3002478FFE43EFE90001EE075F011A4243356
:100DE300F582E43400F583E0FCA3E0C39FEC9E406E
:100DF30003020FC9020FC490001EE075F011A42472
:100E030033F582E43400F583E0FEA3E0FF90002293
:100E1300E0FCA3E0FDD3EF9DEE9C90001EE075F097
:100E2300114015A42433F582E43400F583E0FEA3D6
:100E3300E0C39DFFEE9C8015A42433F582E43400C7
:100E4300F583E0FEA3E0FFC3ED9FFFEC9E9003B7A5
:100E5300F0A3EFF09003B7E0FEA3E0C39478EE9421
:100E6300005024E4900208F090001EE075F011A4F5
:100E73002433F582E43400F583E0FFA3E0900022FD
:100E8300CFF0A3EFF080259001CBE02400F582E4BE
:100E93003402F583E0900026F0900024E0C3940A26
:100EA3005003E004F09002087401F022E4FB900088
:100EB3001EE075F011A42437F582E43400F583E5D0
:100EC300822BF582E43583F583E0FF74C42BF5822E
:100ED300E43403F583EFF00BEBB40AD2E4F9FB90AF
:100EE3000024E0FFEBC39F4003020F7FE4FA90006E
:100EF3001EE075F011A42435F582E43400F583E097
:100F0300FFEAC39F507274C42AF582E43403F58365
:100F1300E0FFF4605F74262BF582E43400F583E090
:100F2300FED39F4003EE801874262BF582E4340031
:100F3300F583E0FF74C42AF582E43403F583E0C348
:100F43009F9003B9F09003B9E0C39408502674C48A
:100F53002AF582E43403F583E0FF74BA29F582E4C9
:100F63003403F583EFF074C42AF582E43403F58384
:100F730074FFF0090A020EF10B020EE2E4FBEBC36D
:100F830099501B74BA2BF582E43403F583E0FF74A4
:100F9300262BF582E43400F583EFF00B80E0AF01FC
:100FA300900024EFF0701F900206E0FEA3E024C837
:100FB300FFE43EFE900022E0FCA3E0C39FEC9E50C2
:100FC30005E49001CEF0229003D3EEF0A3EFF07B83
:100FD300017A03799A64AA4E60030210AC1206C721
:100FE300FF900315E0FE900315EEF0A3EFF0120659
:100FF300C7E5F05401FE900315E054FEFCA3E0FDA9
:10100300EC4EFFED900315CFF0A3EFF0900002122A
:1010130006F2FF900317E0FE900317EEF0A3EFF044
:101023009000021206F2E5F05401FE900317E0541B
:10103300FEFCA3E0FDEC4EFFED900317CFF0A3EF12
:10104300F09000041206F2FF900319E0FE900319DA
:10105300EEF0A3EFF09000041206F2E5F05401FE67
:10106300900319E054FEFCA3E0FDEC4EFFED90036A
:1010730019CFF0A3EFF09000061206F2FF90031BC6
:10108300E0FE90031BEEF0A3EFF09000061206F2D1
:10109300E5F05401FE90031BE054FEFCA3E0FDECDD
:1010A3004EFFED90031B02122B9003D3E07004A3B9
:1010B300E064CC60030212311206C7FF90031DE007
:1010C300FE90031DEEF0A3EFF01206C7E5F0540106
:1010D300FE90031DE054FEFCA3E0FDEC4EFFED90FB
:1010E300031DCFF0A3EFF09000021206F25401FFAC
:1010F30090031FE0FCA3E054FEFDECFEED4FFF90D8
:10110300031FEEF0A3EFF09000021206F2FFE5F0EA
:10111300C313EF13540125E0FFE433FE90031FE0F4
:10112300FCA3E054FDFDEC4EFEED4FFF90031FEEDC
:10113300F0A3EFF09000021206F2AEF07802CEC3F5
:1011430013CE13D8F97E0054017802C333CE33CEC5
:10115300D8F9FF90031FE0FCA3E054FBFDEC4EFE27
:10116300ED4FFF90031FEEF0A3EFF0900002120685
:10117300F2AEF07803CEC313CE13D8F97E00540138
:101183007803C333CE33CED8F9FF90031FE0FCA31B
:10119300E054F7FDEC4EFEED4FFF90031FEEF0A37E
:1011A300EFF09000021206F2E5F05401FE90031FE7
:1011B300E054FEFCA3E0FDEC4EFFED90031FCFF0E7
:1011C300A3EFF09000041206F2FF900321E0FE90DB
:1011D3000321EEF0A3EFF09000041206F2E5F054C1
:1011E30001FE900321E054FEFCA3E0FDEC4EFFED75
:1011F300900321CFF0A3EFF09000061206F2FF90C8
:101203000323E0FE900323EEF0A3EFF09000061219
:1012130006F2E5F05401FE900323E054FEFCA3E044
:10122300FDEC4EFFED900323CFF0A3EFF02212313C
:101233005C229003D07401F0A37403F0A3749AF0BA
:10124300EF64AA4E6006EF64CC4E704C9003D0E07E
:10125300FBA3E0FAA3E0F9C003C002C0019003D0EE
:10126300A3A3E09000101209309003D0E0FBA3E0A9
:10127300FAA3E0F9900015E4F5F012074990001382
:101283007403120628900014E4120628900010122A
:101293000900EE8FF012072A9003D0E0FBA3E0FAD7
:1012A300A3E0F91206C7FDACF064AA4C6009ED6433
:1012B300CC4C600302143E9003D0E0FBA3E0FAA3FE
:1012C300E0F99003D0A3A39000141205C875F002AF
:1012D300A4F58285F083EE8FF01207499003D0E0E6
:1012E300FBA3E0FAA3E0F990001474011205F59052
:1012F30000131205C8FF9000141205C86F600302A3
:1013030014259003D0E0FBA3E0FAA3E0F9C003C0E7
:1013130002C0019003D0A3A3E09000101209309003
:1013230003D0E0FBA3E0FAA3E0F99000041206F275
:10133300FFAEF01206C7440F6F7003E5F06E7078CE
:101343009003CFF09003D0E0FBA3E0FAA3E0F99081
:1013530000131205C8FF9003CFE0FEC39F506C75C6
:10136300F002EEA4F58285F0831206F2FF1231E952
:10137300EFFD9003D0E0FBA3E0FAA3E0F99003CFE5
:10138300E075F002A4F58285F0831206F2E5F054CD
:1013930001B5050A90001774011206288012900304
:1013A300D0E0FBA3E0FAA3E0F990001774028018E1
:1013B3009003CFE004F0808C9003D0E0FBA3E0FA2D
:1013C300A3E0F990001774041206289003D0E0FB01
:1013D300A3E0FAA3E0F99000171205C86401703A7C
:1013E300900017041206281206C7FFAEF0120FCAA8
:1013F3009003D0E0FBA3E0FAA3E0F91206C7FFAE27
:10140300F064AA4E70069003B37402F0EF64CC4EFE
:10141300700D9003B37403F08008E49003B3F012EB
:10142300315C9003D0E0FBA3E0FAA3E0F99000174E
:101433001205C8D39401400312315C9003D0E0FB42
:10144300A3E0FAA3E0F99000141205C8D394035063
:101453000B9000131205C8D39403400312315C228E
:101463009001CAE0B408004003021675901476F8A0
:1014730028287302148E0214B10214C30214DC026E
:1014830014F402152D02154702160212009E900154
:10149300CCE06401600302167BF0123111E4900189
:1014A300D0F09001CE7402F09001CA14F0229001A2
:1014B300D0E0D394004002807A9001CA7402F022F3
:1014C3009001CF7402F012343E122D351232D11234
:1014D30036B29001CA7403F0229001CFE0D3940096
:1014E3004002804F1236BB12167C9001CA7404F07E
:1014F3002212343E122BAD122E7B1232D11236B28F
:101503009001CF740AF09001D1E0FEA3E0FF9000B8
:101513001EE075F011A42431F582E43400F583EE66
:10152300F0A3EFF09001CA02165F9001CFE0D394CD
:10153300004004E014F0221236BB1209FE9001CAE7
:101543007406F02212227290001EE0FF75F00CA4C4
:10155300245DF582E43400F583E064036079EF757C
:10156300F00CA42452F582E43400F583E0C394160E
:10157300506590001EE075F00CA42453F582E4340A
:1015830000F583E0C39403504EEF75F00CA424548C
:10159300F582E43400F583E0FCA3E0FDA3E0FEA3C1
:1015A300E0FFE47BB47A53F9F8D312089340289010
:1015B300001EE075F00CA42458F582E43400F58392
:1015C300E0FCA3E0FDA3E0FEA3E0FFE47BB27A0628
:1015D300F8D3120893501EE49001CEF0122FAB9073
:1015E300001EE075F00CA4245CF582E43400F5835E
:1015F3007401F08003120D429001CA7407F02212A5
:10160300295B9003D9E0B401069001CEE004F09089
:1016130001CEE0D39400402BE014F09001D1E0FE22
:10162300A3E0FF7C007D0612065C74752DF58274C1
:10163300003CF583E09001D0F090001EE0045401DB
:10164300F0802F121EA1E49001CAF0A3E0B40110B0
:1016530090033BE4F0A37464F090033F7405F0221D
:1016630090033FE0B40B04740BF02290033F740922
:10167300F0229001CA7401F022900088E0FEA3E0FA
:10168300248BF974003EFA9003C17401F0A3EAF0CD
:10169300A3E9F0A37432F07B017A00798A1231A6B0
:1016A300900088A3E02403F9FFE92430FDE433FC30
:1016B300EFC39DEC6480F87480985054AE07E9241E
:1016C30030FDE433FCEEC39DEC6480F874809850E5
:1016D3003C748A2EF582E43400F583E0FD748A2F8E
:1016E300F582E43400F583E0FCD39D401D9003B7FD
:1016F300ECF0748A2FF582E43400F583EDF0748AFC
:101703002EF582E43400F583ECF00E80B10F80995E
:10171300E49003B8F0A3F0A3F0A3F0A3F0A3F0AF19
:1017230001E92410FDE433FCEFC39DEC6480F874FD
:101733008098504E748A2FF582E43400F583E0FDDF
:101743009003B9E02DF09003B8E03400F0749A2FC1
:10175300F582E43400F583E0FD9003BBE02DF090C7
:1017630003BAE03400F074AA2FF582E43400F58361
:10177300E0FD9003BDE02DF09003BCE03400F00FDA
:10178300809F9003B8E0C4F854F0C868F0A3E0C4A5
:10179300540F48F0A3E0C4F854F0C868F0A3E0C4C1
:1017A300540F48F0A3E0C4F854F0C868FEA3E0C4A3
:1017B300540F48FF9003BCEEF0A3EFF09003BAE0A0
:1017C300FCA3E0FDC3EF9DFFEE9CFEEF7802CEC3CA
:1017D30013CE13D8F92D90006AF0D394064017E086
:1017E30024FA9003B7F0E01313543FF0F5F0A4FF8D
:1017F30090006AE02FF090006AE0FFD39450401904
:101803007450F090001EE075F00CA4245DF582E4A2
:101813003400F5837403F08028EFD3941E90001EE8
:10182300E075F00C400FA4245DF582E43400F583E9
:101833007401F0800CA4245DF582E43400F583E4A4
:10184300F090006AE0FF90001EE075F011A42436CA
:10185300F582E43400F583EFF0021FFEE4FBFA9017
:1018630003BFF0A3F0A3F0A3F0FFD3900089E09BA4
:10187300900088E09A402E748A2BF58274003AF522
:1018830083E0601AFF9003BFEAF0FCA3EBF0D3946C
:1018930008EC9400400F90000FE004F080070BBBAE
:1018A30000010A80C5E4FAFBD39003C0E09B9003D8
:1018B300BFE09A4013748A2BF58274003AF583EFE4
:1018C300F00BBB00010A80E07A007B01900089E005
:1018D30024FFFF900088E034FFFEC3EB9FEA9E5095
:1018E3002C748A2BF58274003AF583E0701874899E
:1018F3002BF58274003AF583E0FF748A2BF582742A
:10190300003AF583EFF00BBB00010A80BF7A007B3E
:1019130005900089E024FEFF900088E034FFFEC3B9
:10192300EB9FEA9E4003021A34748A2BF5827400FB
:101933003AF583E0F92420FFE433FE748B2BF58220
:1019430074003AF583E0D39FEE6480F87480985076
:1019530003021A2CE92430FFE433FE748C2BF58246
:1019630074003AF583E0D39FEE6480F87480985056
:1019730003021A2CEB2401FEE43A9003BFF0A3CE3A
:10198300F0EB2408FFE43AFE9003BFE0FCA3E0FD84
:10199300C39FEC9E4003021A2C748A2BF5827400B9
:1019A3003AF583E02408FFE433FE748A2DF582744C
:1019B300003CF583E0C39FEE6480F8748098505830
:1019C30090001EE075F00CA42452F582E43400F577
:1019D30083E004F09003C1EAF0A3EBF09003BFE0CF
:1019E300FEA3E0FFA3E0FCA3E0FDC39FEC9E503900
:1019F30074892BF58274003AF583E0FF748A2DF520
:101A03008274003CF583EFF09003C2E004F07006AB
:101A13009003C1E004F080C49003C0E004F07006BA
:101A23009003BFE004F00219840BBB00010A021902
:101A330014229003B8EEF0A3EFF0E4F99003BCE0B6
:101A4300FEA3E0A803088005C333CE33CED8F9FF45
:101A5300EF4DFF9003BFEEF0A3EFF09003B8E0FE6D
:101A6300A3E0FFBE0C0BBFB6089002457401F080E3
:101A730005E4900245F0C3740C9F900249F0E49E84
:101A8300900248F0E4FD9003BEE0FFEB2FFFE43348
:101A9300FEEDC39FEE6480F8748098507874017EE5
:101AA30000A805088005C333CE33CED8F9FF9003D1
:101AB300BFE05EFEA3E05F4E602DED25E025E02450
:101AC3004AF582E43402F58374FBF0A37434F0ED39
:101AD30025E025E0244CF582E43402F58374FEF01E
:101AE300A3742DF009802AED25E025E0244AF58230
:101AF300E43402F58374FEF0A37413F0ED25E025BE
:101B0300E0244CF582E43402F58374FBF0A3744EB5
:101B1300F00D021A89E95401F99003BE602EE02BFF
:101B2300FF25E025E0244AF582E43402F58374FBC3
:101B3300F0A37434F0EF25E025E0244CF582E4347F
:101B430002F58374FEF0A3742DF0802CE02BFF25A7
:101B5300E025E0244AF582E43402F58374FEF0A321
:101B63007413F0EF25E025E0244CF582E43402F50C
:101B73008374FBF0A3744EF09003BEE02BFF25E0CB
:101B830025E0244EF582E43402F58374FEF0A37459
:101B930013F0EF25E025E02450F582E43402F583C9
:101BA30074FEF0A3742DF0E4900247F0EF25E024D7
:101BB30006900246F0023691C0E0C0F0C083C082B6
:101BC300C0D075D000C000C001C002C003C004C0B3
:101BD30005C006C00720D803021C72A290E433900C
:101BE30003DCF090023CE0FFA3E090023ACFF0A3C5
:101BF300EFF0A3E5FCF0A3E5FBF090023AE0FEA3CF
:101C0300E0FFA3E0FCA3E0FDD39FEC9E4007ED9F24
:101C1300FFEC9E801490023AE0FEA3E0FFC374FF42
:101C23009FCF74FF9ECF2DCF3C9003D5F0A3EFF051
:101C33009003D5E0FCA3E0FD9002CCE0FF04F0EFBD
:101C430025E024ACF582E43402F583ECF0A3EDF057
:101C53009002CCE0B41002E4F09003DCE0FF9002C9
:101C630037A3E0FAA3E0F5828A8312098DC2D83044
:101C7300D96B90023CE0FFA3E090023ACFF0A3EFD0
:101C8300F0A3E5EAF0A3E5E9F090023AE0FEA3E071
:101C9300FFA3E0FCA3E0FDD39FEC9E4007ED9FFF75
:101CA300EC9E801490023AE0FEA3E0FFC374FF9F12
:101CB300CF74FF9ECF2DCF3C9003D5F0A3EFF090D0
:101CC30003DCE0FF9003D5E0FCA3E0FD900237A323
:101CD300E0FAA3E0F5828A8312098DC2D930DA02D1
:101CE300C2DA30DF35900244E0B4012CB2879002AF
:101CF30047E025E02448F582E43402F583E0FEA3BF
:101D0300E08EFAF5F9900247E004F0900246E0FF16
:101D1300A3E0B50703120003C2DFD007D006D00546
:101D2300D004D003D002D001D000D0D0D082D08351
:101D3300D0F0D0E03212330412307B1230699003BA
:101D43008FE0FFA3E090037FCFF0A3EFF0E49003D5
:101D530078F0A3F0A3F0A374C8F090037DE0FEA392
:101D6300E0FF7C027D5812098FE47B64FAF9F812D4
:101D73000801E47B2FFAF9F8120776E47BF8FAF905
:101D8300F8120801E47B75FAF9F8120776E47B642C
:101D9300FAF9F8120801D3EF94E8EE940340047EB5
:101DA300037FE890036BEEF0A3EFF0A37404F0A3BA
:101DB300E4F090037AE0FFA3E090038ACFF0A3EF6F
:101DC300F090037DE0FEA3E0FF7C027D5812098FB3
:101DD300E47B64FAF9F8120801E47B2FFAF9F812AC
:101DE3000776E47BF8FAF9F8120801E47B53FAF971
:101DF300F8120776E47B64FAF9F812080190038D70
:101E0300EEF0A3EFF0900378E0FEA3E0FF90037FF2
:101E1300E0FCA3E0FDC39FEC9E401390037AE0FE39
:101E2300A3E0FFED9FEC9E5005E49001CBF09003FF
:101E33006BE0FEA3E0FFD3ED9FEC9E405EA3E0FECC
:101E4300A3E0FF900380E09F90037FE09E504C90BF
:101E530003DAE4F0A3740AF07F017E0012002EC2BD
:101E6300879003DAE4F0A3740AF07F017E00120086
:101E73002E90036BE0FEA3E0FF90037FE0FCA3E062
:101E8300FDD39FEC9E401490036DE0FEA3E0FFEDB5
:101E93009FEC9E50069001CB7401F0D287227EFF07
:101EA300E4FD900024E0FCEDC39C501674262DF550
:101EB30082E43400F583E0FCEED39C4002AE040DD3
:101EC30080E090001CEEF07EFFE4FD900024E0FC37
:101ED300EDC39C502E9001CBE02431F582E4340213
:101EE300F583E0FC74262DF582E43400F583E0D31A
:101EF3009C400D74262DF582E43400F58374FFF0C5
:101F03000D80C8E4FD900024E0FCEDC39C501674E2
:101F1300262DF582E43400F583E0FCEED39C4002E9
:101F2300AE040D80E0EEC394195028EE94144005DE
:101F33001E1E1E801EEE64066019EE64056014EE1C
:101F43006402600F9001CBE02400F582E43402F5D3
:101F530083E0FEEED39496401C9001FDE07002A353
:101F6300E0705A9001CBE02400F582E43402F5835B
:101F730074FFF08048EEC394285025EEC394199063
:101F830001CBE0500E2400F582E43402F5837402A1
:101F9300F080202400F582E43402F583EEF0801310
:101FA300EEC394649001CBE02400F582E43402F59F
:101FB30083EEF09001FD7403F0A374E8F07EFFE478
:101FC300FD74002DF582E43402F583E0FCEED39C2E
:101FD3004002AE040DEDB406E89001FFE0FDEED340
:101FE3009D400AEE9DD394074010EEF0229001FF2E
:101FF300E0C39ED394054002EEF022E49003BEF0CA
:10200300A3F0900088E0FEA3E02489F58274003EEB
:10201300F583E4F09003BEF0A3F0900088E0FEA304
:10202300E0FFC39003BFE09F9003BEE09E40030226
:10203300214290001EE075F00CA42458F582E4348C
:1020430000F583C083C082E0F8A3E0F9A3E0FAA31C
:10205300E0FB9003BEE0FEA3E0248AF58274003E19
:10206300F583E0FFE4FCFDFEEB2FFFEE3AFEED39D6
:10207300FDEC38FCD082D0831208B790006AE024CC
:1020830003FFE433FE9003BEE0FCA3E0248AF58261
:1020930074003CF583E0FDD39FEE6480F874809870
:1020A300401590006BE0705204F0E4900074F090DF
:1020B3000072F0A3F08043900074E01313543FFFC9
:1020C300EDC39F503590006BE0B4012EE4F0900017
:1020D30074E0D3940C4023D3900073E09478900081
:1020E30072E09400401490001EE075F00CA4245399
:1020F300F582E43400F583E004F090006BE0B40172
:102103002A900073E02423F0900072E03400F090F2
:1021130003BEE0FEA3E0248AF58274003EF583E06B
:10212300FF900074E0C39F5002EFF09003BFE00400
:10213300F0600302201D9003BEE004F002201D2284
:10214300E49003B9F0A31208C3000000009002F862
:10215300E0FF700C9003BA1208C30000FFFF802752
:10216300EFB4010C9003BA1208C30001FFFF8017FC
:10217300EF9003BAB402091208C30002FFFF8007FD
:102183001208C30003FFFF90024874E8F0A3742E03
:10219300F0E49003B8F09003B8E0F9C3941240035D
:1021A300022238E47F01FEFDFCA8011208A490037B
:1021B300BAE0F8A3E0F9A3E0FAA3E05FFFEA5EFE6A
:1021C300E95DFDE85CFC4D4E4F9003B86033E0FFE2
:1021D30025E025E0244AF582E43402F58374FBF01C
:1021E300A37434F0EF25E025E0244CF582E43402B7
:1021F300F58374FEF0A3742DF09003B9E004F0802E
:102203002BE0FF25E025E0244AF582E43402F58340
:1022130074FEF0A37413F0EF25E025E0244CF5825F
:10222300E43402F58374FBF0A3744EF09003B8E03A
:1022330004F00221999003B9E05401F090029260F6
:102243001174FBF0A37434F0A374FEF0A3742DF0A7
:10225300800F74FEF0A37413F0A374FBF0A3744E09
:10226300F0E4900247F09002467428F00236919011
:1022730001FCE0FFD39400500302233590001EE0DD
:1022830075F011A42433F582E43400F583E0FCA354
:10229300E0FDD394F4EC9401403AED942EEC9409D0
:1022A3005032EFC3139001FCF090001EE075F01163
:1022B300A42433F582E43400F583E0FFA3E0900225
:1022C30006CFF0A3EFF090000FE0D39400404BE073
:1022D30014F0804690001EE075F011A42433F582BB
:1022E300E43400F583E0FEA3E0FFC3942EEE9409EB
:1022F300401CEF9450EE944650149001FCE0FFC351
:1023030013F09002067409F0A3742EF0800C900071
:102313000FE0C394085003E004F0C3900207E09475
:1023230014900206E09405504A7409F0A3742EF049
:10233300804190001EE075F011A42433F582E4344B
:1023430000F583E0FEA3E0FFD39450EE94465009DA
:10235300C3EF94F4EE9401500E90000FE0C3940881
:102363005011E004F0800C90000FE0D39400400380
:10237300E014F002352F9003B7EFF0A3ECF0A3EDD8
:10238300F0D3941DEC9401400BE094949003B8E0D7
:102393009405400E90023774FFF0A37424F0A374E5
:1023A3007EF09003B7E07003022449A3E0FEA3E0AC
:1023B300FFD3941DEE94014054EF94B5EE94025074
:1023C3004C900241E0602F90023EE0FF74017E00DA
:1023D300A807088005C333CE33CED8F9FF90024057
:1023E300E02FF090023FE03EF090023EE004F0E484
:1023F300900241F0801790023EE0D39400407B129C
:10240300300EBF01069002427401F0801E9003B8A3
:10241300E0FEA3E0FFD394FCEE9403405DEF9494BD
:10242300EE94055055900241E0600F90023774FF1F
:10243300F0A37424F0A3747EF02290023EE004F033
:10244300E4900241F0229003B8E0FEA3E0FFD394AE
:102453001DEE9401400DEF94B5EE94025005E49007
:102463000241F0D3EF94FCEE9403400EEF9494EE0C
:10247300940550069002417401F022EF7003022587
:102483006EE490023EF0A3F0A3F0900242F0A3F0BA
:10249300D3ED94CBEC940B4019ED94B4EC940D5024
:1024A300117401F090023774FFF0A37423F0A37446
:1024B30079F0D3ED94D2EC940E401CED940DEC9492
:1024C3001150149002437402F090023774FFF0A38A
:1024D3007423F0A37479F0D3ED941CEC9417401C8F
:1024E300ED94B4EC941850149002437403F09002EA
:1024F3003774FFF0A37423F0A37479F0D3ED94142D
:10250300EC941F401CED94ACEC94205014900243C7
:102513007404F090023774FFF0A37423F0A374796A
:10252300F0D3ED9488EC9425401CED9427EC942A89
:1025330050149002437405F090023774FFF0A374B3
:1025430023F0A37479F0D3ED941AEC942D401CED91
:102553009485EC943250149002437406F090023741
:1025630074FFF0A37423F0A37479F0224C032E00BC
:10257300000003000200000005000441036700415E
:10258300032D004103F50046007501020407030013
:102593004602319696965050504601E296969650D2
:1025A30050504601DC9696965050504601D696966A
:1025B3000000000060280209012C012C012C00FA04
:1025C30000C800C800C800C800C800C800C800C8C8
:1025D30000B400B400B4009600960096007800782A
:1025E3005401E8464646462422201C1814141410AD
:1025F300100E0E0E0E0A0A4403E60000000041030B
:10260300E4004103E500430237FF247E4103B201A6
:10261300410399004103B300480305000000000093
:1026230000000048030D0000000400000000480201
:10263300E500AA000A00AF006348032500BB00FFC2
:1026430000BF00005002D500CC00FF00FF00FF00D8
:10265300FF00FF00CF00FF00E4FDFF900011E070DA
:1026630007900010E070010FEF790F6002791F905F
:10267300024874E0F0A37436F0E4FC74017E00A811
:1026830004088005C333CE33CED8F9FFE9FBEF5BF3
:10269300602DEC25E025E0244AF582E43402F5833D
:1026A30074FBF0A37434F0EC25E025E0244CF582B0
:1026B300E43402F58374FEF0A3742DF00D802AEC4C
:1026C30025E025E0244AF582E43402F58374FEF024
:1026D300A37413F0EC25E025E0244CF582E43402E6
:1026E300F58374FBF0A3744EF00CEC6405708CED71
:1026F3005401FD90025E601174FBF0A37434F0A3E7
:1027030074FEF0A3742DF0800F74FEF0A37413F025
:10271300A374FBF0A3744EF0E4900247F0900246DA
:10272300740EF00236911232291230BFE4FB74109A
:102733002BF582E43400F5837401F074432BF582A6
:10274300E43403F583E4F074452BF582E43403F5B4
:1027530083E4F00BEBB402D6E4900348F09001CB92
:10276300F09001CAF09001CCF090001EF090000FA1
:10277300F090007DF09001FDF0A3F090023EF0A3F5
:10278300F0A3F0A3F0A3F0A3F0A3F090023774FF3B
:10279300F0A37424F0A3747EF09003D97401F09035
:1027A30003E1F0A3742CF0E4FBEB25E025E0244ED9
:1027B300F582E43403F5831208C300000000EB251F
:1027C300E025E02456F582E43403F5831208C300C0
:1027D3000000000BEBB402D190035E1208C30000AB
:1027E30000009003621208C30000000022C0E0C092
:1027F30083C082C0D075D000C004C00790007DE0C4
:10280300FFC394075016747E2FF582E43400F583DA
:10281300E5BDF090007DE004F002289E9003B5E44E
:10282300F0A374FFF0747E2FF582E43400F583E5A2
:10283300BDF090007DE4F09003B4F09003B4E0FFAA
:10284300C394085038747E2FF582E43400F583E096
:10285300FF9003B5E0C39F5002EFF09003B6E0D3BF
:102863009F40129003B4E0247EF582E43400F583A4
:10287300E09003B6F09003B4E004F080BE9003B69A
:10288300E0FF9003B5E0C39FFF900088E0FCA3E066
:10289300248AF58274003CF583EFF0C2EDD2ECD0CC
:1028A30007D004D0D0D082D083D0E032E4FDFCF94D
:1028B300EF14602D14604714606124FE607A046095
:1028C30003022956E4FEEE25E024EDF582E434020A
:1028D300F583E0A3E02DFDE43CFC0EEEB407E780B6
:1028E30072E4FEEE25E024FDF582E43402F583E094
:1028F300A3E02DFDE43CFC0EEEB403E78055E4FEBB
:10290300EE25E02415F582E43403F583E0A3E02DFE
:10291300FDE43CFC0EEEB403E78038E4FEEE25E074
:1029230024CDF582E43402F583E0A3E02DFDE43CFD
:10293300FC0EEEB403E7801BE4FEEE25E0241DF558
:1029430082E43403F583E0A3E02DFDE43CFC0EEECA
:10295300B403E7A905AF012290001EE075F00CA4B3
:10296300245CF582E43400F583E0640170030229FA
:10297300FB900022E0FEA3E0FFF47002EEF4607827
:10298300900208E07072900206E0FCA3E0FDD3EF32
:102993009DEE9C4063900022E0FEA3E0FF9DFDEED0
:1029A3009CFCD3ED94C8EC9400404DD3EF948CEE93
:1029B300940A40109000267406F0900024E0940AD4
:1029C30050368031D3ED945EEC9401401090002694
:1029D3007406F0900024E0940A501D80189001CBF7
:1029E300E02400F582E43402F583E0900026F090C1
:1029F3000024E07003E004F0221235FC12357B7FE3
:102A03000112366D1233E91233BE12361A12272918
:102A13001235DE12346812329A1200567F647E0039
:102A230012002E121D389003E1E07002A3E0601E35
:102A33009003E3E060F0E4F01214639003E2E02417
:102A4300FFF09003E1E034FFF07597A580D8E490A0
:102A530003D9F09001CBE0B401197F0112339190B7
:102A6300033BE4F0A3748CF0E490033FF090033A4B
:102A7300F0800B90033F7408F07F01123391123002
:102A8300BF9003E3E06005E4F01214637597A5803B
:102A9300F0120021787FE4F6D8FD758107022ADE63
:102AA3000229FCE493A3F8E493A34003F68001F224
:102AB30008DFF48029E493A3F85407240CC8C33334
:102AC300C4540F4420C8834004F456800146F6DF03
:102AD300E4800B010204081020408090256FE47EFF
:102AE300019360BCA3FF543F30E509541FFEE493F8
:102AF300A360010ECF54C025E060A840B8E493A3BF
:102B0300FAE493A3F8E493A3C8C582C8CAC583CAE9
:102B1300F0A3C8C582C8CAC583CADFE9DEE780BEA1
:102B2300122CB79002F1E0F0A3E044F0F09002F130
:102B3300E0F0A3E0440FF09002EFE0F0A3E044F0F4
:102B4300F09002EFE0F0A3E0440FF09002F3E0F026
:102B5300A3E0540FF09002F3E0F0A3E054F0F0A3ED
:102B6300E0F0A3E04408F09002F5E0F0A3E04404B1
:102B7300F09002F5E0F0A3E04402F09002F5E0F0FB
:102B8300A3E04401F0E054DFF0E054EFF09002F5ED
:102B9300E0F0A3E0543FF090034DE0FF9002F7E034
:102BA300FE9002F7EEF0A3EFF02290001EE0FF7517
:102BB300F011A42430F582E43400F583E4F0EF75DA
:102BC300F011A42431F582E43400F583E4F0A3F09A
:102BD300EF75F011A42433F582E43400F58374FF18
:102BE300F0A3F0EF75F011A42435F582E43400F579
:102BF30083E4F090001C74FFF0E490001BF090005D
:102C030019F0A3F0900017F0A3F0FF90001EE075F9
:102C1300F011A42437F582E43400F583E5822FF51F
:102C230082E43583F58374FFF00FEFB40ADD22C02D
:102C3300E0C0F0C083C082C0D075D000C000C00126
:102C4300C002C003C004C005C006C0079003E374FC
:102C530001F09003DFE475F0011206B1FEC3E5F065
:102C63009432EE9400400C9003DFE4F0A3F0900361
:102C7300D804F09003DDE475F0011206B1FEC3E55C
:102C8300F09414EE9400400C9003DDE4F0A3F09074
:102C930003D704F0123414C2CFD007D006D005D026
:102CA30004D003D002D001D000D0D0D082D083D0C2
:102CB300F0D0E0327FFF900347E064027073FE744C
:102CC300D62EF582E43401F583E0FD74002EF582FF
:102CD300E43402F583E0D39D400D74002EF582E4C5
:102CE3003402F58374FFF074002EF582E43402F5A8
:102CF30083E0FDEFD39D4002AF050EEEB402C0EFBB
:102D0300D39496400790034D7403F022EFC3946469
:102D1300400790034D7402F022EFC39428400790BC
:102D2300034D7401F022EFC394004005E490034D7A
:102D3300F02290001EE0FF75F00CA4245DF582E400
:102D43003400F583E4F0EF75F00CA42452F582E42B
:102D53003400F583E4F0EF75F00CA42453F582E41A
:102D63003400F583E4F0EF75F00CA42458F582E405
:102D73003400F5831208C30000000090001EE0FB3E
:102D830075F00CA42454F582E43400F5831208C3CF
:102D930000000000EB75F00CA4245CF582E4340021
:102DA300F583E4F0227F031228AF7E009002D3EE76
:102DB300F0A3EFF0E49003B8F09003B8E0FFC394FE
:102DC30004504CEF25E024CDF582E43402F583E092
:102DD300A3E0FF1231E99003B9EFF09003B8E025C7
:102DE300E024CDF582E43402F583C083C082E0FCA5
:102DF300A3E0FD9003B9E05401FEEC4EFFEDD08259
:102E0300D083CFF0A3EFF09003B8E004F080AA02E0
:102E1300265B90033AE0FD6401605590023FE0FABF
:102E2300A3E0FBEA131313541F20E02774102DF5BE
:102E330082E43400F583E4F0EBAE027803CEC313EF
:102E4300CE13D8F9FF74002DF582E43402F583EF35
:102E5300F0801D90033AE0FF2410F582E43400F57E
:102E630083E4F074002FF582E43402F58374FFF0F9
:102E7300E490023FF0A3F02212006E9003B77414A3
:102E8300F0C295D2967F067E0012326200000000E7
:102E9300000000000000000000000000000000002F
:102EA30000000000D295C2967F067E0012326200B7
:102EB300000000000000000000000000000000000F
:102EC300009003B7E014F0E0D3940050B4C295C26D
:102ED3009690007B7401F0A37454F00200569003A3
:102EE300BFEEF0A3EFF0A9037BFF9003BFE0C31392
:102EF300FF25E02409F582E43402F583E0F8A3E03A
:102F0300F5828883D39DE5839C503574E82FF58241
:102F1300E43401F583E0FFE9C39F40249003BFE05D
:102F2300FEA3E07807CEC313CE13D8F9F0EE9003D7
:102F3300BFF0E0FEA3E0FF7C027D2D12064AEEFB0C
:102F4300AF0322C0E0C0F0C083C082C0D075D00000
:102F5300C000C001C002C003C004C005C006C00752
:102F63009003CEE598F0E030E015C298AC99540494
:102F730075F040A4FFAEF0AD04EF4DFF1212359093
:102F830003CEE030E107C2999003B2E4F0D007D05A
:102F930006D005D004D003D002D001D000D0D0D0C9
:102FA30082D083D0F0D0E032E490001DF09002088C
:102FB300F090001EE075F011A42435F582E434008E
:102FC300F5837401F09001FD7403F0A374E8F090AD
:102FD3000206E0FFA3E0900022CFF0A3EFF0900001
:102FE300167401F09001CBE02400F582E43402F57D
:102FF30083E0900026F07F0174262FF582E43400ED
:10300300F58374FFF00FEFB40AEE22E4F9FDFC90B0
:10301300023EE014FFECC39F502174017E00A8041C
:10302300088005C333CE33CED8F9FF90023FE05E6C
:10303300FEA3E05F4E60010D0C80D4ED5401FD90C2
:10304300023EE014FFA3E0FEA3E0A807088005CE3C
:10305300C313CE13D8F9FFED7A00B50706EAB50618
:10306300027901AF012290038FE0FFA3E090037D7B
:10307300CFF0A3EFF0123333E4F5BEF5BD90037C3C
:10308300F0C2EDD2EC7F057E0012326290037CE049
:1030930004F0E0C3940840E990038FE5BEF0A3E594
:1030A300BDF012369E90038FE0FEA3E07803CEC3FB
:1030B30013CE13D8F9F0EE90038FF0229001CE7463
:1030C30002F090001D14F09001FC740FF0E4FF7403
:1030D300002FF582E43402F58374FFF074492FF571
:1030E30082E43403F58374FFF0744B2FF582E434E8
:1030F30003F583E4F090034D7403F00FEFB406CFB0
:103103009001FF74FFF0E49001CAF00236BBE49033
:10311300001FF0A3F0A3F074FFA3F0A3F0E4A3F067
:10312300900016F090001EF090001D04F0E4FFEFF5
:1031330075F011A42430F582E43400F583E4F00F34
:10314300EFB402EBE4FF74262FF582E43400F58339
:1031530074FFF00FEFB40AEE22E4FFEF25E0249AA8
:10316300F582E43403F583E4F0A3F0EF25E024A231
:10317300F582E43403F583E4F0A3F00FEFB404DB4A
:103183009003AA7401F0A37403F0A3749AF0E4907B
:1031930003AEF0A3F0A3F09003AD7403F0E4900347
:1031A300B1F0229003BEEBF0A3EAF0A3E9F0E4FF51
:1031B3009003C4E0FEEFC39E502B9003BEE0FBA33D
:1031C300E0FAA3E0F98F827583001205C8FE90032D
:1031D300C1E0FBA3E0FAA3E0F98F82758300EE124E
:1031E30006280F80CB229003D3EFF0E4F9FDFC74A3
:1031F300017E00A804088005C333CE33CED8F9FF7F
:103203009003D3E0FBE4FEEF5BA804088006CEA2A4
:10321300E713CE13D8F864014E7001090CECB4081F
:10322300CEE95401FF22E490023EF0A3F0A3F0A301
:10323300F0A3F0A3F0FFEF25E024ACF582E4340221
:10324300F583E4F0A3F00FEFB410EBE49002CCF0BD
:1032530090023774FFF0A37424F0A3747EF02290DD
:1032630003F5E5A7F075A710EF7802C333CE33CE8D
:10327300D8F9FFC374FF9FFF74FF9EFEEFF5A4EE22
:10328300F5A5D29A209F057597A580F8C29AC29F8B
:103293009003F5E0F5A7229003F5E5A7F0E4F5A781
:1032A300C2DFC2D8C2D9C2DA75D901F5F7F59CF5E8
:1032B30096F59EF5F9F5FA75DAB075DBB0F5DC75C0
:1032C300E61043F31043F510D2DEE0F5A722C2EE79
:1032D300C2E8C2E975B20175BC1D75B31075DF4054
:1032E300E4F5B975C4FF75C3FFF5C6F5C575BB062F
:1032F30075D10843E60853F3F743F508D2EF0236D6
:1033030084C2EEC2E8C2E975B20175BC1975B34255
:1033130075DF40E4F5B975C4FF75C3FFF5C6F5C5A0
:1033230075BB0375D108F5BEF5BDD2EF53E6F722A1
:10333300C2EEC2E8C2E975B20175BC1975B3427534
:10334300DF40E4F5B975C4FF75C3FFF5C6F5C57570
:10335300BB0575D108F5BEF5BDD2EF53E6F722C024
:10336300E0C083C082C0D0C3900089E0943F900046
:1033730088E09401500CA3E004F07006900088E00C
:1033830004F053917FD0D0D082D083D0E032900329
:10339300B8EFF0BF01061200760235559003B8E08E
:1033A300B4020EE4FF1234B9123508E49003B2F00C
:1033B300221200761235551236A8229003F5E5A79E
:1033C300F0E4F5A7C2C8C2C9C2CCC2CB75CCFF75A5
:1033D300CDFF75CA0C75CBF0D2AD53B8DF43F220E5
:1033E300D2CAE0F5A7229003F5E5A7F075A710C2AE
:1033F30098C299C29CC29B75A4FF75A5FFE4F5A270
:10340300F5A353F4EF53F6EF53CEEFC29AE0F5A7CB
:10341300229001D2E004F070069001D1E004F0D3D1
:103423009001FEE094009001FDE09400400CA3E0C5
:1034330024FFF09001FDE034FFF022E4FFFE748AE4
:103443002FF58274003EF583E4F00FBF00010EBE3A
:1034530001ECBF40E9E4900088F0A3F090007BF01A
:10346300A3F00236C19003F5E5A7F0538EF7538915
:10347300BF4389205389EF758B96758D9675A71079
:10348300C2AB43B80843F208E0F5A7C28E2290030B
:10349300F5E5A7F0E4F5A7C2DEEF700343DA31EFF9
:1034A300B4010343DB31EFB4020343DC31D2DE90DA
:1034B30003F5E0F5A7229003F5E5A7F0E4F5A7C22D
:1034C300DEEF700353DACEEFB4010353DBCEEFB478
:1034D300020353DCCED2DE9003F5E0F5A72290037E
:1034E300F5E5A7F0E4F5A7F5917594FF7595FF75DC
:1034F30092717593FF43F38043F58053E67F5391B5
:10350300FBE0F5A7229003F5E5A7F075A72053D4B8
:103513007F53D5FE43E10175989075A71043A8101A
:1035230053B8EF53F2EFE0F5A702002690000FE047
:10353300D394029001CBE0400D2410F582E43400D3
:10354300F5837401F0222410F582E43400F583E45A
:10355300F0229003F5E5A7F075A72043D48053D557
:10356300FE43E20175A71043A81053B8EF53F2EFDF
:10357300E0F5A7E4FF023491E4F5A775806D75A427
:103583008075F19075D4FF75904175A5E875F2FFCC
:1035930075D57FF5E1F5E275E3C022E490033FF0D2
:1035A30090033AE004F0E0B4010204F090033AE03F
:1035B300B40208E4F090033F7402F02290033AE06F
:1035C300045401FFF0BF01079001CC7401F0227F86
:1035D3000112339190033F7403F022E490033AF015
:1035E300A3F0A3748CF0E4A3F0A3F0A3F09003473B
:1035F3007402F090034D04F02275A71075C130E4F6
:10360300F5A7F5A9F5A9E5A930E7FB75A90375A900
:1036130003E5A930E7FB22438E04438E025389FB63
:10362300438901E4F58AF58CC2A943B80243F20247
:10363300C28C229003F5E5A7F0E4F5A753917F75BB
:1036430094FF7595FF43910443E680E0F5A722C0FC
:10365300E0C083C0829003F5E5A7F075A710C29F71
:10366300E0F5A7D082D083D0E032E4F5A7EFB40130
:10367300067597027597FFEF70067597DE7597AD20
:1036830022C2EDD2ECD2EF9003737401F02275FAEB
:10369300FF75F9F09002447401F022C2ECC2EFE42A
:1036A300900373F022E4FF1234B97F010234B9129C
:1036B30034E112363602368412000E02369EE4904E
:0436C300006BF02286
:00000001FF
