:020000040000FA
:100000000212A5121BBA021BC7223202000AAD0758
:10001000AC06E4FBFAC3EB9DEA9C500E7FE87E033E
:100020001219250BBB00010A80EB220214FF1217E4
:1000300081900227E0900237F0900228E090023889
:10004000F0900229E0900239F0222202004EC2EB29
:01005000327D
:100053000213B0438E04438E025389FB438901E4A8
:0F006300F58AF58CC2A943B80243F202C28C227F
:1000730002195485A773E4F5A72285A77375A71002
:0700830022E490006BF02263
:10008B000218BCC2EDD2ECD2EF9002417401F02207
:10009B00021BDAE4F0A3F0A3F0A3F0A3F0A3F0A308
:1000AB00F0A3F0A3F022F090001EE075F011A42451
:1000BB0033F582E43400F58322F090001EE075F0F6
:1000CB0011A42435F582E43400F5832275F011EB8D
:1000DB0012103775F011EAA42583F583229001C520
:1000EB00E025E024EAF582E43401F583229001C592
:1000FB00E024E4F582E43401F58322F583E0FF7418
:10010B00842DF58274003CF5832275F00CEB1210F4
:10011B0037EA75F00CA42583F583229001FCFFE4EC
:10012B0033FEC3E0FD9FEE6480F87480982290014B
:10013B00FCE0FEA3E02484F58274003EF583E0220C
:10014B0090001EE075F00CA422900214E02426F51A
:10015B0082E43400F58322EF25E024D7F582E434E2
:10016B0001F58322FF900082E034FFFE900205E050
:10017B00FCA3E0FDC39FEC9E2290001EE075F011E6
:10018B00A42437F582E43400F583E5822290001E27
:10019B00E0FF75F00CA4245DF582E43400F58322B6
:1001AB009001C5E0FF24D1F582E43401F58322EF01
:1001BB0075F00CA42452F582E43400F5832275F01B
:1001CB0011A42430F582E43400F58322900082E000
:1001DB00FEA3E02274842DF582E43400F5832274AF
:1001EB00092FF582E43402F58322E0FFA3E09000AF
:1001FB0022CFF0A3EFF022F0A3E0C4540F48F0A3FA
:10020B00E0C4F854F0C8682275F00CA42454F582AD
:10021B00E43400F5832224F6F582E43401F58322DD
:10022B0090001EE075F011A42436F582E43400F53D
:10023B008322FFE4FCFDFEEB2FFFEE3AFEED39FDD2
:10024B00EC38FC222FF582E43583F583222453F519
:10025B0082E43400F583222458F582E43400F583DC
:10026B0022245CF582E43400F58322E0F8A3E0F964
:10027B00A3E0FAA3E0FB22900073E02423F09000AC
:10028B0072E03400F02275F011A42431F582E434CD
:10029B0000F58322D3900073E09478900072E09481
:1002AB000022F0900214E004F0223AF583E4F00B04
:1002BB0022E0FEA3E0FFC322900206E004F02290AE
:1002CB000205E004F022E0FCA3E0FDA3E0FEA3E0C6
:1002DB00FFE422900024E0FF9001FCE0FEC39F228C
:1002EB009000267406F0900024E0940A222483F5F3
:1002FB008274003E229001FD74FFF0E49001FCF04B
:10030B0022FF900074E0C39F22E0FCA3E0FDD3EF3B
:10031B009DEE9C22E4F0A3F0A3F022C29290007514
:10032B007401F0A3222410F582E43400F5832290AB
:10033B000074E01313543FFF22F09001CBE0FEA3B7
:10034B00E0FF229001FCE004F022E0FF9001FDE0D1
:10035B00229001FDE0FFC322E0900026F0900024E4
:10036B00E02212022BE0FBFD7C002404FEEC339018
:10037B000201F0A3CEF0EB1313543FFFC3ED9FFE2E
:10038B00EC9400A3F0A3CEF01207A71201D7120230
:10039B00F8F583E4F09001FCF0A3F01201D7FFC352
:1003AB009001FDE09F9001FCE09E40030205B1121D
:1003BB00014B120217C083C082120276120139124E
:1003CB00023DD082D083120FFA9001FCE0FEA3E035
:1003DB00FF120140F9FDC3900202E09D900201E083
:1003EB009400503090006BE0702A04F090006EE99E
:1003FB00F07C007D23120F6C900076E02FFF9000B5
:10040B0075E03E900070F0A3EFF0E41200AA9000AC
:10041B006CF0A3F012033A900204E02FFF9002035A
:10042B00E03400FE9001FCE0FCA3E0FD248412010B
:10043B000DE0C39FE49E400302054490006BE06413
:10044B00016003020544F0900074E0940C400E121E
:10045B00029F400912014B1201BFE004F012010A86
:10046B00E090006F1200C4E0F9704790006FE0FF5E
:10047B007E00900072E0FCA3E0FD900076E02DFD85
:10048B00900075E03CCD2FFFEE3DFE90001EE0FD91
:10049B001200B6EEF0A3EFF0ED1200B6E0FFA3E012
:1004AB00900017CFF0A3EFF0ED1200C9E004F002BB
:1004BB00059D90006FE0FF90006EE02FFFE433FE90
:1004CB00900073E02FFF900072E03E9001FFF0A3CD
:1004DB00EFF0E9C3940A5061900070E0FEA3E0FFD7
:1004EB009001FFE0FCA3E0FD900074E0FB1216A767
:1004FB009001FEEFF0F46041E0FF90001EE0FE1271
:10050B0000C9E0FDEE1201882D120250EF1200C45B
:10051B00E0B4011F9001FFE0FFA3E0900019CFF0C2
:10052B00A3EFF0900074E090001BF01200F8E09045
:10053B00001CF01200C5E004F090006BE064017049
:10054B005112028212013912030C5002EFF0900289
:10055B00011202BC9418EE94005037EF25E0FFEE29
:10056B0033FE12030DE49E5029C3900073E09430C8
:10057B00900072E09402501A90006CE475F0011236
:10058B000FD3FEC3E5F09410EE94004005E4900009
:10059B006BF09001FDE004F060030203A69001FCF8
:1005AB00E004F00203A690001EE01201C97401F0F2
:1005BB0022E4900213F090001DE06401707CF09037
:1005CB000215F0900214F090001EE0FF1200C9E03B
:1005DB00FE900214E0FDC39E5020EF1201882D12F5
:1005EB000250E0FFF4600E900215120157EFF090ED
:1005FB000215E004F01202AE80CD900215E09000DF
:10060B00241200B11201F51201ABE060030207A640
:10061B00900024E060030207A6EF1200ECE0FEA3BB
:10062B00E02478FFE43EFE1200B2E0FCA3E0C39F9F
:10063B00EC9E40030207A60207A11200B2E0FEA344
:10064B00E0FF9000221203144007EF9DFFEE9C8009
:10065B000B1200B21202BCED9FFFEC9E9001FCF05E
:10066B00A3EFF0C39001FDE094789001FCE09400BF
:10067B0050109001C5E0120221E41200B11201F5F5
:10068B00801D9001C5E0FF1200FC120363C3940AA6
:10069B005003E004F074F62F1202237401F022E4ED
:1006AB00900214F0900214E0FF12018412024FE04A
:1006BB00FE1201EAEE1202ADE0B40AE8E490021376
:1006CB00F0A3F0900024E0FF900214E0C39F507B56
:1006DB00E4A3F01200C5E0FF900215E0FEC39F50AB
:1006EB006474092E1201EDE0FFF46051120154E025
:1006FB00FED39F4003EE8010120154E0FF900215D1
:10070B00E024091201EDE0C39F9001FEF09001FE81
:10071B00E0C394085027900215E0FF24091201ED65
:10072B00E0FE900213E024FFF582E43401F583EE42
:10073B00F01201EA74FFF0900213E004F09002153E
:10074B00E004F0808E1202AE0206CEE4900214F0AA
:10075B00900213E0FFA3E0FEC39F501874FF2EF529
:10076B0082E43401F583E0FD74262E12015AED125A
:10077B0002AD80DC900024EFF070201200E8E0FE68
:10078B00A3E0242CFFEE3401FEC3900023E09F90E6
:10079B000022E09E5005E49001C8F0229002051261
:1007AB00009E900205F0A3F01201D7FF12017750C3
:1007BB002C12010AE0601C90020BF0900207ECF087
:1007CB00A3EDF0D39408EC9400401290000FE004DA
:1007DB00F0800A1202C370D01202CA80CBE49002DE
:1007EB0005F0A3F0900207E0FEA3E0FF12017750A3
:1007FB001290020B120108EFF01202C370E6120204
:10080B00CA80E1900205E4F0A304F0900083E02499
:10081B00FF12016F501D12010AE0700D74832DF54C
:10082B008274003C120106EFF01202C370DD12025B
:10083B00CA80D8900205E4F0A37405F0900083E021
:10084B0024FE12016F400302093C12010AE0FF7EF5
:10085B00002420FBEE33FA74852DF58274003CF5F1
:10086B0083E0D39BEA1201325003020931EF2430AB
:10087B00FFEE33FE74862DF58274003CF583E0D3D6
:10088B001201305003020931900206E02401FE9060
:10089B000205E03400900207F0A3CEF0900205E0D1
:1008AB00FEA3E0FF2408FDE43EFC12027BC39DEA9D
:1008BB009C507374842F1201422408FFE433FE749E
:1008CB00842BF58274003AF583E0C3120130504556
:1008DB0012014B1201BFE004F0900205E0FFA3E010
:1008EB00900209CFF0A3EFF0900207E0FEA3E0FF28
:1008FB00A312017A5030900205E0FEA3E01202F839
:10090B00120106EFF090020AE004F070DB9002098E
:10091B00E004F080D3900208E004F0700690020728
:10092B00E004F00208A71202C370031202CA020805
:10093B0047229001C412031F9001C8F0A3F0A3F04B
:10094B0090000FF0900016F0FBFA74102BF58274E8
:10095B00001202B5BB00010AEB64064A70EC900072
:10096B007512031FFAFB74782BF58274001202B513
:10097B00BB00010AEB640A4A70ECE4900082F0A31E
:10098B00F0FAFB74842BF58274001202B5BB0001E4
:10099B000ABA01EFBB40EC90006A12009EA3F0A3D1
:1009AB00F090001D12009FFAFB74262BF582740049
:1009BB001202B5BB00010AEB640A4A70ECE4FAFBC5
:1009CB009000301200D7E4F09000311200D7E4F021
:1009DB00A3F09000331200D7E4F0A3F0900035128F
:1009EB0000D7E4F09000361200D7E4F0F567F56815
:1009FB009000371200D7E5822568F582E5833567CD
:100A0B00F583E4F00568E56870020567640A4567DD
:100A1B0070DE90005275F00CEB12103775F00C1263
:100A2B0000E1E4F0900053120115E4F09000541231
:100A3B00011512100600000000900058120115124B
:100A4B0010060000000090005C120115E4F090000D
:100A5B005D120115E4F00BBB00010AEB64024A6066
:100A6B00030209CBE49001E3F0FAFB74D12BF5827E
:100A7B0074013AF583E4F0EB25E0FFEA33FE74D71B
:100A8B002FF58274013EF583E4F0A3F074EA2FF5A1
:100A9B008274013EF583E4F0A3F074F62BF58274B7
:100AAB00013AF583E4F074E42BF58274013AF58393
:100ABB0074FFF00BBB00010AEB64064A70ADE490C7
:100ACB0000171200A5221201D72485F974003E7578
:100ADB006A01F56B896C756D327B017A0079841232
:100AEB0019B1900082A3E024039001FFF09001FC68
:100AFB00F09001FFE0F924301201265051A3EDF0E4
:100B0B009001FFE024309001FD12012950381201B1
:100B1B00DFE0FF9001FCE024841201E2E0FED39FB2
:100B2B00401C9001FCE0FD9001FEEEF09001FDE019
:100B3B00FC1201DFEFF074842C1201E2EEF0900155
:100B4B00FDE004F080BA9001FCE004F080A3E49097
:100B5B0002001200A59001FCE9F09001FFE02410C7
:100B6B001201265050E0FF24841201E2E0FB9002B8
:100B7B0001E02BF0900200E03400F074942FF5822A
:100B8B00E43400F583E0FF900203E02FF0900202C3
:100B9B00E03400F074A42DF582E43400F583E0FF1B
:100BAB00900205E02FF0900204E03400F09001FC7D
:100BBB00E004F080A590020012020B120202120256
:100BCB0002FEA3E0C4540F48FF900204EEF0A3EF23
:100BDB00F0900202E0FCA3E0FDC3EF9DFFEE9CFE54
:100BEB00EF7802CEC313CE13D8F92D90006AF0C361
:100BFB009446400574FFF0802190006AE0FFD39487
:100C0B00064017EF24FA9001FEF0E01313543FF067
:100C1B00F5F0A4FF90006AE02FF090006AE0FFD39C
:100C2B009480400E7480F012014B1201A17403F0FA
:100C3B00801AEFD3941E90001EE075F00C40081242
:100C4B0001A07401F080051201A0E4F090006AE0AD
:100C5B00FF12022BEFF00211229001C4E0B4080046
:100C6B004003020DE4900C77F8282873020C8F02D6
:100C7B000CB2020CC4020CDD020CF5020D1F020DAE
:100C8B0039020D9D1211EF9001C6E0640160030261
:100C9B000DEAF0121881E49001CAF09001C87402B9
:100CAB00F09001C414F0229001CAE0D394004002EA
:100CBB00806B9001C47402F0229001C97402F0128F
:100CCB001A0C121844121A5D121BD19001C4740332
:100CDB00F0229001C9E0D39400400280401200033F
:100CEB00120AD19001C47404F022121A0C1216F4D9
:100CFB0012149B121A5D121BD19001C9740A1203B4
:100D0B004490001EE0120291EEF0A3EFF09001C4AC
:100D1B007405F0229001C9E0D394004004E014F074
:100D2B002212000312036D9001C47406F0221210FC
:100D3B0043120198E06403603C1201BAE0C39416BD
:100D4B00503312014B120258E0C394035027EF1299
:100D5B0002131202D17BB47A53F9F8D3120FE94084
:100D6B001412014B1202621202D17B297A0BF8D3B7
:100D7B00120FE95013E49001C8F012156312014BE6
:100D8B0012026C7401F080031205BC9001C474074D
:100D9B00F02212133490024DE0B401069001C8E02A
:100DAB0004F09001C8E0D39400401FE014120344F8
:100DBB007C007D06120F7E74082DF8E69001CAF0B8
:100DCB0090001EE0045401F0800F120DEB9001CD4A
:100DDB007401F0E49001C4F0229001C47401F0227C
:100DEB001203001202DE50229001C5E0244AF8E6FD
:100DFB00FF74262E12015AE0D39F40099001FC127A
:100E0B00015774FFF012034E80D9E49001FCF012ED
:100E1B0002DE501474262E12015A120355D39F4032
:100E2B0002EFF012034E80E712035C94195022EF8D
:100E3B0094144006E024FDF08017EF64066012EF77
:100E4B006405600DEF640260081200F8E09001FD8C
:100E5B00F09001FDE0FFD39496401A9001C5E0FE9F
:100E6B00120163E0FCA3E04C705374E42E1200FEFD
:100E7B0074FFF08048EFC39428502812035C941938
:100E8B009001C5E050081200FC7402F080051200BE
:100E9B00FCEFF09001C5E01201637403F0A3742022
:100EAB00F0801A12035C94649001C5E0FE1200FC02
:100EBB00EFF0EE1201637401F0A374F4F01203006F
:100ECB009001FCE0FFC39406501474E42F1200FE53
:100EDB00120355D39F4002EFF012034E80E29001B4
:100EEB00E3120355FED39F400FEE9FA3F0D394075D
:100EFB00401F9001E3EEF0229001FDE0FF9001E333
:100F0B00E0C39F9001FEF0D3940540059001E3EF01
:100F1B00F022BB010CE58229F582E5833AF583E0EB
:100F2B00225006E92582F8E622BBFE06E92582F867
:100F3B00E222E58229F582E5833AF583E49322F8F0
:100F4B00BB010DE58229F582E5833AF583E8F022B2
:100F5B005006E92582C8F622BBFE05E92582C8F2B8
:100F6B0022EF8DF0A4A8F0CF8CF0A428CE8DF0A4A6
:100F7B002EFE22BC000BBE0029EF8DF084FFADF0DE
:100F8B0022E4CCF875F008EF2FFFEE33FEEC33FCC8
:100F9B00EE9DEC984005FCEE9DFE0FD5F0E9E4CEFE
:100FAB00FD22EDF8F5F0EE8420D21CFEADF075F0CD
:100FBB0008EF2FFFED33FD4007985006D5F0F222D6
:100FCB00C398FD0FD5F0EA22C5F0F8A3E028F0C5D1
:100FDB00F0F8E582158270021583E038F022EB9F62
:100FEB00F5F0EA9E42F0E99D42F0E89C45F022ECD8
:100FFB00F0A3EDF0A3EEF0A3EFF022A8828583F02F
:10100B00D083D08212101D12101D12101D12101D34
:10101B00E473E493A3C583C5F0C583C8C582C8F048
:10102B00A3C583C5F0C583C8C582C822A42582F594
:10103B0082E5F03583F583229001C5E01201B0E023
:10104B00FFD3940050030210EC1200B2E0FCA3E0BB
:10105B00FDD394F4EC94014032ED9428EC940A50B7
:10106B002A9001C5E0FE1201B0EFC3131200B1E0EC
:10107B00FCA3E0FDEE1200ECECF0A3EDF090000F02
:10108B00E0D39400403AE014F080351200B2120223
:10109B00BC9428EE940A401CEF9450EE94465014E6
:1010AB001201ABE0C313F0EF1200EC740AF0A3745F
:1010BB0028F0800C90000FE0C394085003E004F07C
:1010CB001200E81202BC9414EE94055047EF94F40E
:1010DB00EE9401403F1200E8740AF0A37428F080EC
:1010EB00331200B2E0FEA3E0FFD39450EE944650CF
:1010FB0009C3EF94F4EE9401500E90000FE0C394EB
:10110B00085011E004F0800C90000FE0D3940040E5
:10111B0003E014F0021B74E4900206F0A3F012013A
:10112B00D71202F8F583E4F0900206F0A3F0120157
:10113B00D7FFC3900207E09F900206E09E40030298
:10114B0011EE12014B120262C083C0821202769022
:10115B00020612013C12023DD082D083120FFA908C
:10116B00006AE02404FFE433FE900206E0FCA3E0F7
:10117B00248412010DD312012E401590006BE070E8
:10118B003704F0E4900074F0900072F0A3F0802824
:10119B0012033AEDC39F502090006BE0B40119E4A9
:1011AB00F0900074E0D3940C400E12029F40091291
:1011BB00014B120258E004F090006BE0B4011012E6
:1011CB00028290020612013C12030C5002EFF090C7
:1011DB000207E004F06003021139900206E004F00C
:1011EB0002113922900247E070030212A490024DC3
:1011FB00E0B401079001C67401F02290021AE024BA
:10120B00FC602A147003021293240260030212A4DE
:10121B00121A36E49001CDF09001C604F09002163C
:10122B00E4F0A37482F090021A7404F022D39002BB
:10123B0017E09400900216E09400401A9001CDE064
:10124B006005E4FF1218F4900217E024FFF09002FF
:10125B0016E034FFF0229001C5E0121A02E004F010
:10126B00C3940A401E9001C5E0FF121A02740AF0E3
:10127B0074102FF582E43400F5837401F01219DF3A
:10128B0074FFF0E4FF0218F412002E1216597F01BE
:10129B001218F490021A7403F022120009787FE4FA
:1012AB00F6D8FD7581730212EF0215B5E493A3F81E
:1012BB00E493A34003F68001F208DFF48029E49362
:1012CB00A3F85407240CC8C333C4540F4420C88359
:1012DB004004F456800146F6DFE4800B010204085B
:1012EB001020408090142BE47E019360BCA3FF542C
:1012FB003F30E509541FFEE493A360010ECF54C0A9
:10130B0025E060A840B8E493A3FAE493A3F8E49330
:10131B00A3C8C582C8CAC583CAF0A3C8C582C8CA38
:10132B00C583CADFE9DEE780BE12014B12026CE017
:10133B0064016070900022E0FEA3E0FFF47002EE07
:10134B00F460619001C5E0FD120221E07056ED12D0
:10135B0000EC120314404D900022E0FEA3E0FF9D31
:10136B00FDEE9CFC9001FCF0A3EDF0D3942CEC94DF
:10137B00014031D3EF94B8EE940B40071202EB50BF
:10138B0023801ED39001FDE094909001FCE094012A
:10139B0040071202EB500D80081200F81203637025
:1013AB0003E004F022C0E0C083C082C0D075D0003F
:1013BB00C004C007900077E0FFC3940750081218D1
:1013CB0026E004F080497565007566FF121826E467
:1013DB00F0F56474782564F582E43400F583E0FF5E
:1013EB00E565C39F50028F65E566D39F40028F660C
:1013FB000564E564B408DCC3E5659566FF9000827F
:10140B00E0FCA3E02484F58274003CF583EFF0C28A
:10141B00EDD2ECD007D004D0D0D082D083D0E03244
:10142B000173000608010204070300064A8C8C8C2A
:10143B008C8C00202822019001900190015E00C845
:10144B0000C800B400B400B400960096009600C823
:10145B0000C800C800C800C800C800C800C8140EE7
:10146B00373737372422201C1814131313132D2D41
:10147B002D2D2D2D44025400000000016F00017032
:10148B000001710048022EF00304092828E0FA003D
:10149B00121BE6756714C2927F067E001219250097
:1014AB000000000000000000000000000000000031
:1014BB00000000000000000000000000000000D24F
:1014CB00927F067E0012192500000000000000002C
:1014DB000000000000000000000000000000000001
:1014EB0000001567E567D3940050AB1203267454C4
:1014FB00F0021BE3C0E0C0F0C083C082C0D075D047
:10150B0000C000C001C002C003C004C005C006C0BB
:10151B00079002537401F090024FE475F001120F23
:10152B00D3FEC3E5F09432EE9400400C90024FE4EE
:10153B00F0A3F090024C04F0121983C2CFD007D065
:10154B0006D005D004D003D002D001D000D0D0D02B
:10155B0082D083D0F0D0E032E490001DF09001C532
:10156B00E0FF120221E41200C47401F01201627454
:10157B0003F0A37420F01200E81201F5900016742A
:10158B0001F090002674FFF09001FC7401F09001C3
:10159B00FCE0FFC3940A501174262F12015A74FFFA
:1015AB00F09001FCE004F080E522121B56121AF3B6
:1015BB007F01121B8E121ACE121AA9120056121785
:1015CB003B121607121BE37FC87E0012000E7F2C06
:1015DB007E0112000EE490024DF01217C490021A15
:1015EB007403F0900253E0600E900247E06008E451
:1015FB00900253F0120C647597A580E785A773537F
:10160B00D4EF53D4DF43E30175A720759442759D46
:10161B00087596FE75955643C81053D8EE43D806F9
:10162B0075A71043CE0453F4FB53F6FB75A7207537
:10163B00C81075930C539D0F53D80F43D880539DEF
:10164B00F0439D0853D8F043D80E8573A722E4FFCF
:10165B00FDFC7568011219F52DFDE43CFCD3ED94EE
:10166B00FFEC9400400874012DFD74FF3CFC0568F1
:10167B00E568B406E0D3ED94FFEC94005005C37419
:10168B00FF9DFF90023CEFF0E4F5681219F5FF1295
:10169B001A830568E568C3940840F0228E678F684B
:1016AB008C698D6A7DFFE567C313FF25E02422F863
:1016BB00E6F58308E6F582C3E56A9582E5699583CD
:1016CB004024740E2FF8E6FFEBC39F4019E56878B2
:1016DB0007CEC313CE13D8F9F5688E67FF7C027D56
:1016EB002D120F6CEEFDAF052290001EE0FF1201D4
:1016FB00C9E4F0EF120291E4F0A3F0EF1200B6741C
:10170B00FFF0A3F0EF1200C9E4F090001C74FFF09F
:10171B00E490001BF0900019F0A3F0900017F0A3D9
:10172B00F0FF12018412024F74FFF00FBF0AF32275
:10173B00121B3712093D1217C4E490024DF09002B0
:10174B005104F0A3742CF0E490024CF09001C5F01E
:10175B009001C77403F0E49001CDF0FF9001C7E056
:10176B00FEEFC39E500F741F2FF582E43402F583F6
:10177B00E4F00F80E722E4FB74E42B1219E2E0FFA4
:10178B00D3941E50081219EA7403F08027EFD394F8
:10179B0096501B74E42B1219E2E02405FFE433FE90
:1017AB007C007D0A120F7E1219EAEFF080061219E7
:1017BB00EA7419F00BBB03C0229001C87402F090BD
:1017CB00001D14F0E49001FCF09001FCE0FFC394C9
:1017DB0006501A74E42F1200FE74FFF074D12F120E
:1017EB0001B2740FF09001FCE004F080DC9001E397
:1017FB0074FFF0E49001C4F0020003C2EEC2E8C231
:10180B00E975B20175BC1975B34275DF40E4F5B9E2
:10181B0075C4FF75C3FFF5C6F5C52274782FF58225
:10182B00E43400F583E5BDF09000772275D108F51F
:10183B00BEF5BDD2EF53E6F722120198E4F0120188
:10184B00BAE4F0EF75F00CA4120258E4F0EF75F067
:10185B000CA41202621210060000000090001EE0A1
:10186B00FB12021312100600000000EB75F00CA423
:10187B0012026CE4F022E490001FF0A3F0A3F074CA
:10188B00FFA3F0A3F0E4A3F0900016F090001EF07D
:10189B0090001D04F0E4FFEF1201C9E4F00FBF024A
:1018AB00F6E4FF74262F12015A74FFF00FBF0AF3F0
:1018BB0022C0E0C0D075D000C006C007E59E30E462
:1018CB0003539E6FE5C854C0FF6006F452C8120064
:1018DB004AEF30E604AE928007AE92AF06121BE9D8
:1018EB00D007D006D0D0D0E032BF0102800E9001DD
:1018FB00C5E0B4020790021A7405F0229001C5E00E
:10190B0004F0E0FF9001C7E0FEEF8EF0849001C57C
:10191B00E5F0F090021A7403F02212007DEF7802CA
:10192B00C333CE33CED8F9FFC374FF9FFF74FF9E32
:10193B00FEEFF5A4EEF5A5D29A209F057597A5802D
:10194B00F8C29AC29F8573A722C0E0C083C082C031
:10195B00D0C3900083E0943F900082E09401500C40
:10196B00A3E004F07006900082E004F053917FD066
:10197B00D0D082D083D0E0329001CCE004F070065E
:10198B009001CBE004F0E4FF120162E0FCA3E0D392
:10199B009400EC9400400A12016274FFF5F0120FF0
:1019AB00D30FBF03E3228B678A688969E4FFEFC318
:1019BB00956D501FAB67AA68A9698F82758300125A
:1019CB000F1DAB6AAA6BA96C8F82758300120F4A2D
:1019DB000F80DB2274E42FF582E43401F58322744B
:1019EB00272BF582E43402F5832274362568F582C1
:1019FB00E43402F583E022241FF582E43402F583FC
:101A0B0022E4FFFE74842FF58274003EF583E4F02C
:101A1B000FBF00010EBE01ECBF40E9E4900082F065
:101A2B00A3F0900075F0A3F00200849001C5E014C0
:101A3B00600C14600E2402700FC287C29022C28702
:101A4B00D29022D287C29022C287D290E49001C555
:101A5B00F022C2EEC2E8C2E975B20175BC1D75B3C6
:101A6B001012181575BB0275D10843E60853F3F72E
:101A7B0043F508D2EF02008EAEA775A7208F92E434
:101A8B00F572E5727015E5C85402C313D394004088
:101A9B0005C2C97572017597A580E78EA722120042
:101AAB0076C2C8C2C9C2CCC2CB75CCFF75CDFF758F
:101ABB00CA0C75CBF0D2AD53B8DF43F220D2CA8536
:101ACB0073A72212007DC298C299C29CC29B75A4B7
:101ADB00FF75A5FFE4F5A2F5A353F4EF53F6EF530F
:101AEB00CEEFC29A8573A722E4F5A77580ED75A496
:101AFB009075F1F075D4CF75904075A58775F20F81
:101B0B0075D57F75E3C0F5E1F5E222120076F5910C
:101B1B007594FF7595FF7592717593FF43F3804331
:101B2B00F58053E67F5391FB8573A722E4FF742E58
:101B3B002FF582E43402F583E0FE74362FF582E450
:101B4B003402F583EEF00FBF08E42275A71075C1C0
:101B5B0030E4F5A7F5A9F5A9E5A930E7FB75A903CD
:101B6B0075A903E5A930E7FB2290000FE0D394029F
:101B7B009001C5E040071203307401F022120330CC
:101B8B00E4F022E4F5A7BF01067597027597FFEF06
:101B9B0070067597DE7597AD2212007653917F759F
:101BAB0094FF7595FF43910443E6808573A722123A
:101BBB0000765391FB53E67F8573A722C2ECC2EFED
:101BCB00E4900241F022121B16121BA402008E128B
:101BDB00007DC29F8573A732D2AF22C2AF228F6E18
:011BEB0022D7
:00000001FF
